:100000000C94200C0C94510C0C94510C0C94510C2D
:100010000C94510C0C94510C0C94510C0C94510CEC
:100020000C94510C0C94510C0C94510C0C94510CDC
:100030000C94510C0C94510C0C94510C0C94510CCC
:100040000C94510C0C94AD290C94510C0C94510C43
:100050000C94510C0C94510C0C94EB510C94CF4B10
:100060000C94510C0C9483290C946F290C94510C12
:100070000C94510C0C94510C0C94510C0C94510C8C
:100080000C94510C0C94510C0C94510C0C94510C7C
:100090000C9419230C9479290C94510C0C94510C48
:1000A0000C94510C0C94510C0C94510C0C94510C5C
:1000B0000C94510C0C94510C0C94510C0C94510C4C
:1000C0000C94510C0C94510C0C94510C0C94510C3C
:1000D0000C94510C0C94510C0C94510C0C94510C2C
:1000E0000C94510CFD250226072611261B2694266A
:1000F00025262D2635263F264926532662266C26A0
:100100009426762680268A26595F5C5F4B5F4F5F78
:10011000535F935F605F645F6A5F6E5F725F785F7B
:100120007C5F805F935F865F8A5F8E5F084AD73B04
:100130003BCE016E84BCBFFDC12F3D6C74319ABDB6
:1001400056833DDA3D00C77F11BED9E4BB4C3E91DA
:100150006BAAAABE000000803F05A84CCDB2D44EC9
:10016000B93836A9020C50B9918688083CA6AAAACB
:100170002ABE000000803F000C94865F0C9411267C
:100180000C94935F0C946C260C944B5F0C948A2611
:100190000C9435260C947C5F0C9462260C94762685
:1001A0000C94645F0C94595F0C94B7640C945326C0
:1001B0000C9449260C946A5F0C94785F0C943F264B
:1001C0000C9494260C942D260C94535F0C94FD25CE
:1001D0000C941B260C948A5F0C946E5F0C948E5FBB
:1001E0000C9480260C94605F0C9402260C944F5F54
:1001F0000C94725F0C945C5F0C9407260C94805FE7
:100200000C9425264E414E494E495459494E46CDEF
:10021000CCCC3D0AD7233C17B7D13877CC2B3295BD
:1002200095E6241FB14F0A000020410000C842009B
:10023000401C4620BCBE4CCA1B0E5AAEC59D744322
:100240004F4D4D554E49434154494F4E004452592C
:1002500052554E004552524F525300494E464F00A0
:100260004543484F006F6B00454550524F4D206449
:10027000697361626C65640A00486F6D652025735F
:100280002573257320466972737400546F6F20665E
:1002900061722066726F6D207265666572656E634D
:1002A0006520706F696E740A006469730043290ADF
:1002B0000061626C656420286D696E2074656D70E4
:1002C0002000436F6C6420657874727564657320D8
:1002D000617265200020643A0020693A0020703A7B
:1002E00000496E76616C6964206578747275646526
:1002F000720A0020466C6F773A200046523A00207E
:100300005A0020590020204D61783A200020204DCD
:10031000696E3A2000536F667420656E6473746F63
:1003200070733A20003F4A206F7574206F66207208
:10033000616E67652028302E303120746F20302E9A
:1003400033290A00205400205200416363656C6524
:10035000726174696F6E3A2050002F2F200043485D
:10036000414D4245525F54454D50455241545552BE
:100370004500424142595354455050494E4700416F
:10038000524353004D4F54494F4E5F4D4F444553D8
:1003900000544845524D414C5F50524F54454354D0
:1003A000494F4E004C4F4E475F46494C454E414DDC
:1003B00045004155544F5245504F52545F53445F8E
:1003C00053544154555300534443415244005052F6
:1003D0004F4D50545F535550504F525400454D456A
:1003E0005247454E43595F50415253455200434195
:1003F00053455F4C494748545F4252494748544E21
:1004000045535300544F47474C455F4C4947485468
:100410005300534F4654574152455F504F57455232
:10042000004255494C445F50455243454E54004CA0
:100430004556454C494E475F44415441005A5F5030
:10044000524F42450052554E4F5554004155544F5E
:100450004C4556454C005052494E545F4A4F42005D
:1004600050524F4752455353004155544F524550F7
:100470004F52545F54454D5000564F4C554D4554C6
:1004800052494300454550524F4D0042494E41525A
:10049000595F46494C455F5452414E5346455200C0
:1004A00053455249414C5F584F4E5F584F464600A6
:1004B0004649524D574152455F4E414D453A4D6177
:1004C000726C696E20322E302E372E3220284E6FFD
:1004D0007620313720323032302031373A34393AD1
:1004E00030352920534F555243455F434F44455FB4
:1004F00055524C3A68747470733A2F2F6769746858
:1005000075622E636F6D2F4D61726C696E466972F4
:100510006D776172652F4D61726C696E2050524F1C
:10052000544F434F4C5F56455253494F4E3A312E2C
:1005300030204D414348494E455F545950453A3368
:1005400044205072696E7465722045585452554467
:1005500045525F434F554E543A3120555549443A20
:1005600063656465326132662D343161322D343712
:1005700034382D396231322D633535633632663386
:10058000363766660A004D3131332053004D313124
:10059000322053687574646F776E006F666600442E
:1005A000454255473A0020573A0025697920256988
:1005B00064202569682025696D20256973005072C3
:1005C000696E742074696D653A200047322F473395
:1005D0002062616420706172616D65746572730A76
:1005E00000FFFFFF0000000000000000000000000E
:1005F00060025B0254024D023F02000048420000CC
:1006000048420000804000002100240027002A000A
:100610002D003000330001010000040107010A0130
:100620002121204B494C4C20636175736564206225
:100630007920746F6F206D75636820696E616374D3
:100640006976652074696D65202D20637572726509
:100650006E7420636F6D6D616E643A20004D3431AD
:1006600030004D313132004D313038005072696EFA
:100670007465722073746F70706564206475652092
:10068000746F206572726F72732E204669782074C1
:100690006865206572726F7220616E642075736583
:1006A000204D39393920746F20726573746172740A
:1006B0002E202854656D70657261747572652069AD
:1006C000732072657365742E2053657420697420DD
:1006D00061667465722072657374617274696E67A5
:1006E000290A004E6F20436865636B73756D207730
:1006F000697468206C696E65206E756D6265722C18
:10070000204C617374204C696E653A200063686503
:10071000636B73756D206D69736D617463682C20F4
:100720004C617374204C696E653A20004C696E65AB
:10073000204E756D626572206973206E6F74204C57
:10074000617374204C696E65204E756D6265722B05
:10075000312C204C617374204C696E653A20004D39
:1007600031313000627573793A2070617573656458
:1007700020666F7220696E7075740A0062757379F5
:100780003A2070617573656420666F7220757365B9
:10079000720A00627573793A2070726F63657373C1
:1007A000696E670A005072696E7465722068616CC8
:1007B0007465642E206B696C6C28292063616C6CF5
:1007C0006564210A0020490020204D33303120503B
:1007D000005049442073657474696E67733A002051
:1007E000204D323036205800486F6D65206F6666A8
:1007F0007365743A00204A0020204D323035204283
:1008000000416476616E6365643A20423C6D696EB6
:100810005F7365676D656E745F74696D655F757331
:100820003E20533C6D696E5F6665656472617465F8
:100830003E20543C6D696E5F74726176656C5F66D4
:10084000656564726174653E204A3C6A756E635FDB
:100850006465763E0020204D3230342050004163E4
:1008600063656C65726174696F6E2028756E69745A
:10087000732F7332293A20503C7072696E745F6135
:100880006363656C3E20523C726574726163745F91
:10089000616363656C3E20543C74726176656C5F85
:1008A000616363656C3E0020204D3230312058007A
:1008B0004D6178696D756D20416363656C6572612A
:1008C00074696F6E2028756E6974732F7332293ABC
:1008D0000020450020204D3230332058004D6178F3
:1008E000696D756D20666565647261746573202835
:1008F000756E6974732F73293A0053746570732091
:1009000070657220756E69743A0020440020204D95
:100910003230302053002044697361626C65640A90
:100920000046696C616D656E742073657474696EE0
:1009300067733A0020286D6D29002020473231204E
:100940002020203B20556E69747320696E206D6DE8
:100950000024F4D43050C38E20C2A24017828B7082
:1009600011127A910D816CD90AA861E108C7586605
:1009700007615143061E4B5D05C145A7041A41118D
:1009800004093D9803713931034036DB0265339128
:1009900002D4305402802E1D02632CEE01752AC54C
:1009A00001B028A001102781018F2564012B244B61
:1009B00001E0223401AC211F018D200D01801FFCBC
:1009C00000841EED00971DDF00B81CD200E61BC698
:1009D00000201BBC00641AB200B219A8000A19A0BA
:1009E000006A189900D117910040178B00B5168442
:1009F0000031167E00B31579003A157300C7146FE5
:100A00000058146A00EE1366008813630025135E15
:100A100000C7125B006C12570015125400C111512F
:100A20000070114F0021114B00D61049008D104766
:100A3000004610440002104200C00F4000800F3EEC
:100A400000420F3C00060F3B00CB0E3800930E37E0
:100A5000005C0E3500270E3400F30D3200C10D315D
:100A600000900D3000600D2E00320D2D00050D2C74
:100A700000D90C2B00AE0C2900850C29005C0C273A
:100A800000350C27000E0C2600E80B2400C40B24B4
:100A900000A00B23007D0B23005A0B2100390B21F2
:100AA00000180B2000F80A1F00D90A1E00BB0A1EFE
:100AB000009D0A1D00800A1D00630A1C00470A1BD6
:100AC000002C0A1B00110A1A00F7091A00DD091987
:100AD00000C4091900AB091900920917007B091815
:100AE00000630917004C0916003609160020091684
:100AF000000A091500F5081500E0081400CC0814D8
:100B000000B8081400A4081400900813007D08120F
:100B1000006B081300580812004608120034081130
:100B200000230811001208110001081100F007103D
:100B300000E0071000D0071000C0071000B0070F3A
:100B400000A107100091070E0083070F0074070F24
:100B50000065070E0057070E0049070E003B070D02
:100B6000002E070E0020070D0013070D0006070DCD
:100B700000F9060C00ED060D00E0060C00D4060C92
:100B800000C8060C00BC060C00B0060C00A4060B46
:100B90000099060C008D060B0082060B0077060BF1
:100BA000006C060B0061060A0057060B004C060A93
:100BB0000042060A0038060A002E060A0024060A29
:100BC000001A060A001006090007060A00FD0509BA
:100BD00000F4050900EB050900E2050900D9050943
:100BE00000D0050900C7050900BE050900B50508C4
:100BF00000AD050800A50509009C0508009405083E
:100C0000008C050800840508007C050800740508B0
:100C1000006C050700650508005D0507005605081E
:100C2000004E050700470507004005080038050786
:100C300000310507002A050700230507001C0506EB
:100C400000160507000F0507000805060002050746
:100C500000FB040600F5040700EE040600E80406A5
:100C600000E2040700DB040600D5040600CF0406FA
:100C700000C9040600C3040600BD040600B704064C
:100C800000B1040500AC040600A6040600A004059B
:100C9000009B04060095040500900406008A0405E4
:100CA0000085040500800406007A0405007504052B
:100CB00000700405006B040500660405006104056E
:100CC000005C04050057040500520405004D0405AE
:100CD0000048040500430405003E0404003A0405EE
:100CE0000035040500300404002C0405002704042A
:100CF00000230405001E0404001A04040016040561
:100D000000110404000D0404000904050004040497
:100D10000000040400FC030400F8030400F40304CE
:100D200000F0030400EC030400E8030400E40304FF
:100D300000E0030400DC030400D8030400D403042F
:100D400000D0030400CC030400C8030300C5030360
:100D50000024F404D9201BC40C5C0E9804C4095F61
:100D60000265077101F405F900FB04B3004804872C
:100D700000C10369005803550003034500BE023A51
:100D8000008402310053022A0029022500040220B7
:100D900000E4011C00C8011900AF011700980114FC
:100DA0000084011300710110006101100051010E57
:100DB0000043010D0036010B002B010B0020010B3D
:100DC00000150109000C01090003010800FB0008DF
:100DD00000F3000800EB000700E4000600DE000658
:100DE00000D8000600D2000600CC000500C70005B0
:100DF00000C2000500BD000400B9000400B50004F5
:100E000000B1000400AD000400A9000400A5000327
:100E100000A20003009F0004009B00030098000351
:100E2000009500020093000300900003008D000273
:100E3000008B00030088000200860002008400038B
:100E400000810002007F0002007D0002007B0002A2
:100E500000790002007700010076000200740002B1
:100E60000072000100710002006F0002006D0001BD
:100E7000006C0002006A00010069000200670001C6
:100E800000660001006500010064000200620001CC
:100E90000061000100600001005F0002005D0001D0
:100EA000005C0001005B0001005A000100590001D4
:100EB00000580001005700010056000100550001D4
:100EC00000540001005300000053000100520001D3
:100ED0000051000100500001004F0001004E0000D1
:100EE000004E0001004D0001004C0001004B0000CD
:100EF000004B0001004A00010049000100480000C9
:100F000000480001004700010046000000460001C3
:100F100000450000004500010044000100430000BE
:100F200000430001004200000042000100410000B7
:100F30000041000100400001003F0000003F0001AF
:100F4000003E0000003E0001003D0000003D0001A9
:100F5000003C0000003C0000003C0001003B0000A1
:100F6000003B0001003A0000003A00010039000097
:100F7000003900010038000000380000003800018E
:100F80000037000000370001003600000036000086
:100F9000003600010035000000350000003500017A
:100FA0000034000000340000003400010033000071
:100FB0000033000000330001003200000032000066
:100FC000003200010031000000310000003100015A
:100FD000003000000030000000300001002F000051
:100FE000002F0000002F0000002F0001002E000045
:100FF000002E0000002E0001002D0000002D00003A
:10100000002D0000002D0001002C0000002C00002D
:10101000002C0000002C0001002B0000002B000021
:10102000002B0000002B0001002A0000002A000015
:10103000002A0000002A0001002900000029000009
:1010400000290000002900000029000100280000FC
:1010500000280000002800000028000000280001EF
:1010600000270000002700000027000000270000E4
:1010700000270001002600000026000000260000D6
:1010800000260000002600010025000000250000C9
:1010900000250000002500000025000000250001BB
:1010A00000240000002400000024000000240000B0
:1010B00000240001002300000023000000230000A2
:1010C0000023000000230000002300000023000193
:1010D0000022000000220000002200000022000088
:1010E0000022000000220001002100000021000079
:1010F000002100000021000000210000002100006C
:10110000002100010020000000200000002000005D
:10111000002000000020000000200000002000004F
:1011200000200001001F0000001F0000001F000041
:10113000001F0000001F0000001F0000001F000132
:10114000001E0000001E0000001E0000001E000027
:1011500000043700001E290000511B000058100039
:101160000010090000CC04000078020000410100DA
:101170000020746F6F206C6F6E67206578747275D5
:1011800073696F6E2070726576656E7465640A00AF
:1011900020636F6C6420657874727573696F6E205C
:1011A00070726576656E7465640A00DB0FC93F4531
:1011B000BCDA3F8FB30240FCF0274056946140FEFA
:1011C0004B9B4084A5D840E0231841346A5641E83F
:1011D00059974164DBD5416E271742B4B75542CECB
:1011E0001A9742C8AED542B5885A43D40684BFA6E2
:1011F0005FA7BF7443E0BF10B11AC01C2C58C0E8F1
:10120000F697C0B849D6C04E4E17C124D355C180F9
:101210002497C1A0B5D5C1121A17C244AE55C278E1
:101220001797C26CACD5C267885AC3526573656E96
:10123000643A200023646566696E65204445464132
:10124000554C545F004B6420004B6920004B7020CC
:1012500000504944204175746F74756E652066694D
:101260006E69736865642120507574207468652008
:101270006C617374204B702C204B6920616E64206C
:101280004B6420636F6E7374616E74732066726F4B
:101290006D2062656C6F7720696E746F20436F6E8E
:1012A00066696775726174696F6E2E680A005049CD
:1012B00044204175746F74756E65206661696C6554
:1012C00064212074696D656F75740A000A20436C8F
:1012D000617373696320504944200A00204B643ACB
:1012E0002000204B693A2000204B703A2000205407
:1012F000753A2000204B753A2000206D61783A2025
:1013000000206D696E3A200020643A200020626956
:1013100061733A2000504944204175746F74756EB2
:10132000652073746172740A0050494420417574D9
:101330006F74756E65206661696C65642120546503
:101340006D706572617475726520746F6F20686965
:1013500067680A00504944204175746F74756E6562
:10136000206661696C65642120426164206578743F
:101370007275646572206E756D6265720A006F70B9
:10138000656E00545249474745524544007A5F6DA7
:10139000696E00795F6D696E00785F6D696E0052ED
:1013A00065706F7274696E6720656E6473746F70B8
:1013B000207374617475730A00486F6D696E6720DD
:1013C0004661696C65640070012C0190012701B0D1
:1013D000012201C0011D01F00118011002130130AA
:1013E000020E016002090190020401C002FF000028
:1013F00003FA004003F5008003F000D003EB002067
:1014000004E6007004E100E004DC004005D700C001
:1014100005D2004006CD00D006C8008007C30030CA
:1014200008BE00F008B900C009B400B00AAF00B0AF
:101430000BAA00D00CA500000EA000500F9B00C00E
:101440001096005012910000148C00C0158700B057
:10145000178200B0197D00D01B7800001E73004079
:10146000206E0090226900F024640040275F009005
:10147000295A00E02B5500102E500020304B001050
:10148000324600E033410090353C001037370070A1
:10149000383200A0392D00B03A2800A03B2300606C
:1014A0003C1E00103D1900903D1400103E0F0070CE
:1014B0003E0A00C03E0500003F0000403FFBFF80A9
:1014C0003FF6FFC03FF1FF2020506C616E6E6572E9
:1014D00042756666657242797465733A20002046EB
:1014E000726565204D656D6F72793A2000436F6DAE
:1014F00070696C65643A204E6F7620313720323047
:1015000032300A00204C6173742055706461746538
:10151000643A20323032302D31302D3135207C206C
:10152000417574686F723A203344435020546561AA
:101530006D0A00322E302E372E320A004D61726C49
:10154000696E0020536F667477617265205265730F
:1015500065740A00205761746368646F6720526580
:101560007365740A002042726F776E206F75742065
:1015700052657365740A002045787465726E616CFB
:101580002052657365740A00506F77657255700A52
:1015900000656E6473746F7073206869743A20001C
:1015A0006563686F3A004572726F723A00204D3978
:1015B0003220580020496E76616C69642065787429
:1015C000727564657220004361703A0020436F7544
:1015D0006E7420583A00453100626564002C207317
:1015E000797374656D2073746F7070656421204821
:1015F00065617465725F49443A2000544845524D14
:10160000414C2052554E4157415900546865726D06
:10161000616C2052756E617761790048656174690B
:101620006E67204661696C65640048656174696E27
:1016300067206661696C656400202D20496E7661C3
:101640006C6964206578747275646572206E756D5E
:1016500062657220210A004572723A204D41585449
:10166000454D50004D415854454D502074726967A6
:101670006765726564004572723A204D494E544563
:101680004D50004D494E54454D5020747269676766
:101690006572656400202F0020403A005761726E29
:1016A000696E673A20486F6D696E672042756D708C
:1016B0002044697669736F72203C20310A004861CA
:1016C0007264636F6465642044656661756C742040
:1016D00053657474696E6773204C6F616465640A46
:1016E000003B20000202040000A0400000A04000D7
:1016F0000000400000484300004843000048430009
:10170000009643000096430000A0400000C841003E
:1017100000A0420000A04200007A450000FA43B851
:101720000B0000B80B00006400000010270000222E
:101730000A00556E6B6E6F776E20636F6D6D616E14
:10174000643A20220020453A00205A3A0020593AB3
:101750000000002200250028002B002E003100345C
:101760000002010000050108010B01050505050740
:101770000508080808020202020A0A08080404040C
:101780000401010101010101010303030303030338
:1017900003040707070C0C0C0C0C0C0C0C020202C7
:1017A0000206060606060606060B0B0B0B0B0B0BBA
:1017B0000B01021020200808102040102040800259
:1017C0000102010804020101020408102040808087
:1017D000402010080402018004020180402010080B
:1017E00004020108040201010204081020408001E3
:1017F0000204081020408000000A0B02090C0D0EA4
:1018000008070304010000000000000000000000C1
:1018100000000000000000000000000000000000C8
:101820000000001211100000000000000000000085
:101830000000000000000000000000000000B7648D
:1018400011241FBECFEFD1E2DEBFCDBF00E00CBF41
:1018500012E0A0E0B2E0E8E4F1EE00E00BBF02C06D
:1018600007900D92A437B107D9F72CE0A4E7B2E0B6
:1018700001C01D92A53BB207E1F71CE0C0E2DCE02D
:1018800000E006C021970109802FFE010E945D6DD6
:10189000CF31D10780E00807A9F70E947C600C9443
:1018A000A2700C9400002F923F924F925F926F9221
:1018B0007F928F929F92AF92BF92CF92DF92EF92E0
:1018C000FF920F931F93CF93DF93CDB7DEB7C05531
:1018D000D1090FB6F894DEBF0FBECDBF2091DB0259
:1018E0002F962FAF2F9721E02093DB028091DA0211
:1018F0008D3409F46BC2843511F40C94F7198734D4
:1019000011F00C94371A2090D8023090D90234E0AC
:101910002316310409F499C164F437FE02C00C9413
:10192000371A8091D60252E0251631040CF001C11D
:1019300031C08AE52816310409F4D6C16CF4A5E15A
:101940002A16310411F40C94391ABCE12B16310417
:1019500009F4BAC10C94371AEBE52E16310409F4D8
:10196000C7C1FCE52F16310411F00C94371A69E455
:10197000262E62E0362E71EBE72E72E0F72EADE5F3
:10198000BCE0BB8FAA8FEDE6CE2EECE0DE2E00E0B1
:1019900010E0ECC1813011F00C94391A0E946A4EAB
:1019A00086EC92E00E9437448091C10883FD85C097
:1019B0002091690C30916A0C40916B0C50916C0C29
:1019C0006091D2027091D3028091D4029091D5029D
:1019D0000E94FD68882309F470C08091370481114A
:1019E0001BC060913C0470913D0480913E04909135
:1019F0003F040E94E46E2091300230913102215068
:101A000031096217730744F40E94735080E991E131
:101A10000E94554F11E001C010E02091690C3091F7
:101A20006A0C40916B0C50916C0C6091D2027091D9
:101A3000D3028091D4029091D5020E94776D6B0100
:101A40007C0120E030E0A9010E94D86F87FF04C02C
:101A5000F7FAF094F7F8F09420912C0230912D02CF
:101A600040912E0250912F02C701B6010E94636976
:101A700020E030E048E453E40E94D86F18163CF4AC
:101A80000E94735081E791E10E94554F02C01123DB
:101A9000A1F08091D2029091D302A091D402B09192
:101AA000D5028093690C90936A0CA0936B0CB09351
:101AB0006C0C82ED92E00E94E65A2AE037ED43E298
:101AC0005CE360912402709125028091260290913E
:101AD00027020E9463696B017C0160912202709170
:101AE0002302072E000C880B990B0E9404699B01AE
:101AF000AC01C701B6010E94636969837A838B8355
:101B00009C838E010F5F1F4F22ED32E04EEC52E0BE
:101B10006AEC72E086EC92E00E94226080E1E6ECE2
:101B2000F2E0ADE5BCE001900D928A95E1F70C94EE
:101B3000391A813011F00C94391A0E946A4E82E5EC
:101B40000E945D4E882309F44EC00E94D84D6B015F
:101B50007C0120E030E0A9010E94FD68882311F497
:101B60000C94001B20915D0C30915E0C40915F0C39
:101B70005091600C2A8F3B8F4C8F5D8F8091610C50
:101B80009091620CA091630CB091640C8E8F9F8F2A
:101B9000A8A3B9A38090C6029090C702A090C802E3
:101BA000B090C9024090CA025090CB026090CC0223
:101BB0007090CD02A50194016A8D7B8D8C8D9D8DD9
:101BC0000E94FD6881110C94411AA30192016E8D4F
:101BD0007F8D88A199A10E94FD68882311F40C943F
:101BE000001B0C94411A89E40E945D4E882329F061
:101BF0000E94D84D6B017C0103C0C12CD12C760111
:101C00008AE40E945D4E882311F40C94071B0E9405
:101C1000D84D6AA37BA38CA39DA320E030E0A9014B
:101C2000C701B6010E94FD6881110C94141B20E0CD
:101C300030E0A9016AA17BA18CA19DA10E94FD6851
:101C400081110C94141B0C94001B80E50E945D4EC6
:101C5000882379F08091C0029091C102009749F0E9
:101C60004AE050E060E070E00E9474676B017C0124
:101C700003C0C12CD12C760183E50E945D4E8823E0
:101C800061F00E94D84D20E030E04AE754E40E9421
:101C900063690E94EB6E6B017C010E940B580E94ED
:101CA000C34BC60ED71EE81EF91E0E94C34BDC01B3
:101CB000CB018C199D09AE09BF09B7FD02C00C9478
:101CC000391A0E944A23F1CF8091BF028770873072
:101CD00011F00C945D1960E08FE40E941C4F81119B
:101CE0000C94391A0C945D191092D7020C94391A7D
:101CF0008FE0FDC50E94D84D2B013C01133049F007
:101D0000D6012D913D914D915C910E94776D2B01F3
:101D10003C01EA8DFB8D2081318142815381C301D9
:101D2000B2010E94776D4B015C012DEB37E346E871
:101D300055EB0E94D86F87FD21C02DEB37E346E8B5
:101D400055E3C501B4010E94FD681816BCF01F5F81
:101D5000F4E0EF0EF11C2A8D3B8D2C5F3F4F3B8F43
:101D60002A8F34E0C30ED11C143031F1F10181917E
:101D70001F010E945D4E882351F3BCCF133051F4F4
:101D80004092690C50926A0C60926B0C70926C0CD1
:101D900001E0DDCFA5019401D7016D917D918D9179
:101DA0009C910E94786DF701608371838283938395
:101DB000812F0E944F43CBCF002311F40C94D819EC
:101DC00089E69CE00E94E65A0C94D8198091D802CA
:101DD0009091D9028537910511F40C94391A0CF0C1
:101DE000FDC08C35910509F4DEC5D4F58D3491051F
:101DF00009F453C2C4F48F31910509F492C14CF433
:101E00008131910509F479C1429709F473C50C94A5
:101E1000371A8B34910509F427C28C34910509F4E3
:101E200027C20C94371A8335910509F45CC574F404
:101E30008135910509F448C58235910511F00C945E
:101E4000371A8091D7028F7D806151C58435910505
:101E500009F450C58535910509F482C50C94371AEB
:101E60008D36910509F442C2E4F48A36910509F4ED
:101E70002CC454F48836910509F413C289369105AF
:101E800009F401C40C94371A8B36910509F43EC449
:101E90008C36910511F00C94371A109207020C94AD
:101EA000391A8037910509F4A9C454F48E36910586
:101EB00009F434C48F36910509F44DC40C94371AD3
:101EC0008237910509F4F9C50CF4A2C48337910552
:101ED00011F00C94371A80EB94E00E94554F60E0AB
:101EE00080EA94E00E94A44F60E08BE894E00E94B6
:101EF000A44F60E084E894E00E94A44F61E089E789
:101F000094E00E94A44F61E089E694E00E94A44F0F
:101F100060E080E694E00E94A44F61E086E594E0F2
:101F20000E94A44F60E08CE494E00E94A44F60E023
:101F300085E494E00E94A44F60E08DE394E00E9469
:101F4000A44F60E08FE294E00E94A44F60E081E241
:101F500094E00E94A44F60E082E194E00E94A44FCC
:101F600060E084E094E00E94A44F60E08EEE93E095
:101F70000E94A44F60E08DED93E00E94A44F60E0CA
:101F80008EEC93E00E94A44F60E087EC93E00E9407
:101F9000A44F60E082EB93E00E94A44F60E084EAEB
:101FA00093E00E94A44F61E081E993E00E94A44F76
:101FB00060E084E893E00E94A44F61E08FE793E043
:101FC0000E94A44F60E082E793E00E94A44F60E08B
:101FD0008EE593E00E94A44F0C94391A8C3D910534
:101FE00009F48BC7E4F5883C910509F4D4C5E4F401
:101FF0008837910509F4C3C56CF48637910509F457
:1020000063C58737910511F00C94371A0E94B145CA
:102010000C94391A8937910509F4B6C58B399105A5
:1020200009F42CC40C94371A8C3C910509F43FC672
:1020300054F4893C910509F4F5C58B3C910509F4EC
:1020400017C60C94371A8E3C910509F474C60CF42B
:102050005FC6833D910509F48BC60C94371A8A3903
:1020600041E0940709F4D1C304F58E32A1E09A0748
:1020700011F40C94AF1854F48D3D910509F46EC71A
:102080008D32914009F4E7C70C94371A8F32F1E092
:102090009F0711F40C94F1188039914011F00C94C1
:1020A000371A0E940B580C94391A853F31E0930778
:1020B00011F40C94DB198CF48C3A51E0950711F46F
:1020C0000C94F418843F914011F00C94371A0E943C
:1020D0006F5088E692E00C94041B873FB1E09B07A9
:1020E00011F40C94E21914F40C94DF19873E934018
:1020F00011F40C94EB190C94371A8091AD0284FF03
:1021000002C00C94651F8091AF0287FF02C00C943F
:10211000651F8091B002837011F00C94651F0C94C0
:10212000801F0E94D8457B018C0120E831E541E009
:1021300050E00E94EE6CC9016DE671E00E942A6DCC
:102140004B015C01C801B70120E13EE040E050E0F6
:102150000E94EE6CCA01B90128E130E040E050E095
:102160000E94EE6C762E672EC62ED72E5CE3252EAF
:10217000312C412C512CC801B701A20191010E94C0
:10218000EE6CF62EE72ECA01B901A20191010E9460
:10219000EE6CCB018E010F5F1F4F8114910499F0FB
:1021A000EF92FF927F936F936F927F92BF92AF9265
:1021B0009F928F928AEA95E09F938F931F930F933C
:1021C0000E94CE6813C0A114B104B1F0EF92FF9247
:1021D0007F936F936F927F92BF92AF928EEA95E05A
:1021E0009F938F931F930F930E94CE680FB6F8941E
:1021F000DEBF0FBECDBF30C0CD2879F0EF92FF9289
:102200007F936F936F927F9282EB95E09F938F9372
:102210001F930F930E94CE68E9CF892B69F0EF924C
:10222000FF927F936F9386EB95E09F938F931F931D
:102230000F930E94CE68DACFEF92FF928AEB95E07F
:102240009F938F931F930F930E94CE680F900F90D0
:102250000F900F900F900F900E947350B8018EEB6B
:1022600095E00E944A506BC70E9427460C94391A89
:102270008091AB02813011F00C94391A82E0809386
:10228000AB020E94C34B6093A7027093A802809395
:10229000A9029093AA020C94391A0E944B460C94FE
:1022A000391A8091C10883FF02C00C94391A0E9428
:1022B000775087FF02C00C94391A83E50E945D4E67
:1022C000882381F00E94D84D0E94E46ECB010E94C9
:1022D000275180914004909141048635910514F472
:1022E0000C94891F0E9485570C94391A8091C1085B
:1022F00083FF02C00C94391A0E9477508AAF87FF7F
:1023000002C00C94391A83E50E945D4E8EAF811194
:102310000C948D1F82E50E945D4E81110C948D1FDF
:1023200010E00E948557112311F40C94391AB091D2
:10233000A6026196BFAF61971092A60281E08093DA
:1023400007021AA21BA21CA21DA21AAA1BAA1CAA3F
:102350001DAA23961FAE2397ECE32796EFAF27978E
:10236000FCE12B96FFAF2B9726E460962FAF60978A
:10237000C12CD12C30E8E32E4FEBF42E1E8E31E031
:102380003EAB812C912C540160914004709141042A
:10239000072E000C880B990B0E940469162F072F3B
:1023A000382E292E9601A7010E94FD68882321F16D
:1023B00020913C0430913D0440913E0450913F04F3
:1023C0008EAD612F702F811109C0832D922D0E9437
:1023D000FD68881F8827881F8E8F14C0832D922D3B
:1023E0000E94FD6887FF0DC080910702882309F4D1
:1023F00044C11092070241C11C2D0D2D3E2C2F2CE3
:1024000001C01E8E0E94C34B6B017C01DC01CB011D
:102410002AA93BA94CA95DA9821B930BA40BB50B60
:10242000B7FD69C0D701C60188519C4FAF4FBF4F60
:102430008AAB9BABACABBDAB8AAD0E94685186EA60
:1024400095E00E94554F9091AC029A8F81149104AF
:10245000A104B10489F124013501A0E14A0EA7E2EB
:102460005A1E611C711C992399F09F3789F0C30192
:10247000B2016C197D098E099F0928EE33E040E016
:1024800050E00E94EE6CCA01B9010E94612223C093
:10249000C301B2016C197D098E099F0928EE33E052
:1024A00040E050E00E94EE6CCA01B9010E94CB28C6
:1024B000BA8DBB2381F0DBCFEA8DEE2331F0EF370D
:1024C00021F08FE30E94ED2106C08FE30E94432399
:1024D000FA8DF111F6CF7090AC02772039F02FE72A
:1024E000721621F08AE00E94ED2105C08AE00E9468
:1024F00043237110F7CF0E944A230E94C34B60937D
:10250000C2027093C3028093C4029093C5023091BB
:102510003C043A8F40913D044EA350913E045AA78B
:1025200080913F048EA7232F342F452F582F612FE2
:10253000702F832D922D0E94776D2B013C0120E09E
:1025400030E0A9010E94D86F87FF04C077FA709429
:1025500077F8709481149104A104B104E1F420E0AF
:1025600030E040E85FE3C301B2010E94FD6887FFED
:102570001EC09EA9992329F085E09DE0A0E0B0E06F
:1025800003C080E090E0DC0146015701880E991EEF
:10259000AA1EBB1E0CC020E030E040E450E4C301A2
:1025A000B2010E94D86F181614F446015701AE8D7F
:1025B000AA2309F445C02AA13BA14CA15DA1211584
:1025C00031054105510541F0D701C601821B930B2E
:1025D000A40BB50BB7FD34C02A8D3EA14AA55EA55C
:1025E00023966FAD239727967FAD27972B968FADB8
:1025F0002B9760969FAD60970E94776D20E030E04A
:1026000040EC5FE30E94FD6887FDEECED701C60176
:10261000805A9541AF4FBF4F8AA39BA3ACA3BDA3E4
:102620009A8D23969FAF2397AEA12796AFAF27979A
:10263000BAA52B96BFAF2B97EEA56096EFAF60972C
:1026400080910702882309F4CFCE81149104A1045C
:10265000B10431F41EAAC12ED02EE32CF22C94CE5C
:10266000F0E1CF1AF7E2DF0AE108F108C818D9084B
:10267000EA08FB08F7FCEECFB7CE61962FAD619765
:102680002093A602F6C60E947750182F87FD16C029
:1026900085E692E00E94554F812F0E94685110916B
:1026A000AC02112331F01F3721F08AE00E94ED21A6
:1026B00005C08AE00E9443231111F7CF2F963FAD4A
:1026C0002F973093DB020C94102180E50E941B6051
:1026D0008111CFC681E40E940F4E882321F06091C2
:1026E0002604062F02C00FEF10E083E50E945D4E26
:1026F000882349F00E94A44D8B016F3F710519F0AA
:1027000010F00FEF10E000932604B3C680E50E949E
:102710001B608111AEC610922604ABC68EE40E94E7
:102720005D4E882309F4A5C6E091A502F0E0EE0F06
:10273000FF1FE356FD4F008111810E94A44D000F41
:10274000111F000F111FF801EB56FD4F60837183BD
:10275000828393838EC683E50E940F4E882329F0DF
:1027600083E50E941B608093C1080E9473508FE92B
:1027700095E00E94554F8091C1088823D1F1B0EFB8
:10278000EB2EB5E0FB2E00E010E020E08091C108C8
:1027900090E0A0E0B0E0002E04C0B695A795979514
:1027A00087950A94D2F780FF1BC0CC24C394C20E35
:1027B000222381F0D090AC02DD2039F04FE7D4160F
:1027C00021F08CE20E94ED2105C08CE20E9443239F
:1027D000D110F7CFF701859194910E94554F2C2D80
:1027E0000F5F1F4F52E0E50EF11C0530110571F629
:1027F000A6C48BE995E00E94554FA1C441E060E07A
:1028000070E08DE895E00E9445210E946E2131C65E
:1028100083E50E945D4E882359F00E94B44D282F15
:1028200030E02D3331050CF08CE38093060221C695
:102830000E947350C0900602D12CE12CF12C86E846
:1028400095E00E94554F1091AC02112371F01F3793
:1028500061F04AE0C701B6010E94F4211F3709F474
:1028600072C48AE00E94ED2104C64AE0C701B601A5
:102870000E945E28112309F466C4EBCF83E50E9411
:102880005D4E882309F4F5C50E94B44D182F90E0E1
:10289000CD970CF01CE3109394020E94C34B6B0184
:1028A0007C01212F30E0A8EEB3E00E941B6DC60E24
:1028B000D71EE81EF91EC0929002D0929102E092BB
:1028C0009202F0929302D5C50E9423520E944B4679
:1028D0000E941B581092260468EE73E080E090E09E
:1028E0000E94314FC6C58091D7028F7E806280934F
:1028F000D702BFC583E50E945D4E8823E9F00E94A0
:10290000C34B6093C2027093C3028093C40290933E
:10291000C5020E94D84D20E030E04AE754E40E940E
:1029200063690E94EB6E60930202709303028093CE
:102930000402909305029DC58091AD0284FF02C000
:102940000C94A31F8091AF0287FF02C00C94A31FB9
:102950008091B002837011F00C94A31F0C94D41FCB
:1029600083E50E940F4E882309F483C50E94C34B60
:102970006093C2027093C3028093C4029093C50215
:102980000E94D84D20E030E04AE754E40E94636999
:102990000E94EB6E60938B0270938C0280938D0289
:1029A00090938E0266C50E94775087FD62C5909114
:1029B000AD0294FD04C09091AF0297FF0AC0F9E404
:1029C000CF2EF2E0DF2EA2ECEA2EA8E0FA2E10E0E5
:1029D00009C09091B002937091F7682F81E00E9436
:1029E000D15047C5D6018D916D010E945D4E88235F
:1029F00009F459C0133009F04FC00E94D84D4B0163
:102A00005C0120E030E040EA51E40E94FD6887FF6D
:102A10003AC0A50194016091E2087091E3088091A9
:102A2000E4089091E5080E94726E2B013C019B0125
:102A3000AC016091F2087091F3088091F4089091D4
:102A4000F5080E9463696093F2087093F30880931D
:102A5000F4089093F50860911E0470911F04809112
:102A60002004909121040E940269A30192010E9416
:102A700063690E94EB6E60931E0470931F04809341
:102A80002004909321048092E2089092E308A0929F
:102A9000E408B092E50807C00E94D84DF701648BA6
:102AA000758B868B978B1F5FF4E0EF0EF11C143053
:102AB00009F098CF0E941B5CDCC40E94A85F8BE9E0
:102AC0009CE00E940657D5C40091890210918A02A9
:102AD00024E08FEFF12C30E0215039F1D8019C91A6
:102AE000492F4B7F413429F411964C914133E9F43D
:102AF00009C09035D1F4F801918190539A30A8F42F
:102B0000892F08C0913421F0953421F431E002C0BE
:102B1000FF24F394A8014E5F5F4F8A014F5F5F4F20
:102B2000D8019C919032C9F3D7CFE090AC028330AA
:102B300050F4882329F091E0813019F490E001C02D
:102B40009FE79093AC0231110E947350FF2021F057
:102B50008AE593E00E94554FF090AC02FF2039F0D7
:102B6000BFE7FB1621F0C8010E94F82205C0C8018A
:102B70000E946229F110F7CFE092AC027AC4209350
:102B8000BE022093BD0204C01092BE021092BD028C
:102B90000E94CD456EC40E947750182F87FD69C4EE
:102BA0000091880284E40E945D4E882311F40C9405
:102BB000D71F0E94D84D6B017C0120E030E0A901B5
:102BC0000E94FD68882341F124E01202F0011124E3
:102BD000EC57FD4FC082D182E282F38220E030E0E8
:102BE000A901609184027091850280918602909182
:102BF00087020E94FD6881110CC080E090E0A0EE89
:102C0000BFE38093840290938502A0938602B093E1
:102C1000870201E00C94D71F80E0809388020E9415
:102C20002C5827C40E94775087FD23C479E4E72EEF
:102C300072E0F72E02EC18E0E2EDCE2EE8E0DE2E98
:102C4000D7018D917D010E940F4E882359F00E947B
:102C5000D84D0E94EB6EF801608371838283938369
:102C60000E94C4570C5F1F4FC016D10649F701C41C
:102C70000E94775087FDFDC369E4E62E62E0F62EE0
:102C800002EC18E0D7018D917D010E940F4E882340
:102C900039F00E94D84DF80164A375A386A397A3C9
:102CA0000C5F1F4FF8E0023D1F0761F7E2C3809100
:102CB000AE0287FF02C00C94DD1F8091AF028E70C0
:102CC00011F00C94DD1F4091F6085091F7086091C7
:102CD000F8087091F9088AE493E00E94E14F40916E
:102CE000FA085091FB086091FC087091FD0887E498
:102CF00093E00E94E14F4091FE085091FF086091DF
:102D000000097091010984E493E00E94E14F17C229
:102D10008091AD0281FF02C00C9423208091AE020D
:102D200081FF02C00C9423208091AF028C7011F0BF
:102D30000C9423209EC358E7E52E52E0F52E10E0B8
:102D400088E5810F0E940F4E882359F00E94D84DCC
:102D5000D7016D937D938D939C931397812F0E9440
:102D60004F431F5FB4E0EB0EF11C133049F720C353
:102D700040906D0C50906E0C60906F0C7090700CC9
:102D800020910A0230910B0240910C0250910D02E9
:102D9000C301B2010E94786D6A8F7B8F8C8F9D8FEB
:102DA0008090710C9090720CA090730CB090740C89
:102DB00020910E0230910F024091100250911102A9
:102DC000C501B4010E94786D6E8F7F8F88A399A38F
:102DD000C090750CD090760CE090770CF090780C49
:102DE0002091120230911302409114025091150269
:102DF000C701B6010E94786D6AA37BA38CA39DA333
:102E00002091160230911702409118025091190238
:102E1000C301B2010E94786D2B013C0120911A027E
:102E200030911B0240911C0250911D02C501B4015A
:102E30000E94786D4B015C0120911E0230911F02AF
:102E40004091200250912102C701B6010E94786D85
:102E50006B017C010E94735085E193E00E94554F05
:102E600083E50E940F4E882321F00E94C84D809375
:102E7000080280910802882319F08AE492E002C0D7
:102E80008CEA94E00E94554F8DE093E00E94554FEC
:102E90004A8D5B8D6C8D7D8D8DEA98E00E94E14FAF
:102EA0004E8D5F8D68A179A182E093E00E94E14F91
:102EB0004AA15BA16CA17DA18FEF92E00E94E14F3E
:102EC0008CE593E00E94554F85E093E00E94554FBA
:102ED000B301A2018DEA98E00E94E14FB501A4017F
:102EE00082E093E00E94E14FB701A6018FEF92E0EC
:102EF0000E94E14F0E94E930BCC283E50E945D4E12
:102F0000882331F00E94A44D709323026093220223
:102F10008091AD029091AE02A091AF02B091B0024B
:102F2000892B8A2B8B2B09F0A4C26091220270910D
:102F300023028BEF92E00E9429501091AC021123E2
:102F400031F01F3721F085E20E94ED2187CC85E228
:102F50000E944323112309F4F6C0F5CF0E94775055
:102F6000E82E87FD86C283E50E945D4E0E2D0E2C55
:102F7000000C110B882369F10E94A44DF801EE0F9B
:102F8000FF1FE050FE4F71836083000F111F000F81
:102F9000111FF801E45DFD4F7F01072E000C880B27
:102FA000990B0E9404692AE037ED43E25CE30E943A
:102FB0006369F801EC58FD4F2081318142815381D2
:102FC0000E946369D7016D937D938D939C931397B2
:102FD00050C20E947350F090AC02B0E3EB0EFF20A1
:102FE00051F0EFE7FE1639F085E40E94ED21FFE78E
:102FF000FF120BC005C085E40E944323F110F4CFFB
:103000008E2D0E944323FF2019F08E2D0E94ED216A
:10301000000F111FF801E050FE4F6081718183EFB6
:1030200092E00E942950FF2051F02FE7F21639F06C
:1030300085E20E94ED213FE7F31213CC05C085E243
:103040000E944323F110F4CF8AE00E944323FF2023
:1030500009F40FC206CC85E40E941B6081117AC07E
:1030600080E50E940F4E882351F00E94D84D609356
:10307000430470934404809345049093460489E488
:103080000E940F4E882381F00E94D84D2CEA35EC27
:1030900047E25EE30E9463696093470470934804CB
:1030A0008093490490934A0484E40E940F4E88233D
:1030B00081F00E94D84D2CEA35EC47E25EE30E9495
:1030C000726E60934B0470934C0480934D04909304
:1030D0004E040E9473504091430450914404609107
:1030E0004504709146048DED92E00E94E14F2CEA78
:1030F00035EC47E25EE360914704709148048091AB
:10310000490490914A040E94726EAB01BC0189EDA2
:1031100092E00E94E14F2CEA35EC47E25EE36091D9
:103120004B0470914C0480914D0490914E040E9488
:103130006369AB01BC0185ED92E00E94E14F109103
:10314000AC0211118BCB8AE00E944323112309F4B6
:1031500090C187CB0E946F5081EE92E055C283E50B
:103160000E940F4E182F882371F00E94D84D0E94A4
:10317000E46E709331026093300221E0672B09F016
:1031800020E02093370480E50E940F4E882359F0F9
:103190002091300230913102232B11F00E94C84D52
:1031A0008093370466C1111164C10E94735082EC90
:1031B00092E00E94554F80913704882319F080E8EF
:1031C00093E102C089EA92E00E94554F609130027B
:1031D0007091310281EB92E00E9429508DEA92E0D9
:1031E00013C20E94604645C19091BF0290FD02C08B
:1031F00087E001C086E091FD8D7FAE014F5F5F4F9C
:103200001A0192FF85C78B7F09F0BCC704EE15E059
:10321000ADE5BCE0BB8FAA8F91EEC92E95E0D92E0B
:103220007A01F8016591759185919491EA8DFB8DF4
:1032300081909190A190B190FB8FEA8FA5019401AC
:103240000E94776D2B013C01D7016D937D938D9387
:103250009C93139720E030E040EA51EC0E94D86F35
:1032600087FD0AC020E030E040EA51E4C301B2012A
:103270000E94FD6818162CF4F601849118160CF4BF
:1032800084C7D7018D909D90AD90BD907D0120E0C9
:1032900030E040EA51ECC501B4010E94D86F87FDCF
:1032A0007FC720E030E040EA51E4C501B4010E944C
:1032B000FD6818160CF079C773C70E940B5810925E
:1032C00009020E94C34B6093C2027093C3028093B1
:1032D000C4029093C5028091240290912502A0918E
:1032E0002602B09127028093DE029093DF02A09322
:1032F000E002B093E1028091220290912302909328
:10330000DD028093DC0284E690E0909323028093B8
:10331000220281E08093BE020E94CD458AE50E9490
:103320000F4E382E88E50E940F4E882E89E50E94A8
:103330000F4E8812C8C5381409F416C5D82C82E57A
:103340000E945D4E882309F416C50E94D84D2B01BA
:103350003C0120E030E0A9010E94FD68882309F4C7
:10336000A6C581100FC5D1100DC5332019F082E01C
:103370000E945D5E0E94E8448091BD028093BE027F
:103380008091DE029091DF02A091E002B091E10213
:103390008093240290932502A0932602B0932702E3
:1033A0008091DC029091DD029093230280932202AF
:1033B0000E942A455EC00E94915C80E009C00E9484
:1033C000915C57C061E083E50E941C4F91E0892722
:1033D0000E94FA304EC081E08093D60260E083E51F
:1033E0000E941C4F811145C00E94B94A42C0E09022
:1033F000D802F090D9020E94C34B6093C20270932E
:10340000C3028093C4029093C502EE2091F10E9402
:1034100073501091AC02FF24112341F01F3731F09B
:1034200084E50E94ED211F3779F405C084E50E94F0
:1034300043231111F5CFB7010F2C000C880B990B0A
:103440000E94CB28112341F0B701FF0C880B990B88
:103450000E9461221F3729F480E20E944323112336
:1034600019F080E20E94ED2181EE92E0CDC00E9431
:103470000D600E94754F2F96FFAD2F97F093DB02E2
:10348000CFC611E022E02216310409F010E020E05E
:1034900030E0A901C701B6010E94FD68881F882796
:1034A000881F1813A4C020E030E040E85FE32AA39F
:1034B0003BA34CA35DA32A8D3B8D4C8D5D8DC50137
:1034C000B4010E94776D20E030E040E05FE30E94AD
:1034D00063696A8F7B8F8C8F9D8F2E8D3F8D48A166
:1034E00059A1C301B2010E94776D20E030E040E0B5
:1034F0005FE30E9463696E8F7F8F88A399A32A8DF3
:103500003B8D4C8D5D8DCA01B9010E9463694B01F1
:103510005C012E8D3F8D48A159A1CA01B9010E94BD
:1035200063699B01AC01C501B4010E94786D0E94E2
:1035300026704B015C019B01AC01C701B6010E94E2
:10354000776D2B013C01A5019401C701B6010E94D2
:10355000786D9B01AC01C301B2010E9463696B01EC
:103560007C0120E030E0A9010E94D86F87FD07C0F0
:10357000C701B6010E9426702B013C0103C0412CFB
:10358000512C32016E8D7F8D88A199A19058A50193
:1035900094010E94726E2AA13BA14CA15DA10E94E0
:1035A0006369A30192010E9463692A8D3B8D4C8D52
:1035B0005D8D0E94786D6B017C01A50194016A8D7F
:1035C0007B8D8C8D9D8D0E94726E2AA13BA14CA19A
:1035D0005DA10E946369A30192010E9463692E8D1F
:1035E0003F8D48A159A10E94786D0C94090E80E08E
:1035F00090E0A0E8BFEB8AA39BA3ACA3BDA35BCFE5
:103600000E946F508BEC95E00E94554F32CF20E026
:1036100030E0A901C701B6010E94FD68882381F34B
:103620001AA21BA21CA21DA2A701960150582A8F04
:103630003B8F4C8F5D8F8AA19BA1ACA1BDA1B058DF
:103640008E8F9F8FA8A3B9A3CA01B9010E94636995
:103650004B015C012E8D3F8D48A159A1CA01B901D2
:103660000E9463699B01AC01C501B4010E94786DA1
:103670000E9426706EAB7FAB88AF99AF20915D0C36
:1036800030915E0C40915F0C5091600C2EA33FA3D3
:1036900048A759A7A70196016EA17FA188A599A562
:1036A0000E94786D6AAF7BAF8CAF9DAF8091610C4B
:1036B0009091620CA091630CB091640C8AA79BA7B7
:1036C000ACA7BDA72AA13BA14CA15DA1BC01CD0126
:1036D0000E94786D22966CAF7DAF8EAF9FAF229720
:1036E0002091C6023091C7024091C8025091C90290
:1036F0002EA73FA748AB59AB2AAD3BAD4CAD5DAD56
:103700006EA57FA588A999A90E94776D6B017C01A0
:103710008091CA029091CB02A091CC02B091CD02CF
:103720008AAB9BABACABBDAB22962CAD3DAD4EADE9
:103730005FAD2297BC01CD010E94776D4B015C010A
:10374000A70196016A8D7B8D8C8D9D8D0E9463698A
:103750002B013C01A50194016E8D7F8D88A199A15B
:103760000E9463699B01AC01C301B2010E94786DA4
:103770002B013C01A50194016A8D7B8D8C8D9D8D63
:103780000E9463694B015C01A70196016E8D7F8DDC
:1037900088A199A10E9463699B01AC01C501B40194
:1037A0000E94776DA30192010E94F76D6B017C016D
:1037B00020E030E0A9010E94FD6887FF0AC02BEDE0
:1037C0003FE049EC50E4C701B6010E94786D6B01FF
:1037D0007C012BED3FE049EC50E4C701B6010E94AB
:1037E000726E20E030E040EC51E40E9463690E9478
:1037F000566E0E94EB6E8B01672B11F401E010E016
:1038000032E02316310451F42BED3FE049EC50E453
:10381000C701B6010E94776D6B017C0120E030E0AA
:10382000A901C701B6010E94FD68811122C02EA521
:103830003FA548A959A96EA17FA188A599A50E9475
:10384000FD68811116C02AA93BA94CA95DA96AA5EA
:103850007BA58CA59DA50E94FD6881110AC008E189
:1038600010E0ABEDCA2EAFE0DA2EA9ECEA2EA0E410
:10387000FA2E8091650C9091660CA091670CB09126
:10388000680C8AA79BA7ACA7BDA79C01AD0160915E
:10389000CE027091CF028091D0029091D1020E940D
:1038A000776D2B013C01A70196016EA97FA988AD18
:1038B00099AD0E9463694B015C0120E030E0A901F1
:1038C000C301B2010E94FD688823C9F0A5019401DB
:1038D000C501B4010E9463694B015C01A30192011F
:1038E000C301B2010E9463699B01AC01C501B4012F
:1038F0000E94786D0E9426704B015C010DC020E093
:1039000030E0A901C501B4010E94D86F87FF04C04F
:10391000B7FAB094B7F8B0942FE632E143E85AE32F
:10392000C501B4010E94FD6887FD13C22091D20237
:103930003091D3024091D4025091D5022AAB3BABD7
:103940004CAB5DAB8091690C90916A0CA0916B0CB3
:10395000B0916C0C8EA79FA7A8ABB9AB2AE037ED4E
:1039600043E25CE36091240270912502809126027B
:10397000909127020E9463696EA37FA388A799A7ED
:103980006091220270912302072E000C880B990B84
:103990000E9404699B01AC016EA17FA188A599A535
:1039A0000E9463696E8B7F8B888F998FC501B401EC
:1039B0000E941A6F0E94EB6E1B016017710708F4DA
:1039C0001801B10180E090E00E9402694B015C01A6
:1039D0009B01AC01C701B6010E94726E6EA37FA36A
:1039E00088A799A7A5019401C301B2010E94726E34
:1039F0002A966CAF7DAF8EAF9FAF2A972EA53FA5BD
:103A000048A959A96AA97BA98CA99DA90E94776D8B
:103A1000A50194010E94726E2E966CAF7DAF8EAFA1
:103A20009FAF2E972EA13FA148A559A5CA01B90164
:103A30000E9463696B017C019B01AC016EA17FA1B7
:103A400088A599A50E94636920E030E040EC50E42D
:103A50000E94726E9B01AC016EA17FA188A599A501
:103A60000E94776D6AAB7BAB8CAB9DAB20E030E006
:103A700040E05FE3C701B6010E9463699B01AC01AE
:103A800060E070E080E89FE30E94776D6EAB7FABF3
:103A900088AF99AF2AA53BA54CA55DA529873A8794
:103AA0004B875C878EA59FA5A8A9B9A98D879E87FE
:103AB000AF87B88B0E94C34B9B01AC0128533F4F8B
:103AC0004F4F5F4F26962CAF3DAF4EAF5FAF26975F
:103AD0004A8C5B8C6C8C7D8C41E050E05BA74AA7E4
:103AE00059E15EA78AA59BA58215930508F00BC135
:103AF0000E942F540E94C34BDC01CB0126962CADB3
:103B00003DAD4EAD5FAD2697821B930BA40BB50B5D
:103B1000B7FD10C00E94C34B9B01AC0128533F4F1F
:103B20004F4F5F4F26962CAF3DAF4EAF5FAF2697FE
:103B30000E944A233EA531503EA73323E9F12E8D42
:103B40003F8D48A159A16EA97FA988AD99AD0E946A
:103B500063696B017C019201A3016AA97BA98CA90D
:103B60009DA90E946369A70196010E94786D7B015F
:103B70008C019201A3016EA97FA988AD99AD0E9425
:103B800063694B015C012E8D3F8D48A159A16AA943
:103B90007BA98CA99DA90E9463699B01AC01C50109
:103BA000B4010E94776D2B013C01C701D8018E8FB3
:103BB0009F8FA8A3B9A34FC04AA55BA5BA0180E017
:103BC00090E00E9402692EA13FA148A559A50E943C
:103BD00063694B015C010E946D6E6B017C01C50144
:103BE000B4010E9418704B015C01A70196016A8D17
:103BF0007B8D8C8D9D8D0E9463692B013C012AA1D8
:103C00003BA14CA15DA1C501B4010E946369A30160
:103C100092010E94786D2B013C01A50194016A8DEF
:103C20007B8D8C8D9D8D0E9463694B015C012AA167
:103C30003BA14CA15DA1C701B6010E9463699B0134
:103C4000AC01C501B4010E94776D6E8F7F8F88A390
:103C500099A359E15EA79201A3016AAD7BAD8CAD3A
:103C60009DAD0E94786D69837A838B839C832E8DB2
:103C70003F8D48A159A122966CAD7DAD8EAD9FAD13
:103C800022970E94786D6D837E838F8398872A9612
:103C90002CAD3DAD4EAD5FAD2A9769857A858B859C
:103CA0009C850E94786D69877A878B879C872E9682
:103CB0002CAD3DAD4EAD5FAD2E976D857E858F856C
:103CC00098890E94786D6D877E878F87988BCE014B
:103CD00001960E9437448E010A5E1F4F9E01235FAA
:103CE0003F4FAE01475F5F4FBE016B5F7F4FCE011D
:103CF00001960E942260882331F08AA59BA5019637
:103D00009BA78AA7EFCE80E1E6ECF2E0DE011196F8
:103D100001900D928A95E1F7CE0101960E943744F9
:103D20008E010A5E1F4F9E01235F3F4FAE01475F2A
:103D30005F4FBE016B5F7F4FCE0101960E942260F4
:103D400080E1FE013196ADE5BCE001900D928A95CF
:103D5000E1F70E94C34B6093C2027093C302809349
:103D6000C4029093C50285CBDD24D3948824839428
:103D700033243394E4CA412C512CF0EA6F2EF0E442
:103D80007F2EEFCA20E030E0A901C301B2010E94FA
:103D9000786D7B018C019090650CC090660CB090A2
:103DA000670CA090680C292D3C2D4B2D5A2D0E949C
:103DB000FD6840905D0C50905E0C60905F0C7090C0
:103DC000600C2091610C3091620C4091630C509119
:103DD000640C2A8F3B8F4C8F5D8F20E030E048E4ED
:103DE00053E487FD04C2B701C8010E94FD6887FD46
:103DF00004C0E12CF12C08E413E480E090E0A0E89A
:103E0000B0E48E8B9F8BA88FB98F89839A83AB8305
:103E1000BC839701A801692D7C2D8B2D9A2D0E94C2
:103E2000FD6887FF0EC0C701D8018093650C909391
:103E3000660CA093670CB093680CCE0146960E9466
:103E4000D84440925D0C50925E0C60925F0C709270
:103E5000600C8A8D9B8DAC8DBD8D8093610C909391
:103E6000620CA093630CB093640CCE0101960E9487
:103E7000D8449701A8016091650C7091660C8091FF
:103E8000670C9091680C0E94D86F181674F4C701E3
:103E9000D8018093650C9093660CA093670CB09347
:103EA000680CCE0146960E94D8440E940B58882088
:103EB00019F080E00E945D5EDD2009F456CA81E0C1
:103EC0000E945D5E52CAD82E3ACA88E50E940F4E03
:103ED00081115F9889E50E940F4E81118A988AE5C9
:103EE0000E940F4E882329F08091080181708093F1
:103EF000060185E40E940F4E882309F4BACA07C060
:103F00005F988A98809108018170809306011298C9
:103F1000B0CA0E944B460C9472110E94D84D0E9468
:103F2000E46ECB010E94275180914004909141049E
:103F3000863591051CF00E94274602C00E944B4620
:103F400011E00C9491110E940B5888E50E940F4ECD
:103F5000882331F05F9A80918F028E7F80938F0249
:103F600089E50E940F4E882331F08A9A80918F0252
:103F70008D7F80938F028AE50E940F4E882359F02F
:103F800080910801809581708093060180918F0255
:103F90008B7F80938F0285E40E940F4E882309F463
:103FA00068CA0E942A2165CA0E941B5862CA602FF3
:103FB00083E50E941C4F0C940D1683E50E945D4E14
:103FC000882391F00E94D84D6093F6087093F7080B
:103FD0008093F8089093F9086093FE087093FF08A7
:103FE000809300099093010980E50E945D4E88232B
:103FF00051F00E94D84D6093F6087093F7088093B3
:10400000F8089093F90882E50E945D4E882351F0EC
:104010000E94D84D6093FA087093FB088093FC08C7
:104020009093FD0884E50E945D4E882309F421CA1F
:104030000E94D84D6093FE087093FF08809300099A
:104040009093010916CA82E40E940F4E8823C1F0A2
:104050008091C0029091C102009739F04AE050E08F
:1040600060E070E00E94746703C060E070E0CB0124
:104070006093D2087093D3088093D4089093D508A6
:1040800083E50E940F4E882351F00E94D84D609323
:10409000020970930309809304099093050984E54C
:1040A0000E940F4E882351F00E94D84D609306095C
:1040B0007093070980930809909309098AE40E9484
:1040C0000F4E882309F4D5C90E94D84D6B017C019D
:1040D0002AE037ED43E25CE30E94D86F87FD13C00E
:1040E0002AE939E949E95EE3C701B6010E94FD68A2
:1040F00018164CF0C0920E04D0920F04E0921004F7
:10410000F0921104B6C90E946F5085E293E07CCA18
:104110002DE432E081FF03C04FE452E002C042E5EB
:1041200052E080FF03C081E592E002C082E592E0A8
:104130003F932F935F934F939F938F9389E792E0E1
:104140009F938F933F922F920E94CE680E9473504C
:104150001091AC020FB6F894DEBF0FBECDBF112395
:1041600031F01F3721F0C1010E94F82205C0C101C2
:104170000E9462291111F7CF0FB6F894DEBF0FBE6F
:10418000CDBF77C922E532E0C5CFB7FAB094B7F812
:10419000B094D7018D929D92AD92BC92139771C845
:1041A0000E946F508BE892E02FCA0C5F1F4FBFEF49
:1041B000CB1ADB0AE5E0003F1E0709F032C888E7AA
:1041C000E82E82E0F82E10E0F10181919191A19109
:1041D000B1911F01F70181939193A193B1937F0155
:1041E000812F0E944F431F5F133071F7E1C8692D83
:1041F0007C2D8B2D9A2D0E94FD6887FFFACD80E0E3
:1042000090E0A0E8B0E48E8B9F8BA88FB98F898354
:104210009A83AB83BC83E92CFC2C0B2D1A2D11CE79
:10422000C05BDF4F0FB6F894DEBF0FBECDBFDF918E
:10423000CF911F910F91FF90EF90DF90CF90BF90A3
:10424000AF909F908F907F906F905F904F903F9036
:104250002F900895129A08955F9A80918F028E7F11
:1042600080938F028A9A80918F028D7F80938F0234
:1042700080910801809581708093060180918F0262
:104280008B7F80938F020C942A21C42F0E9423528B
:104290000E946F5085EA97E00E94554F89EE93E0A7
:1042A00030E6019729F0232F2A950000E9F7F9CF8E
:1042B000F89489EE93E038EE019729F0232F2A95A0
:1042C0000000E9F7F9CF0E942352CC2319F00E9495
:1042D0002C2102C00E942A21A895FECF4F925F9206
:1042E0006F927F928F929F92AF92BF92CF92DF9206
:1042F000EF92FF920E949B5A9091860C9093850CAE
:104300009093840C9093830C94E69093820C20ED10
:1043100033E03093C0082093BF0881110E94A85A4F
:1043200081E080931D0C0E940B5881E00E94095E81
:104330004B015C0180E00E94095E2B013C0160930F
:10434000E8027093E9028093EA029093EB02809274
:10435000EC029092ED02A092EE02B092EF0282E0A7
:104360000E94095E6B017C016093F0027093F10280
:104370008093F2029093F30283E00E94095E4092E0
:104380005D0C50925E0C60925F0C7092600C80929B
:10439000610C9092620CA092630CB092640CC0927B
:1043A000650CD092660CE092670CF092680C6093FA
:1043B000690C70936A0C80936B0C90936C0CFF905B
:1043C000EF90DF90CF90BF90AF909F908F907F90B5
:1043D0006F905F904F900C94E8449091C80095FFC7
:1043E000FCCF8093CE0008958F929F92AF92BF92A0
:1043F000EF92FF920F931F93CF93DF93CDB7DEB76A
:10440000A0970FB6F894DEBF0FBECDBF6115710542
:104410008105910591F100E0842E912CA12CB12C05
:10442000102FEE24E394F12CEC0EFD1EE00EF11C97
:1044300007FDFA94A50194010E94EE6CF7016083D8
:10444000B901CA010F5F611571058105910541F739
:104450001F3F31F1E1E0F0E0EC0FFD1FE10FF11D36
:1044600017FDFA9580818A3010F097E301C090E340
:10447000890F0E94ED211150EBCF80E3A0960FB67B
:10448000F894DEBF0FBECDBFDF91CF911F910F918A
:10449000FF90EF90BF90AF909F908F900C94ED2184
:1044A000A0960FB6F894DEBF0FBECDBFDF91CF91BF
:1044B0001F910F91FF90EF90BF90AF909F908F90C2
:1044C0000895CF92DF92EF92FF926B017C0197FFEC
:1044D0000BC08DE20E94ED21F094E094D094C09442
:1044E000C11CD11CE11CF11C4AE0C701B601FF90C0
:1044F000EF90DF90CF900C94F4218F929F92AF9227
:10450000BF92CF92DF92EF92FF92CF936B017C012B
:10451000B42E20E030E0A9010E94FD6887FF07C0AB
:104520008DE20E94ED21F7FAF094F7F8F094C0E0E4
:1045300060E070E080E09FE3CB1541F02DEC3CECB7
:104540004CEC5DE30E946369CF5FF6CF9B01AC0149
:10455000C701B6010E94786D6B017C010E94EB6E71
:104560004B015C014AE00E94F421CC2389F1C50192
:10457000B4010E9402699B01AC01C701B6010E940F
:10458000776D6B017C018EE20E94ED2120E030E02E
:1045900040E251E4C701B6010E9463694B015C012E
:1045A0000E94E46E6B01770FEE08FF08C701B601A9
:1045B0000E946122C701B6010E9404699B01AC01FF
:1045C000C501B4010E94776D6B017C01C150F1F609
:1045D000CF91FF90EF90DF90CF90BF90AF909F90E2
:1045E0008F9008958DE00E94ED218AE00C94ED21DA
:1045F000CF93DF93EC018991882319F00E94ED217C
:10460000FACFDF91CF910C94F2228091AD09909175
:10461000AE09981759F0E92FF0E0E355F64F828183
:104620009F5F9F779093AE0990E008958FEF9FEF83
:1046300008951F920F920FB60F9211240BB60F928E
:104640002F938F939F93EF93FF939091CE002091A0
:10465000AE09E091AD0981E08E0F8F77281729F020
:10466000F0E0E355F64F9283E82FE093AD09FF9118
:10467000EF919F918F912F910F900BBE0F900FBED6
:104680000F901F9018959091C00095FFFCCF8093DC
:10469000C60008952F923F924F925F926F927F9241
:1046A0008F929F92AF92BF92CF92DF92EF92FF9242
:1046B0000F931F93CF93DF93CDB7DEB728970FB635
:1046C000F894DEBF0FBECDBF8091AF0B843008F0F1
:1046D00095C18091AF0B843008F090C180911B0987
:1046E00090911C09891B8F7741F48091AD099091BD
:1046F000AE09891B8F7709F481C179EFC72E72E06B
:10470000D72EEDE9EE2EE9E0FE2EFBEFAF2EF2E024
:10471000BF2EA5E98A2EA2E09A2E00E010E0802F9D
:104720000E949F4AAC0197FD56C1282FF6018A309E
:1047300019F08D3009F00BC11082F7018081918151
:1047400020E6209FF001219FF00D1124E550FD4F40
:10475000E80FF91F1082892B31F0F70111821082C6
:10476000BF82AE8203C00E942F5435C1EE81FF810B
:104770008191803219F4FF83EE83F8CF8E3409F0F3
:104780006AC02E813F812115310509F464C06FE5AF
:1047900077E0C9010E94B4681C01892B49F06EE4DE
:1047A00070E08E819F8104960E948570009711F4BD
:1047B0008E819F814AE050E060E070E001960E94A7
:1047C00046662B013C01F40180819181A281B38175
:1047D0000196A11DB11D481659066A067B0631F0E7
:1047E000232821F4602F8CE297E029C06AE270E070
:1047F0008E819F810E949770009721F1282FFE8162
:104800002F1B312C222341F02150EE81FF81E20F3A
:10481000F11D30813326F6CF4AE050E060E070E0D1
:1048200001960E944666232D30E040E050E062177A
:1048300073078407950751F0602F8DE097E00E9481
:104840001A4BDCC0602F83EE96E0F9CFF401408272
:104850005182628273828091D6028130F1F067E4E6
:1048600070E08E819F810E9485700097B1F04AE0D0
:1048700050E060E070E001960E9446666430710589
:104880008105910550F47090AC020093AC028CE667
:1048900096E00E94554F7092AC0267E676E08E81FA
:1048A0009F810E949368892B11F41092070262E69F
:1048B00076E08E819F810E949368892B31F441E0DC
:1048C00060E070E08DE895E0DCC06DE576E08E811B
:1048D0009F810E949368892B11F40E946E21F5013B
:1048E00080818B3309F477C06090AF0BF3E0F6154D
:1048F00008F471C07090F802272D30E03F832E83BA
:1049000040E6429FC001439F900D1124B501815D97
:10491000954F0E949070EE81FF81E555F34F51E075
:1049200050838E819F81880F991F83569D4FFC0174
:104930001183008381E0870D843018F48093F8029E
:1049400002C01092F80263946092AF0B44C0908151
:10495000913009F440C0943018F0945090830AC00C
:104960004C3531F49C5FF60190839430D1F433C020
:104970004B3371F12830A9F4F701808191810097C0
:1049800051F1019791838083F0E6F09F9001F19FB0
:10499000300D112425503D4FF901E80FF91F108209
:1049A0001AC0F701808191819C012F5F3F4F3183B5
:1049B0002083F0E6F09FB001F19F700D1124655047
:1049C0007D4FFB01E80FF91F40832F3531051CF0A7
:1049D00021E0F60120830F5F1F4F3FEFC31AD30A78
:1049E00042E0E40EF11C50E6A50EB11C84E0880EF6
:1049F000911C0230110509F46CCE91CE0E94C34B7C
:104A00006B017C0140918B0250918C0260918D0270
:104A100070918E024115510561057105A1F18091DA
:104A2000C2029091C302A091C402B091C502840F4A
:104A3000951FA61FB71F97018601081B190B2A0B8C
:104A40003B0B37FD20C00E946F5060915B0C709152
:104A50005C0C80E296E00E944A508091AC02882370
:104A600009F4D9C28F3709F4D6C28091AC028823E9
:104A700019F08AE00E94ED2140E060E070E080E003
:104A800090E00E9445218091020290910302A09142
:104A90000402B0910502892B8A2B8B2B09F44DC09F
:104AA0009091850C8091860C981749F0C092C202B3
:104AB000D092C302E092C402F092C5023EC00E94AE
:104AC000C34B8090C2029090C302A090C402B090E9
:104AD000C50200910202109103022091040230915C
:104AE0000502080D191D2A1D3B1DDC01CB01801B91
:104AF000910BA20BB30BB7FD92C28091BF03811142
:104B00001CC081E08093BF035F9A80918F028E7FEB
:104B100080938F028A9A80918F028D7F80938F027B
:104B200080910801809581708093060180918F02A9
:104B30008B7F80938F020E942A218091BB039091EA
:104B4000BC03A091BD03B091BE03A7019601281B31
:104B5000390B4A0B5B0B57FDF9C19091850C809185
:104B6000860C981751F0E091860C37E4E39FF00132
:104B70001124EB56FB4F208102C0209126042223F2
:104B800011F030E002C020E030E0EAEBF7E14491C0
:104B9000E4E7F7E18491882399F090E0880F991F6A
:104BA000FC01EA5FF94FA591B491FC01EF5AF84E70
:104BB000859194918FB7F894EC91E42BEC938FBF8F
:104BC0002115310511F480E004C02F3F310521F497
:104BD00081E00E942E5FADC0E0E0F8E1E4918E2F0D
:104BE00090E0FC013197E231F10508F09DC0882783
:104BF000EE58FF4F8F4F0C945D6D84B5806884BD77
:104C000027BD97C084B5806284BD28BD92C08091C5
:104C10008000806880938000309389002093880012
:104C200088C08091800080628093800030938B00E8
:104C300020938A007EC080918000886080938000ED
:104C400030938D0020938C0074C08091B0008068F8
:104C50008093B0002093B3006CC08091B00080625C
:104C60008093B0002093B40064C08091900080686D
:104C70008093900030939900209398005AC08091BF
:104C8000900080628093900030939B0020939A0064
:104C900050C08091900088608093900030939D0078
:104CA00020939C0046C08091A00080688093A00063
:104CB0008091A0008F7B8093A0003093A900209367
:104CC000A80037C08091A00080628093A00030933C
:104CD000AB002093AA002DC08091A0008860809333
:104CE000A0003093AD002093AC0023C08091200140
:104CF000806880932001309329012093280119C0F6
:104D00008091200180628093200130932B012093B9
:104D10002A010FC080912001886080932001309388
:104D20002D0120932C0105C0203831050CF050CF07
:104D30004ACF8091A602882309F4FBC02090450247
:104D400030904602009147020887109148021E8366
:104D500060914004709141046E5F7F4F072E000CFC
:104D6000880B990B0E9404699101A8010E94FD68BB
:104D700087FDDFC00091860C09831A821B821C828A
:104D80001D828091850C1981811709F460C0812FE3
:104D900090E027E4289FF001299FF00D1124E15BAA
:104DA000FB4F458956896789708D452B462B472BCC
:104DB00081F4418D528D638D748D452B462B472B8D
:104DC00041F4458D568D678D70A1452B462B472BA1
:104DD000C9F137E4389F8001399F100D1124015B20
:104DE0001B4FF80161817281838194810E9426703A
:104DF0004B015C01F80161A172A183A194A10E9401
:104E000002692B013C01F80165A176A187A190A55B
:104E10000E9402699B01AC01C301B2010E94726E43
:104E2000A50194010E9463695B018C012A813B8189
:104E30004C815D810E94D86F181624F4AA82BB822F
:104E40000C831D8389818F5F8F7089839ACF209116
:104E50003D0230913E0240913F02509140026A81F2
:104E60007B818C819D810E946369910148855E816F
:104E70000E94786D5B018C0160904102709042024B
:104E800080904302909044029B01AC01B10188855F
:104E90009E810E94D86F18167CF09301A401B50181
:104EA000C8010E94D86F181624F0150108871E83C8
:104EB00003C0130188869E828090F4029090F502D0
:104EC000A090F602B090F702910148855E81C5017D
:104ED000B4010E94D86F1816D4F420E037ED43EAED
:104EE0005CE3B10188859E810E9463692B013C01CE
:104EF00028E431EE4AE75FE3C501B4010E9463692B
:104F0000A30192010E94786D1B0188879E83C101D5
:104F1000A885BE818093F4029093F502A093F602D7
:104F2000B093F702B101CD010E94E46ECB010E9463
:104F30002751F4E6CF0ED11CE11CF11CC092BB033B
:104F4000D092BC03E092BD03F092BE030E942F54A6
:104F50008091D602882309F498C00E94C34B6B014C
:104F60007C0180910602882359F18091DB0288231D
:104F700039F14091C0035091C1036091C203709117
:104F8000C30397018601041B150B260B370B37FD56
:104F90002AC0833079F03CF4813094F00E94735041
:104FA00083E997E00BC0843059F40E94735084E683
:104FB00097E004C00E9473508CE797E00E94554F21
:104FC0002091060230E0A8EEB3E00E941B6DC60EF1
:104FD000D71EE81EF91EC092C003D092C103E09212
:104FE000C203F092C30380919402882309F44DC058
:104FF0000E94C34B00919002109191022091920265
:1050000030919302DC01CB01801B910BA20BB30BFF
:10501000B7FF08C03AC08AE00E94432326CD109211
:10502000BF038BCD0E94C34B6B017C012091940286
:1050300030E0A8EEB3E00E941B6DC60ED71EE81E3E
:10504000F91EC0929002D0929102E0929202F092E8
:1050500093020091AC0209838FE78093AC0280E059
:105060000E9468518091AC02882311F08F3719F4A7
:105070008AE00E9443238091AC02882319F08AE0E1
:105080000E94ED2119811093AC0228960FB6F89476
:10509000DEBF0FBECDBFDF91CF911F910F91FF906B
:1050A000EF90DF90CF90BF90AF909F908F907F90C8
:1050B0006F905F904F903F902F9008958F929F92A6
:1050C000AF92BF92EF92FF920F931F93CF93DF9314
:1050D000CDB7DEB7A0970FB6F894DEBF0FBECDBF39
:1050E000611571058105910591F100E0842E912CE7
:1050F000A12CB12C102FEE24E394F12CEC0EFD1E0C
:10510000E00EF11C07FDFA94A50194010E94EE6CDB
:10511000F7016083B901CA010F5F6115710581054F
:10512000910541F71F3F31F1E1E0F0E0EC0FFD1F89
:10513000E10FF11D17FDFA9580818A3010F097E399
:1051400001C090E3890F0E9443231150EBCF80E30D
:10515000A0960FB6F894DEBF0FBECDBFDF91CF9102
:105160001F910F91FF90EF90BF90AF909F908F9005
:105170000C944323A0960FB6F894DEBF0FBECDBFAC
:10518000DF91CF911F910F91FF90EF90BF90AF9063
:105190009F908F900895CF92DF92EF92FF926B01D4
:1051A0007C0197FF0BC08DE20E944323F094E094B2
:1051B000D094C094C11CD11CE11CF11C4AE0C70171
:1051C000B601FF90EF90DF90CF900C945E288F9205
:1051D0009F92AF92BF92CF92DF92EF92FF92CF93C6
:1051E0006B017C01B42E20E030E0A9010E94FD6833
:1051F00087FF07C08DE20E944323F7FAF094F7F887
:10520000F094C0E060E070E080E09FE3CB1541F0F7
:105210002DEC3CEC4CEC5DE30E946369CF5FF6CF74
:105220009B01AC01C701B6010E94786D6B017C0146
:105230000E94EB6E4B015C014AE00E945E28CC2389
:1052400089F1C501B4010E9402699B01AC01C7014B
:10525000B6010E94776D6B017C018EE20E944323B0
:1052600020E030E040E251E4C701B6010E946369EA
:105270004B015C010E94E46E6B01770FEE08FF08A2
:10528000C701B6010E94CB28C701B6010E9404697C
:105290009B01AC01C501B4010E94776D6B017C01DB
:1052A000C150F1F6CF91FF90EF90DF90CF90BF907B
:1052B000AF909F908F9008958DE00E9443238AE0E5
:1052C0000C944323CF93DF93EC018991882319F049
:1052D0000E944323FACFDF91CF910C945C291F9257
:1052E0000F920FB60F9211240F900FBE0F901F90C8
:1052F00018951F920F920FB60F9211240F900FBEA8
:105300000F901F9018951F920F920FB60F921124B5
:105310000BB60F922F938F939F93EF93FF939091E0
:10532000C60020911C09E0911B0981E08E0F8F7748
:10533000281729F0F0E0E55EF64F9283E82FE0931E
:105340001B09FF91EF919F918F912F910F900BBEB1
:105350000F900FBE0F901F9018950F930FB70F93DC
:1053600000916E000F930B7F00936E0000916F0011
:105370000D7F00936F000F930BB70F930CB70F9235
:105380001F922F933F934F935F936F937F938F93CE
:105390009F93AF93BF93EF93FF9311240E94292A09
:1053A000FF91EF91BF91AF919F918F917F916F91FD
:1053B0005F914F913F912F911F900F900CBF0F91D4
:1053C0000BBF0F910260F89400936F000F91009350
:1053D0006E000F910FBF0F9118958091AB0980FF60
:1053E00003C089988FEF02C0899A81E08093C5033A
:1053F0008091AB09869580FF03C08F9A8FEF02C022
:105400008F9881E08093C6038091AB09869586953D
:1054100080FF07C080910B018270809309018FEF9C
:1054200007C080910B01809582708093090181E013
:105430008093C7038091AB0986958695869580FFFA
:1054400003C016988FEF02C0169A81E08093C803BC
:1054500008952F923F924F925F926F927F928F9218
:105460009F92AF92BF92CF92DF92EF92FF920F93F3
:105470001F93CF93DF9300D01F92CDB7DEB78FEF8E
:105480009FEF90938900809388000AE00983212C84
:10549000312C789480910A0490910B04A0910C0413
:1054A000B0910D04892B8A2B8B2B71F080910A040B
:1054B00090910B04A0910C04B0910D04892B8A2BC0
:1054C0008B2B09F0F9C4DAC180911D0C8823D1F02F
:1054D00010921D0C80911B0C90911C0C892B91F04B
:1054E00010921C0C10921B0C1092C4039091850C0E
:1054F0008091860C981731F08091860C8F5F8F70A9
:105500008093860C80911B0C90911C0C892B71F25E
:10551000C0900604D0900704E0900804F0900904BD
:1055200040910204509103046091040470910504B9
:105530000091F50310E020E030E0DB01CA018C1996
:105540009D09AE09BF09081719072A073B0710F480
:10555000D901C801E82F8C0D9D1DAE1DBF1D809384
:10556000060490930704A0930804B09309041B82D7
:105570001A82F1E0C090CD03D090CE03E090CF032B
:10558000F090D0038091DD039091DE03A091DF03C2
:10559000B091E003C80ED91EEA1EFB1EC092DD03C7
:1055A000D092DE03E092DF03F092E003F7FC31C01B
:1055B0008091C503082E000C990BAA0BBB0B4091E0
:1055C0002A0C50912B0C60912C0C70912D0C840F97
:1055D000951FA61FB71F80932A0C90932B0CA093A6
:1055E0002C0CB0932D0C8091C9039091CA03A0910B
:1055F000CB03B091CC03A7019601281B390B4A0BB2
:105600005B0B2093DD033093DE034093DF03509365
:10561000E0030091D1031091D2032091D303309184
:10562000D4038091E1039091E203A091E303B09150
:10563000E403080F191F2A1F3B1F0093E103109377
:10564000E2032093E3033093E40337FD31C08091FC
:10565000C603082E000C990BAA0BBB0B40912E0C15
:1056600050912F0C6091300C7091310C840F951F6C
:10567000A61FB71F80932E0C90932F0CA093300C75
:10568000B093310C8091C9039091CA03A091CB03D0
:10569000B091CC03B901A801481B590B6A0B7B0BD5
:1056A0004093E1035093E2036093E3037093E403B8
:1056B0004091D5035091D6036091D7037091D803E0
:1056C0008091E5039091E603A091E703B091E80390
:1056D000480F591F6A1F7B1F4093E5035093E60351
:1056E0006093E7037093E80377FD31C08091C703AF
:1056F000082E000C990BAA0BBB0B8090320C9090DB
:10570000330CA090340CB090350C880D991DAA1D57
:10571000BB1D8093320C9093330CA093340CB09348
:10572000350C8091C9039091CA03A091CB03B0912D
:10573000CC032A013B01481A590A6A0A7B0A4092A3
:10574000E5035092E6036092E7037092E8038090CD
:10575000D9039090DA03A090DB03B090DC03809132
:10576000E9039091EA03A091EB03B091EC03880D5B
:10577000991DAA1DBB1D8093E9039093EA03A09392
:10578000EB03B093EC03B7FD31C08090C803082C45
:10579000000C9908AA08BB084090360C5090370CB2
:1057A0006090380C7090390C840C951CA61CB71CAA
:1057B0008092360C9092370CA092380CB092390C33
:1057C0008090C9039090CA03A090CB03B090CC0303
:1057D0002C013D01481859086A087B084092E903EA
:1057E0005092EA036092EB037092EC03F1110CC04B
:1057F000A0908400B09085006A807B80A618B708CE
:10580000F2E0AF16B104A0F3F7FE889A37FF8E9A44
:1058100077FD06C0F0910B01F095F870F093090147
:10582000B7FF149A40908400509085005B824A82B2
:10583000A0908400B09085006A807B80A618B7088D
:10584000F2E0AF16B104A0F3F7FE889837FF8E9808
:1058500077FD05C020910B01287020930901B7FF47
:105860001498EE2331F040908400509085005B82C4
:105870004A82E150F0E009F07DCE18CEE0911B0C99
:10588000F0911C0C309709F49DC48091060490910E
:105890000704A0910804B0910904409102045091BA
:1058A0000304609104047091050484179507A6070A
:1058B000B707D0F010921C0C10921B0C1092C4036E
:1058C0009091850C8091860C981709F47BC4809187
:1058D000860C8F5F8F708093860C40EDC42E47E05E
:1058E000D42EE12CF12C4EC14091FE035091FF03C8
:1058F0006091000470910104481759076A077B07FB
:1059000008F467C04091FA035091FB036091FC03D7
:105910007091FD0381A992A9A3A9B4A95524499F17
:10592000612C5A9F90016A9F300D699F200D311D97
:105930004A9F600C211D351D599F600C211D351D8E
:10594000689F600C211D351D589F610C251D351D5C
:105950006694251D351DB49F200D311DB59F300D5A
:10596000112482AD93ADA4ADB5AD820F931FA11DDF
:10597000B11D8093F6039093F703A093F803B093BF
:10598000F90306A917A920AD31AD081719072A0791
:105990003B0740F40093F6031093F7032093F803BA
:1059A0003093F9038090F6039090F703A090F803EA
:1059B000B090F90381E591E121E0FC01C590D5901B
:1059C000E590F490C814D904EA04FB0408F4C4C2B6
:1059D000CEC24091F1035091F2036091F3037091B4
:1059E000F403481759076A077B0708F063C0409122
:1059F000ED035091EE036091EF037091F00381A9E4
:105A000092A9A3A9B4A94424499F512C5A9F90015B
:105A10006A9F300D699F200D311D4A9F500C211D3A
:105A2000341D599F500C211D341D689F500C211DA1
:105A3000341D589F510C241D341D5694241D341DB3
:105A4000B49F200D311DB59F300D1124C901A0E078
:105A5000B0E08090F6039090F703A090F803B09028
:105A6000F903FE9688159905AA05BB0580F4008107
:105A7000118122813381881A990AAA0ABB0A8016E9
:105A80009106A206B30638F44801590104C080808B
:105A90009180A280B38081E591E121E0FC01C59075
:105AA000D590E590F490C814D904EA04FB0408F4F6
:105AB000C6C2D0C28091280290912902A0912A02E8
:105AC000B0912B02B7FF56C086A997A9A0ADB1AD82
:105AD00021E531E141E0F901C590D590E590F490E0
