:100000000C94220C0C94530C0C94530C0C94530C25
:100010000C94530C0C94530C0C94530C0C94530CE4
:100020000C94530C0C94530C0C94530C0C94530CD4
:100030000C94530C0C94530C0C94530C0C94530CC4
:100040000C94530C0C94F42F0C94530C0C94530CF0
:100050000C94530C0C94530C0C94F1550C94455483
:100060000C94530C0C94AE2F0C94A42F0C94530CA2
:100070000C94530C0C94530C0C94530C0C94530C84
:100080000C94530C0C94530C0C94530C0C94530C74
:100090000C94530C0C94530C0C94530C0C94530C64
:1000A0000C94530C0C94530C0C94530C0C94530C54
:1000B0000C94530C0C94530C0C94530C0C94530C44
:1000C0000C94530C0C94530C0C94530C0C94530C34
:1000D0000C94530C0C94530C0C94530C0C94530C24
:1000E0000C94530C462D4B2D502D5A2D642DDD2D87
:1000F0006E2D762D7E2D882D922D9C2DAB2DB52D20
:10010000DD2DBF2DC92DD32D9D5AA05A8F5A935A3C
:10011000975AD75AA45AA85AAE5AB25AB65ABC5A83
:10012000C05AC45AD75ACA5ACE5AD25A084AD73B8A
:100130003BCE016E84BCBFFDC12F3D6C74319ABDB6
:1001400056833DDA3D00C77F11BED9E4BB4C3E91DA
:100150006BAAAABE000000803F05A84CCDB2D44EC9
:10016000B93836A9020C50B9918688083CA6AAAACB
:100170002ABE000000803F000C94502D0C946E2D80
:100180000C94BF2D0C94D25A0C94462D0C949D5A6D
:100190000C94B52D0C94CE5A0C94C45A0C94642D26
:1001A0000C94935A0C947E2D0C94B65A0C94245FA4
:1001B0000C944B2D0C94B25A0C94C05A0C94975A30
:1001C0000C94AE5A0C94C92D0C94922D0C94762D4F
:1001D0000C94D32D0C945A2D0C94AB2D0C94A85A3E
:1001E0000C948F5A0C94CA5A0C94D75A0C94882D9C
:1001F0000C94A45A0C94DD2D0C94A05A0C949C2DB4
:100200000C94BC5A4E414E494E495459494E46CD24
:10021000CCCC3D0AD7233C17B7D13877CC2B3295BD
:1002200095E6241FB14F0A000020410000C842009B
:10023000401C4620BCBE4CCA1B0E5AAEC59D744322
:100240004F4D4D554E49434154494F4E004452592C
:1002500052554E004552524F525300494E464F00A0
:100260004543484F006F6B00454550524F4D206449
:10027000697361626C65640A00486F6D652025735F
:100280002573257320466972737400546F6F20665E
:1002900061722066726F6D207265666572656E634D
:1002A0006520706F696E740A0023646566696E6507
:1002B0002044454641554C545F004B6420004B6937
:1002C00020004B702000504944204175746F7475B4
:1002D0006E652066696E6973686564212050757467
:1002E00020746865206C617374204B702C204B69FE
:1002F00020616E64204B6420636F6E7374616E7452
:10030000732066726F6D2062656C6F7720696E7402
:100310006F20436F6E66696775726174696F6E2EC8
:10032000680A00504944204175746F74756E6520E9
:100330006661696C6564212074696D656F75740A06
:1003400000544845524D414C2052554E4157415959
:1003500000546865726D616C2052756E61776179C9
:100360000048656174696E67204661696C65640068
:1003700048656174696E67206661696C6564000A2E
:1003800020436C617373696320504944200A002044
:100390004B643A2000204B693A2000204B703A20F1
:1003A000002054753A2000204B753A2000206D61E2
:1003B000783A2000206D696E3A200020643A2000CF
:1003C00020626961733A2000504944204175746F7E
:1003D00074756E652073746172740A00504944200C
:1003E0004175746F74756E65206661696C65642112
:1003F0002054656D706572617475726520746F6FDD
:1004000020686967680A00504944204175746F7418
:10041000756E65206661696C6564212042616420A7
:100420006578747275646572206E756D6265720AA6
:10043000006469730043290A0061626C65642028C6
:100440006D696E2074656D702000436F6C6420656B
:100450007874727564657320617265200020643A57
:100460000020693A0020703A00496E76616C696438
:100470002065787472756465720A0020466C6F7727
:100480003A200046523A00205A0020590020204DC0
:1004900061783A200020204D696E3A2000536F6643
:1004A0007420656E6473746F70733A20003F4A2045
:1004B0006F7574206F662072616E67652028302E1C
:1004C000303120746F20302E33290A002054002050
:1004D0005200416363656C65726174696F6E3A20A6
:1004E00050002F2F20004348414D4245525F544554
:1004F0004D50455241545552450042414259535482
:10050000455050494E470041524353004D4F5449C6
:100510004F4E5F4D4F44455300544845524D414C5A
:100520005F50524F54454354494F4E004C4F4E4735
:100530005F46494C454E414D45004155544F52454B
:10054000504F52545F53445F5354415455530053DA
:1005500044434152440050524F4D50545F53555004
:10056000504F525400454D455247454E43595F50F8
:10057000415253455200434153455F4C494748540B
:100580005F4252494748544E45535300544F4747E2
:100590004C455F4C494748545300534F46545741CC
:1005A00052455F504F574552004255494C445F50A9
:1005B000455243454E54004C4556454C494E475FC5
:1005C00044415441005A5F50524F42450052554EEB
:1005D0004F5554004155544F4C4556454C005052D0
:1005E000494E545F4A4F420050524F475245535371
:1005F000004155544F5245504F52545F54454D5051
:1006000000564F4C554D45545249430045455052B4
:100610004F4D0042494E4152595F46494C455F5447
:1006200052414E534645520053455249414C5F5842
:100630004F4E5F584F4646004649524D574152452E
:100640005F4E414D453A4D61726C696E20322E30DD
:100650002E372E3220284E6F762031332032303222
:10066000302032313A32393A31392920534F5552FC
:1006700043455F434F44455F55524C3A687474702C
:10068000733A2F2F6769746875622E636F6D2F4DF3
:1006900061726C696E4669726D776172652F4D612A
:1006A000726C696E2050524F544F434F4C5F564509
:1006B0005253494F4E3A312E30204D414348494E16
:1006C000455F545950453A3344205072696E746501
:1006D000722045585452554445525F434F554E542D
:1006E0003A3120555549443A636564653261326652
:1006F0002D343161322D343734382D396231322D79
:100700006335356336326633363766660A004D31F7
:1007100031332053004D3131322053687574646F8A
:10072000776E006F66660044454255473A00205791
:100730003A002569792025696420256968202569A2
:100740006D20256973005072696E742074696D653F
:100750003A200047322F4733206261642070617273
:10076000616D65746572730A00FFFFFF0000000091
:10077000000000000000000060025B0254024D0215
:100780003F02000048420000484200008040000054
:100790002100240027002A002D0030003300010131
:1007A0000000040107010A012121204B494C4C2083
:1007B00063617573656420627920746F6F206D7555
:1007C000636820696E6163746976652074696D651C
:1007D000202D2063757272656E7420636F6D6D617C
:1007E0006E643A20004D343130004D313132004DCD
:1007F000313038005072696E7465722073746F7096
:100800007065642064756520746F206572726F7204
:10081000732E2046697820746865206572726F7245
:1008200020616E6420757365204D39393920746FED
:1008300020726573746172742E202854656D706522
:100840007261747572652069732072657365742EA8
:100850002053657420697420616674657220726526
:100860007374617274696E67290A004E6F20436861
:1008700065636B73756D2077697468206C696E654C
:10088000206E756D6265722C204C617374204C690A
:100890006E653A2000636865636B73756D206D69E2
:1008A000736D617463682C204C617374204C696EA5
:1008B000653A20004C696E65204E756D6265722048
:1008C0006973206E6F74204C617374204C696E657F
:1008D000204E756D6265722B312C204C6173742033
:1008E0004C696E653A20004D313130006275737984
:1008F0003A2070617573656420666F7220696E704E
:1009000075740A00627573793A2070617573656455
:1009100020666F7220757365720A00627573793A8A
:100920002070726F63657373696E670A0050726935
:100930006E7465722068616C7465642E206B696CDE
:100940006C28292063616C6C6564210A006563680A
:100950006F3A004572726F723A00204D393220585A
:100960000020496E76616C696420657874727564E4
:10097000657220004361703A00526573656E643A97
:1009800020000000484300004843000048430000A6
:100990009643000096430000A0400000C8410000BC
:1009A000A0420000A04200007A450000FA43B80BC4
:1009B0000000B80B0000640000001027000024F4C1
:1009C000D43050C38E20C2A24017828B7011127A8D
:1009D000910D816CD90AA861E108C7586607615179
:1009E00043061E4B5D05C145A7041A411104093D8C
:1009F0009803713931034036DB0265339102D430FC
:100A00005402802E1D02632CEE01752AC501B02808
:100A1000A001102781018F2564012B244B01E022C6
:100A20003401AC211F018D200D01801FFC00841EAC
:100A3000ED00971DDF00B81CD200E61BC600201B8E
:100A4000BC00641AB200B219A8000A19A0006A1802
:100A50009900D117910040178B00B516840031160C
:100A60007E00B31579003A157300C7146F0058144F
:100A70006A00EE1366008813630025135E00C71238
:100A80005B006C12570015125400C1115100701117
:100A90004F0021114B00D61049008D104700461021
:100AA000440002104200C00F4000800F3E00420F81
:100AB0003C00060F3B00CB0E3800930E37005C0E57
:100AC0003500270E3400F30D3200C10D3100900DBA
:100AD0003000600D2E00320D2D00050D2C00D90CBC
:100AE0002B00AE0C2900850C29005C0C2700350C6E
:100AF00027000E0C2600E80B2400C40B2400A00BDA
:100B000023007D0B23005A0B2100390B2100180B09
:100B10002000F80A1F00D90A1E00BB0A1E009D0A09
:100B20001D00800A1D00630A1C00470A1B002C0AD6
:100B30001B00110A1A00F7091A00DD091900C4097F
:100B40001900AB091900920917007B091800630905
:100B500017004C09160036091600200916000A096C
:100B60001500F5081500E0081400CC081400B808BA
:100B70001400A4081400900813007D0812006B08EC
:100B80001300580812004608120034081100230808
:100B900011001208110001081100F0071000E00711
:100BA0001000D0071000C0071000B0070F00A10709
:100BB000100091070E0083070F0074070F006507F0
:100BC0000E0057070E0049070E003B070D002E07C9
:100BD0000E0020070D0013070D0006070D00F90693
:100BE0000C00ED060D00E0060C00D4060C00C80653
:100BF0000C00BC060C00B0060C00A4060B00990605
:100C00000C008D060B0082060B0077060B006C06AD
:100C10000B0061060A0057060B004C060A0042064C
:100C20000A0038060A002E060A0024060A001A06E0
:100C30000A001006090007060A00FD050900F40570
:100C40000900EB050900E2050900D9050900D005F6
:100C50000900C7050900BE050900B5050800AD0576
:100C60000800A50509009C050800940508008C05EE
:100C70000800840508007C050800740508006C0560
:100C80000700650508005D050700560508004E05CC
:100C90000700470507004005080038050700310533
:100CA00007002A050700230507001C050600160596
:100CB00007000F0507000805060002050700FB04F2
:100CC0000600F5040700EE040600E8040600E2044E
:100CD0000700DB040600D5040600CF040600C904A3
:100CE0000600C3040600BD040600B7040600B104F4
:100CF0000500AC040600A6040600A00405009B0441
:100D0000060095040500900406008A040500850489
:100D10000500800406007A040500750405007004CF
:100D200005006B04050066040500610405005C0411
:100D3000050057040500520405004D040500480451
:100D40000500430405003E0404003A040500350490
:100D50000500300404002C040500270404002304CB
:100D600005001E0404001A04040016040500110402
:100D700004000D0404000904050004040400000438
:100D80000400FC030400F8030400F4030400F0036F
:100D90000400EC030400E8030400E4030400E0039F
:100DA0000400DC030400D8030400D4030400D003CF
:100DB0000400CC030400C8030300C503030024F4AB
:100DC00004D9201BC40C5C0E9804C4095F0265079B
:100DD0007101F405F900FB04B30048048700C10366
:100DE00069005803550003034500BE023A0084021F
:100DF000310053022A002902250004022000E401E8
:100E00001C00C8011900AF011700980114008401EB
:100E10001300710110006101100051010E00430127
:100E20000D0036010B002B010B0020010B001501FA
:100E300009000C01090003010800FB000800F30091
:100E40000800EB000700E4000600DE000600D80002
:100E50000600D2000600CC000500C7000500C20055
:100E60000500BD000400B9000400B5000400B10095
:100E70000400AD000400A9000400A5000300A200C6
:100E800003009F0004009B000300980003009500EE
:100E9000020093000300900003008D0002008B000D
:100EA0000300880002008600020084000300810025
:100EB00002007F0002007D0002007B00020079003A
:100EC0000200770001007600020074000200720048
:100ED0000100710002006F0002006D0001006C0053
:100EE00002006A000100690002006700010066005C
:100EF0000100650001006400020062000100610061
:100F00000100600001005F0002005D0001005C0064
:100F100001005B0001005A00010059000100580067
:100F20000100570001005600010055000100540067
:100F30000100530000005300010052000100510065
:100F40000100500001004F0001004E0000004E0063
:100F500001004D0001004C0001004B0000004B005F
:100F600001004A000100490001004800000048005B
:100F70000100470001004600000046000100450056
:100F80000000450001004400010043000000430050
:100F90000100420000004200010041000000410049
:100FA0000100400001003F0000003F0001003E0042
:100FB00000003E0001003D0000003D0001003C003B
:100FC00000003C0000003C0001003B0000003B0032
:100FD00001003A0000003A00010039000000390029
:100FE0000100380000003800000038000100370020
:100FF0000000370001003600000036000000360017
:10100000010035000000350000003500010034000B
:101010000000340000003400010033000000330001
:1010200000003300010032000000320000003200F6
:1010300001003100000031000000310001003000EB
:10104000000030000000300001002F0000002F00E1
:1010500000002F0000002F0001002E0000002E00D5
:1010600000002E0001002D0000002D0000002D00CA
:1010700000002D0001002C0000002C0000002C00BE
:1010800000002C0001002B0000002B0000002B00B2
:1010900000002B0001002A0000002A0000002A00A6
:1010A00000002A000100290000002900000029009A
:1010B000000029000000290001002800000028008D
:1010C0000000280000002800000028000100270080
:1010D0000000270000002700000027000000270074
:1010E0000100260000002600000026000000260067
:1010F000000026000100250000002500000025005A
:10110000000025000000250000002500010024004B
:10111000000024000000240000002400000024003F
:101120000100230000002300000023000000230032
:101130000000230000002300000023000100220023
:101140000000220000002200000022000000220017
:101150000000220001002100000021000000210009
:1011600000002100000021000000210000002100FB
:1011700001002000000020000000200000002000EE
:1011800000002000000020000000200000002000DF
:1011900001001F0000001F0000001F0000001F00D2
:1011A00000001F0000001F0000001F0001001E00C3
:1011B00000001E0000001E0000001E00000004379A
:1011C00000001E290000511B0000581000001009EB
:1011D0000000CC04000078020000410100004861DA
:1011E0007264636F6465642044656661756C742025
:1011F00053657474696E6773204C6F616465640A2B
:10120000003B200020490020204D33303120500089
:101210005049442073657474696E67733A002020E6
:101220004D323036205800486F6D65206F6666730A
:1012300065743A00204A0020204D323035204200AB
:10124000416476616E6365643A20423C6D696E5F0D
:101250007365676D656E745F74696D655F75733E08
:1012600020533C6D696E5F66656564726174653EAE
:1012700020543C6D696E5F74726176656C5F666563
:101280006564726174653E204A3C6A756E635F6492
:1012900065763E0020204D3230342050004163639B
:1012A000656C65726174696F6E2028756E69747300
:1012B0002F7332293A20503C7072696E745F6163FB
:1012C00063656C3E20523C726574726163745F6149
:1012D0006363656C3E20543C74726176656C5F613B
:1012E0006363656C3E0020204D3230312058004D44
:1012F0006178696D756D20416363656C65726174B9
:10130000696F6E2028756E6974732F7332293A00E5
:1013100020450020204D3230332058004D6178693F
:101320006D756D20666565647261746573202875DE
:101330006E6974732F73293A00537465707320704B
:10134000657220756E69743A0020440020204D3289
:1013500030302053002044697361626C65640A0078
:1013600046696C616D656E742073657474696E672F
:10137000733A0020286D6D2900202047323120204B
:1013800020203B20556E69747320696E206D6D00BE
:101390006F70656E00545249474745524544007A84
:1013A0005F6D696E00795F6D696E00785F6D696E63
:1013B000005265706F7274696E6720656E64737435
:1013C0006F70207374617475730A00486F6D696E75
:1013D00067204661696C6564005761726E696E676B
:1013E0003A20486F6D696E672042756D70204469C0
:1013F0007669736F72203C20310A000202040000FB
:10140000A0400000A0400000004020746F6F206CDE
:101410006F6E6720657874727573696F6E20707275
:101420006576656E7465640A0020636F6C64206580
:101430007874727573696F6E2070726576656E74FC
:1014400065640A00DB0FC93F45BCDA3F8FB3024039
:10145000FCF0274056946140FE4B9B4084A5D84049
:10146000E0231841346A5641E859974164DBD5417D
:101470006E271742B4B75542CE1A9742C8AED5422E
:10148000B5885A43D40684BFA65FA7BF7443E0BFA4
:1014900010B11AC01C2C58C0E8F697C0B849D6C085
:1014A0004E4E17C124D355C1802497C1A0B5D5C1D4
:1014B000121A17C244AE55C2781797C26CACD5C287
:1014C00067885AC34572723A204D415854454D5071
:1014D000004D415854454D502074726967676572DC
:1014E0006564004572723A204D494E54454D500096
:1014F0004D494E54454D5020747269676765726559
:101500006400202F0020403A002020506C616E6E55
:10151000657242756666657242797465733A200039
:101520002046726565204D656D6F72793A200043E3
:101530006F6D70696C65643A204E6F762031332090
:10154000323032300A00204C61737420557064616F
:101550007465643A20323032302D31302D313520EF
:101560007C20417574686F723A2033444350205494
:1015700065616D0A00322E302E372E320A004D6121
:10158000726C696E0020536F6674776172652052C9
:10159000657365740A00205761746368646F67201F
:1015A00052657365740A002042726F776E206F7502
:1015B000742052657365740A002045787465726EF4
:1015C000616C2052657365740A00506F77657255BF
:1015D000700A00656E6473746F7073206869743A82
:1015E0002000636D640A0070012C0190012701B096
:1015F000012201C0011D01F0011801100213013088
:10160000020E016002090190020401C002FF000005
:1016100003FA004003F5008003F000D003EB002044
:1016200004E6007004E100E004DC004005D700C0DF
:1016300005D2004006CD00D006C8008007C30030A8
:1016400008BE00F008B900C009B400B00AAF00B08D
:101650000BAA00D00CA500000EA000500F9B00C0EC
:101660001096005012910000148C00C0158700B035
:10167000178200B0197D00D01B7800001E73004057
:10168000206E0090226900F024640040275F0090E3
:10169000295A00E02B5500102E500020304B00102E
:1016A000324600E033410090353C0010373700707F
:1016B000383200A0392D00B03A2800A03B2300604A
:1016C0003C1E00103D1900903D1400103E0F0070AC
:1016D0003E0A00C03E0500003F0000403FFBFF8087
:1016E0003FF6FFC03FF1FF20436F756E7420583AFC
:1016F00000453100626564002C2073797374656D58
:101700002073746F70706564212048656174657220
:101710005F49443A2000202D20496E76616C69644F
:10172000206578747275646572206E756D6265727D
:1017300020210A00220A00556E6B6E6F776E2063BF
:101740006F6D6D616E643A20220020453A00205A88
:101750003A0020593A0000002200250028002B0002
:101760002E003100340002010000050108010B01C8
:1017700005050505070508080808020202020A0A0D
:10178000080804040404010101010101010103032B
:10179000030303030303040707070C0C0C0C0C0CD6
:1017A0000C0C0202020206060606060606060B0BD3
:1017B0000B0B0B0B0B0B0102102020080810204014
:1017C0001020408002010201080402010102040805
:1017D0001020408080402010080402018004020193
:1017E00080402010080402010804020101020408DC
:1017F00010204080010204081020408000000A0BE5
:1018000002090C0D0E08070304010000000000008F
:1018100000000000000000000000000000000000C8
:101820000000000000000000121110000000000085
:1018300000000000000000000000000000000000A8
:101840000000245F11241FBECFEFD1E2DEBFCDBF69
:1018500000E00CBF12E0A0E0B2E0E2E2F6ED00E052
:101860000BBF02C007900D92A435B107D9F72BE04A
:10187000A4E5B2E001C01D92AB39B207E1F71CE06C
:10188000C2E2DCE000E006C021970109802FFE01E2
:101890000E94CA67C132D10780E00807A9F70E94F9
:1018A000C05B0C940F6B0C9400002F923F924F92F0
:1018B0005F926F927F928F929F92AF92BF92CF92E0
:1018C000DF92EF92FF920F931F93CF93DF93CDB7E9
:1018D000DEB7C557D1090FB6F894DEBF0FBECDBF36
:1018E0002091AF02A4962FAFA49721E02093AF02DE
:1018F0008091AE028D3409F46EC2843511F40C94DB
:10190000D31B873411F00C94F81B2090AC0230905C
:10191000AD0234E02316310409F495C154F437FCC8
:1019200056C28091AA0252E0251631040CF0FFC085
:101930002FC08AE52816310409F4D4C164F4A5E166
:101940002A16310411F40C94FA1BBCE12B16310455
:1019500009F4B8C13CC2EBE52E16310409F4C6C146
:10196000FCE52F16310409F032C2F9E42F2EF2E023
:101970003F2EA5E8EA2EA2E0FA2EA3E4BBE0BB8F3F
:10198000AA8FB3E5CB2EBBE0DB2E00E010E0EFC169
:10199000813011F00C94FA1B0E9412278AE992E020
:1019A0000E94C2408091D80883FD85C020914F0BD2
:1019B0003091500B4091510B5091520B6091A60207
:1019C0007091A7028091A8029091A9020E946A6377
:1019D000882309F470C080914E0481111BC060916E
:1019E00053047091540480915504909156040E94C0
:1019F000516920914402309145022150310962170A
:101A0000730744F40E94C42889E294E10E949E284E
:101A100011E001C010E020914F0B3091500B40912C
:101A2000510B5091520B6091A6027091A7028091C8
:101A3000A8029091A9020E94E4676B017C0120E05A
:101A400030E0A9010E94456A87FF04C0F7FAF094CC
:101A5000F7F8F09420914002309141024091420207
:101A600050914302C701B6010E94D06320E030E0EC
:101A700048E453E40E94456A18163CF40E94C428C6
:101A80008AE094E10E949E2802C01123A1F0809177
:101A9000A6029091A702A091A802B091A9028093FA
:101AA0004F0B9093500BA093510BB093520B86EABF
:101AB00092E00E94DB3D2AE037ED43E25CE3609177
:101AC0002C0270912D0280912E0290912F020E9483
:101AD000D0636B017C0160912A0270912B02072E6A
:101AE000000C880B990B0E9471639B01AC01C7012C
:101AF000B6010E94D06369837A838B839C838E01B5
:101B00000F5F1F4F26EA32E042EA52E06EE972E0D0
:101B10008AE992E00E94665B80E1EAE9F2E0A3E4F0
:101B2000BBE001900D928A95E1F70C94FA1B81308D
:101B300011F00C94FA1B0E94122782E50E940527DF
:101B4000882309F44EC00E9480266B017C0120E0AE
:101B500030E0A9010E946A63882311F40C94CF1C21
:101B60002091430B3091440B4091450B5091460B13
:101B70002A8F3B8F4C8F5D8F8091470B9091480B44
:101B8000A091490BB0914A0B8E8F9F8FA8A3B9A348
:101B900080909A0290909B02A0909C02B0909D022F
:101BA00040909E0250909F026090A0027090A1020F
:101BB000A50194016A8D7B8D8C8D9D8D0E946A6339
:101BC00081110C94101CA30192016E8D7F8D88A150
:101BD00099A10E946A63882311F40C94CF1C0C9481
:101BE000101C89E40E940527882329F00E94802682
:101BF0006B017C0103C0C12CD12C76018AE40E94C8
:101C00000527882311F40C94D61C0E9480266AA311
:101C10007BA38CA39DA320E030E0A901C701B601FE
:101C20000E946A6381110C94E31C20E030E0A9015A
:101C30006AA17BA18CA19DA10E946A6381110C9471
:101C4000E31C0C94CF1C80E50E940527882379F0C3
:101C50008091940290919502009749F04AE050E0FB
:101C600060E070E00E94E1616B017C0103C0C12C67
:101C7000D12C760183E50E940527882361F00E941C
:101C8000802620E030E04AE754E40E94D0630E94BE
:101C900058696B017C010E94003B0E943954C60EBA
:101CA000D71EE81EF91E0E943954DC01CB018C19A5
:101CB0009D09AE09BF09B7FD02C00C94FA1B0E9432
:101CC000DC2AF1CF809193028770873011F00C9459
:101CD000832060E08FE40E94C42781110C94FA1BDA
:101CE0000C9483201092AB020C94FA1B8FE080932B
:101CF000AB020C94FA1B0E9480262B013C0113308E
:101D000049F0D6012D913D914D915C910E94E4677F
:101D10002B013C01EA8DFB8D208131814281538171
:101D2000C301B2010E94E4674B015C012DEB37E374
:101D300046E855EB0E94456A87FD21C02DEB37E34D
:101D400046E855E3C501B4010E946A631816BCF069
:101D50001F5FF4E0EF0EF11C2A8D3B8D2C5F3F4F8F
:101D60003B8F2A8F34E0C30ED11C143031F1F101C6
:101D700081911F010E940527882351F3BCCF1330A6
:101D800051F440924F0B5092500B6092510B709255
:101D9000520B01E0DDCFA5019401D7016D917D913A
:101DA0008D919C910E94E567F70160837183828326
:101DB0009383812F0E94A240CBCF002321F08FE498
:101DC0009BE00E94DB3D0E9486420C94FA1B0E941D
:101DD000515B0C94FA1B8091AC029091AD02853757
:101DE000910511F40C94FA1B0CF000C18C3591058F
:101DF00009F48FC5ECF58D34910509F45BC2C4F488
:101E00008F31910509F496C14CF48131910509F4A3
:101E10007DC1429709F424C50C94D01B8B349105E5
:101E200009F42FC28C34910509F42FC20C94D01BF5
:101E30008335910509F40DC58CF48135910509F4BC
:101E4000F9C48235910511F00C94D01B8091AB023E
:101E50008F7D80618093AB020C94FA1B84359105D1
:101E600009F4FEC48535910509F430C50C94D01BE6
:101E70008D36910509F447C2E4F48A36910509F4D8
:101E8000F3C354F48836910509F418C289369105D4
:101E900009F4D4C30C94D01B8B36910509F407C404
:101EA0008C36910511F00C94D01B10920F020C94FB
:101EB000FA1B8037910509F461C454F48E369105FC
:101EC00009F4FFC38F36910509F40EC40C94D01B9E
:101ED0008237910509F4A7C50CF45BC483379105DB
:101EE00011F00C94D01B88E396E00E949E2860E0DD
:101EF00088E296E00E94A12A60E083E196E00E94D9
:101F0000A12A60E08CE096E00E94A12A61E081E0D5
:101F100096E00E94A12A61E081EF95E00E94A12A4B
:101F200060E088EE95E00E94A12A61E08EED95E0E8
:101F30000E94A12A60E084ED95E00E94A12A60E061
:101F40008DEC95E00E94A12A60E085EC95E00E946E
:101F5000A12A60E087EB95E00E94A12A60E089EA6F
:101F600095E00E94A12A60E08AE995E00E94A12AFA
:101F700060E08CE895E00E94A12A60E086E795E0A9
:101F80000E94A12A60E085E695E00E94A12A60E017
:101F900086E595E00E94A12A60E08FE495E00E942A
:101FA000A12A60E08AE395E00E94A12A60E08CE229
:101FB00095E00E94A12A61E089E195E00E94A12AB2
:101FC00060E08CE095E00E94A12A61E087E095E066
:101FD0000E94A12A60E08AEF94E00E94A12A60E0BA
:101FE00086EE94E00E94A12A0C94FA1B8C3D910588
:101FF00009F422C7E4F5883C910509F465C5E4F4C9
:102000008837910509F452C56CF48637910509F4B7
:1020100011C58737910511F00C94D01B0E940D4318
:102020000C94FA1B8937910509F447C58B39910542
:1020300009F4D9C30C94D01B8C3C910509F4D3C589
:1020400054F4893C910509F486C58B3C910509F44B
:10205000A9C50C94D01B8E3C910509F40BC60CF459
:10206000F6C5833D910509F421C60C94D01B8A392D
:1020700041E0940709F489C3FCF48E32A1E09A0789
:1020800009F4D6C754F48D3D910509F4FCC68D3290
:10209000914009F44EC70C94D01B8F32F1E09F079A
:1020A00011F40C945C188039914011F00C94D01B01
:1020B0000E94003B0C94FA1B853F31E0930711F41A
:1020C0000C94B21B9CF48C3A51E0950711F40C94DB
:1020D000431B843F914011F00C94D01B0E94C028F8
:1020E00088E692E00E949E280C94FA1B873FB1E09C
:1020F0009B0711F40C94BB1B14F40C94B81B873E83
:10210000934011F40C94C41B0C94D01B8091810259
:1021100084FF02C00C94AF218091830287FF02C02C
:102120000C94AF2180918402837011F00C94AF2144
:102130000C94CB210E9434437B018C0120E831E5D3
:1021400041E050E00E945B67C9016DE671E00E94CA
:1021500097674B015C01C801B70120E13EE040E018
:1021600050E00E945B67CA01B90128E130E040E01D
:1021700050E00E945B67762E672EC62ED72EECE3CA
:102180002E2E312C412C512CC801B701A2019101F6
:102190000E945B67F62EE72ECA01B901A2019101E8
:1021A0000E945B67CB018E010F5F1F4F811491046A
:1021B00099F0EF92FF927F936F936F927F92BF920D
:1021C000AF929F928F9282E397E09F938F931F939A
:1021D0000F930E943B6313C0A114B104B1F0EF92BE
:1021E000FF927F936F936F927F92BF92AF9286E33D
:1021F00097E09F938F931F930F930E943B630FB6BB
:10220000F894DEBF0FBECDBF30C0CD2879F0EF927D
:10221000FF927F936F936F927F928AE397E09F93F1
:102220008F931F930F930E943B63E9CF892B69F033
:10223000EF92FF927F936F938EE397E09F938F933C
:102240001F930F930E943B63DACFEF92FF9282E4D9
:1022500097E09F938F931F930F930E943B630F9080
:102260000F900F900F900F900F900E94C428B8010C
:1022700086E497E00E94AD288AE00E9497280C949B
:10228000FA1B0E9483430C94FA1B809180028130D8
:1022900011F00C94FA1B82E0809380020E94395462
:1022A00060937C0270937D0280937E0290937F0204
:1022B0000C94FA1B0E94A7430C94FA1B8091D80837
:1022C00083FF02C00C94FA1B0E94872987FF02C07B
:1022D0000C94FA1B83E50E940527882381F00E9455
:1022E00080260E945169CB010E948F54809157042F
:1022F000909158048635910514F40C94D4210E94D1
:102300007A3A0C94FA1B8091D80883FF02C00C948F
:10231000FA1B0E9487298AAF87FF02C00C94FA1B20
:1023200083E50E9405278EAF81110C94D82182E5A8
:102330000E94052781110C94D82110E00E947A3A5E
:10234000112311F40C94FA1BB0917B026096BFAF7D
:10235000609710927B0281E080930F021E8E1F8E89
:1023600018A219A21AAA1BAA1CAA1DAA23961FAE5C
:102370002397ECE32796EFAF2797FCE12B96FFAF6F
:102380002B9726E42F962FAF2F97C12CD12C60E8E6
:10239000E62E7FEBF72E1A8E31E03EAB812C912C8E
:1023A00054016091570470915804072E000C880B5B
:1023B000990B0E947163162F072F782E692E9601B4
:1023C000A7010E946A63882321F120915304309170
:1023D000540440915504509156048EAD612F702FD6
:1023E000811109C0872D962D0E946A63881F882756
:1023F000881F8A8F14C0872D962D0E946A6387FFDD
:102400000DC080910F02882309F411C110920F02B0
:102410000EC11C2D0D2D7E2C6F2C01C01A8E0E941A
:1024200039546B017C01DC01CB012AA93BA94CA9E1
:102430005DA9821B930BA40BB50BB7FD33C0D7016D
:10244000C60188519C4FAF4FBF4F8AAB9BABACAB23
:10245000BDAB8AAD0E94D0548EE297E00E949E28C8
:1024600081149104A104B104B9F0D501C401805FC5
:10247000984DAF4FBF4FBC01CD016C197D098E093E
:102480009F0928EE33E040E050E00E945B67CA01FC
:10249000B9010E945E2903C08FE30E9497288AE059
:1024A0000E9497280E94DC2A0E9439546093960269
:1024B000709397028093980290939902909153049D
:1024C0009AA3A0915404AEA3B0915504BAA7E09189
:1024D0005604EEA7292F3A2F4B2F5E2F612F702F16
:1024E000872D962D0E94E4671B012C0120E030E02F
:1024F000A9010E94456A87FF04C057FA509457F813
:10250000509481149104A104B104E1F420E030E07E
:1025100040E85FE3C201B1010E946A6387FF1EC009
:10252000FEA9FF2339F055E0852E5DE0952EA12C04
:10253000B12C03C0812C912C54018C0C9D1CAE1C21
:10254000BF1C0CC020E030E040E450E4C201B10107
:102550000E94456A181614F4460157012A8D222359
:1025600009F448C08E8D9F8DA8A1B9A1892B8A2B13
:102570008B2B61F0D701C6012E8D3F8D48A159A14B
:10258000821B930BA40BB50BB7FD34C02AA13EA14F
:102590004AA55EA523966FAD239727967FAD279713
:1025A0002B968FAD2B972F969FAD2F970E94E467A8
:1025B00020E030E040EC5FE30E946A6387FD21CFBA
:1025C000D701C601805A9541AF4FBF4F8E8F9F8F65
:1025D000A8A3B9A39AA123969FAF2397AEA127964C
:1025E000AFAF2797BAA52B96BFAF2B97EEA52F9627
:1025F000EFAF2F9780910F02882309F402CF811447
:102600009104A104B10431F41EAAC12ED02EE72CEE
:10261000F62CC7CEF0E1CF1AF7E2DF0AE108F108A5
:10262000C818D908EA08FB08F7FCEECFEACE609696
:102630002FAD609720937B020C94FA1B0E94872990
:10264000182F87FD0AC085E692E00E949E28812F00
:102650000E94D0548AE00E949728A4963FADA49788
:102660003093AF020C94A72480E50E945F5B811138
:102670000C94FA1B81E40E94B726882321F0609114
:102680003D04062F02C00FEF10E083E50E940527EE
:10269000882349F00E944C268B016F3F710519F089
:1026A00010F00FEF10E000933D040C94FA1B80E54E
:1026B0000E945F5B81110C94FA1B10923D040C94F4
:1026C000FA1B8EE40E940527882311F40C94FA1B50
:1026D0000E944C266093770270937802809379026F
:1026E00090937A020C94FA1B83E50E94B726882304
:1026F00029F083E50E945F5B8093D8080E94C4287C
:1027000087E297E00E949E288091D808882369F18B
:1027100048E7E42E47E0F42E00E010E020E080914E
:10272000D80890E0A0E0B0E0002E04C0B695A795D0
:10273000979587950A94D2F780FF0EC0DD24D39435
:10274000D20E222319F08CE20E949728F70185917E
:1027500094910E949E282D2D0F5F1F4F42E0E40EA2
:10276000F11C05301105D9F604C083E297E00E9400
:102770009E288AE00E9497280C94FA1B41E060E0B2
:1027800070E085E197E00E94C8280E9418280C9408
:10279000FA1B83E50E940527882381F00E945C26AE
:1027A000282F30E02D33310524F480930E020C9451
:1027B000FA1B8CE380930E020C94FA1B0E94C4282F
:1027C000C0900E02D12CE12CF12C8EE097E00E94FB
:1027D0009E284AE0C701B6010E94F1288AE00E94C3
:1027E00097280C94FA1B83E50E940527882311F48F
:1027F0000C94FA1B0E945C26182F90E0CD970CF0E9
:102800001CE3109376020E9439546B017C01212F46
:1028100030E0A8EEB3E00E948867C60ED71EE81E1F
:10282000F91EC0927202D0927302E0927402F0928A
:102830007502E0C70E9429560E94A7430E94103BE0
:1028400010923D0468EE73E080E090E00E94D9278A
:10285000D1C78091AB028F7E80628093AB02CAC7E2
:1028600083E50E9405278823E9F00E94395460938C
:1028700096027093970280939802909399020E9417
:10288000802620E030E04AE754E40E94D0630E94B2
:10289000586960930A0270930B0280930C02909324
:1028A0000D02A8C78091810284FF02C00C94EE2122
:1028B0008091830287FF02C00C94EE2180918402F4
:1028C000837011F00C94EE210C941F2283E50E947A
:1028D000B726882309F48EC70E9439546093960264
:1028E0007093970280939802909399020E94802699
:1028F00020E030E04AE754E40E94D0630E94586927
:1029000060936D0270936E0280936F0290937002D9
:1029100071C70E94872987FD6DC79091810294FD40
:1029200004C09091830297FF0AC029E4C22E22E0DE
:10293000D22E39EDE32E38E0F32E10E009C090914D
:102940008402937091F7682F81E00E94362A52C763
:10295000D6018D916D010E940527882309F459C085
:10296000133009F04FC00E9480264B015C0120E02B
:1029700030E040EA51E40E946A6387FF3AC0A50153
:1029800094016091F9087091FA088091FB08909188
:10299000FC080E94DF682B013C019B01AC016091A7
:1029A000090970910A0980910B0990910C090E9404
:1029B000D0636093090970930A0980930B0990937F
:1029C0000C09609135047091360480913704909120
:1029D00038040E946F63A30192010E94D0630E9499
:1029E000586960933504709336048093370490934C
:1029F00038048092F9089092FA08A092FB08B092ED
:102A0000FC0807C00E948026F701648B758B868BBB
:102A1000978B1F5FF4E0EF0EF11C143009F098CF94
:102A20000E94103FE7C60E94EC5A81E89BE00E949A
:102A30000A5AE0C600916B0210916C0294E0F12CEE
:102A400040E0915031F1D8018C91282F2B7F213417
:102A500029F411962C912133E1F408C08035C9F492
:102A6000F801818180538A3048F013C0813421F00D
:102A7000853421F441E002C0FF24F39498012E5FD5
:102A80003F4F89012F5F3F4FD8018C918032C9F3AE
:102A9000D8CF41110E94C428FF2021F082EE94E09B
:102AA0000E949E28C8010E94BB2AA4C620939202BD
:102AB000209391020E9429439DC610929202109287
:102AC00091020E94294396C60E948729182F87FDEC
:102AD00091C600916A0284E40E940527882311F4BC
:102AE0000C9422220E9480266B017C0120E030E0C1
:102AF000A9010E946A63882341F1B4E01B02F0013E
:102B00001124EA59FD4FC082D182E282F38220E093
:102B100030E0A901609166027091670280916802BD
:102B2000909169020E946A6381110CC080E090E07C
:102B3000A0EEBFE38093660290936702A0936802C1
:102B4000B093690201E00C94222280E080936A0233
:102B50000E94213B4FC60E94872987FD4BC689E40E
:102B6000E82E82E0F82E09ED18E099EEC92E98E0E3
:102B7000D92EF70181917F010E94B726882361F049
:102B80000E9480260E945869D8016D937D938D9391
:102B90009C9313970E94B93A0C5F1F4FC016D10641
:102BA00041F728C60E94872987FD24C609E4E02E44
:102BB00002E0F02E09ED18E0F70181917F010E94FB
:102BC000B726882349F00E948026D80194966D93F9
:102BD0007D938D939C9397970C5F1F4FB8E0093EB0
:102BE0001B0751F707C68091820287FF02C00C9431
:102BF0002822809183028E7011F00C94282240913B
:102C00000D0950910E0960910F097091100982ED24
:102C100094E00E94252A4091110950911209609177
:102C20001309709114098FEC94E00E94252A4091B9
:102C300015095091160960911709709118098CECCB
:102C400094E00E94252A8AE00E949728D3C58091AB
:102C5000810281FF02C00C946E228091820281FF6A
:102C600002C00C946E22809183028C7011F00C943F
:102C70006E22C0C51AE5E12E12E0F12E10E088E5C3
:102C8000810F0E94B726882351F00E948026F70109
:102C90006083718382839383812F0E94A2401F5F90
:102CA000F4E0EF0EF11C133051F78DC84090530B38
:102CB0005090540B6090550B7090560B209112025F
:102CC000309113024091140250911502C301B201D8
:102CD0000E94E5676A8F7B8F8C8F9D8F8090570B4A
:102CE0009090580BA090590BB0905A0B209116025F
:102CF000309117024091180250911902C501B40198
:102D00000E94E5676E8F7F8F88A399A3C0905B0BAD
:102D1000D0905C0BE0905D0BF0905E0B20911A025E
:102D200030911B0240911C0250911D02C701B60157
:102D30000E94E5676AA37BA38CA39DA320911E023A
:102D400030911F024091200250912102C301B20133
:102D50000E94E5672B013C01209122023091230261
:102D60004091240250912502C501B4010E94E567FB
:102D70004B015C01209126023091270240912802EC
:102D800050912902C701B6010E94E5676B017C01E1
:102D90000E94C4288DE994E00E949E2883E50E9449
:102DA000B726882321F00E9470268093100280911C
:102DB0001002882319F08AE492E002C084E396E0CE
:102DC0000E949E2885E994E00E949E284A8D5B8D92
:102DD0006C8D7D8D8CEE92E10E94252A4E8D5F8D4B
:102DE00068A179A18AE894E00E94252A4AA15BA102
:102DF0006CA17DA187E894E00E94252A84EE94E0EE
:102E00000E949E288DE894E00E949E28B301A201B2
:102E10008CEE92E10E94252AB501A4018AE894E093
:102E20000E94252AB701A60187E894E00E94252A7E
:102E30008AE00E949728DEC483E50E940527882344
:102E400031F00E944C2670932B0260932A028091ED
:102E5000810290918202A0918302B0918402892B19
:102E60008A2B8B2B09F0C6C460912A0270912B0229
:102E700083E894E00E947A2985E20E9497288AE0FC
:102E80000E949728B7C40E948729F82E87FDB2C4F4
:102E900083E50E9405270F2D0F2C000C110B8823B2
:102EA00069F10E944C26F801EE0FFF1FE85FFD4F0D
:102EB00071836083000F111F000F111F9801205CA8
:102EC0003D4F7901072E000C880B990B0E9471630E
:102ED0002AE037ED43E25CE30E94D063F801EA5A4E
:102EE000FD4F20813181428153810E94D063D701FF
:102EF0006D937D938D939C9313977CC40E94C428FB
:102F000085E40E94972880E38F0D0E949728000F88
:102F1000111FF801E85FFD4F608171818BE794E03C
:102F20000E947A2985E20E9497288AE00E949728C9
:102F300061C485E40E945F5B811173C080E50E94DB
:102F4000B726882351F00E94802660935A0470931C
:102F50005B0480935C0490935D0489E40E94B7262F
:102F6000882381F00E9480262CEA35EC47E25EE35C
:102F70000E94D06360935E0470935F04809360044A
:102F80009093610484E40E94B726882381F00E9414
:102F900080262CEA35EC47E25EE30E94DF6860930E
:102FA00062047093630480936404909365040E94A8
:102FB000C42840915A0450915B0460915C04709164
:102FC0005D0485E694E00E94252A2CEA35EC47E270
:102FD0005EE360915E0470915F0480916004909163
:102FE00061040E94DF68AB01BC0181E694E00E94AD
:102FF000252A2CEA35EC47E25EE360916204709189
:10300000630480916404909165040E94D063AB01D5
:10301000BC018DE594E00E94252A8AE00E94972851
:10302000E9C30E94C02889E694E00E949E28E2C37A
:1030300083E50E94B726182F882371F00E9480260E
:103040000E945169709345026093440221E0672B0E
:1030500009F020E020934E0480E50E94B7268823E3
:1030600059F02091440230914502232B11F00E9427
:10307000702680934E04BEC31111BCC30E94C428A5
:103080008AE494E00E949E2880914E04882319F0DF
:1030900082E993E102C081E394E00E949E2860915E
:1030A00044027091450289E394E00E947A2985E305
:1030B00094E00E949E289EC385E40E9405278823F1
:1030C00049F00E944C26662329F087E094E00E9494
:1030D0009E2890C383E40E940527882331F00E9434
:1030E0004C266D966FAF6D9704C0B5E06D96BFAF7F
:1030F0006D9760E085E50E94C427E2968FAFE29766
:1031000083E50E940527882319F00E94802604C0C9
:1031100060E070E084E393E40E945169072E000CA4
:10312000880B990B0E9471636AA37EA38AA79EA74E
:103130000E9439542B013C016091060270910702F4
:103140006F507109072E000C880B990B0E94716358
:103150009B01AC016AA17EA18AA59EA50E94456A39
:1031600018162CF48CED93E00E949E2843C3A30113
:103170009201205E314B4F4F5F4FE1962CAF3DAF38
:103180004EAF5FAFE19788EC93E00E949E280E94CB
:1031900029568FE78093590481E080930F0264964B
:1031A0004CAE5DAE6EAE7FAE6497A8964CAE5DAE93
:1031B0006EAE7FAEA8976FE7C62ED12CE12CF12C16
:1031C0006C961CAE1DAE1EAE1FAE6C9768961CAE04
:1031D0001DAE1EAE1FAE6897812C912C54011EAE01
:1031E00030E43AAB4CE14EAB56E423965FAF239705
:1031F00027961FAE27972B961FAE2B972F961FAEA5
:103200002F9760961FAE6097A9961FAEA997AD96AF
:103210008CAE9DAEAEAEBFAEAD978FE790E0A0E0B6
:10322000B0E08E8F9F8FA8A3B9A3A3961CAE1DAE4E
:103230001EAE1FAEA39791E06F969FAF6F971BAE28
:103240001AAE10E0212C312C00E06D96AFAD6D97D9
:103250000A2E000CBB0B6E96BFAFAEAF6E970E94EE
:1032600039546A8F7B8F8C8F9D8F80915502882374
:1032700009F4BCC00E94E2561091530420905404FB
:10328000309055040091560427962FAD27972B9622
:103290003FAD2B972F964FAD2F9760965FAD609700
:1032A000612F722D832D902F0E94456A181664F4A9
:1032B00027961FAF27972B962FAE2B972F963FAEB3
:1032C0002F9760960FAF60972EAD3AA94EA923961F
:1032D0005FAD2397612F722D832D902F0E946A631B
:1032E00087FF06C01EAF2AAA3EAA23960FAF2397D8
:1032F0006F96BFAD6F97212F322D432D502F6AA1AE
:103300007EA18AA59EA5BB2309F454C00E946A63CE
:1033100087FF6CC02A8D3B8D4C8D5D8D241935093E
:1033200046095709E6962CAF3DAF4EAF5FAFE69723
:10333000DA01C90188589341A109B109B7FD56C006
:10334000D701C6012E8D3F8D48A159A1821B930B39
:10335000A40BB50BB595A7959795879580935904C0
:10336000E6968CAD9DADAEADBFADE697A3968CAFA6
:103370009DAFAEAFBFAFA3979AA127969FAF2797F8
:10338000AEA12B96AFAF2B97BAA52F96BFAF2F97B5
:10339000EEA56096EFAF60972A8D3B8D4C8D5D8DCD
:1033A00064962CAF3DAF4EAF5FAF64976F961FAE84
:1033B0006F971CC00E94456A1816C4F48A8D9B8DB5
:1033C000AC8DBD8D64962CAD3DAD4EAD5FAD6497BB
:1033D000821B930BA40BB50BAC01BD0148585341A4
:1033E0006109710977FD02C00C94D52220E030E01C
:1033F00040EF51E46AA17EA18AA59EA50E94E567DF
:10340000212F322D432D502F0E946A6387FF03C066
:103410008CED93E0BAC08A8D9B8DAC8DBD8DA89646
:103420002CAD3DAD4EAD5FADA897821B930BA40BA9
:10343000B50BB7FD8CC080E00E94D0548AE00E949A
:1034400097288A8D9B8DAC8DBD8D8053984FAF4F43
:10345000BF4FA8968CAF9DAFAEAFBFAFA897A99650
:103460009FADA997911158C0AD962CAD3DAD4EAD15
:103470005FADAD97612F722D832D902F0E94456A0D
:103480001816ACF520E030E040E050E4612F722DDA
:10349000832D902F0E94E567AD966CAF7DAF8EAF08
:1034A0009FAFAD972A8D3B8D4C8D5D8D205E314B4E
:1034B0004F4F5F4FE1962CAF3DAF4EAF5FAFE197FF
:1034C00020E030E040EC50E46AA17EA18AA59EA5F0
:1034D0000E94E467212F322D432D502F0E946A63F2
:1034E000881F8827881FA9968FAFA99730C08A8D1B
:1034F0009B8DAC8DBD8DE1962CAD3DAD4EAD5FADE0
:10350000E197821B930BA40BB50BB7FD20C041E6DE
:1035100053E060E773E018C020E030E040EF51E492
:103520006AA17EA18AA59EA50E94E4679B01AC01C9
:10353000612F722D832D902F0E946A6387FF07C031
:1035400041E453E061E573E080E00E94F556649643
:103550008CAD9DADAEADBFAD6497481659066A06F9
:103560007B0610F4D301C2012A8D3B8D4C8D5D8DFD
:10357000281B390B4A0B5B0BDA01C90181389F44C8
:10358000A241B10548F083E293E00E949E28109288
:103590000F020E9429562EC16E964EAD5FAD6E97FA
:1035A0008AAD9BAD481759070CF059CE03970CF420
:1035B00056CE86EC92E00E949E2889EA92E00E9414
:1035C0009E28B501A40182EC92E00E94252A8AE09F
:1035D0000E94972889EA92E00E949E2868964CAD46
:1035E0005DAD6EAD7FAD68978EEB92E00E94252AAF
:1035F0008AE00E94972889EA92E00E949E286C96B1
:103600004CAD5DAD6EAD7FAD6C978AEB92E00E94E4
:10361000252A8AE00E949728E2969FADE297992397
:1036200009F4E8C080925A0490925B04A0925C0472
:10363000B0925D042CEA35EC47E25EE368966CAD2F
:103640007DAD8EAD9FAD68970E94D06360935E04A0
:1036500070935F0480936004909361042CEA35ECCE
:1036600047E25EE36C966CAD7DAD8EAD9FAD6C9721
:103670000E94DF6860936204709363048093640423
:1036800090936504B7C09091930290FD02C087E0CB
:1036900001C086E091FD8D7FDE0111961D0192FD36
:1036A00002C00C9426248B7F11F00C9450240CE65D
:1036B00017E0E3E4FBE0FB8FEA8F99E6C92E97E081
:1036C000D92E7D01F8016591759185919491AA8D0E
:1036D000BB8D8D909D90AD90BD90BB8FAA8FA501A5
:1036E00094010E94E4672B013C01F7016083718320
:1036F0008283938320E030E040EA51EC0E94456AE7
:1037000087FD0AC020E030E040EA51E4C301B20185
:103710000E946A63181634F4F6018491181614F4A2
:103720000C945324D7018D909D90AD90BD907D0158
:1037300020E030E040EA51ECC501B4010E94456A46
:1037400087FF02C00C945F2420E030E040EA51E49F
:10375000C501B4010E946A63181614F00C94672422
:103760000C945F240E94303780E00E94A83842C049
:103770000E9430373FC061E083E50E94C42791E09A
:1037800089270E94A83836C081E08093AA0260E0B1
:1037900083E50E94C42781112DC00E94772A2AC088
:1037A0000E94515B27C00091AC021091AD020E94B3
:1037B0003954609396027093970280939802909385
:1037C00099020023B9F00E94C42884E50E9497283A
:1037D000B8017727072E000C880B990B0E945E29F1
:1037E00080E20E94972889E694E00E949E2802C009
:1037F0000E94515BE0915402F0E0EF56F44F80815B
:10380000882339F085E692E00E949E288AE00E9493
:103810009728A496FFADA497F093AF020C94A72429
:1038200011E022E02216310409F010E020E030E03F
:10383000A901C701B6010E946A63881F8827881FF3
:103840001813A4C020E030E040E85FE32AA33BA3C4
:103850004CA35DA32A8D3B8D4C8D5D8DC501B401BC
:103860000E94E46720E030E040E05FE30E94D06324
:103870006A8F7B8F8C8F9D8F2E8D3F8D48A159A194
:10388000C301B2010E94E46720E030E040E05FE362
:103890000E94D0636E8F7F8F88A399A32A8D3B8D62
:1038A0004C8D5D8DCA01B9010E94D0634B015C0152
:1038B0002E8D3F8D48A159A1CA01B9010E94D06344
:1038C0009B01AC01C501B4010E94E5670E94936AA7
:1038D0004B015C019B01AC01C701B6010E94E4678A
:1038E0002B013C01A5019401C701B6010E94E567C7
:1038F0009B01AC01C301B2010E94D0636B017C014A
:1039000020E030E0A9010E94456A87FD07C0C70199
:10391000B6010E94936A2B013C0103C0412C512C3B
:1039200032016E8D7F8D88A199A19058A5019401D7
:103930000E94DF682AA13BA14CA15DA10E94D06337
:10394000A30192010E94D0632A8D3B8D4C8D5D8D29
:103950000E94E5676B017C01A50194016A8D7B8D56
:103960008C8D9D8D0E94DF682AA13BA14CA15DA199
:103970000E94D063A30192010E94D0632E8D3F8DDF
:1039800048A159A10E94E5670C94070E80E090E0E1
:10399000A0E8BFEB8AA39BA3ACA3BDA35BCF0E940F
:1039A000C02883E597E00E949E2824CF20E030E0E5
:1039B000A901C701B6010E946A63882381F31AA294
:1039C0001BA21CA21DA2A701960150582A8F3B8F53
:1039D0004C8F5D8F8AA19BA1ACA1BDA1B0588E8FE9
:1039E0009F8FA8A3B9A3CA01B9010E94D0634B015C
:1039F0005C012E8D3F8D48A159A1CA01B9010E94D9
:103A0000D0639B01AC01C501B4010E94E5670E942F
:103A1000936A6EAB7FAB88AF99AF2091430B309127
:103A2000440B4091450B5091460B2EA33FA348A752
:103A300059A7A70196016EA17FA188A599A50E940B
:103A4000E5676AAF7BAF8CAF9DAF8091470B9091DC
:103A5000480BA091490BB0914A0B8AA79BA7ACA732
:103A6000BDA72AA13BA14CA15DA1BC01CD010E9433
:103A7000E56722966CAF7DAF8EAF9FAF2297209106
:103A80009A0230919B0240919C0250919D022EA778
:103A90003FA748AB59AB2AAD3BAD4CAD5DAD6EA574
:103AA0007FA588A999A90E94E4676B017C01809198
:103AB0009E0290919F02A091A002B091A1028AABB8
:103AC0009BABACABBDAB22962CAD3DAD4EAD5FAD6F
:103AD0002297BC01CD010E94E4674B015C01A70164
:103AE00096016A8D7B8D8C8D9D8D0E94D0632B01FC
:103AF0003C01A50194016E8D7F8D88A199A10E9442
:103B0000D0639B01AC01C301B2010E94E5672B01A8
:103B10003C01A50194016A8D7B8D8C8D9D8D0E9449
:103B2000D0634B015C01A70196016E8D7F8D88A14A
:103B300099A10E94D0639B01AC01C501B4010E9410
:103B4000E467A30192010E9464686B017C0120E09C
:103B500030E0A9010E946A6387FF0AC02BED3FE0B5
:103B600049EC50E4C701B6010E94E5676B017C0196
:103B70002BED3FE049EC50E4C701B6010E94DF683D
:103B800020E030E040EC51E40E94D0630E94C36822
:103B90000E9458698B01672B11F401E010E032E0BC
:103BA0002316310451F42BED3FE049EC50E4C701FA
:103BB000B6010E94E4676B017C0120E030E0A901BE
:103BC000C701B6010E946A63811122C02EA53FA5DC
:103BD00048A959A96EA17FA188A599A50E946A63E9
:103BE000811116C02AA93BA94CA95DA96AA57BA58C
:103BF0008CA59DA50E946A6381110AC008E110E0AE
:103C00008BEDC82E8FE0D82E89ECE82E80E4F82EBC
:103C100080914B0B90914C0BA0914D0BB0914E0BA2
:103C20008AA79BA7ACA7BDA79C01AD016091A2028A
:103C30007091A3028091A4029091A5020E94E46772
:103C40002B013C01A70196016EA97FA988AD99AD12
:103C50000E94D0634B015C0120E030E0A901C30168
:103C6000B2010E946A638823C9F0A5019401C501CD
:103C7000B4010E94D0634B015C01A3019201C30116
:103C8000B2010E94D0639B01AC01C501B4010E9446
:103C9000E5670E94936A4B015C010DC020E030E0B3
:103CA000A901C501B4010E94456A87FF04C0B7FAA3
:103CB000B094B7F8B0942FE632E143E85AE3C50177
:103CC000B4010E946A6387FD13C22091A60230915D
:103CD000A7024091A8025091A9022AAB3BAB4CAB82
:103CE0005DAB80914F0B9091500BA091510BB09117
:103CF000520B8EA79FA7A8ABB9AB2AE037ED43E2E2
:103D00005CE360912C0270912D0280912E029091C3
:103D10002F020E94D0636EA37FA388A799A760910A
:103D20002A0270912B02072E000C880B990B0E941F
:103D300071639B01AC016EA17FA188A599A50E942A
:103D4000D0636E8B7F8B888F998FC501B4010E94E1
:103D500087690E9458691B016017710708F41801F0
:103D6000B10180E090E00E946F634B015C019B0118
:103D7000AC01C701B6010E94DF686EA37FA388A7CC
:103D800099A7A5019401C301B2010E94DF682A9698
:103D90006CAF7DAF8EAF9FAF2A972EA53FA548A9E8
:103DA00059A96AA97BA98CA99DA90E94E467A501CC
:103DB00094010E94DF682E966CAF7DAF8EAF9FAFEF
:103DC0002E972EA13FA148A559A5CA01B9010E946D
:103DD000D0636B017C019B01AC016EA17FA188A522
:103DE00099A50E94D06320E030E040EC50E40E94AE
:103DF000DF689B01AC016EA17FA188A599A50E94F7
:103E0000E4676AAB7BAB8CAB9DAB20E030E040E07D
:103E10005FE3C701B6010E94D0639B01AC0160E083
:103E200070E080E89FE30E94E4676EAB7FAB88AFF1
:103E300099AF2AA53BA54CA55DA529873A874B8755
:103E40005C878EA59FA5A8A9B9A98D879E87AF87F6
:103E5000B88B0E9439549B01AC0128533F4F4F4F00
:103E60005F4F26962CAF3DAF4EAF5FAF26974A8C83
:103E70005B8C6C8C7D8C41E050E05BA74AA759E1DC
:103E80005EA78AA59BA58215930508F00BC10E9429
:103E900033570E943954DC01CB0126962CAD3DAD41
:103EA0004EAD5FAD2697821B930BA40BB50BB7FDF0
:103EB00010C00E9439549B01AC0128533F4F4F4F13
:103EC0005F4F26962CAF3DAF4EAF5FAF26970E9457
:103ED000DC2A3EA531503EA73323E9F12E8D3F8DDC
:103EE00048A159A16EA97FA988AD99AD0E94D06360
:103EF0006B017C019201A3016AA97BA98CA99DA9F0
:103F00000E94D063A70196010E94E5677B018C01A6
:103F10009201A3016EA97FA988AD99AD0E94D063DB
:103F20004B015C012E8D3F8D48A159A16AA97BA947
:103F30008CA99DA90E94D0639B01AC01C501B4016D
:103F40000E94E4672B013C01C701D8018E8F9F8F2F
:103F5000A8A3B9A34FC04AA55BA5BA0180E090E031
:103F60000E946F632EA13FA148A559A50E94D0636E
:103F70004B015C010E94DA686B017C01C501B40150
:103F80000E94856A4B015C01A70196016A8D7B8DB9
:103F90008C8D9D8D0E94D0632B013C012AA13BA1F9
:103FA0004CA15DA1C501B4010E94D063A30192019F
:103FB0000E94E5672B013C01A50194016A8D7B8D70
:103FC0008C8D9D8D0E94D0634B015C012AA13BA189
:103FD0004CA15DA1C701B6010E94D0639B01AC0159
:103FE000C501B4010E94E4676E8F7F8F88A399A3F7
:103FF00059E15EA79201A3016AAD7BAD8CAD9DAD89
:104000000E94E56769837A838B839C832E8D3F8D25
:1040100048A159A122966CAD7DAD8EAD9FAD229782
:104020000E94E5676D837E838F8398872A962CADE7
:104030003DAD4EAD5FAD2A9769857A858B859C85B0
:104040000E94E56769877A878B879C872E962CADBF
:104050003DAD4EAD5FAD2E976D857E858F85988980
:104060000E94E5676D877E878F87988BCE010196CA
:104070000E94C2408E010A5E1F4F9E01235F3F4F88
:10408000AE01475F5F4FBE016B5F7F4FCE01019670
:104090000E94665B882331F08AA59BA501969BA7A9
:1040A0008AA7EFCE80E1EAE9F2E0DE011196019005
:1040B0000D928A95E1F7CE0101960E94C2408E01D1
:1040C0000A5E1F4F9E01235F3F4FAE01475F5F4F68
:1040D000BE016B5F7F4FCE0101960E94665B80E15F
:1040E000FE013196A3E4BBE001900D928A95E1F7C1
:1040F0000E943954609396027093970280939802BD
:104100009093990277CB0E94003B109211020E947B
:10411000395460939602709397028093980290931B
:10412000990280912C0290912D02A0912E02B091C3
:104130002F028093B2029093B302A093B402B09383
:10414000B50280912A0290912B029093B102809344
:10415000B00284E690E090932B0280932A0281E0E3
:10416000809392020E9429438AE50E94B726382E46
:1041700088E50E94B726882E89E50E94B726881216
:10418000ECC0381411F0D82C06C0DD24D394882458
:1041900083943324339482E50E940527882369F0B1
:1041A0000E9480262B013C0120E030E0A9010E9402
:1041B0006A63882309F4A1C006C0412C512C10EA7F
:1041C000612E10E4712E811003C0DD2009F49FC020
:1041D00020E030E0A901C301B2010E94E5677B0144
:1041E0008C0190904B0BC0904C0BB0904D0BA0905D
:1041F0004E0B292D3C2D4B2D5A2D0E946A63409069
:10420000430B5090440B6090450B7090460B2091EF
:10421000470B3091480B4091490B50914A0B2A8F24
:104220003B8F4C8F5D8F20E030E048E453E487FD06
:1042300075C3B701C8010E946A6387FD04C0E12C01
:10424000F12C08E413E480E090E0A0E8B0E48E8B69
:104250009F8BA88FB98F89839A83AB83BC83970187
:10426000A801692D7C2D8B2D9A2D0E946A6387FFF2
:104270000EC0C701D80180934B0B90934C0BA093B9
:104280004D0BB0934E0BCE0146960E946341409277
:10429000430B5092440B6092450B7092460B8A8DF3
:1042A0009B8DAC8DBD8D8093470B9093480BA09355
:1042B000490BB0934A0BCE0101960E9463419701CE
:1042C000A80160914B0B70914C0B80914D0B90911C
:1042D0004E0B0E94456A181674F4C701D8018093EA
:1042E0004B0B90934C0BA0934D0BB0934E0BCE0108
:1042F00046960E9463410E94003B882019F080E0AE
:104300000E94B541DD2019F081E00E94B5413320C3
:1043100019F082E00E94B5410E94734180919102A0
:10432000809392028091B2029091B302A091B40264
:10433000B091B50280932C0290932D02A0932E028F
:10434000B0932F028091B0029091B10290932B0212
:1043500080932A020E9486424DCAD82E1CCF88E53F
:104360000E94B72681115F9889E50E94B7268111C6
:104370008A988AE50E94B726882329F0809108014F
:1043800081708093060185E40E94B726882309F492
:1043900031CA12982FCA5F988A988091080181705B
:1043A00080930601129826CA0E94A7430C947F119D
:1043B0000E9480260E945169CB010E948F548091F7
:1043C000570490915804863591051CF00E94834350
:1043D00002C00E94A74311E00C949E110E94003B72
:1043E00088E50E94B726882331F05F9A8091710298
:1043F0008E7F8093710289E50E94B726882331F071
:104400008A9A809171028D7F809371028AE50E9461
:10441000B726882359F08091080180958170809398
:104420000601809171028B7F8093710285E40E9466
:10443000B726882309F4DEC90E94FD27DBC90E9444
:10444000103BD8C9602F83E50E94C4270C94A615A1
:1044500083E50E940527882391F00E9480266093BF
:104460000D0970930E0980930F09909310096093C2
:10447000150970931609809317099093180980E520
:104480000E940527882351F00E94802660930D0921
:1044900070930E0980930F099093100982E50E9492
:1044A0000527882351F00E9480266093110970939C
:1044B0001209809313099093140984E50E9405273B
:1044C000882309F497C90E94802660931509709388
:1044D000160980931709909318098CC982E40E94E9
:1044E000B7268823C1F0809194029091950200979D
:1044F00039F04AE050E060E070E00E94E16103C002
:1045000060E070E0CB016093E9087093EA08809363
:10451000EB089093EC0883E50E94B726882351F0BE
:104520000E9480266093190970931A0980931B09D1
:1045300090931C0984E50E94B726882351F00E94BD
:10454000802660931D0970931E0980931F09909324
:1045500020098AE40E94B726882309F44BC90E94E7
:1045600080266B017C012AE037ED43E25CE30E9488
:10457000456A87FD13C02AE939E949E95EE3C701C5
:10458000B6010E946A6318164CF0C0922504D092BE
:104590002604E0922704F09228042CC90E94C02827
:1045A0008DEA94E00E949E2825C94AAD5BAD452B5B
:1045B00009F425C1A3964CAC5DAC6EAC7FACA3975F
:1045C000480E591E6A1E7B1EA3962CAD3DAD4EAD06
:1045D0005FADA397281B390B4A0B5B0B6E8D7F8D4C
:1045E00088A199A10E944B67A30192010E94AB6729
:1045F000C20ED31EE41EF51E54E1C516D104E1041B
:10460000F104FCF08CEEC816D104E104F1043CF492
:1046100090E8C916D104E104F10434F420C04BEE53
:10462000C42ED12CE12CF12C2EEF30E040E050E0F4
:104630002C193D094E095F092E8F3F8F48A359A3BE
:1046400012C034E1C32ED12CE12CF12C84E190E096
:10465000A0E0B0E08E8F9F8FA8A3B9A304C0CE8E38
:10466000DF8EE8A2F9A280EC93E00E949E28C701A9
:10467000B6010E945E298BEB93E00E949E286E8D0E
:104680007F8D88A199A10E945E294EAD5AA96EA97D
:1046900023967FAD239784EB93E00E94252A2796EB
:1046A0004FAD27972B965FAD2B972F966FAD2F971A
:1046B00060967FAD60978DEA93E00E94252AAAADAF
:1046C000BBAD13970CF49BC06E8D7F8D88A199A113
:1046D0000E94716320E030E040E850E40E94D06323
:1046E0004B015C012EAD3AA94EA923965FAD2397ED
:1046F00027966FAD27972B967FAD2B972F968FAD73
:104700002F9760969FAD60970E94E4672BED3FE086
:1047100049E450E40E94D06320E030E040E05FE3F1
:104720000E94D0639B01AC01C501B4010E94DF6807
:104730004B015C01C301B2010E9471632FE632E1BB
:1047400043E85AE30E94D0632B013C01B501A40168
:1047500087EA93E00E94252AB301A20181EA93E04F
:104760000E94252A2AE939E949E15FE3C501B4013C
:104770000E94D0634B015C019B01AC01C301B201FB
:104780000E94D06320E030E040E05EE30E94D0630E
:104790006C966CAF7DAF8EAF9FAF6C97A501940107
:1047A000C501B4010E94E567A30192010E94DF6880
:1047B00068966CAF7DAF8EAF9FAF68978FE793E041
:1047C0000E949E28B501A4018BE993E00E94252A4E
:1047D00068964CAD5DAD6EAD7FAD689785E993E0B1
:1047E0000E94252A6C964CAD5DAD6EAD7FAD6C9789
:1047F0008FE893E00E94252A8AE00E9497288E8DF8
:104800009F8DA8A1B9A18C0D9D1DAE1DBF1DB59595
:10481000A7959795879580935904EAADFBAD31969E
:10482000FBAFEAAFFAA1FEAF2EA12AAB3AA53EAB91
:104830004EA523964FAF23974A8C5B8C6C8C7D8C56
:1048400051E06F965FAF6F970C94F6192DE432E04C
:1048500081FF03C04FE452E002C042E552E080FF16
:1048600003C081E592E002C082E592E03F932F937E
:104870005F934F939F938F9389E792E09F938F93DA
:104880003F922F920E943B630E94C428C1010E9464
:10489000BB2A0FB6F894DEBF0FBECDBF0C94FA1B37
:1048A00022E532E0D5CFB7FAB094B7F8B094D7018B
:1048B0008D929D92AD92BC9213970C94921B0E9484
:1048C000C0288BE892E00E949E280C94FA1B0C5F93
:1048D0001F4FBFEFCB1ADB0AE8E7F7E0E017F1075D
:1048E00011F00C94621B8AE5E82E82E0F82E10E0AD
:1048F000F10181919191A191B1911F01F7018193F2
:104900009193A193B1937F01812F0E94A2401F5FD9
:10491000133071F70E9486420C94FA1B692D7C2D8E
:104920008B2D9A2D0E946A6387FF89CC80E090E0EE
:10493000A0E8B0E48E8B9F8BA88FB98F89839A8370
:10494000AB83BC83E92CFC2C0B2D1A2DA0CCCB58AF
:10495000DF4F0FB6F894DEBF0FBECDBFDF91CF9112
:104960001F910F91FF90EF90DF90CF90BF90AF908D
:104970009F908F907F906F905F904F903F902F907F
:104980000895282F8091AB02233021F485FD0EC0BD
:1049900084FD0EC090E0A0E0B0E004C0B695A795FD
:1049A000979587952A95D2F78170089581E00895AB
:1049B00080E008957F928F929F92AF92BF92CF92A4
:1049C000DF92EF92FF920F931F93CF93DF9310929A
:1049D0006C0210926B022FE32093AE021092AD0294
:1049E0001092AC0210928102109282021092830205
:1049F000109284029C01F90190812F5F3F4F903209
:104A0000D1F39E3489F4818190ED980F9A3008F4A7
:104A100019C18D3209F416C18B3231F413C1FD0175
:104A2000119680818032D9F3F093420BE093410BD1
:104A30008F010F5F1F4F70806AE270E0C8010E9413
:104A4000F26A009731F0FC01319780818032E1F306
:104A500011824DE4842E781441F034E5932E7914BC
:104A600021F027E4A22E7A1009C1F80180810F5F9E
:104A70001F4F8032D1F380538A3008F0FFC070920C
:104A8000AE021092AD021092AC022AE031968091F3
:104A9000AC029091AD02289FA001299F500D1124D6
:104AA000DF0111978C91480F511D87FD5A95405396
:104AB00051095093AD024093AC02808180538A30FB
:104AC00028F3DF0131968C918032D9F39DE4B92E21
:104AD0007B101AC04E31510591F03CF4473151051D
:104AE00071F04C31510581F40AC04537510564F02D
:104AF0004737510524F0403A83E0580729F4B09332
:104B00006C02A0936B02BAC010926C0210926B02FE
:104B10006091410BC12CD12C7601C394FD013196DB
:104B20002C91222309F4AAC02132A9F4CDE47C12ED
:104B300012C04032510579F4F0936C02E0936B029D
:104B400063E270E0CF010E94F26A009709F496C018
:104B5000FC01108293C021542A3108F04BC0DF01C0
:104B6000FD01808111968032D9F390ED980F9A3033
:104B7000B0F08E3211F481810EC08D3219F08B327B
:104B800009F06CC0818190ED980F9A3040F08E3220
:104B900009F064C0828180538A3008F05FC0CF0181
:104BA000A22FB0E04601570104C0880C991CAA1C32
:104BB000BB1C2A95D2F795018401809081029090C8
:104BC0008202A0908302B0908402082919292A2920
:104BD0003B29009381021093820220938302309339
:104BE0008402009711F0861B01C080E0AC5CBC4FD2
:104BF0008C930AC080916B0290916C02892B21F4F6
:104C0000B0936C02A0936B02808181548A3138F496
:104C1000DF0184CF90ED980F9A3040F4F901DF0165
:104C2000EF0189919E018111F5CF78CF93ED980F17
:104C30009230A0F38B3291F3DF0131968C91803268
:104C4000D9F36CCFDF0112969D012F5F3F4F8C91FE
:104C500080538A3008F0E3CED901F6CF80916B0201
:104C600090916C02009739F4DF011197B0936C02B8
:104C7000A0936B0295CF80E090E092CFDF91CF912F
:104C80001F910F91FF90EF90DF90CF90BF90AF906A
:104C90009F908F907F9008958091940290919502BB
:104CA000009731F04AE050E060E070E00C94B360AF
:104CB00060E070E0CB0108950E944C2697FD0CC087
:104CC0000E944C266F3F71058105910509F034F46F
:104CD0000E944C26862F089580E008958FEF089556
:104CE0008091940290919502892B39F00E945C2664
:104CF00091E0811103C090E001C091E0892F0895F7
:104D00000F931F93CF9380919402909195020097F7
:104D100011F1FC018F01C1912C2F2F7DA9F0C53419
:104D200011F0C536B9F7F801108260E070E08091AB
:104D30009402909195020E94575FF801C083562F0C
:104D4000472F382F292F0BC060E070E0CF911F91C3
:104D50000F910C94575F50E040E030E020E0652F69
:104D6000742F832F922FCF911F910F91089581540B
:104D70008A3108F047C0E82FF0E04091810250915D
:104D80008202609183027091840204C076956795D7
:104D9000579547958A95D2F7842F817040FF34C08C
:104DA000EC5CFC4F9081992341F1E091410BF09133
:104DB000420BE90FF11D908120ED290F2A3098F068
:104DC0009E3211F491810CC09D3211F09B3271F42E
:104DD000918120ED290F2A3030F09E3239F49281F2
:104DE00090539A3018F42E2F9F2F02C020E090E0AD
:104DF0002093940290939502089510929502109238
:104E00009402089580E0089508950E94B7268823AB
:104E100041F081E02091940230919502232B09F416
:104E200080E008958F929F92AF92BF92CF92DF92CF
:104E3000EF92FF920F931F93CF938AE9E82E82E0BF
:104E4000F82E03E41BE093E5C92E9BE0D92EC0E0C9
:104E500088E58C0F0E940527882311F10E94802687
:104E60004B015C018C2F0E94C124882351F0F80172
:104E70002081318142815381C501B4010E94E567DF
:104E800009C0F6012081318142815381C501B401FD
:104E90000E94E467F70160837183828393830AC071
:104EA000F80180819181A281B381F7018083918390
:104EB000A283B383CF5FF4E0EF0EF11C0C5F1F4FB2
:104EC00084E0C80ED11CC33019F685E40E94052782
:104ED000882301F10E9480266B017C0183E00E94FF
:104EE000C124882371F020914F0B3091500B4091D9
:104EF000510B5091520BC701B6010E94E5676B013F
:104F00007C01C092A602D092A702E092A802F09281
:104F1000A90210C080914F0B9091500BA091510BA2
:104F2000B091520B8093A6029093A702A093A8027F
:104F3000B093A90286E40E9405278823C9F00E9445
:104F4000802620E030E0A9010E94456A181684F40A
:104F50000E94802620E030E040E752E40E94DF68B3
:104F600060932C0270932D0280932E0290932F0257
:104F7000CF911F910F91FF90EF90DF90CF90BF9056
:104F8000AF909F908F900895CF93DF93C82FD62F27
:104F90000E940527882321F0DF91CF910C94702681
:104FA0008C2F0E94B726811101C08D2FDF91CF91E8
:104FB0000895CF92DF92EF92FF926B017C0183E321
:104FC000C816D104E104F10470F082E3C81AD108D4
:104FD000E108F10862E370E080E090E00E94FF5396
:104FE0000E943357ECCFC701B6010E94FF53FF90D8
:104FF000EF90DF90CF900C943357129A08955F9AF8
:10500000809171028E7F809371028A9A80917102E1
:105010008D7F8093710280910801809581708093CB
:105020000601809171028B7F809371020C94FD27A1
:105030004F925F926F927F928F929F92AF92BF92A8
:10504000CF92DF92EF92FF920E94903D90916C0B75
:1050500090936B0B90936A0B9093690B94E69093EB
:10506000680B20ED33E03093D7082093D6088111E8
:105070000E949D3D81E080930D0B0E94003B81E0EA
:105080000E94863F4B015C0180E00E94863F2B011D
:105090003C016093B9027093BA028093BB02909373
:1050A000BC028092BD029092BE02A092BF02B0925A
:1050B000C00282E00E94863F6B017C016093C102C6
:1050C0007093C2028093C3029093C40283E00E9453
:1050D000863F4092430B5092440B6092450B709276
:1050E000460B8092470B9092480BA092490BB092CE
:1050F0004A0BC0924B0BD0924C0BE0924D0BF092AE
:105100004E0B60934F0B7093500B8093510B909309
:10511000520BFF90EF90DF90CF90BF90AF909F9099
:105120008F907F906F905F904F900C94734190910F
:10513000C00095FFFCCF8093C6000895CF93DF9306
:10514000FC018491EF012196882321F00E94972889
:10515000FE01F7CFDF91CF9108950F931F93CF9367
:10516000DF938B010E949E28E8018991882319F022
:105170000E949728FACFDF91CF911F910F91089548
:1051800083E599E00C949E288DE499E00C949E2888
:10519000C42F0E9429560E94C0288DE299E00E94E7
:1051A0009E2889EE93E030E6019729F0232F2A9577
:1051B0000000E9F7F9CFF89489EE93E038EE019713
:1051C00029F0232F2A950000E9F7F9CF0E942956EC
:1051D000CC2319F00E94FF2702C00E94FD27A8954A
:1051E000FECF8F929F92AF92BF92EF92FF920F935A
:1051F0001F93CF93DF93CDB7DEB7A0970FB6F89488
:10520000DEBF0FBECDBF611571058105910591F11E
:1052100000E0842E912CA12CB12C102FEE24E394CD
:10522000F12CEC0EFD1EE00EF11C07FDFA94A50119
:1052300094010E945B67F7016083B901CA010F5FA7
:10524000611571058105910541F71F3F31F1E1E0DD
:10525000F0E0EC0FFD1FE10FF11D17FDFA958081C5
:105260008A3010F097E301C090E3890F0E949728DD
:105270001150EBCF80E3A0960FB6F894DEBF0FBEBF
:10528000CDBFDF91CF911F910F91FF90EF90BF9015
:10529000AF909F908F900C949728A0960FB6F8949B
:1052A000DEBF0FBECDBFDF91CF911F910F91FF9059
:1052B000EF90BF90AF909F908F900895CF92DF9224
:1052C000EF92FF926B017C0197FF0BC08DE20E9471
:1052D0009728F094E094D094C094C11CD11CE11C98
:1052E000F11C4AE0C701B601FF90EF90DF90CF902C
:1052F0000C94F128CF93DF93EB010E949E28BE010E
:10530000DD0F880B990BDF91CF910C945E29CF9321
:1053100084E50E940527882301F10E945C26C82F9E
:105320001816E4F40E94C4288DE40E949728609126
:10533000AC027091AD02072E000C880B990B0E94F5
:105340005E296C2FCC0F770B81E699E00E947A29B9
:105350008AE00E9497288FEF01C080E0CF910895E6
:105360008F929F92AF92BF92CF92DF92EF92FF9275
:10537000CF936B017C01B42E20E030E0A9010E94A4
:105380006A6387FF07C08DE20E949728F7FAF094BE
:10539000F7F8F094C0E060E070E080E09FE3CB15A8
:1053A00041F02DEC3CEC4CEC5DE30E94D063CF5F10
:1053B000F6CF9B01AC01C701B6010E94E5676B0106
:1053C0007C010E9458694B015C014AE00E94F1286F
:1053D000CC2389F1C501B4010E946F639B01AC012C
:1053E000C701B6010E94E4676B017C018EE20E9456
:1053F000972820E030E040E251E4C701B6010E9466
:10540000D0634B015C010E9451696B01770FEE087C
:10541000FF08C701B6010E945E29C701B6010E94BC
:1054200071639B01AC01C501B4010E94E4676B018B
:105430007C01C150F1F6CF91FF90EF90DF90CF90BB
:10544000BF90AF909F908F900895CF92DF92EF9290
:10545000FF926A017B010E949E2842E0C701B601CB
:10546000FF90EF90DF90CF900C94B029882319F033
:105470000E94C42803C080E20E9497284091ED0852
:105480005091EE086091EF087091F0088AE599E07C
:105490000E94252A4091F1085091F2086091F3088A
:1054A0007091F4088AE894E00E94252A4091F5085A
:1054B0005091F6086091F7087091F80887E894E039
:1054C0000E94252A4091F9085091FA086091FB0842
:1054D0007091FC0880E193E10E94252A8AE00C94F7
:1054E00097288DE00E9497288AE00C949728809155
:1054F0004E0380934F0389E799E00E949E28809194
:10550000770290917802A0917902B0917A02BC0161
:10551000CD016F5F7F4F8F4F9F4F0E945E290E948A
:10552000712AE0915402F0E0EF56F44F8081882315
:1055300039F085E692E00E949E288AE00C94972834
:1055400008950F931F93CF938C01C62F84E799E0A2
:105550000E949E28C8010E949E288AE30E949728E4
:105560006C2F70E080E090E00E945E29CF911F9147
:105570000F910C94712ACF93DF93EC0189918823CA
:1055800019F00E949728FACFDF91CF910C94712ADD
:1055900080914E0390914F03981759F0E92FF0E056
:1055A000E25BFC4F82819F5F9F7790934F0390E077
:1055B00008958FEF9FEF08952F923F924F925F9241
:1055C0006F927F928F929F92AF92BF92CF92DF9213
:1055D000EF92FF920F931F93CF93DF93CDB7DEB778
:1055E00028970FB6F894DEBF0FBECDBF8091BA0AE0
:1055F000843008F058C100E611E08091BA0A843086
:1056000008F051C180914E0390914F03891B8F7711
:1056100009F449C10E94C82AAC0197FDEECF282F9A
:105620008A3019F08D3009F001C11092CA028091C0
:105630001A0490911B04FC01E553FD4F1082892B45
:1056400049F010921B0410921A042BEC32E03F83B5
:105650002E8303C00E943357D0CFEE81FF8181910A
:10566000803219F4FF83EE83F8CF8E3409F072C0D4
:105670004E815F814115510509F46CC067EE78E0F9
:10568000CA010E9421637C01892B49F06EE470E01D
:105690008E819F8104960E94F26A009711F48E8198
:1056A0009F814AE050E060E070E001960E94B360A4
:1056B0004B015C018091770290917802A091790270
:1056C000B0917A020196A11DB11D88169906AA060D
:1056D000BB0631F0EF2821F460E084EB98E02BC0AA
:1056E0006AE270E08E819F810E94046B9C010097AA
:1056F00029F1982F5E81951BF12C992341F091504F
:10570000EE81FF81E90FF11D8081F826F6CF4AE096
:1057100050E060E070E0C90101960E94B360CF2CB8
:10572000D12CE12CF12C6C157D058E059F0551F0D7
:1057300060E085E998E00E94BC43B5C060E08BE67C
:1057400098E0F9CF8092770290927802A092790245
:10575000B0927A028091AA028130C1F067E470E0D1
:105760008E819F810E94F26A009781F04AE050E0AA
:1057700060E070E001960E94B360643071058105BD
:10578000910520F484EF97E00E949E286FEE77E069
:105790008E819F810E940063892B11F410920F0269
:1057A0006AEE77E08E819F810E940063892B31F43D
:1057B00041E060E070E085E197E0ACC065EE77E045
:1057C0008E819F810E940063892B11F40E9418280A
:1057D0008091CB028B3309F410CF8091BA0A8A836F
:1057E000843008F00ACF9091C9029983E92EF12CF8
:1057F0000E9DC0010F9D900D11246BEC72E0865C34
:10580000964F0E94FD6AF701EF56F44F1083E9812D
:10581000EF5FE983E43018F4E093C90202C010920C
:10582000C902FA81FF5FF093BA0AE7CE9091CA02EB
:10583000913009F4E2CE943020F094509093CA0253
:105840000DC04C3531F49C5F9093CA029430C9F47A
:10585000D4CE4B3319F41093CA02CFCE283089F43A
:1058600080911A0490911B04009709F4C6CE019709
:1058700090931B0480931A04FC01E553FD4F1082A2
:10588000BCCE20911A0430911B04C901019690935B
:105890001B0480931A04F901E553FD4F40838F35B3
:1058A0009105CCF6AACE0E9439546B017C0140913F
:1058B0006D0250916E0260916F02709170024115FD
:1058C00051056105710541F1809196029091970211
:1058D000A0919802B0919902840F951FA61FB71F3F
:1058E00097018601081B190B2A0B3B0B37FD14C0CF
:1058F0000E94C0286091410B7091420B88EA97E0AA
:105900000E94AD288AE00E94972840E060E070E0A5
:1059100080E090E00E94C82880910A0290910B02DA
:10592000A0910C02B0910D02892B8A2B8B2B09F4CC
:105930004DC090916B0B80916C0B981749F0C09201
:105940009602D0929702E0929802F09299023EC09D
:105950000E9439548090960290909702A0909802ED
:10596000B090990200910A0210910B0220910C0252
:1059700030910D02080D191D2A1D3B1DDC01CB01C4
:10598000801B910BA20BB30BB7FDC2C280912F03FA
:1059900081111CC081E080932F035F9A8091710276
:1059A0008E7F809371028A9A809171028D7F80939D
:1059B0007102809108018095817080930601809129
:1059C00071028B7F809371020E94FD2780912B03CF
:1059D00090912C03A0912D03B0912E03A701960165
:1059E000281B390B4A0B5B0B57FDF9C190916B0BD0
:1059F00080916C0B981751F0E0916C0B37E4E39FAA
:105A0000F0011124E455FB4F208102C020913D0498
:105A1000222311F030E002C020E030E0EFEBF7E1AC
:105A20004491E9E7F7E18491882399F090E0880FA9
:105A3000991FFC01E257F84FA591B491FC01EA5A75
:105A4000F84E859194918FB7F894EC91E42BEC93F8
:105A50008FBF2115310511F480E004C02F3F3105BF
:105A600021F481E00E94725AADC0E5E0F8E1E491D2
:105A70008E2F90E0FC013197E231F10508F09DC0D6
:105A80008827EE58FF4F8F4F0C94CA6784B5806803
:105A900084BD27BD97C084B5806284BD28BD92C0F7
:105AA00080918000806880938000309389002093EB
:105AB000880088C08091800080628093800030934D
:105AC0008B0020938A007EC0809180008860809344
:105AD000800030938D0020938C0074C08091B000C2
