:100000000C946E080C949F080C949F080C949F0805
:100010000C949F080C949F080C949F080C949F08C4
:100020000C949F080C949F080C949F080C949F08B4
:100030000C949F080C949F080C949F080C949F08A4
:100040000C949F080C94FD0F0C949F080C949F082F
:100050000C949F080C949F080C940B180C944D2141
:100060000C949F080C949E0F0C948A0F0C949F087C
:100070000C949F080C949F080C949F080C949F0864
:100080000C949F080C949F080C949F080C949F0854
:100090000C94CD090C94940F0C949F080C949F0819
:1000A0000C949F080C949F080C949F080C949F0834
:1000B0000C949F080C949F080C949F080C949F0824
:1000C0000C949F080C949F080C949F080C949F0814
:1000D0000C949F080C949F080C949F080C949F0804
:1000E0000C949F08B10DB60DBB0DC50DCF0D480E7C
:1000F000D90DE10DE90DF30DFD0D070E160E200EC5
:10010000480E2A0E340E3E0E2B1F2E1F1D1F211FC0
:10011000251F651F321F361F3C1F401F441F4A1FEB
:100120004E1F521F651F581F5C1F601F0C94480E06
:100130000C94FD0D0C943E0E0C944A1F0C94601F01
:100140000C94E90D0C94251F0C94581F0C941D1F42
:100150000C94B60D0C94401F0C94321F0C94B10DEE
:100160000C94070E0C94E10D0C94F30D0C94BB0D44
:100170000C942A0E0C945C1F0C94C50D0C94200E4C
:100180000C94441F0C94CF0D0C942E1F0C94651FDF
:100190000C9413290C94521F0C942B1F0C94D90D02
:1001A0000C94361F0C94160E0C94211F0C94340ED4
:1001B0000C944E1F0C943C1F0000210024002700CB
:1001C0002A002D0030003300010100000401070166
:1001D0000A014D343130004D31313220536875748D
:1001E000646F776E004D313132005072696E746504
:1001F000722073746F707065642064756520746F0D
:10020000206572726F72732E20466978207468655B
:10021000206572726F7220616E6420757365204D67
:1002200039393920746F20726573746172742E20AD
:100230002854656D706572617475726520697320EC
:1002400072657365742E205365742069742061662D
:100250007465722072657374617274696E67290ABD
:10026000004E6F20436865636B73756D207769740A
:1002700068206C696E65206E756D6265722C204C0D
:10028000617374204C696E653A2000636865636B26
:1002900073756D206D69736D617463682C204C619A
:1002A0007374204C696E653A20004C696E65204E6F
:1002B000756D626572206973206E6F74204C617376
:1002C00074204C696E65204E756D6265722B312C01
:1002D000204C617374204C696E653A20004D3131B9
:1002E000300000004843000048430000484300003D
:1002F0000000000000000000000000009643000025
:1003000096430000A0400000C8410000A042000049
:10031000A04200007A450000FA43B80B0000B80B79
:100320000000640000001027000070012C01900103
:100330002701B0012201C0011D01F00118011002C6
:10034000130130020E016002090190020401C00293
:10035000FF000003FA004003F5008003F000D00323
:10036000EB002004E6007004E100E004DC0040053E
:10037000D700C005D2004006CD00D006C8008007D7
:10038000C3003008BE00F008B900C009B400B00ACC
:10039000AF00B00BAA00D00CA500000EA000500FBB
:1003A0009B00C01096005012910000148C00C015E4
:1003B0008700B0178200B0197D00D01B7800001EA6
:1003C000730040206E0090226900F02464004027F2
:1003D0005F0090295A00E02B5500102E500020306D
:1003E0004B0010324600E033410090353C0010379E
:1003F000370070383200A0392D00B03A2800A03BF9
:100400002300603C1E00103D1900903D1400103E7A
:100410000F00703E0A00C03E0500003F0000403F54
:10042000FBFF803FF6FFC03FF1FF20453A00205A16
:100430003A0020593A0020436F756E7420583A00F4
:1004400048617264636F6465642044656661756CBD
:10045000742053657474696E6773204C6F616465B2
:10046000640A00204D393220580020490020204DD8
:100470003330312050005049442073657474696EE4
:1004800067733A0020204D323036205800486F6D97
:1004900065206F66667365743A00204A0020204D1F
:1004A000323035204200416476616E6365643A20E3
:1004B000423C6D696E5F7365676D656E745F7469EC
:1004C0006D655F75733E20533C6D696E5F66656553
:1004D00064726174653E20543C6D696E5F74726134
:1004E00076656C5F66656564726174653E204A3C42
:1004F0006A756E635F6465763E002054002052008A
:1005000020204D323034205000416363656C6572A9
:100510006174696F6E2028756E6974732F73322948
:100520003A20503C7072696E745F616363656C3E23
:1005300020523C726574726163745F616363656CC1
:100540003E20543C74726176656C5F616363656CD8
:100550003E0020204D3230312058004D6178696DC9
:10056000756D20416363656C65726174696F6E209F
:1005700028756E6974732F7332293A002045002064
:100580005A0020590020204D3230332058004D6150
:1005900078696D756D206665656472617465732038
:1005A00028756E6974732F73293A005374657073DC
:1005B0002070657220756E69743A00204400202016
:1005C0004D3230302053002044697361626C6564A1
:1005D0000A0046696C616D656E7420736574746998
:1005E0006E67733A0020286D6D2900202047323154
:1005F000202020203B20556E69747320696E206D89
:100600006D002020506C616E6E6572427566666585
:100610007242797465733A20002046726565204DF8
:10062000656D6F72793A2000436F6D70696C656417
:100630003A204E6F7620313620323032300A002098
:100640004C61737420557064617465643A20323073
:1006500032302D31302D3135207C20417574686F5A
:10066000723A2033444350205465616D0A00322EA3
:10067000302E372E320A004D61726C696E002053A5
:100680006F6674776172652052657365740A002025
:100690005761746368646F672052657365740A00FC
:1006A0002042726F776E206F757420526573657487
:1006B0000A002045787465726E616C20526573651E
:1006C000740A00506F77657255700A007374617216
:1006D000740A0024F4D43050C38E20C2A240178282
:1006E0008B7011127A910D816CD90AA861E108C74B
:1006F000586607615143061E4B5D05C145A7041AA4
:10070000411104093D9803713931034036DB02651C
:10071000339102D4305402802E1D02632CEE0175F9
:100720002AC501B028A001102781018F2564012B63
:10073000244B01E0223401AC211F018D200D0180EA
:100740001FFC00841EED00971DDF00B81CD200E6E0
:100750001BC600201BBC00641AB200B219A8000A14
:1007600019A0006A189900D117910040178B00B5A5
:1007700016840031167E00B31579003A157300C750
:10078000146F0058146A00EE136600881363002586
:10079000135E00C7125B006C12570015125400C1A3
:1007A00011510070114F0021114B00D61049008DDE
:1007B0001047004610440002104200C00F40008065
:1007C0000F3E00420F3C00060F3B00CB0E3800935B
:1007D0000E37005C0E3500270E3400F30D3200C1D9
:1007E0000D3100900D3000600D2E00320D2D0005F2
:1007F0000D2C00D90C2B00AE0C2900850C29005CB7
:100800000C2700350C27000E0C2600E80B2400C432
:100810000B2400A00B23007D0B23005A0B21003971
:100820000B2100180B2000F80A1F00D90A1E00BB7C
:100830000A1E009D0A1D00800A1D00630A1C004755
:100840000A1B002C0A1B00110A1A00F7091A00DD06
:10085000091900C4091900AB091900920917007B96
:10086000091800630917004C091600360916002004
:100870000916000A091500F5081500E0081400CC57
:10088000081400B8081400A4081400900813007D90
:100890000812006B081300580812004608120034B2
:1008A000081100230811001208110001081100F0BE
:1008B000071000E0071000D0071000C0071000B0BC
:1008C000070F00A107100091070E0083070F0074A7
:1008D000070F0065070E0057070E0049070E003B83
:1008E000070D002E070E0020070D0013070D000650
:1008F000070D00F9060C00ED060D00E0060C00D413
:10090000060C00C8060C00BC060C00B0060C00A4C7
:10091000060B0099060C008D060B0082060B007773
:10092000060B006C060B0061060A0057060B004C14
:10093000060A0042060A0038060A002E060A0024AB
:10094000060A001A060A001006090007060A00FD3A
:10095000050900F4050900EB050900E2050900D9C5
:10096000050900D0050900C7050900BE050900B545
:10097000050800AD050800A50509009C05080094C0
:100980000508008C050800840508007C0508007433
:100990000508006C050700650508005D05070056A1
:1009A0000508004E05070047050700400508003808
:1009B000050700310507002A050700230507001C6D
:1009C000050600160507000F0507000805060002CA
:1009D000050700FB040600F5040700EE040600E826
:1009E000040600E2040700DB040600D5040600CF7D
:1009F000040600C9040600C3040600BD040600B7CF
:100A0000040600B1040500AC040600A6040600A01C
:100A10000405009B04060095040500900406008A66
:100A200004050085040500800406007A04050075AD
:100A3000040500700405006B0405006604050061F0
:100A40000405005C04050057040500520405004D30
:100A500004050048040500430405003E0404003A70
:100A600004050035040500300404002C04050027AB
:100A7000040400230405001E0404001A04040016E4
:100A8000040500110404000D040400090405000419
:100A900004040000040400FC030400F8030400F450
:100AA000030400F0030400EC030400E8030400E482
:100AB000030400E0030400DC030400D8030400D4B2
:100AC000030400D0030400CC030400C8030300C5E2
:100AD00003030024F404D9201BC40C5C0E9804C446
:100AE000095F0265077101F405F900FB04B30048D2
:100AF000048700C10369005803550003034500BE85
:100B0000023A008402310053022A0029022500041F
:100B1000022000E4011C00C8011900AF0117009871
:100B200001140084011300710110006101100051D3
:100B3000010E0043010D0036010B002B010B0020BC
:100B4000010B00150109000C01090003010800FB5D
:100B5000000800F3000800EB000700E4000600DED8
:100B6000000600D8000600D2000600CC000500C731
:100B7000000500C2000500BD000400B9000400B576
:100B8000000400B1000400AD000400A9000400A5A9
:100B9000000300A20003009F0004009B00030098D4
:100BA0000003009500020093000300900003008DF5
:100BB0000002008B0003008800020086000200840F
:100BC000000300810002007F0002007D0002007B24
:100BD0000002007900020077000100760002007434
:100BE00000020072000100710002006F0002006D3F
:100BF0000001006C0002006A000100690002006749
:100C0000000100660001006500010064000200624E
:100C100000010061000100600001005F0002005D52
:100C20000001005C0001005B0001005A0001005956
:100C30000001005800010057000100560001005556
:100C40000001005400010053000000530001005255
:100C500000010051000100500001004F0001004E52
:100C60000000004E0001004D0001004C0001004B4F
:100C70000000004B0001004A00010049000100484B
:100C80000000004800010047000100460000004647
:100C90000001004500000045000100440001004340
:100CA000000000430001004200000042000100413A
:100CB00000000041000100400001003F0000003F33
:100CC0000001003E0000003E0001003D0000003D2C
:100CD0000001003C0000003C0000003C0001003B23
:100CE0000000003B0001003A0000003A000100391A
:100CF0000000003900010038000000380000003812
:100D00000001003700000037000100360000003607
:100D100000000036000100350000003500000035FD
:100D200000010034000000340000003400010033F2
:100D300000000033000000330001003200000032E8
:100D400000000032000100310000003100000031DD
:100D50000001003000000030000000300001002FD2
:100D60000000002F0000002F0000002F0001002EC7
:100D70000000002E0000002E0001002D0000002DBC
:100D80000000002D0000002D0001002C0000002CB0
:100D90000000002C0000002C0001002B0000002BA4
:100DA0000000002B0000002B0001002A0000002A98
:100DB0000000002A0000002A00010029000000298C
:100DC000000000290000002900000029000100287F
:100DD0000000002800000028000000280000002873
:100DE0000001002700000027000000270000002766
:100DF0000000002700010026000000260000002659
:100E0000000000260000002600010025000000254B
:100E1000000000250000002500000025000000253E
:100E20000001002400000024000000240000002431
:100E30000000002400010023000000230000002324
:100E40000000002300000023000000230000002316
:100E50000001002200000022000000220000002209
:100E600000000022000000220001002100000021FB
:100E700000000021000000210000002100000021EE
:100E800000000021000100200000002000000020E0
:100E900000000020000000200000002000000020D2
:100EA000000000200001001F0000001F0000001FC4
:100EB0000000001F0000001F0000001F0000001FB6
:100EC0000001001E0000001E0000001E0000001EA9
:100ED000000000043700001E290000511B000058CC
:100EE00010000010090000CC04000078020000414E
:100EF000010000453100626564002C207379737431
:100F0000656D2073746F707065642120486561742D
:100F100065725F49443A2000544845524D414C2087
:100F200052554E4157415900546865726D616C20AD
:100F300052756E617761790048656174696E6720EA
:100F40004661696C65640048656174696E67206616
:100F500061696C6564004572726F723A00202D20E1
:100F6000496E76616C696420657874727564657227
:100F7000206E756D62657220210A004572723A20FA
:100F80004D415854454D50004D415854454D502009
:100F9000747269676765726564004572723A204DC4
:100FA000494E54454D50004D494E54454D502074C6
:100FB0007269676765726564005072696E74657204
:100FC0002068616C7465642E206B696C6C28292024
:100FD00063616C6C6564210A006563686F3A006F39
:100FE0006B00526573656E643A20003B2000000080
:100FF0002200250028002B002E00310034000201C1
:101000000000050108010B01050505050705080895
:101010000808020202020A0A080804040404010182
:101020000101010101010303030303030303040797
:1010300007070C0C0C0C0C0C0C0C0202020206062E
:101040000606060606060B0B0B0B0B0B0B0B010221
:1010500010202008081020401020408002010201CA
:101060000804020101020408102040808040201082
:1010700008040201800402018040201008040201DB
:101080000804020101020408102040800102040843
:101090001020408000000A0B02090C0D0E08070307
:1010A000040100000000000000000000000000003B
:1010B0000000000000000000000000000000000030
:1010C00012111000000000000000000000000000ED
:1010D00000000000000000000000132911241FBEC2
:1010E000CFEFD1E2DEBFCDBF00E00CBF12E0A0E049
:1010F000B2E0E4EBFBE500E00BBF02C007900D920D
:10110000A434B107D9F72BE0A4E4B2E001C01D92EA
:10111000A139B207E1F718E0CEE6D8E000E006C05A
:1011200021970109802FFE010E940B2CCD36D1079B
:1011300080E00807A9F70E9497210C94D82D0C9401
:1011400000009091C80095FFFCCF8093CE000895D9
:101150008F929F92AF92BF92EF92FF920F931F9345
:10116000CF93DF93CDB7DEB7A0970FB6F894DEBF6D
:101170000FBECDBF611571058105910591F100E0AC
:10118000842E912CA12CB12C102FEE24E394F12C61
:10119000EC0EFD1EE00EF11C07FDFA94A501940172
:1011A0000E94CF2BF7016083B901CA010F5F61155F
:1011B00071058105910541F71F3F31F1E1E0F0E054
:1011C000EC0FFD1FE10FF11D17FDFA9580818A30AC
:1011D00010F097E301C090E3890F0E94A10811501D
:1011E000EBCF80E3A0960FB6F894DEBF0FBECDBF65
:1011F000DF91CF911F910F91FF90EF90BF90AF9033
:101200009F908F900C94A108A0960FB6F894DEBF23
:101210000FBECDBFDF91CF911F910F91FF90EF9047
:10122000BF90AF909F908F900895CF92DF92EF92F2
:10123000FF926B017C0197FF0BC08DE20E94A10819
:10124000F094E094D094C094C11CD11CE11CF11C1A
:101250004AE0C701B601FF90EF90DF90CF900C9469
:10126000A8088F929F92AF92BF92CF92DF92EF9297
:10127000FF92CF936B017C01B42E20E030E0A901F6
:101280000E94982A87FF07C08DE20E94A108F7FA02
:10129000F094F7F8F094C0E060E070E080E09FE345
:1012A000CB1541F02DEC3CEC4CEC5DE30E94FE2AAA
:1012B000CF5FF6CF9B01AC01C701B6010E94142C91
:1012C0006B017C010E94F92C4B015C014AE00E94F9
:1012D000A808CC2389F1C501B4010E949D2A9B0175
:1012E000AC01C701B6010E94132C6B017C018EE298
:1012F0000E94A10820E030E040E251E4C701B601BD
:101300000E94FE2A4B015C010E94F22C6B01770FB8
:10131000EE08FF08C701B6010E941509C701B60112
:101320000E949F2A9B01AC01C501B4010E94132CAD
:101330006B017C01C150F1F6CF91FF90EF90DF90EF
:10134000CF90BF90AF909F908F9008958DE00E94B6
:10135000A1088AE00C94A108CF93DF93EC01899156
:10136000882319F00E94A108FACFDF91CF910C9445
:10137000A6098091C1049091C204981759F0E92FF1
:10138000F0E0EF53FB4F82819F5F9F779093C20401
:1013900090E008958FEF9FEF08951F920F920FB680
:1013A0000F9211240BB60F922F938F939F93EF936D
:1013B000FF939091CE002091C204E091C10481E09E
:1013C0008E0F8F77281729F0F0E0EF53FB4F9283B1
:1013D000E82FE093C104FF91EF919F918F912F919E
:1013E0000F900BBE0F900FBE0F901F90189590910D
:1013F000C00095FFFCCF8093C60008958F929F9206
:10140000AF92BF92EF92FF920F931F93CF93DF9310
:10141000CDB7DEB7A0970FB6F894DEBF0FBECDBF35
:10142000611571058105910591F100E0842E912CE3
:10143000A12CB12C102FEE24E394F12CEC0EFD1E08
:10144000E00EF11C07FDFA94A50194010E94CF2B38
:10145000F7016083B901CA010F5F6115710581054C
:10146000910541F71F3F31F1E1E0F0E0EC0FFD1F86
:10147000E10FF11D17FDFA9580818A3010F097E396
:1014800001C090E3890F0E94F7091150EBCF80E370
:10149000A0960FB6F894DEBF0FBECDBFDF91CF91FF
:1014A0001F910F91FF90EF90BF90AF909F908F9002
:1014B0000C94F709A0960FB6F894DEBF0FBECDBF0F
:1014C000DF91CF911F910F91FF90EF90BF90AF9060
:1014D0009F908F900895CF92DF92EF92FF926B01D1
:1014E0007C0197FF0BC08DE20E94F709F094E09415
:1014F000D094C094C11CD11CE11CF11C4AE0C7016E
:10150000B601FF90EF90DF90CF900C94FE098F9280
:101510009F92AF92BF92CF92DF92EF92FF92CF93C2
:101520006B017C01B42E20E030E0A9010E94982AD2
:1015300087FF07C08DE20E94F709F7FAF094F7F8E9
:10154000F094C0E060E070E080E09FE3CB1541F0F4
:101550002DEC3CEC4CEC5DE30E94FE2ACF5FF6CF15
:101560009B01AC01C701B6010E94142C6B017C01E8
:101570000E94F92C4B015C014AE00E94FE09CC2339
:1015800089F1C501B4010E949D2A9B01AC01C701EC
:10159000B6010E94132C6B017C018EE20E94F709B8
:1015A00020E030E040E251E4C701B6010E94FE2A8B
:1015B0004B015C010E94F22C6B01770FEE08FF08D3
:1015C000C701B6010E946B0AC701B6010E949F2A9B
:1015D0009B01AC01C501B4010E94132C6B017C017D
:1015E000C150F1F6CF91FF90EF90DF90CF90BF9078
:1015F000AF909F908F9008952F923F924F925F925D
:101600006F927F928F929F92AF92BF92CF92DF9212
:10161000EF92FF920F931F93CF93DF9300D000D0F0
:10162000CDB7DEB78091A604843008F0F5C1809173
:10163000A604843008F0F0C18091D4059091D505BE
:10164000891B8F7741F48091C1049091C204891B5A
:101650008F7709F4E1C17BED272E73E0372E0EE57D
:1016600016E02DED33E03A83298342E656E05C83B1
:101670004B831E821D828D810E943A1D97FDAFC152
:10168000382FF1018A3019F08D3009F060C11082D5
:10169000F8018081918140E62D813E81429FF001D9
:1016A000439FF00D1124E352FC4FE80FF91F108205
:1016B000892B31F0F80111821082E980FA8003C091
:1016C0000E944C1A8CC1F7018191803211F47F0184
:1016D000FACF8E3409F065C0E114F10409F461C059
:1016E0006DED72E0C7010E947E2A6C01892B41F0EA
:1016F0006EE470E0C70104960E94BB2D009709F4C8
:10170000C7014AE050E060E070E001960E943E2987
:101710004B015C01EB81FC8180819181A281B381CD
:101720000196A11DB11D88169906AA06BB0631F0C7
:10173000CD2821F46D818AEA92E026C06AE270E049
:10174000C7010E94CD2D009711F1282F2E19D12C01
:10175000222339F02150F701E20FF11D3081D32609
:10176000F7CF4AE050E060E070E001960E943E2929
:101770004D2C512C612C712C64157505860597052F
:1017800051F06D818BE892E00E94741D45C16D811E
:1017900081E692E0F9CFEB81FC8180829182A28286
:1017A000B3828091C0048130F1F067E470E0C7013A
:1017B0000E94BB2D0097B9F04AE050E060E070E075
:1017C00001960E943E29643071058105910558F407
:1017D000D0906A06FD81F0936A068AEE91E00E943D
:1017E000541DD0926A0665EE71E0C7010E94752A09
:1017F000892B39F441E060E070E087ED91E00E94D0
:101800009D1E62ED71E0C7010E94752A892B09F0C7
:1018100067C00E948A1090916D0B90936C0B90930F
:101820006B0B90936A0B24E62093690B40ED53E019
:101830005093B9054093B80581110E94971051E06B
:101840005093B6050E947A1081E00E949D104B01D2
:101850005C0180E00E949D102B013C0160934E02D0
:1018600070934F02809350029093510280925202E3
:1018700090925302A0925402B092550282E00E94CC
:101880009D106B017C016093560270935702809308
:1018900058029093590283E00E949D104092330BAE
:1018A0005092340B6092350B7092360B8092370B4E
:1018B0009092380BA092390BB0923A0BC0923B0B2E
:1018C000D0923C0BE0923D0BF0923E0B60933F0BAD
:1018D0007093400B8093410B9093420B0E947A1FB0
:1018E000E981FA8180818B3309F479C0C090A60424
:1018F000F3E0FC1508F473C0D090DA03ED2CF12C62
:1019000020E62E9DC0012F9D900D112469817A81C2
:10191000865A9D4F0E94C62DF701E259F44F31E0DF
:101920003083F701EE0FFF1FEA5AF94F4D815E81B8
:101930005183408381E08D0D843018F48093DA0365
:1019400002C01092DA03C394C092A60448C020815A
:10195000213009F444C0243018F0245020830AC0F8
:101960008C3531F42C5FF10120832430E1F437C051
:101970008B3391F13830B9F4F8018081918100976F
:1019800071F101979183808360E64D815E81649F50
:101990009001659F300D112423523C4FF901E80F4F
:1019A000F91F10821CC0F80120813181B9016F5FDD
:1019B0007F4F71836083A0E6ED81FE81AE9FA00121
:1019C000AF9F500D112443525C4FFA01E20FF31FF9
:1019D00080836F3571051CF021E0F10120834D817A
:1019E0005E814F5F5F4F5E834D835FEF251A350A3F
:1019F0000E5F1F4F89819A81805A9F4F9A838983F6
:101A0000EB81FC813496FC83EB832D813E81223077
:101A1000310509F40CCE2FCE0E9409216B017C0107
:101A200090916C0B80916D0B981749F0C092A204B5
:101A3000D092A304E092A404F092A50435C00E94C1
:101A400009210091A2041091A3042091A4043091D3
:101A5000A504DC01CB01801B910BA20BB30B805CB6
:101A6000944DA140B109B7FD39C28091A104811103
:101A70001BC081E08093A1045F9A8091BE048E7F99
:101A80008093BE048A9A8091BE048D7F8093BE04A9
:101A90008091080180958170809306018091BE0439
:101AA0008B7F8093BE04129A80919D0490919E0436
:101AB000A0919F04B091A004A7019601281B390BA7
:101AC0004A0B5B0B57FDF3C190916C0B80916D0B32
:101AD000981769F0E0916D0B37E4E39FF001112452
:101AE000EF54F94F208130E02115310511F420E049
:101AF00030E0E7E5F0E14491E1E1F0E18491882311
:101B000099F090E0880F991FFC01E854FE4FA591D1
:101B1000B491FC01E251F04F859194918FB7F89404
:101B2000EC91E42BEC938FBF2115310511F480E08B
:101B300004C02F3F310521F481E00E94001FADC099
:101B4000EDE9F0E1E4918E2F90E0FC013197E23174
:101B5000F10508F09DC08827EE58FF4F8F4F0C9479
:101B60000B2C84B5806884BD27BD97C084B5806286
:101B700084BD28BD92C080918000806880938000E1
:101B8000309389002093880088C080918000806213
:101B90008093800030938B0020938A007EC08091D8
:101BA000800088608093800030938D0020938C00AB
:101BB00074C08091B00080688093B0002093B3001F
:101BC0006CC08091B00080628093B0002093B4001C
:101BD00064C0809190008068809390003093990059
:101BE000209398005AC0809190008062809390006A
:101BF00030939B0020939A0050C0809190008860A1
:101C00008093900030939D0020939C0046C080916B
:101C1000A00080688093A0008091A0008F7B8093BB
:101C2000A0003093A9002093A80037C08091A000A5
:101C300080628093A0003093AB002093AA002DC057
:101C40008091A00088608093A0003093AD00209325
:101C5000AC0023C0809120018068809320013093E4
:101C600029012093280119C080912001806280936E
:101C7000200130932B0120932A010FC08091200175
:101C800088608093200130932D0120932C0105C0A2
:101C9000203831050CF050CF4ACF8091B70588230A
:101CA00009F4F8C06091510B7091520B6E5F7F4F39
:101CB000072E000C880B990B0E949F2A20E030E031
:101CC00042E553E40E94982A87FDE4C040916D0BE1
:101CD0004B83212C312C1D82198280916C0B5B81EE
:101CE000851709F45EC0852F90E067E4689FF001D6
:101CF000699FF00D1124E559F94F45895689678987
:101D0000708D452B462B472B81F4418D528D638D71
:101D1000748D452B462B472B41F4458D568D678D91
:101D200070A1452B462B472BB9F1A7E4A89F800152
:101D3000A99F100D11240559194FF8016181728175
:101D4000838194810E94662D4B015C01F80161A1A1
:101D500072A183A194A10E949D2A2B013C01F8014C
:101D600065A176A187A190A50E949D2A9B01AC0147
:101D7000C301B2010E94802CA50194010E94FE2A99
:101D80005B018C0191014D8159810E94282D18160B
:101D90001CF415010D831983FB81FF5FFF70FB832A
:101DA0009CCF2DEC3CEC4CEC5DE3B1018D81998135
:101DB0000E94FE2A20E030E042E553E40E94142C09
:101DC0004B015C0120E030E042E553E40E94982A98
:101DD00087FD11C020E030E04AE753E4C501B401BB
:101DE0000E94282D18166CF4812C912C8AE7A82EBD
:101DF00083E4B82E06C0812C912C92E5A92E93E4A1
:101E0000B92E40904A0250904B0260904C02709064
:101E10004D02A5019401C301B2010E94282D18169C
:101E2000C4F420E037ED43EA5CE3C501B4010E944D
:101E3000FE2A4B015C0128E431EE4AE75FE3C3016F
:101E4000B2010E94FE2AA50194010E94142C4B01AC
:101E50005C0180924A0290924B02A0924C02B09296
:101E60004D0280910602909107029C012F5031098A
:101E70003A832983C501B4010E94F22C29813A8159
:101E8000621773070CF49B013093520B2093510B94
:101E90000E94152134E6C30ED11CE11CF11CC09236
:101EA0009D04D0929E04E0929F04F092A0040E94B0
:101EB0004C1A8091C0048823A1F00E940921DC0102
:101EC000CB018053984FAF4FBF4F8093A70490939F
:101ED000A804A093A904B093AA0403C01092A1047B
:101EE000E3CD26960FB6F894DEBF0FBECDBFDF91CF
:101EF000CF911F910F91FF90EF90DF90CF90BF9007
:101F0000AF909F908F907F906F905F904F903F9099
:101F10002F9008951F920F920FB60F9211240F90D9
:101F20000FBE0F901F9018951F920F920FB60F9231
:101F300011240F900FBE0F901F9018951F920F92B3
:101F40000FB60F9211240BB60F922F938F939F937E
:101F5000EF93FF939091C6002091D505E091D405B1
:101F600081E08E0F8F77281729F0F0E0EC52FA4FBE
:101F70009283E82FE093D405FF91EF919F918F9189
:101F80002F910F900BBE0F900FBE0F901F901895C2
:101F900080916C0B90916D0B891B8F7019F480E010
:101FA00090E008959091690B992351F0833030F4BB
:101FB0008FEF890F19F08093690BF1CF1092690BA5
:101FC000E0916D0B87E4E89FF0011124E559F94F8A
:101FD000808180FDE4CF80916D0B8F5F8F70809347
:101FE0006A0B90916D0B80916B0B981304C08091DC
:101FF0006A0B80936B0BCF0108950F930FB70F936C
:1020000000916E000F930B7F00936E0000916F00A4
:102010000D7F00936F000F930BB70F930CB70F92C8
:102020001F922F933F934F935F936F937F938F9361
:102030009F93AF93BF93EF93FF9311240E943C11A2
:10204000FF91EF91BF91AF919F918F917F916F9190
:102050005F914F913F912F911F900F900CBF0F9167
:102060000BBF0F910260F89400936F000F910093E3
:102070006E000F910FBF0F9118958091BD0480FFE6
:1020800003C089988FEF02C0899A81E080936A0526
:102090008091BD04869580FF03C08F9A8FEF02C0A8
:1020A0008F9881E080936B058091BD04869586951D
:1020B00080FF07C080910B018270809309018FEF30
:1020C00007C080910B01809582708093090181E0A7
:1020D00080936C058091BD0486958695869580FFDA
:1020E00003C016988FEF02C0169A81E080936D05A9
:1020F0000895089590916C0B80916D0B981306C014
:102100008091B8059091B905892B19F00E94FC0ABD
:10211000F1CF089590916F0081E091FD02C080E0C1
:10212000089590916F009D7F90936F000895EFE662
:10213000F0E08081826080830895CF92DF92EF92F9
:10214000FF92CF93DF93C82F0E948A1094E0C99F1B
:10215000E0011124FE01E552F54FC080D180E280FC
:10216000F38081110E949710C455DB4FC701B6015F
:102170000E949F2A288139814A815B810E94FE2A20
:10218000DF91CF91FF90EF90DF90CF900895CF92A5
:10219000DF92EF92FF9280916905659B02C081609A
:1021A00001C08E7F8093690590910301809169053C
:1021B00091FF02C0826001C08D7F8093690580918C
:1021C00069054B9B02C0846001C08B7F80936905C9
:1021D000C090A705C0FE10C08091BD0480FF0CC058
:1021E0008091690580FF08C08091680581608093B7
:1021F000680580E00E94311DD12CE12CF12CD70123
:10220000C601B695A7959795879580FF11C08091D7
:10221000BD04869580FF0CC08091690581FF08C0D0
:102220008091680582608093680581E00E94311D7D
:1022300082E0F694E794D794C7948A95D1F7C0FECC
:1022400016C08091BD048695869580FF10C0809150
:10225000690582FF0CC080916805846080936805E1
:1022600082E0FF90EF90DF90CF900C94311DFF90B3
:10227000EF90DF90CF9008952F923F924F925F9210
:102280006F927F928F929F92AF92BF92CF92DF9286
:10229000EF92FF920F931F93CF93DF9300D01F9283
:1022A000CDB7DEB78FEF9FEF9093890080938800C2
:1022B0000AE00983212C312C78948091B205909109
:1022C000B305A091B405B091B505892B8A2B8B2B52
:1022D00071F08091B2059091B305A091B405B091D1
:1022E000B505892B8A2B8B2B09F008C5DAC18091A3
:1022F000B6058823D1F01092B6058091B005909173
:10230000B105892B91F01092B1051092B005109291
:10231000A70590916C0B80916D0B981731F080910F
:102320006D0B8F5F8F7080936D0B8091B0059091D6
:10233000B105892B71F2C090AC05D090AD05E0904D
:10234000AE05F090AF054091A8055091A9056091A8
:10235000AA057091AB0500919A0510E020E030E0ED
:10236000DB01CA018C199D09AE09BF0908171907BD
:102370002A073B0710F4D901C801E82F8C0D9D1DD9
:10238000AE1DBF1D8093AC059093AD05A093AE0527
:10239000B093AF051B821A82F1E0C0907205D09015
:1023A0007305E0907405F090750580918205909119
:1023B0008305A0918405B0918505C80ED91EEA1E3B
:1023C000FB1EC0928205D0928305E0928405F092B4
:1023D0008505F7FC31C080916A05082E000C990B29
:1023E000AA0BBB0B4091DB0A5091DC0A6091DD0A1D
:1023F0007091DE0A840F951FA61FB71F8093DB0A1A
:102400009093DC0AA093DD0AB093DE0A80916E05FA
:1024100090916F05A0917005B0917105A70196018B
:10242000281B390B4A0B5B0B2093820530938305E5
:1024300040938405509385050091760510917705AA
:1024400020917805309179058091860590918705D6
:10245000A0918805B0918905080F191F2A1F3B1FFD
:10246000009386051093870520938805309389058E
:1024700037FD31C080916B05082E000C990BAA0B1B
:10248000BB0B4091DF0A5091E00A6091E10A709124
:10249000E20A840F951FA61FB71F8093DF0A90934F
:1024A000E00AA093E10AB093E20A80916E05909150
:1024B0006F05A0917005B0917105B901A801481B85
:1024C000590B6A0B7B0B40938605509387056093ED
:1024D00088057093890540917A0550917B0560913C
:1024E0007C0570917D0580918A0590918B05A09166
:1024F0008C05B0918D05480F591F6A1F7B1F4093B3
:102500008A0550938B0560938C0570938D0577FD3C
:1025100031C080916C05082E000C990BAA0BBB0BE7
:102520008090E30A9090E40AA090E50AB090E60A51
:10253000880D991DAA1DBB1D8093E30A9093E40AA0
:10254000A093E50AB093E60A80916E0590916F051D
:10255000A0917005B09171052A013B01481A590AF2
:102560006A0A7B0A40928A0550928B0560928C051C
:1025700070928D0580907E0590907F05A0908005DB
:10258000B090810580918E0590918F05A091900566
:10259000B0919105880D991DAA1DBB1D80938E05D4
:1025A00090938F05A0939005B0939105B7FD31C02E
:1025B00080906D05082C000C9908AA08BB08409073
:1025C000E70A5090E80A6090E90A7090EA0A840CE1
:1025D000951CA61CB71C8092E70A9092E80AA0926C
:1025E000E90AB092EA0A80906E0590906F05A0907B
:1025F0007005B09071052C013D01481859086A0812
:102600007B0840928E0550928F05609290057092E3
:102610009105F1110CC0A0908400B09085006A80F3
:102620007B80A618B708F2E0AF16B104A0F3F7FE5E
:10263000889A37FF8E9A77FD06C0F0910B01F095CE
:10264000F870F0930901B7FF149A409084005090FD
:1026500085005B824A82A0908400B09085006A80E9
:102660007B80A618B708F2E0AF16B104A0F3F7FE1E
:10267000889837FF8E9877FD05C020910B01287050
:1026800020930901B7FF1498EE2331F040908400A5
:10269000509085005B824A82E150F0E009F07DCEE7
:1026A00018CEE091B005F091B105309709F4ACC4B3
:1026B0008091AC059091AD05A091AE05B091AF05AC
:1026C0004091A8055091A9056091AA057091AB05AC
:1026D00084179507A607B707D0F01092B10510929E
:1026E000B0051092A70590916C0B80916D0B981717
:1026F00009F48AC480916D0B8F5F8F7080936D0B8E
:1027000040EDC42E47E0D42EE12CF12C4EC1409177
:10271000A3055091A4056091A5057091A6054817E1
:1027200059076A077B0708F467C040919F055091DD
:10273000A0056091A1057091A20581A992A9A3A904
:10274000B4A95524499F612C5A9F90016A9F300D6E
:10275000699F200D311D4A9F600C211D351D599F19
:10276000600C211D351D689F600C211D351D589F73
:10277000610C251D351D6694251D351DB49F200D4A
:10278000311DB59F300D112482AD93ADA4ADB5AD13
:10279000820F931FA11DB11D80939B0590939C05F3
:1027A000A0939D05B0939E0506A917A920AD31AD54
:1027B000081719072A073B0740F400939B0510935D
:1027C0009C0520939D0530939E0580909B059090DD
:1027D0009C05A0909D05B0909E0583ED9EE021E0B4
:1027E000FC01C590D590E590F490C814D904EA0492
:1027F000FB0408F4D3C2DDC24091960550919705C1
:102800006091980570919905481759076A077B07E9
:1028100008F063C040919205509193056091940532
:102820007091950581A992A9A3A9B4A94424499FAF
:10283000512C5A9F90016A9F300D699F200D311DC8
:102840004A9F500C211D341D599F500C211D341DD1
:10285000689F500C211D341D589F510C241D341DA0
:102860005694241D341DB49F200D311DB59F300D8D
:102870001124C901A0E0B0E080909B0590909C05D8
:10288000A0909D05B0909E05FE9688159905AA0515
:10289000BB0580F40081118122813381881A990A55
:1028A000AA0ABB0A80169106A206B30638F44801AC
:1028B000590104C080809180A280B38083ED9EE0A6
:1028C00021E0FC01C590D590E590F490C814D9049E
:1028D000EA04FB0408F4D5C2DFC28091080290919B
:1028E0000902A0910A02B0910B02B7FF56C086A957
:1028F00097A9A0ADB1AD23ED3EE041E0F901C5904F
:10290000D590E590F490C816D906EA06FB0658F46F
:10291000B695A79597958795440F2C5F3F4FEEE0AE
:102920002F3E3E0759F740939A0580329105A10545
:10293000B10508F43CC38097A109B109811508E0ED
:102940009007A105B10508F40FC314E0919F900111
:1029500011242D52354FF901329645915491EE27AD
:10296000859FB001849F610D7E1F06946E1F7E1FA0
:102970001124CB01A0E0B0E0F9014591549160E051
:1029800070E0481B590B6A0B7B0B40930802509375
:10299000090260930A0270930B02C0900802D09063
:1029A0000902E0900A02F0900B028091B00590912C
:1029B000B105892B09F09AC10E94C80F9093B10507
:1029C0008093B005892B09F491C14090B0055090D7
:1029D000B1055B824A82D2018C9183FF45C0F2012E
:1029E000858D968DA78DB0A1418D528D638D748D8F
:1029F000058916892789308D0093DB0A1093DC0A3C
:102A00002093DD0A3093DE0A4093DF0A5093E00AF8
:102A10006093E10A7093E20A8093E30A9093E40AD8
:102A2000A093E50AB093E60A81A192A1A3A1B4A163
:102A30008093E70A9093E80AA093E90AB093EA0A20
:102A40001092B1051092B0051092A70590916C0BF1
:102A500080916D0B981709F4AFCF80916D0B8F5F4C
:102A60008F7080936D0BA8CFAA81BB815596CD90B6
:102A7000DD90ED90FC90589781E0C114D104E10401
:102A8000F10409F480E0EA81FB81018D128D238D30
:102A9000348D011511052105310509F08260AA81E7
:102AA000BB815D964D915D916D917C9190974115A3
:102AB00051056105710509F084608093A7051092A6
:102AC000920510929305109294051092950510921C
:102AD0009F051092A0051092A1051092A205EA810F
:102AE000FB8185A196A1A7A1B0A58093A80590938D
:102AF000A905A093AA05B093AB0588249924540195
:102B0000881A990AAA0ABB0A8092820590928305C4
:102B1000A0928405B09285058092860590928705E3
:102B2000A0928805B092890580928A0590928B05C3
:102B3000A0928C05B0928D0580928E0590928F05A3
:102B4000A0929005B092910581A092A0A3A0B4A0FC
:102B5000880C991CAA1CBB1CCC0CDD1CEE1CFF1C99
:102B6000C0927205D0927305E0927405F0927505DB
:102B7000000F111F221F331F009376051093770556
:102B80002093780530937905440F551F661F771FF2
:102B900040937A0550937B0560937C0570937D0587
:102BA00080927E0590927F05A0928005B09281056B
:102BB000880F991FAA1FBB1F80936E0590936F0506
:102BC000A0937005B09371051092AC051092AD05FD
:102BD0001092AE051092AF0581A592A5A3A5B4A54C
:102BE0008093A3059093A405A093A505B093A60593
:102BF00085A596A5A7A5B0A980939605909397055E
:102C0000A0939805B093990585A99091BD04891763
:102C100021F08093BD040E943D108091BC0481117D
:102C20000E94C71044244A94542C32014092080256
:102C30005092090260920A0270920B02EA81FB81B3
:102C400082AD93ADA4ADB5AD80939B0590939C05EB
:102C5000A0939D05B0939E0523ED3EE041E0F90170
:102C6000C590D590E590F490C816D906EA06FB0603
:102C700070F4B695A79597958795440F2C5F3F4FB5
:102C80006FEE462E6EE0562E4216530641F74093E5
:102C90009A0580329105A105B10508F4B0C180976D
:102CA000A109B1098115F8E09F07A105B10508F454
:102CB00083C104E0909F900111242D52354FF901FA
:102CC000329645915491EE27859FB001849F610D06
:102CD0007E1F06946E1F7E1F1124F901C590D490AB
:102CE000E12CF12CC61AD70AE108F108C092B2050E
:102CF000D092B305E092B405F092B5058091B2058B
:102D00009091B305A091B405B091B5058F3F1FEF29
:102D10009107A105B10528F04FEF5FEF60E070E08B
:102D200002C0AC01BD01841B950BA60BB70B8093B1
:102D3000B2059093B305A093B405B093B505F8948C
:102D4000809184009091850040960981015009830B
:102D5000002339F0240E351E2816390608F4ACCAB3
:102D600001C01C01309289002092880078940F9055
:102D70000F900F900F90DF91CF911F910F91FF90C7
:102D8000EF90DF90CF90BF90AF909F908F907F900B
:102D90006F905F904F903F902F900895B694A794B6
:102DA00097948794220F04961EE08F3E910709F0B6
:102DB00017CD20939A0520E282169104A104B10454
:102DC00008F459C000E2801A9108A108B1088114E2
:102DD00018E09106A104B104F8F024E0929EC0012D
:102DE00011248D52954FFC01329625913491F82D86
:102DF000EE27F39FD001F29FA10DBE1F0694AE1FD8
:102E0000BE1F1124FC01C590D490E12CF12CCA1AEC
:102E1000DB0AE108F10822C0D501C401B695A795E7
:102E200097958795FC01EC7FCF018D52994FFC015E
:102E3000C590D490FC01329625913491E82DE7702D
:102E4000E29FC001E39F900D112433E09695879592
:102E50003A95E1F7C81AD90AE12CF12C4C0D5D1D09
:102E60006E1D7F1D40939F055093A0056093A105A3
:102E70007093A2059ACDA0E28A2E912CA12CB12CA0
:102E8000A1CFB694A79497948794220F04963EE01E
:102E90008F3E930709F015CD20939A0580E288169E
:102EA0009104A104B10408F459C000E2801A910809
:102EB000A108B108811418E09106A104B104F8F04A
:102EC00024E0929EC00111248D52954FFC01329650
:102ED00025913491F82DEE27F39FD001F29FA10D9B
:102EE000BE1F0694AE1FBE1F1124FC01C590D490D6
:102EF000E12CF12CCA1ADB0AE108F10822C0D50145
:102F0000C401B695A79597958795FC01EC7FCF01F5
:102F10008D52994FFC01C590D490FC0132962591B9
:102F20003491E82DE770E29FC001E39F900D1124DA
:102F300003E0969587950A95E1F7C81AD90AE12C1E
:102F4000F12C4C0D5D1D6E1D7F1D4093920550931D
:102F50009305609394057093950527CDE0E28E2E3E
:102F6000912CA12CB12CA1CFAC01BD017695679518
:102F700057954795FA01EC7F9F012D52394FF90182
:102F800045915491F9013296659174918770869FAD
:102F90009001879F300D1124C901F3E09695879524
:102FA000FA95E1F7481B590B60E070E0EECC80E247
:102FB00090E0A0E0B0E0BFCCAC01BD017695679594
:102FC00057954795FA01EC7F9F012D52394FF90132
:102FD000C590D490F9013296459154918770849FA1
:102FE0009001859F300D1124C90103E096958795C6
:102FF0000A95E1F7C81AD90AE12CF12C77CE80E2C4
:1030000090E0A0E0B0E04BCE80EDC82E87E0D82E57
:10301000E12CF12CD1CC0F930FB70F9300916E00E0
:103020000B7F00936E0078940F930BB70F930CB740
:103030000F921F922F933F934F935F936F937F93C2
:103040008F939F93AF93BF93EF93FF9311240E94AD
:10305000BA18FF91EF91BF91AF919F918F917F919E
:103060006F915F914F913F912F911F900F900CBFE7
:103070000F910BBF0F910460F89400936E000F91B5
:103080000FBF0F9118951092B7058091060290918D
:1030900007020F971816190614F480E090E0909339
:1030A000520B8093510B0E9415211092530B2C98B8
:1030B0000895EF92FF920F931F93CF93C82F7B0138
:1030C0008A018091C004813059F586E59FE00E9415
:1030D000541DC7010E94541D8AEF9EE00E94541D9A
:1030E000C7FD39C080916A06882361F18F3751F19D
:1030F00080916A06882339F06C2FCC0F770B880BF0
:10310000990B0E94150980916A06882349F18F372F
:1031100039F180916A06882319F08AE00E94A1089B
:103120000E9443188091BA0581111EC081E08093EE
:10313000BA0580E88093C00440E063EF7EE0C801F8
:103140000E949D1E6C2F0C2E000C770B880B990B88
:103150000E946B0ACDCF86EF9EE00E94541DD3CF14
:103160008AE00E94F709D5CFCF911F910F91FF9070
:10317000EF9008950F931F93CF93DF9380910E02EA
:103180008F3748F08F579091530B9093D305992325
:1031900031F02C9A05C09091D305891708F02C982E
:1031A0008F5F80930E029091D20581E089278093F2
:1031B000D20580910D0283301CF4C1E0C80F01C01C
:1031C000C0E0813009F471C01CF48823C1F08DC0C7
:1031D000823009F476C0833009F087C08091D10530
:1031E000811103C087E08093D1058091D105815082
:1031F0008093D105882309F478C0C3E076C080911C
:103200000C028F5F80311CF480930C026EC0109210
:103210000C028091D00581110BC08091490B9091D7
:103220004A0B90934C0B80934B0B81E08093D0051D
:1032300010924A0B1092490B00914B0B10914C0BC2
:103240001195019511098091510B9091520BD1E08C
:10325000181619062CF08091530B811101C0D0E093
:1032600080910202909103029195819591098017B6
:1032700091073CF44BE75FE068E87FE080E00E9464
:103280005918DD2391F180910002909101029195EE
:10329000819591090817190744F54AE95FE067EA43
:1032A0007FE080E00E94591820C088E080937B0076
:1032B00085E480937C0080917A00806480937A001A
:1032C00014C080917A0086FD0FC0809178009091A3
:1032D00079002091490B30914A0B820F931F9093F4
:1032E0004A0B8093490B01C0C2E0C0930D0280914C
:1032F000BC0481110E94C7108091B8059091B90556
:10330000009729F001979093B9058093B805DF9154
:10331000CF911F910F9108958F929F92AF92BF927C
:10332000CF92DF92EF92FF920F931F93CF93DF9391
:10333000C62E662321F186E59FE00E94541D8091F0
:103340006A06D12CE12CF12C882311F08F3721F45F
:10335000C701B6010E946B0A80916A06882321F09A
:10336000C701B6010E9415098DE59FE00E94541D1A
:1033700040E060E070E080E090E00E949D1EF0E49C
:10338000FF2EE12CAE2DB0E0BD016F0D711D7595C6
:103390006795611103C0ECE2F3E006C0E61611F098
:1033A000F6120BC0E8E2F4E065917491072E000C70
:1033B000880B990B0E949F2A62C09B012150310902
:1033C000220F331F220F331FF901E65DFC4F0591D9
:1033D0001491AB01440F551F440F551FFA01E65DD0
:1033E000FC4FC591D4918017910714F4F62ECCCFE1
:1033F000C817D90714F4E62EC5CFF901E45DFC4FD8
:10340000E590F490FA01E45DFC4FC590D490BC01C6
:10341000601B710B072E000C880B990B0E949F2AD2
:103420004B015C01B6016E197F09072E000C880B59
:10343000990B0E949F2A9B01AC01C501B4010E9417
:10344000FE2A4B015C01C01BD10BBE01DD0F880BB6
:10345000990B0E949F2A9B01AC01C501B4010E94F7
:10346000802C4B015C01B701FF0C880B990B0E946B
:103470009F2A9B01AC01C501B4010E94142CDF916D
:10348000CF911F910F91FF90EF90DF90CF90BF9061
:10349000AF909F908F9008952F923F924F925F929E
:1034A0006F927F928F929F92AF92BF92CF92DF9254
:1034B000EF92FF920F931F93CF93DF93CDB7DEB7B9
:1034C0002F970FB6F894DEBF0FBECDBF8091D00509
:1034D000811119C02F960FB6F894DEBF0FBECDBF75
:1034E000DF91CF911F910F91FF90EF90DF90CF90E0
:1034F000BF90AF909F908F907F906F905F904F9014
:103500003F902F90089560E080914B0B90914C0B71
:103510000E948C1960934D0B70934E0B80934F0B50
:103520009093500BA8951092D0050E9409212B0171
:103530003C016091060270910702072E000C880B77
:10354000990B0E949F2A9B01AC0160914D0B7091D9
:103550004E0B80914F0B9091500B0E94282D181606
:103560000CF4EEC16091510B7091520B072E000CC0
:10357000880B990B0E949F2A6B017C012091650B9F
:103580003091660B4091670B5091680B0E94982A0E
:1035900081117CC02091640B29835981523009F438
:1035A00093C1533009F4C4C1513009F4D1C1C09062
:1035B0004D0BD0904E0BE0904F0BF090500B609164
:1035C000040270910502072E000C880B990B0E94D3
:1035D0009F2AA70196010E94982A87FF11C0609137
:1035E000060270910702072E000C880B990B0E94AF
:1035F0009F2AA70196010E94282D18160CF45EC080
:1036000060E06093530B8091450B9091460BA09125
:10361000470BB091480B0097A105B10509F45ACFAB
:10362000A3019201281B390B4A0B5B0B57FD52CFAC
:103630006091430B7091440B80E090E00E949D2AC2
:10364000A70196010E94282D18160CF09DC148E391
:103650005FE067E47FE080E02F960FB6F894DEBF6E
:103660000FBECDBFDF91CF911F910F91FF90EF90D3
:10367000DF90CF90BF90AF909F908F907F906F9092
:103680005F904F903F902F900C945918C092650B0B
:10369000D092660BE092670BF092680B31E03983B1
:1036A00020E030E0A901C701B6010E94282D1816BC
:1036B0000CF0C0C149814093640B6FCF6091510BF6
:1036C0007091520B6115710509F4A0C1072E000C11
:1036D000880B990B0E949F2AA70196010E94132C28
:1036E0004B015C0120E030E040E251EC0E94982A5E
:1036F00087FD8CC120E030E040E251E4C501B40117
:103700000E94282D18160CF497C18091CF058111C5
:1037100098C18091C7059091C805A091C905B09145
:10372000CA0589839A83AB83BC832091CB053091F2
:10373000CC054091CD055091CE052D833E834F831E
:103740005887A70196016091BB057091BC058091D7
:10375000BD059091BE050E94132C20915C0B309109
:103760005D0B40915E0B50915F0B0E94FE2A2981F8
:103770003A814B815C810E94132C20ED3CEC4CE49F
:103780005DE30E94FE2A29813A814B815C810E947F
:10379000142C69837A838B839C836093C705709311
:1037A000C8058093C9059093CA058091580B9091E4
:1037B000590BA0915A0BB0915B0B89879A87AB8705
:1037C000BC872D813E814F815885C501B4010E947F
:1037D000142C8B018F879E8720E030E0A9010E9486
:1037E000982A87FD39C129853A854B855C8560E03B
:1037F00070E08FE793E40E94802C6D837D871C012D
:1038000098014F855E850E94982A87FF04C00D812C
:103810001D852F863E86C801AF85BE858093CB056A
:103820009093CC05A093CD05B093CE052091540B79
:103830003091550B4091560B5091570BC501B40177
:103840000E94FE2A4B015C016093BF057093C00586
:103850008093C1059093C20598014F855E85698567
:103860007A858B859C850E94FE2A9B01AC01609322
:10387000C3057093C4058093C5059093C605C50123
:10388000B4010E94142C29813A814B815C810E94F1
:10389000142C20E030E0A9010E94142C4B015C01A3
:1038A00020E030E0A9010E94982A87FDB2C020E004
:1038B00030E04FE753E4C501B4010E94282D1816EB
:1038C0000CF0B1C06FE7A6C0C0904D0BD0904E0B6E
:1038D000E0904F0BF090500B8090650B9090660B32
:1038E000A090670BB090680B20E030E040E850E417
:1038F000C501B4010E94132CA70196010E94982AC9
:1039000018160CF072C00E940921C090600BD09074
:10391000610BE090620BF090630BDC01CB018C1922
:103920009D09AE09BF09B7FD42CE83E08093640BC9
:1039300048E15FE068E27FE080E00E94591837CEFE
:103940004BE75FE068E87FE080E00E9459180ACE0C
:10395000C0904D0BD0904E0BE0904F0BF090500B61
:103960008090650B9090660BA090670BB090680BF1
:10397000A5019401C701B6010E94982A87FD1FCEB8
:1039800082E08093640BB0CFA090510BB090520BAB
:10399000A114B10409F1C701B6010E94F22C6E5FB7
:1039A0007F4F34E0A31AB1086A157B05ACF470931D
:1039B000440B6093430B0E940921DC01CB01805E24
:1039C000914BAF4FBF4F8093450B9093460BA09305
:1039D000470BB093480B7ECD1092450B1092460BCF
:1039E0001092470B1092480B75CD0E940921DC0103
:1039F000CB01805C9346AF4FBF4F8093600B909399
:103A0000610BA093620BB093630BD1CD81E08093E7
:103A1000CF0560E0C092BB05D092BC05E092BD0529
:103A2000F092BE05EECDC501B4010E94F22C759551
:103A30006795F0CF19823ECE81E08093CF056FE786
:103A4000E9CF1092CF051D821E821F82188619822F
:103A50001A821B821C8275CE00E010E01F861E8633
:103A6000DACE0E948A1091E09093B60581110C94F1
:103A700097100895882321F0813099F40C94B909A6
:103A80008091D4059091D505891759F0E92FF0E080
:103A9000EC52FA4F82819F5F9F779093D50590E01B
:103AA00008958FEF9FEF08950F931F93CF938C018D
:103AB000F801C491CC23A1F080916A06882311F00B
:103AC0008F3719F48C2F0E94F70980916A068111B3
:103AD00003C00F5F1F4FECCF8C2F0E94A108F9CFBE
:103AE000CF911F910F9108950F931F93CF93DF9361
:103AF0008C01C62FD0916A0660936A0686E59FE026
:103B00000E94541DC8010E94541D80916A0688239A
:103B100011F08F3791F424E0C202F0011124EE5924
:103B2000F94F60817181828193810E946B0A8DE0DF
:103B30000E94F7098AE00E94F70980916A068823AB
:103B400071F084E0C802F0011124EE59F94F608150
:103B50007181828193810E9415090E94A6098C2F90
:103B60000E943A1D0196D9F700915606109157060A
:103B700017FD68C0802F00936A06002339F00F37C5
:103B800029F08091C1048093C20406C09091D405AD
:103B90009093D5058111F5CF82EE9FE00E94541DD0
:103BA00080916A06882311F08F37C9F4F801EE0F6F
:103BB000FF1FEE0FFF1FEE59F94F80819181A28107
:103BC000B381BC01CD016F5F7F4F8F4F9F4F0E942C
:103BD0006B0A8DE00E94F7098AE00E94F709809144
:103BE0006A068823A9F0F801EE0FFF1FEE0FFF1FF2
:103BF000EE59F94F80819181A281B381BC01CD0141
:103C00006F5F7F4F8F4F9F4F0E9415090E94A6093B
:103C100000936A0680916E0B8823A1F08FED9FE0E0
:103C20000E94541D80916A06882311F08F3719F481
:103C30008AE00E94F70980916A06882319F08AE0D9
:103C40000E94A108EC2FEE0FFF0BE25AF94F1182F0
:103C50001082D0936A06DF91CF911F910F91089542
:103C6000CF92DF92EF92FF926A017B010E94541D76
:103C700080916A06882311F08F3729F442E0C7014A
:103C8000B6010E94870A80916A06882349F042E0C3
:103C9000C701B601FF90EF90DF90CF900C943109EF
:103CA000FF90EF90DF90CF900895CF92DF92EF9248
:103CB000FF926A017B010E94541D80916A0688234D
:103CC00011F08F3721F4C701B6010E946B0A809171
:103CD0006A06882341F0C701B601FF90EF90DF909C
:103CE000CF900C941509FF90EF90DF90CF9008953E
:103CF000CF93DF93EB010E94541D80916A068823C5
:103D000011F08F3739F4BE010D2E000C880B990B82
:103D10000E946B0A80916A06882341F0BE01DD0F84
:103D2000880B990BDF91CF910C941509DF91CF91FE
:103D3000089589ED9FE00C94541DC42F0E944318F0
:103D400086E59FE00E94541D89EB9FE00E94541D70
:103D500089EE93E030E6019729F0232F2A950000A1
:103D6000E9F7F9CFF89489EE93E038EE019729F05E
:103D7000232F2A950000E9F7F9CF0E944318CC239E
:103D8000B9F05F9A8091BE048E7F8093BE048A9AB8
:103D90008091BE048D7F8093BE0480910801809540
:103DA0008170809306018091BE048B7F8093BE0456
:103DB000129AA895FECF3FB7F8948091770B909117
:103DC000780BA091790BB0917A0B26B5A89B05C012
:103DD0002F3F19F00196A11DB11D3FBFBA2FA92F8A
:103DE000982F8827820F911DA11DB11DBC01CD0107
:103DF00042E0660F771F881F991F4A95D1F70895F3
:103E0000382FEDE9F0E14491E7E5F0E12491E1E1BB
:103E1000F0E19491992309F46CC0442309F455C04E
:103E200050E0FA013197E231F10508F04EC08827E1
:103E3000EC57FF4F8F4F0C940B2C809180008F77A5
:103E400007C0809180008F7D03C080918000877FB4
:103E5000809380003AC084B58F7702C084B58F7D8F
:103E600084BD33C08091B0008F7703C08091B000D3
:103E70008F7D8093B00029C0809190008F7707C01C
:103E8000809190008F7D03C080919000877F809308
:103E900090001BC08091A0008F7707C08091A00088
:103EA0008F7D03C08091A000877F8093A0000DC00C
:103EB000809120018F7707C0809120018F7D03C002
:103EC00080912001877F80932001E92FF0E0EE0FA1
:103ED000FF1FE251F04FA591B4919FB7F8943111B3
:103EE00004C08C912095282302C0EC912E2B2C939A
:103EF0009FBF08954F925F926F927F928F929F9291
:103F0000AF92BF92CF92DF92EF92FF920F931F93E7
:103F1000CF93DF9320910B0B30910C0B40910D0B45
:103F200050910E0B60913F0B7091400B8091410BB3
:103F30009091420B0E94FE2A0E942D2D6B017C0164
:103F40002091070B3091080B4091090B50910A0BFF
:103F500060913B0B70913C0B80913D0B90913E0B1F
:103F60000E94FE2A0E942D2D4B015C012091030B23
:103F70003091040B4091050B5091060B6091370B6B
:103F80007091380B8091390B90913A0B0E94FE2A68
:103F90000E942D2D2B013C012091FF0A3091000B36
:103FA0004091010B5091020B6091330B7091340BD7
:103FB0008091350B9091360B0E94FE2A0E942D2D88
:103FC00060937B0B70937C0B80937D0B90937E0BA7
:103FD00040927F0B5092800B6092810B7092820B0B
:103FE0008092830B9092840BA092850BB092860BEB
:103FF000C092870BD092880BE092890BF0928A0BCB
:1040000090916C0B80916D0B981799F180916C0BCE
:1040100090916D0B891B8F708F3019F40E94FC0AF0
:10402000F5CF80916C0B8F5F8F70A0916C0B97E434
:104030009A9FD0011124FD01E559F94FEF01199222
:104040009A95E9F798E09083A058B94F90E1EBE793
:10405000FBE001900D929A95E1F720916C0B909105
:104060006D0B291303C094E69093690B80936C0B3E
:1040700046C00E947A100E948A104091830B509192
:10408000840B6091850B7091860B00917F0B1091D2
:10409000800B2091810B3091820BC0907B0BD090D4
:1040A0007C0BE0907D0BF0907E0BC092DB0AD092EF
:1040B000DC0AE092DD0AF092DE0A0093DF0A109338
:1040C000E00A2093E10A3093E20A4093E30A509316
:1040D000E40A6093E50A7093E60A4091870B5091D9
:1040E000880B6091890B70918A0B4093E70A50937B
:1040F000E80A6093E90A7093EA0A882391F0DF9155
:10410000CF911F910F91FF90EF90DF90CF90BF90D4
:10411000AF909F908F907F906F905F904F900C9496
:104120009710DF91CF911F910F91FF90EF90DF904B
:10413000CF90BF90AF909F908F907F906F905F9047
:104140004F9008950F931F93CF938C01C62F0E9419
:10415000991E8BEE9FE00E94541DC8010E94541DC1
:10416000CC2389F0C0916A06CC2341F0CF3731F0DF
:104170008AE0CF911F910F910C94A1088AE00E94D0
:10418000F709C111F5CFCF911F910F9108958F922B
:104190009F92AF92BF92CF92DF92EF92FF926B010C
:1041A0007C010E94DB1E4B015C01C114D104E104BF
:1041B000F104F1F00E94DB1EDC01CB0188199909A2
:1041C000AA09BB09883E9340A105B10570F321E01F
:1041D000C21AD108E108F10888EE880E83E0981E23
:1041E000A11CB11CC114D104E104F10419F7DDCF05
:1041F000FF90EF90DF90CF90BF90AF909F908F9007
:10420000089562E070E080E090E00E94C7200C9486
:104210004C1A2FB7F8946091730B7091740B8091C6
:10422000750B9091760B2FBF0895CF93DF93C091BC
:10423000510BD091520B209729F160914D0B709149
:104240004E0B80914F0B9091500B0E94F22C6E5FA1
:104250007F4F24976C177D07ACF47093440B6093E9
:10426000430B0E940921DC01CB01805E914BAF4FD3
:10427000BF4F8093450B9093460BA093470BB09391
:10428000480B08C01092450B1092460B1092470B3A
:104290001092480BDF91CF9108951F920F920FB6A5
:1042A0000F9211242F933F938F939F93AF93BF93BC
:1042B0008091730B9091740BA091750BB091760B5C
:1042C0003091720B23E0230F2D3720F40196A11DAE
:1042D000B11D05C026E8230F0296A11DB11D209334
:1042E000720B8093730B9093740BA093750BB09328
:1042F000760B8091770B9091780BA091790BB09110
:104300007A0B0196A11DB11D8093770B9093780BCA
:10431000A093790BB0937A0BBF91AF919F918F913E
:104320003F912F910F900FBE0F901F901895CF9334
:10433000DF93CDB7DEB72C970FB6F894DEBF0FBE74
:10434000CDBF789484B5826084BD84B5816084BD1E
:1043500085B5826085BD85B5816085BD80916E0023
:10436000816080936E001092810080918100826054
:104370008093810080918100816080938100809191
:1043800080008160809380008091B1008460809380
:10439000B1008091B00081608093B0008091910065
:1043A0008260809391008091910081608093910060
:1043B000809190008160809390008091A100826044
:1043C0008093A1008091A10081608093A1008091E1
:1043D000A00081608093A000809121018260809381
:1043E0002101809121018160809321018091200130
:1043F00081608093200180917A00846080937A00AC
:1044000080917A00826080937A0080917A00816046
:1044100080937A0080917A00806880937A0010926D
:10442000C1001092C0008091C00082608093C000E3
:104430001092C50017E01093C4008091C100806104
:104440008093C1008091C10088608093C1008091F9
:10445000C10080688093C1000E9409211092C800A9
:104460008091C80082608093C8001092CD001093A4
:10447000CC008091C90080618093C9008091C900FF
:1044800088608093C9008091C90080688093C900CA
:104490000E9409210E94991E8CEC96E00E94541DF6
:1044A00014B710FF04C083EC96E00E94541D11FF66
:1044B00004C082EB96E00E94541D12FF04C080EA03
:1044C00096E00E94541D13FF04C08FE896E00E94FE
:1044D000541D15FF04C08EE796E00E94541D14BEC3
:1044E00087E796E00E94541D80916A06882311F0A8
:1044F0008F3719F480E20E94F70980916A068823B9
:1045000019F080E20E94A1088EE696E00E94541DF8
:1045100080916A06882311F08F3719F48AE00E948F
:10452000F70980916A06882319F08AE00E94A108A1
:104530000E94991E8FE396E00E94541D0E94991ECE
:1045400088E296E00E94541D0E94991E20918B0BD8
:1045500030918C0BCE0101962115310519F481594A
:104560009B4002C0821B930B9A83898369817A8165
:1045700089E196E00E94781E60E774E082E096E0B0
:104580000E94781E80916A06882311F08F3719F4F3
:104590008AE00E94F70980916A06882319F08AE070
:1045A0000E94A108ABEEBAE020E030E0C90124305F
:1045B000310514F083E090E0880F991F880F991F50
:1045C000FC01E65EFC4F45915591659174914D93C8
:1045D0005D936D937D93FC01E65FFC4F4591559192
:1045E0006591749150964D935D936D937C93539721
:1045F000FC01E650FD4F459155916591749190965F
:104600004D935D936D937C9393972F5F3F4F243031
:10461000310509F0CBCF80E29EE4A0E0B0E08093CA
:10462000FB0A9093FC0AA093FD0AB093FE0A80E077
:1046300090E8ABE3B5E480931F0B9093200BA0931D
:10464000210BB093220B8093230B9093240BA09308
:10465000250BB093260B8093270B9093280BA093E8
:10466000290BB0932A0B10922B0B10922C0B10924B
:104670002D0B10922E0B10922F0B1092300B1092CC
:10468000310B1092320B84EF9DEFA4E5BCE38093D5
:104690004F0590935005A0935105B0935205109289
:1046A00060051092610510926205109263051092E8
:1046B0005C0510925D0510925E0510925F051092E8
:1046C00058051092590510925A0510925B058AE917
:1046D00099E9A1EBB1E48093540B9093550BA0930F
:1046E000560BB093570B86EA91E3A5E3BEE38093A4
:1046F000580B9093590BA0935A0BB0935B0B80E42B
:1047000093EFADE2B4E480935C0B90935D0BA093C8
:104710005E0BB0935F0B1092570580E090E0A0EE27
:10472000BFE38093530590935405A0935505B09330
:1047300056051092BC048090330B9090340BA090DF
:10474000350BB090360B4090370B5090380B609083
:10475000390B70903A0B80913B0B90913C0BA091E0
:104760003D0BB0913E0B89879A87AB87BC870E942F
:10477000791048E5242E45E0342EAFE0B2E0B8874A
:10478000AF83E3E4F5E0FC83EB830EEE12E052EE40
:10479000C52E52E0D52E63E0F62ED1016D917D91AC
:1047A0008D919D911D01EF81F8852191319141916C
:1047B0005191F887EF830E94142CAB81BC816D93DB
:1047C0007D938D939D93BC83AB83F80185919591E7
:1047D000A591B491F60185919591A591B491FA9422
:1047E0000C5F1F4FB4E0CB0ED11CF110D6CF2FEFD2
:1047F000E22E2AE0F22E0CEA14E03CEBC32E34E069
:10480000D32EF70121913191419151917F0160E0C7
:1048100070E080E89FE30E94802CD8016D937D9327
:104820008D939D938D01CA16DB0659F70E947A1F5E
:104830000E947910C090330BD090340BE090350B70
:10484000F090360BA7019601C501B4010E94982A89
:1048500081111FC02091370B3091380B4091390BDB
:1048600050913A0BC301B2010E94982A811111C0E4
:1048700020913B0B30913C0B40913D0B50913E0BF6
:1048800069857A858B859C850E94982A882309F4FE
:1048900098C080913F0B9091400BA091410BB0913B
:1048A000420B8B839C83AD83BE832091470530915F
:1048B00048054091490550914A056091370B709128
:1048C000380B8091390B90913A0B0E94142C2B01DC
:1048D0003C0120914B0530914C0540914D05509184
:1048E0004E0560913B0B70913C0B80913D0B90917C
:1048F0003E0B0E94142C4B015C012091430530912A
:1049000044054091450550914605C701B6010E94F6
:10491000142CAB01BC018DE394E00E94301EB30166
:10492000A20182E394E00E94301EB501A4018EE250
:1049300094E00E94301E4B815C816D817E818AE211
:1049400094E00E94301E0E948A104090DB0A509032
:10495000DC0A6090DD0A7090DE0A8090DF0A909099
:10496000E00AA090E10AB090E20AC090E30AD09079
:10497000E40AE090E50AF090E60A81110E9497109F
:10498000B301A20186E394E00E94551EB501A40183
:1049900082E394E00E94551EB701A6018EE294E0E6
:1049A0000E94551E80916A06882309F438C48F3707
:1049B00009F435C480916A06882319F08AE00E94C0
:1049C000A1080E94991E80E494E00E94541D0E9458
:1049D000991E8BEE95E00E94541D85EE95E00E9495
:1049E000541D80916A06882311F08F3719F48AE0EC
:1049F0000E94F70980916A06882319F08AE00E94D4
:104A0000A10880916A06882311F08F3719F48AE093
:104A10000E94F70980916A06882319F08AE00E94B3
:104A2000A10860E082ED95E00E94A2201091570558
:104A3000112389F080916A06882311F08F3719F4C9
:104A40008AE00E94F70980916A06882341F08AE093
:104A50000E94A10804C087EC95E00E94541D0E94AA
:104A6000991E612F70E08EEB95E00E94781E4091B8
:104A700053055091540560915505709156058BEB87
:104A800095E00E94301E80916A06882311F08F37CE
:104A900019F48AE00E94F70980916A06882319F0C8
:104AA0008AE00E94A10861E08BEA95E00E94A220C2
:104AB0000E94991E4091FF0A5091000B6091010BDA
:104AC0007091020B83E694E00E94301E4091030B2C
:104AD0005091040B6091050B7091060B82E895E0F4
:104AE0000E94301E4091070B5091080B6091090BFA
:104AF00070910A0B8FE795E00E94301E40910B0BDE
:104B000050910C0B60910D0B70910E0B8CE795E0A2
:104B10000E94301E80916A06882311F08F3719F4A5
:104B20008AE00E94F70980916A06882319F08AE0DA
:104B30000E94A10861E08EE895E00E94A2200E94F8
:104B4000991E40910F0B5091100B6091110B7091B9
:104B5000120B85E895E00E94301E4091130B509196
:104B6000140B6091150B7091160B82E895E00E9472
:104B7000301E4091170B5091180B6091190B7091DA
:104B80001A0B8FE795E00E94301E40911B0B50914D
:104B90001C0B60911D0B70911E0B8CE795E00E9421
:104BA000301E80916A06882311F08F3719F48AE04D
:104BB0000E94F70980916A06882319F08AE00E9412
:104BC000A10861E08BE595E00E94A2200E94991E59
:104BD0006091EB0A7091EC0A8091ED0A9091EE0AD7
:104BE0000E949D2AAB01BC0182E595E00E94301E27
:104BF0006091EF0A7091F00A8091F10A9091F20AA7
:104C00000E949D2AAB01BC0182E895E00E94301E03
:104C10006091F30A7091F40A8091F50A9091F60A76
:104C20000E949D2AAB01BC018FE795E00E94301ED7
:104C30006091F70A7091F80A8091F90A9091FA0A46
:104C40000E949D2AAB01BC018CE795E00E94301EBA
:104C500080916A06882311F08F3719F48AE00E9448
:104C6000F70980916A06882319F08AE00E94A1085A
:104C700061E089E095E00E94A2200E94991E409187
:104C80001F0B5091200B6091210B7091220B80E043
:104C900095E00E94301E4091230B5091240B6091AF
:104CA000250B7091260B8DEF94E00E94301E4091F1
:104CB000270B5091280B6091290B70912A0B8AEFDA
:104CC00094E00E94301E80916A06882311F08F378D
:104CD00019F48AE00E94F70980916A06882319F086
:104CE0008AE00E94A10861E086EA94E00E94A22086
:104CF0000E94991E6091FB0A7091FC0A8091FD0A46
:104D00009091FE0A0E949D2AAB01BC018DE994E0BE
:104D10000E94301E40912B0B50912C0B60912D0B5B
:104D200070912E0B84EC95E00E94301E40912F0B69
:104D30005091300B6091310B7091320B8AEF94E0FF
:104D40000E94301E40914F055091500560915105D1
:104D5000709152058AE994E00E94301E80916A06A3
:104D6000882311F08F3719F48AE00E94F7098091A7
:104D70006A06882319F08AE00E94A10861E08DE8A4
:104D800094E00E94A2200E94991E409158055091E3
:104D9000590560915A0570915B0584E894E00E9482
:104DA000301E40915C0550915D0560915E057091EB
:104DB0005F0582E895E00E94301E409160055091A9
:104DC000610560916205709163058FE795E00E942F
:104DD000301E80916A06882311F08F3719F48AE01B
:104DE0000E94F70980916A06882319F08AE00E94E0
:104DF000A10861E086E794E00E94A2200E94991E2B
:104E00004091540B5091550B6091560B7091570B7C
:104E10008DE694E00E94301E2CEA35EC47E25EE31A
:104E20006091580B7091590B80915A0B90915B0BCC
:104E30000E94802CAB01BC018AE694E00E94301EE7
:104E40002CEA35EC47E25EE360915C0B70915D0B00
:104E500080915E0B90915F0B0E94FE2AAB01BC011A
:104E60008BEB95E00E94301E80916A06811104C090
:104E70008AE00E94F70902C08F37D1F380916A0659
:104E8000882319F08AE00E94A108209158053091EA
:104E9000590540915A0550915B056091330B709113
:104EA000340B8091350B9091360B0E94142C60933B
:104EB000330B7093340B8093350B9093360B20910A
:104EC0005C0530915D0540915E0550915F056091F4
:104ED000370B7091380B8091390B90913A0B0E94EF
:104EE000142C6093370B7093380B8093390B90938D
:104EF0003A0B209160053091610540916205509117
:104F0000630560913B0B70913C0B80913D0B909140
:104F10003E0B0E94142C60933B0B70933C0B8093D0
:104F20003D0B90933E0B0E947A1F249A2C988091FF
:104F3000010180648093010187ED80937A001092D3
:104F40007E0010927D0080917D00806280937D00C4
:104F500080E888BD80916E00846080936E006AEF67
:104F600070E080E090E00E94C720E8E2F4E0659104
:104F700074916530710514F465E070E0709305027A
:104F8000609304026B01770FEE08FF0800910002A6
:104F90001091010260E0C8010E948C194B015C0174
:104FA000C701B6010E949F2A9B01AC01C501B40153
:104FB0000E94982A87FF07C0C8014097909301027A
:104FC00080930002E3CFECE2F3E0659174916150CD
:104FD00071096431B1E07B0714F063E171E0709313
:104FE0000702609306026B01770FEE08FF0800913D
:104FF00002021091030260E0C8010E948C194B016B
:105000005C01C701B6010E949F2A9B01AC01C5014A
:10501000B4010E94282D18163CF4C80140969093C4
:10502000030280930202E3CF6D98759A8091040188
:105030008D7F80930401809105018095827080931B
:10504000030153985B9A1092BC04819A879A8091CD
:105050000A01826080930A010E9A3B9A579A5F9ADE
:10506000829A8A9A809107018160809307018091DA
:10507000080180958170809306010A9A129A3F9ADE
:10508000479A809A88985F9A8091BE048E7F809319
:10509000BE04869A8E988A9A8091BE048D7F8093F2
:1050A000BE0480910A01886080930A0180910B01FF
:1050B00088708093090180910801809581708093A8
:1050C00006018091BE048B7F8093BE040C9A1498D5
:1050D000129A809180008C7F809380008091810063
:1050E000877E886080938100809180008F73809399
:1050F000800080918100887F82608093810080E0C1
:1051000090E490938900809388001092850010921B
:1051100084000E949710789482E08093BD040E94DE
:105120003D1098E288E10FB6F894A895809360004E
:105130000FBE9093600081E08093C0041092C8007D
:105140001092CD0080E18093CC008091C9008061F5
:105150008093C9008091C90088608093C9008091C4
:10516000C90080688093C90000E010E082E0E82E6A
:10517000F12CCC24C394D12C0E94FC0A8091C10450
:105180009091C204891B8F7709F442C00E94B9092B
:1051900020916605309167052115310559F4863453
:1051A00071F5D0926705C09266050E94A1088BE157
:1051B00092E00DC02130310569F4863401F5F0929A
:1051C0006705E09266050E94A1088BE292E00E94CA
:1051D000AC09D4CF2230310591F40E94A1088CE3B0
:1051E00092E00E94AC09809164059091650501965A
:1051F000909365058093640504970CF4BFCF1092DB
:105200006505109264051092670510926605B6CF89
:105210000115110509F4B0CF0E940000ADCF8AE05E
:105220000E94F709C7CBE0E6FBE0108211821282F0
:1052300013821482EBE7FBE0148615861686178628
:1052400010861186128613861482158216821782A2
:10525000108211821282138210926D0B10926C0BCD
:1052600010926B0B10926A0B1092690BEEE6FBE04A
:1052700081E0808381838283838308953F924F926C
:105280005F926F927F928F929F92AF92BF92CF92D6
:10529000DF92EF92FF920F931F93CF93DF935C0106
:1052A0006B017A016115710519F0FB01918380830F
:1052B000E114F10429F0C7010297839708F0E5C0D3
:1052C000E5012196F5011081812F90E00E946C2A62
:1052D000892B11F05E01F4CF1D3229F42196F501DE
:1052E000118101E007C01B3221F4E5012296F5018E
:1052F000118100E0E114F10409F1F0E1EF16F1048D
:1053000029F43FC010E3E114F10421F128E0E21692
:10531000F10401F154F4E2E0EE16F10421F5812CE0
:10532000912CA12CB0E4BB2E3EC0FAE0EF16F104A4
:1053300039F020E1E216F104B1F430C0103319F174
:10534000FAE0EF2EF12CACEC8A2E982CA82CACE0D5
:10535000BA2E29C078E0E72EF12C812C912CA12CBB
:10536000E0E1BE2E20C060E070E080E090E89701B0
:105370000F2C000C440B550B0E94CF2B49015A01F6
:1053800012C0103359F488818F7D883509F0BACF67
:1053900019812296026080E1E82EF12C812C912C5B
:1053A000A12C68E0B62E40E060E070E0CB01270160
:1053B0000F2C000C66087708FE0150ED352E310EDB
:1053C00029E0231570F42FEB210F2A3118F439EC62
:1053D000332E06C02FE9210F2A3118F529EA322E83
:1053E000310E232D30E02E153F05DCF447FD16C0AD
:1053F00086169706A806B90670F0A30192010E94CE
:10540000BF2B630D711D811D911D613071058105DB
:1054100020E8920710F04FEF01C041E02196108183
:10542000CBCF202F2170C114D10471F0442329F077
:105430002197F601D183C08307C001FF19C02297CD
:10544000F601D183C08314C047FF12C0222329F084
:1054500060E070E080E090E804C06FEF7FEF8FEFD6
:105460009FE722E230E03093900B20938F0B09C02E
:10547000222381F090958095709561957F4F8F4F95
:105480009F4F462F372F282F12C040E030E020E0FA
:1054900090E00DC097FFF5CF82E290E09093900BE3
:1054A00080938F0B6FEF7FEF8FEF9FE7EACF642F33
:1054B000732F822FDF91CF911F910F91FF90EF906B
:1054C000DF90CF90BF90AF909F908F907F906F9024
:1054D0005F904F903F90089591110C946B2B803208
:1054E00019F089508550C8F70895FB01DC018D91B2
:1054F000059080190110D9F3990B0895FB0155917E
:105500005523A9F0BF01DC014D9145174111E1F789
:1055100059F4CD010590002049F04D9140154111FD
:10552000C9F3FB014111EFCF81E090E001970895AD
:105530000E94DA2A08F481E00895E89409C097FBF4
:105540003EF490958095709561957F4F8F4F9F4F5A
:105550009923A9F0F92F96E9BB279395F69587959E
:1055600077956795B795F111F8CFFAF4BB0F11F461
:1055700060FF1BC06F5F7F4F8F4F9F4F16C0882308
:1055800011F096E911C0772321F09EE8872F762F3E
:1055900005C0662371F096E8862F70E060E02AF07F
:1055A0009A95660F771F881FDAF7880F969587956B
:1055B00097F90895990F0008550FAA0BE0E8FEEF40
:1055C00016161706E807F907C0F012161306E407C7
:1055D000F50798F0621B730B840B950B39F40A26C0
:1055E00061F0232B242B252B21F408950A2609F49E
:1055F000A140A6958FEF811D811D08950E94112B5A
:105600000C94852B0E94772B38F00E947E2B20F083
:10561000952311F00C946E2B0C94742B11240C9484
:10562000B92B0E94962B70F3959FC1F3950F50E014
:10563000551F629FF001729FBB27F00DB11D639F44
:10564000AA27F00DB11DAA1F649F6627B00DA11DEA
:10565000661F829F2227B00DA11D621F739FB00D90
:10566000A11D621F839FA00D611D221F749F332700
:10567000A00D611D231F849F600D211D822F762F99
:105680006A2F11249F5750409AF0F1F088234AF076
:10569000EE0FFF1FBB1F661F771F881F91505040E2
:1056A000A9F79E3F510580F00C946E2B0C94B92BFA
:1056B0005F3FE4F3983ED4F3869577956795B79569
:1056C000F795E7959F5FC1F7FE2B880F911D969583
:1056D000879597F9089599278827089597F99F67DF
:1056E00080E870E060E008959FEF80EC089500246A
:1056F0000A941616170618060906089500240A9437
:1057000012161306140605060895092E0394000CBC
:1057100011F4882352F0BB0F40F4BF2B11F460FF4B
:1057200004C06F5F7F4F8F4F9F4F089557FD905874
:10573000440F551F59F05F3F71F04795880F97FB55
:10574000991F61F09F3F79F087950895121613060F
:105750001406551FF2CF4695F1DF08C0161617063E
:105760001806991FF1CF8695710561050894089573
:10577000E894BB2766277727CB0197F90895DB01CB
:105780008F939F930E94F12BBF91AF91A29F800DA9
:10579000911DA39F900DB29F900D11240895A1E239
:1057A0001A2EAA1BBB1BFD010DC0AA1FBB1FEE1F9B
:1057B000FF1FA217B307E407F50720F0A21BB30BE6
:1057C000E40BF50B661F771F881F991F1A9469F762
:1057D00060957095809590959B01AC01BD01CF01BE
:1057E00008950E94FC2BA59F900DB49F900DA49F3F
:1057F000800D911D11240895A29FB001B39FC00197
:10580000A39F700D811D1124911DB29F700D811DEC
:105810001124911D0895EE0FFF1F881F8BBF079065
:10582000F691E02D19945058BB27AA270E942B2CE3
:105830000C94852B0E94772B38F00E947E2B20F051
:1058400039F49F3F19F426F40C94742B0EF4E09570
:10585000E7FB0C946E2BE92F0E94962B58F3BA1796
:10586000620773078407950720F079F4A6F50C9476
:10587000B82B0EF4E0950B2EBA2FA02D0B01B90119
:1058800090010C01CA01A0011124FF27591B99F0B6
:10589000593F50F4503E68F11A16F040A22F232FC2
:1058A000342F4427585FF3CF469537952795A79512
:1058B000F0405395C9F77EF41F16BA0B620B730BB9
:1058C000840BBAF09150A1F0FF0FBB1F661F771F2A
:1058D000881FC2F70EC0BA0F621F731F841F48F4DF
:1058E000879577956795B795F7959E3F08F0B0CF68
:1058F0009395880F08F09927EE0F9795879508954F
:105900000E94942C0C94852B0E947E2B58F00E94B0
:10591000772B40F029F45F3F29F00C946E2B511146
:105920000C94B92B0C94742B0E94962B68F399233A
:10593000B1F3552391F3951B550BBB27AA2762178B
:105940007307840738F09F5F5F4F220F331F441F98
:10595000AA1FA9F335D00E2E3AF0E0E832D09150CC
:105960005040E695001CCAF72BD0FE2F29D0660FB9
:10597000771F881FBB1F261737074807AB07B0E8FC
:1059800009F0BB0B802DBF01FF2793585F4F3AF002
:105990009E3F510578F00C946E2B0C94B92B5F3F11
:1059A000E4F3983ED4F3869577956795B795F79588
:1059B0009F5FC9F7880F911D9695879597F9089570
:1059C000E1E0660F771F881FBB1F6217730784070C
:1059D000BA0720F0621B730B840BBA0BEE1F88F71B
:1059E000E09508950E94F92C6894B1110C94B92B9C
:1059F00008950E949E2B88F09F5798F0B92F992701
:105A0000B751B0F0E1F0660F771F881F991F1AF0A9
:105A1000BA95C9F714C0B13091F00E94B82BB1E02B
:105A200008950C94B82B672F782F8827B85F39F02A
:105A3000B93FCCF3869577956795B395D9F73EF442
:105A400090958095709561957F4F8F4F9F4F0895EA
:105A50000E94DA2A08F48FEF08950E949E2B58F1D5
:105A60009E5760F19851A0F0E9F0983020F5092E8A
:105A70009927660F771F881F991F0A94D1F712C0C4
:105A8000062E672F782F8827985F11F4000C07C027
:105A9000993FB4F38695779567959395D9F7611DEE
:105AA000711D811D3EF490958095709561957F4F95
:105AB0008F4F9F4F089568940C94B92B0C94B82B7A
:105AC00019F416F40C94742B0C94A62D0E949E2BA2
:105AD000B8F39923C9F3B6F39F57550B87FF0E947C
