:100000000C94200C0C94510C0C94510C0C94510C2D
:100010000C94510C0C94510C0C94510C0C94510CEC
:100020000C94510C0C94510C0C94510C0C94510CDC
:100030000C94510C0C94510C0C94510C0C94510CCC
:100040000C94510C0C94D4290C94510C0C94510C1C
:100050000C94510C0C94510C0C9421520C94054CA2
:100060000C94510C0C94AA290C948C290C94510CCE
:100070000C94510C0C94510C0C94510C0C94510C8C
:100080000C94510C0C94510C0C94510C0C94510C7C
:100090000C9436230C94A0290C94510C0C94510C04
:1000A0000C94510C0C94510C0C94510C0C94510C5C
:1000B0000C94510C0C94510C0C94510C0C94510C4C
:1000C0000C94510C0C94510C0C94510C0C94F42184
:1000D0000C9496290C94510C0C94510C0C94510CCA
:1000E0000C94510C1A261F2624262E263826B126BB
:1000F00042264A2652265C26662670267F268926B8
:10010000B12693269D26A7268F5F925F815F855F2C
:10011000895FC95F965F9A5FA05FA45FA85FAE5FCB
:10012000B25FB65FC95FBC5FC05FC45F084AD73BC0
:100130003BCE016E84BCBFFDC12F3D6C74319ABDB6
:1001400056833DDA3D00C77F11BED9E4BB4C3E91DA
:100150006BAAAABE000000803F05A84CCDB2D44EC9
:10016000B93836A9020C50B9918688083CA6AAAACB
:100170002ABE000000803F000C941A260C94C05F39
:100180000C94B1260C948F5F0C9452260C949A5FB9
:100190000C9438260C94C45F0C9412650C94A05FE8
:1001A0000C94895F0C94925F0C9489260C947F26A2
:1001B0000C94BC5F0C94A7260C9493260C944A26AE
:1001C0000C94AE5F0C941F260C94C95F0C94815F55
:1001D0000C94B65F0C949D260C94A45F0C942E2670
:1001E0000C94B25F0C9470260C94A85F0C94855FFD
:1001F0000C945C260C9424260C9466260C944226BF
:100200000C94965F4E414E494E495459494E46CD45
:10021000CCCC3D0AD7233C17B7D13877CC2B3295BD
:1002200095E6241FB14F0A000020410000C842009B
:10023000401C4620BCBE4CCA1B0E5AAEC59D744322
:100240004F4D4D554E49434154494F4E004452592C
:1002500052554E004552524F525300494E464F00A0
:100260004543484F006F6B00454550524F4D206449
:10027000697361626C65640A00486F6D652025735F
:100280002573257320466972737400546F6F20665E
:1002900061722066726F6D207265666572656E634D
:1002A0006520706F696E740A006469730043290ADF
:1002B0000061626C656420286D696E2074656D70E4
:1002C0002000436F6C6420657874727564657320D8
:1002D000617265200020643A0020693A0020703A7B
:1002E00000496E76616C6964206578747275646526
:1002F000720A0020466C6F773A200046523A00207E
:100300005A0020590020204D61783A200020204DCD
:10031000696E3A2000536F667420656E6473746F63
:1003200070733A20003F4A206F7574206F66207208
:10033000616E67652028302E303120746F20302E9A
:1003400033290A00205400205200416363656C6524
:10035000726174696F6E3A2050002F2F200043485D
:10036000414D4245525F54454D50455241545552BE
:100370004500424142595354455050494E4700416F
:10038000524353004D4F54494F4E5F4D4F444553D8
:1003900000544845524D414C5F50524F54454354D0
:1003A000494F4E004C4F4E475F46494C454E414DDC
:1003B00045004155544F5245504F52545F53445F8E
:1003C00053544154555300534443415244005052F6
:1003D0004F4D50545F535550504F525400454D456A
:1003E0005247454E43595F50415253455200434195
:1003F00053455F4C494748545F4252494748544E21
:1004000045535300544F47474C455F4C4947485468
:100410005300534F4654574152455F504F57455232
:10042000004255494C445F50455243454E54004CA0
:100430004556454C494E475F44415441005A5F5030
:10044000524F42450052554E4F5554004155544F5E
:100450004C4556454C005052494E545F4A4F42005D
:1004600050524F4752455353004155544F524550F7
:100470004F52545F54454D5000564F4C554D4554C6
:1004800052494300454550524F4D0042494E41525A
:10049000595F46494C455F5452414E5346455200C0
:1004A00053455249414C5F584F4E5F584F464600A6
:1004B0004649524D574152455F4E414D453A4D6177
:1004C000726C696E20322E302E372E3220284E6FFD
:1004D0007620323320323032302031383A32323ADC
:1004E00035302920534F555243455F434F44455FB4
:1004F00055524C3A68747470733A2F2F6769746858
:1005000075622E636F6D2F4D61726C696E466972F4
:100510006D776172652F4D61726C696E2050524F1C
:10052000544F434F4C5F56455253494F4E3A312E2C
:1005300030204D414348494E455F545950453A3368
:1005400044205072696E7465722045585452554467
:1005500045525F434F554E543A3120555549443A20
:1005600063656465326132662D343161322D343712
:1005700034382D396231322D633535633632663386
:10058000363766660A004D3131332053004D313124
:10059000322053687574646F776E006F666600442E
:1005A000454255473A0020573A0025697920256988
:1005B00064202569682025696D20256973005072C3
:1005C000696E742074696D653A200047322F473395
:1005D0002062616420706172616D65746572730A76
:1005E00000FFFFFF0000000000000000000000000E
:1005F00060025B0254024D023F02000048420000CC
:1006000048420000804000002100240027002A000A
:100610002D003000330001010000040107010A0130
:100620002121204B494C4C20636175736564206225
:100630007920746F6F206D75636820696E616374D3
:100640006976652074696D65202D20637572726509
:100650006E7420636F6D6D616E643A20004D3431AD
:1006600030004D313132004D313038005072696EFA
:100670007465722073746F70706564206475652092
:10068000746F206572726F72732E204669782074C1
:100690006865206572726F7220616E642075736583
:1006A000204D39393920746F20726573746172740A
:1006B0002E202854656D70657261747572652069AD
:1006C000732072657365742E2053657420697420DD
:1006D00061667465722072657374617274696E67A5
:1006E000290A004E6F20436865636B73756D207730
:1006F000697468206C696E65206E756D6265722C18
:10070000204C617374204C696E653A200063686503
:10071000636B73756D206D69736D617463682C20F4
:100720004C617374204C696E653A20004C696E65AB
:10073000204E756D626572206973206E6F74204C57
:10074000617374204C696E65204E756D6265722B05
:10075000312C204C617374204C696E653A20004D39
:1007600031313000627573793A2070617573656458
:1007700020666F7220696E7075740A0062757379F5
:100780003A2070617573656420666F7220757365B9
:10079000720A00627573793A2070726F63657373C1
:1007A000696E670A005072696E7465722068616CC8
:1007B0007465642E206B696C6C28292063616C6CF5
:1007C0006564210A0020490020204D33303120503B
:1007D000005049442073657474696E67733A002051
:1007E000204D323036205800486F6D65206F6666A8
:1007F0007365743A00204A0020204D323035204283
:1008000000416476616E6365643A20423C6D696EB6
:100810005F7365676D656E745F74696D655F757331
:100820003E20533C6D696E5F6665656472617465F8
:100830003E20543C6D696E5F74726176656C5F66D4
:10084000656564726174653E204A3C6A756E635FDB
:100850006465763E0020204D3230342050004163E4
:1008600063656C65726174696F6E2028756E69745A
:10087000732F7332293A20503C7072696E745F6135
:100880006363656C3E20523C726574726163745F91
:10089000616363656C3E20543C74726176656C5F85
:1008A000616363656C3E0020204D3230312058007A
:1008B0004D6178696D756D20416363656C6572612A
:1008C00074696F6E2028756E6974732F7332293ABC
:1008D0000020450020204D3230332058004D6178F3
:1008E000696D756D20666565647261746573202835
:1008F000756E6974732F73293A0053746570732091
:1009000070657220756E69743A0020440020204D95
:100910003230302053002044697361626C65640A90
:100920000046696C616D656E742073657474696EE0
:1009300067733A0020286D6D29002020473231204E
:100940002020203B20556E69747320696E206D6DE8
:100950000024F4D43050C38E20C2A24017828B7082
:1009600011127A910D816CD90AA861E108C7586605
:1009700007615143061E4B5D05C145A7041A41118D
:1009800004093D9803713931034036DB0265339128
:1009900002D4305402802E1D02632CEE01752AC54C
:1009A00001B028A001102781018F2564012B244B61
:1009B00001E0223401AC211F018D200D01801FFCBC
:1009C00000841EED00971DDF00B81CD200E61BC698
:1009D00000201BBC00641AB200B219A8000A19A0BA
:1009E000006A189900D117910040178B00B5168442
:1009F0000031167E00B31579003A157300C7146FE5
:100A00000058146A00EE1366008813630025135E15
:100A100000C7125B006C12570015125400C111512F
:100A20000070114F0021114B00D61049008D104766
:100A3000004610440002104200C00F4000800F3EEC
:100A400000420F3C00060F3B00CB0E3800930E37E0
:100A5000005C0E3500270E3400F30D3200C10D315D
:100A600000900D3000600D2E00320D2D00050D2C74
:100A700000D90C2B00AE0C2900850C29005C0C273A
:100A800000350C27000E0C2600E80B2400C40B24B4
:100A900000A00B23007D0B23005A0B2100390B21F2
:100AA00000180B2000F80A1F00D90A1E00BB0A1EFE
:100AB000009D0A1D00800A1D00630A1C00470A1BD6
:100AC000002C0A1B00110A1A00F7091A00DD091987
:100AD00000C4091900AB091900920917007B091815
:100AE00000630917004C0916003609160020091684
:100AF000000A091500F5081500E0081400CC0814D8
:100B000000B8081400A4081400900813007D08120F
:100B1000006B081300580812004608120034081130
:100B200000230811001208110001081100F007103D
:100B300000E0071000D0071000C0071000B0070F3A
:100B400000A107100091070E0083070F0074070F24
:100B50000065070E0057070E0049070E003B070D02
:100B6000002E070E0020070D0013070D0006070DCD
:100B700000F9060C00ED060D00E0060C00D4060C92
:100B800000C8060C00BC060C00B0060C00A4060B46
:100B90000099060C008D060B0082060B0077060BF1
:100BA000006C060B0061060A0057060B004C060A93
:100BB0000042060A0038060A002E060A0024060A29
:100BC000001A060A001006090007060A00FD0509BA
:100BD00000F4050900EB050900E2050900D9050943
:100BE00000D0050900C7050900BE050900B50508C4
:100BF00000AD050800A50509009C0508009405083E
:100C0000008C050800840508007C050800740508B0
:100C1000006C050700650508005D0507005605081E
:100C2000004E050700470507004005080038050786
:100C300000310507002A050700230507001C0506EB
:100C400000160507000F0507000805060002050746
:100C500000FB040600F5040700EE040600E80406A5
:100C600000E2040700DB040600D5040600CF0406FA
:100C700000C9040600C3040600BD040600B704064C
:100C800000B1040500AC040600A6040600A004059B
:100C9000009B04060095040500900406008A0405E4
:100CA0000085040500800406007A0405007504052B
:100CB00000700405006B040500660405006104056E
:100CC000005C04050057040500520405004D0405AE
:100CD0000048040500430405003E0404003A0405EE
:100CE0000035040500300404002C0405002704042A
:100CF00000230405001E0404001A04040016040561
:100D000000110404000D0404000904050004040497
:100D10000000040400FC030400F8030400F40304CE
:100D200000F0030400EC030400E8030400E40304FF
:100D300000E0030400DC030400D8030400D403042F
:100D400000D0030400CC030400C8030300C5030360
:100D50000024F404D9201BC40C5C0E9804C4095F61
:100D60000265077101F405F900FB04B3004804872C
:100D700000C10369005803550003034500BE023A51
:100D8000008402310053022A0029022500040220B7
:100D900000E4011C00C8011900AF011700980114FC
:100DA0000084011300710110006101100051010E57
:100DB0000043010D0036010B002B010B0020010B3D
:100DC00000150109000C01090003010800FB0008DF
:100DD00000F3000800EB000700E4000600DE000658
:100DE00000D8000600D2000600CC000500C70005B0
:100DF00000C2000500BD000400B9000400B50004F5
:100E000000B1000400AD000400A9000400A5000327
:100E100000A20003009F0004009B00030098000351
:100E2000009500020093000300900003008D000273
:100E3000008B00030088000200860002008400038B
:100E400000810002007F0002007D0002007B0002A2
:100E500000790002007700010076000200740002B1
:100E60000072000100710002006F0002006D0001BD
:100E7000006C0002006A00010069000200670001C6
:100E800000660001006500010064000200620001CC
:100E90000061000100600001005F0002005D0001D0
:100EA000005C0001005B0001005A000100590001D4
:100EB00000580001005700010056000100550001D4
:100EC00000540001005300000053000100520001D3
:100ED0000051000100500001004F0001004E0000D1
:100EE000004E0001004D0001004C0001004B0000CD
:100EF000004B0001004A00010049000100480000C9
:100F000000480001004700010046000000460001C3
:100F100000450000004500010044000100430000BE
:100F200000430001004200000042000100410000B7
:100F30000041000100400001003F0000003F0001AF
:100F4000003E0000003E0001003D0000003D0001A9
:100F5000003C0000003C0000003C0001003B0000A1
:100F6000003B0001003A0000003A00010039000097
:100F7000003900010038000000380000003800018E
:100F80000037000000370001003600000036000086
:100F9000003600010035000000350000003500017A
:100FA0000034000000340000003400010033000071
:100FB0000033000000330001003200000032000066
:100FC000003200010031000000310000003100015A
:100FD000003000000030000000300001002F000051
:100FE000002F0000002F0000002F0001002E000045
:100FF000002E0000002E0001002D0000002D00003A
:10100000002D0000002D0001002C0000002C00002D
:10101000002C0000002C0001002B0000002B000021
:10102000002B0000002B0001002A0000002A000015
:10103000002A0000002A0001002900000029000009
:1010400000290000002900000029000100280000FC
:1010500000280000002800000028000000280001EF
:1010600000270000002700000027000000270000E4
:1010700000270001002600000026000000260000D6
:1010800000260000002600010025000000250000C9
:1010900000250000002500000025000000250001BB
:1010A00000240000002400000024000000240000B0
:1010B00000240001002300000023000000230000A2
:1010C0000023000000230000002300000023000193
:1010D0000022000000220000002200000022000088
:1010E0000022000000220001002100000021000079
:1010F000002100000021000000210000002100006C
:10110000002100010020000000200000002000005D
:10111000002000000020000000200000002000004F
:1011200000200001001F0000001F0000001F000041
:10113000001F0000001F0000001F0000001F000132
:10114000001E0000001E0000001E0000001E000027
:1011500000043700001E290000511B000058100039
:101160000010090000CC04000078020000410100DA
:101170000020746F6F206C6F6E67206578747275D5
:1011800073696F6E2070726576656E7465640A00AF
:1011900020636F6C6420657874727573696F6E205C
:1011A00070726576656E7465640A00DB0FC93F4531
:1011B000BCDA3F8FB30240FCF0274056946140FEFA
:1011C0004B9B4084A5D840E0231841346A5641E83F
:1011D00059974164DBD5416E271742B4B75542CECB
:1011E0001A9742C8AED542B5885A43D40684BFA6E2
:1011F0005FA7BF7443E0BF10B11AC01C2C58C0E8F1
:10120000F697C0B849D6C04E4E17C124D355C180F9
:101210002497C1A0B5D5C1121A17C244AE55C278E1
:101220001797C26CACD5C267885AC3526573656E96
:10123000643A200023646566696E65204445464132
:10124000554C545F004B6420004B6920004B7020CC
:1012500000504944204175746F74756E652066694D
:101260006E69736865642120507574207468652008
:101270006C617374204B702C204B6920616E64206C
:101280004B6420636F6E7374616E74732066726F4B
:101290006D2062656C6F7720696E746F20436F6E8E
:1012A00066696775726174696F6E2E680A005049CD
:1012B00044204175746F74756E65206661696C6554
:1012C00064212074696D656F75740A000A20436C8F
:1012D000617373696320504944200A00204B643ACB
:1012E0002000204B693A2000204B703A2000205407
:1012F000753A2000204B753A2000206D61783A2025
:1013000000206D696E3A200020643A200020626956
:1013100061733A2000504944204175746F74756EB2
:10132000652073746172740A0050494420417574D9
:101330006F74756E65206661696C65642120546503
:101340006D706572617475726520746F6F20686965
:1013500067680A00504944204175746F74756E6562
:10136000206661696C65642120426164206578743F
:101370007275646572206E756D6265720A006F70B9
:10138000656E00545249474745524544007A5F6DA7
:10139000696E00795F6D696E00785F6D696E0052ED
:1013A00065706F7274696E6720656E6473746F70B8
:1013B000207374617475730A00486F6D696E6720DD
:1013C0004661696C65640070012C0190012701B0D1
:1013D000012201C0011D01F00118011002130130AA
:1013E000020E016002090190020401C002FF000028
:1013F00003FA004003F5008003F000D003EB002067
:1014000004E6007004E100E004DC004005D700C001
:1014100005D2004006CD00D006C8008007C30030CA
:1014200008BE00F008B900C009B400B00AAF00B0AF
:101430000BAA00D00CA500000EA000500F9B00C00E
:101440001096005012910000148C00C0158700B057
:10145000178200B0197D00D01B7800001E73004079
:10146000206E0090226900F024640040275F009005
:10147000295A00E02B5500102E500020304B001050
:10148000324600E033410090353C001037370070A1
:10149000383200A0392D00B03A2800A03B2300606C
:1014A0003C1E00103D1900903D1400103E0F0070CE
:1014B0003E0A00C03E0500003F0000403FFBFF80A9
:1014C0003FF6FFC03FF1FF2020506C616E6E6572E9
:1014D00042756666657242797465733A20002046EB
:1014E000726565204D656D6F72793A2000436F6DAE
:1014F00070696C65643A204E6F762032332032304A
:1015000032300A00204C6173742055706461746538
:10151000643A20323032302D31302D3135207C206C
:10152000417574686F723A203344435020546561AA
:101530006D0A00322E302E372E320A004D61726C49
:10154000696E0020536F667477617265205265730F
:1015500065740A00205761746368646F6720526580
:101560007365740A002042726F776E206F75742065
:1015700052657365740A002045787465726E616CFB
:101580002052657365740A00506F77657255700A52
:1015900000656E6473746F7073206869743A20001C
:1015A0006563686F3A004572726F723A00204D3978
:1015B0003220580020496E76616C69642065787429
:1015C000727564657220004361703A0020436F7544
:1015D0006E7420583A00453100626564002C207317
:1015E000797374656D2073746F7070656421204821
:1015F00065617465725F49443A2000544845524D14
:10160000414C2052554E4157415900546865726D06
:10161000616C2052756E617761790048656174690B
:101620006E67204661696C65640048656174696E27
:1016300067206661696C656400202D20496E7661C3
:101640006C6964206578747275646572206E756D5E
:1016500062657220210A004572723A204D41585449
:10166000454D50004D415854454D502074726967A6
:101670006765726564004572723A204D494E544563
:101680004D50004D494E54454D5020747269676766
:101690006572656400202F0020403A005761726E29
:1016A000696E673A20486F6D696E672042756D708C
:1016B0002044697669736F72203C20310A004861CA
:1016C0007264636F6465642044656661756C742040
:1016D00053657474696E6773204C6F616465640A46
:1016E000003B20000202040000A0400000A04000D7
:1016F0000000400000484300004843000048430009
:10170000009643000096430000A0400000C841003E
:1017100000A0420000A04200007A450000FA43B851
:101720000B0000B80B00006400000010270000222E
:101730000A00556E6B6E6F776E20636F6D6D616E14
:10174000643A20220020453A00205A3A0020593AB3
:101750000000002200250028002B002E003100345C
:101760000002010000050108010B01050505050740
:101770000508080808020202020A0A08080404040C
:101780000401010101010101010303030303030338
:1017900003040707070C0C0C0C0C0C0C0C020202C7
:1017A0000206060606060606060B0B0B0B0B0B0BBA
:1017B0000B01021020200808102040102040800259
:1017C0000102010804020101020408102040808087
:1017D000402010080402018004020180402010080B
:1017E00004020108040201010204081020408001E3
:1017F0000204081020408000000A0B02090C0D0EA4
:1018000008070304010000000000000000000000C1
:1018100000000000000000000000000000000000C8
:101820000000001211100000000000000000000085
:101830000000000000000000000000000000126531
:1018400011241FBECFEFD1E2DEBFCDBF00E00CBF41
:1018500012E0A0E0B2E0EEEFF1EE00E00BBF02C05C
:1018600007900D92A238B107D9F72DE0A2E8B2E0B7
:1018700001C01D92A934B207E1F71CE0C0E2DCE030
:1018800000E006C021970109802FFE010E94B86D7B
:10189000CF31D10780E00807A9F70E94B2600C940D
:1018A000FD700C9400002F923F924F925F926F92C6
:1018B0007F928F929F92AF92BF92CF92DF92EF92E0
:1018C000FF920F931F93CF93DF93CDB7DEB7C05531
:1018D000D1090FB6F894DEBF0FBECDBF2091E9024B
:1018E0002F962FAF2F9721E02093E9028091E802F5
:1018F0008D3409F46BC2843511F40C94F7198734D4
:1019000011F00C94371A2090E6023090E70234E090
:101910002316310409F499C164F437FE02C00C9413
:10192000371A8091E40252E0251631040CF001C10F
:1019300031C08AE52816310409F4D6C16CF4A5E15A
:101940002A16310411F40C94391ABCE12B16310417
:1019500009F4BAC10C94371AEBE52E16310409F4D8
:10196000C7C1FCE52F16310411F00C94371A69E455
:10197000262E62E0362E7FEBE72E72E0F72EA1EFE7
:10198000BCE0BB8FAA8FE1E0CE2EEDE0DE2E00E0C2
:1019900010E0ECC1813011F00C94391A0E94A04E75
:1019A00084ED92E00E945E448091D20883FD85C060
:1019B0002091FD0C3091FE0C4091FF0C5091000DD8
:1019C0006091E0027091E1028091E2029091E30265
:1019D0000E945869882309F470C0809148048111DD
:1019E0001BC060914D0470914E0480914F04909102
:1019F00050040E943F6F20913002309131022150FB
:101A000031096217730744F40E94A95080E991E1FB
:101A10000E948B4F11E001C010E02091FD0C30912D
:101A2000FE0C4091FF0C5091000D6091E00270910E
:101A3000E1028091E2029091E3020E94D26D6B017B
:101A40007C0120E030E0A9010E94337087FF04C0D0
:101A5000F7FAF094F7F8F09420912C0230912D02CF
:101A600040912E0250912F02C701B6010E94BE691B
:101A700020E030E048E453E40E94337018163CF450
:101A80000E94A95081E791E10E948B4F02C011236F
:101A9000A1F08091E0029091E102A091E202B09168
:101AA000E3028093FD0C9093FE0CA093FF0CB09387
:101AB000000D80EE92E00E941C5B2AE037ED43E2CD
:101AC0005CE360912402709125028091260290913E
:101AD00027020E94BE696B017C0160912202709115
:101AE0002302072E000C880B990B0E945F699B0153
:101AF000AC01C701B6010E94BE6969837A838B83FA
:101B00009C838E010F5F1F4F20EE32E04CED52E0C0
:101B100068ED72E084ED92E00E94586080E1E4EDAF
:101B2000F2E0A1EFBCE001900D928A95E1F70C94F0
:101B3000391A813011F00C94391A0E94A04E82E5B6
:101B40000E94934E882309F44EC00E940E4E6B01F2
:101B50007C0120E030E0A9010E945869882311F43B
:101B60000C94001B2091F10C3091F20C4091F30C7D
:101B70005091F40C2A8F3B8F4C8F5D8F8091F50C28
:101B80009091F60CA091F70CB091F80C8E8F9F8F6E
:101B9000A8A3B9A38090D4029090D502A090D602B9
:101BA000B090D7024090D8025090D9026090DA02EB
:101BB0007090DB02A50194016A8D7B8D8C8D9D8DCB
:101BC0000E94586981110C94411AA30192016E8DF3
:101BD0007F8D88A199A10E945869882311F40C94E3
:101BE000001B0C94411A89E40E94934E882329F02B
:101BF0000E940E4E6B017C0103C0C12CD12C7601DA
:101C00008AE40E94934E882311F40C94071B0E94CF
:101C10000E4E6AA37BA38CA39DA320E030E0A90114
:101C2000C701B6010E94586981110C94141B20E071
:101C300030E0A9016AA17BA18CA19DA10E945869F5
:101C400081110C94141B0C94001B80E50E94934E90
:101C5000882379F08091CE029091CF02009749F0CD
:101C60004AE050E060E070E00E94CF676B017C01C9
:101C700003C0C12CD12C760183E50E94934E8823AA
:101C800061F00E940E4E20E030E04AE754E40E94EA
:101C9000BE690E94466F6B017C010E9441580E9400
:101CA000F94BC60ED71EE81EF91E0E94F94BDC0147
:101CB000CB018C199D09AE09BF09B7FD02C00C9478
:101CC000391A0E946723F1CF8091CD028770873047
:101CD00011F00C945D1960E08FE40E94524F811165
:101CE0000C94391A0C945D191092E5020C94391A6F
:101CF0008FE0FDC50E940E4E2B013C01133049F0D0
:101D0000D6012D913D914D915C910E94D26D2B0198
:101D10003C01EA8DFB8D2081318142815381C301D9
:101D2000B2010E94D26D4B015C012DEB37E346E816
:101D300055EB0E94337087FD21C02DEB37E346E859
:101D400055E3C501B4010E9458691816BCF01F5F25
:101D5000F4E0EF0EF11C2A8D3B8D2C5F3F4F3B8F43
:101D60002A8F34E0C30ED11C143031F1F10181917E
:101D70001F010E94934E882351F3BCCF133051F4BE
:101D80004092FD0C5092FE0C6092FF0C7092000D80
:101D900001E0DDCFA5019401D7016D917D918D9179
:101DA0009C910E94D36DF70160837183828393833A
:101DB000812F0E947643CBCF002311F40C94D819C5
:101DC0008DEF9CE00E941C5B0C94D8198091E60278
:101DD0009091E7028537910511F40C94391A0CF0B3
:101DE000FDC08C35910509F4DEC5D4F58D3491051F
:101DF00009F453C2C4F48F31910509F492C14CF433
:101E00008131910509F479C1429709F473C50C94A5
:101E1000371A8B34910509F427C28C34910509F4E3
:101E200027C20C94371A8335910509F45CC574F404
:101E30008135910509F448C58235910511F00C945E
:101E4000371A8091E5028F7D806151C584359105F7
:101E500009F450C58535910509F482C50C94371AEB
:101E60008D36910509F442C2E4F48A36910509F4ED
:101E70002CC454F48836910509F413C289369105AF
:101E800009F401C40C94371A8B36910509F43EC449
:101E90008C36910511F00C94371A109207020C94AD
:101EA000391A8037910509F4A9C454F48E36910586
:101EB00009F434C48F36910509F44DC40C94371AD3
:101EC0008237910509F4F9C50CF4A2C48337910552
:101ED00011F00C94371A80EB94E00E948B4F60E075
:101EE00080EA94E00E94DA4F60E08BE894E00E9480
:101EF000DA4F60E084E894E00E94DA4F61E089E71D
:101F000094E00E94DA4F61E089E694E00E94DA4FA3
:101F100060E080E694E00E94DA4F61E086E594E0BC
:101F20000E94DA4F60E08CE494E00E94DA4F60E0B7
:101F300085E494E00E94DA4F60E08DE394E00E9433
:101F4000DA4F60E08FE294E00E94DA4F60E081E2D5
:101F500094E00E94DA4F60E082E194E00E94DA4F60
:101F600060E084E094E00E94DA4F60E08EEE93E05F
:101F70000E94DA4F60E08DED93E00E94DA4F60E05E
:101F80008EEC93E00E94DA4F60E087EC93E00E94D1
:101F9000DA4F60E082EB93E00E94DA4F60E084EA7F
:101FA00093E00E94DA4F61E081E993E00E94DA4F0A
:101FB00060E084E893E00E94DA4F61E08FE793E00D
:101FC0000E94DA4F60E082E793E00E94DA4F60E01F
:101FD0008EE593E00E94DA4F0C94391A8C3D9105FE
:101FE00009F48BC7E4F5883C910509F4D4C5E4F401
:101FF0008837910509F4C3C56CF48637910509F457
:1020000063C58737910511F00C94371A0E94D845A3
:102010000C94391A8937910509F4B6C58B399105A5
:1020200009F42CC40C94371A8C3C910509F43FC672
:1020300054F4893C910509F4F5C58B3C910509F4EC
:1020400017C60C94371A8E3C910509F474C60CF42B
:102050005FC6833D910509F48BC60C94371A8A3903
:1020600041E0940709F4D1C304F58E32A1E09A0748
:1020700011F40C94AF1854F48D3D910509F46EC71A
:102080008D32914009F4E7C70C94371A8F32F1E092
:102090009F0711F40C94F1188039914011F00C94C1
:1020A000371A0E9441580C94391A853F31E0930742
:1020B00011F40C94DB198CF48C3A51E0950711F46F
:1020C0000C94F418843F914011F00C94371A0E943C
:1020D000A55088E692E00C94041B873FB1E09B0773
:1020E00011F40C94E21914F40C94DF19873E934018
:1020F00011F40C94EB190C94371A8091BB0284FFF5
:1021000002C00C94651F8091BD0287FF02C00C9431
:10211000651F8091BE02837011F00C94651F0C94B2
:10212000801F0E94FF457B018C0120E831E541E0E2
:1021300050E00E94496DC9016DE671E00E94856D15
:102140004B015C01C801B70120E13EE040E050E0F6
:102150000E94496DCA01B90128E130E040E050E039
:102160000E94496D762E672EC62ED72E5CE3252E53
:10217000312C412C512CC801B701A20191010E94C0
:10218000496DF62EE72ECA01B901A20191010E9404
:10219000496DCB018E010F5F1F4F8114910499F09F
:1021A000EF92FF927F936F936F927F92BF92AF9265
:1021B0009F928F928AEA95E09F938F931F930F933C
:1021C0000E94296913C0A114B104B1F0EF92FF92EB
:1021D0007F936F936F927F92BF92AF928EEA95E05A
:1021E0009F938F931F930F930E9429690FB6F894C2
:1021F000DEBF0FBECDBF30C0CD2879F0EF92FF9289
:102200007F936F936F927F9282EB95E09F938F9372
:102210001F930F930E942969E9CF892B69F0EF92F0
:10222000FF927F936F9386EB95E09F938F931F931D
:102230000F930E942969DACFEF92FF928AEB95E023
:102240009F938F931F930F930E9429690F900F9074
:102250000F900F900F900F900E94A950B8018EEB35
:1022600095E00E9480506BC70E944E460C94391A2C
:102270008091B902813011F00C94391A82E0809378
:10228000B9020E94F94B6093B5027093B602809335
:10229000B7029093B8020C94391A0E9472460C94BB
:1022A000391A8091D20883FF02C00C94391A0E9417
:1022B000AD5087FF02C00C94391A83E50E94934EFB
:1022C000882381F00E940E4E0E943F6FCB010E9436
:1022D0005D5180915104909152048635910514F41A
:1022E0000C94891F0E94BB570C94391A8091D20814
:1022F00083FF02C00C94391A0E94AD508AAF87FF49
:1023000002C00C94391A83E50E94934E8EAF81115E
:102310000C948D1F82E50E94934E81110C948D1FA9
:1023200010E00E94BB57112311F40C94391AB0919C
:10233000B4026196BFAF61971092B40281E08093BE
:1023400007021AA21BA21CA21DA21AAA1BAA1CAA3F
:102350001DAA23961FAE2397ECE32796EFAF27978E
:10236000FCE12B96FFAF2B9726E460962FAF60978A
:10237000C12CD12C30E8E32E4FEBF42E1E8E31E031
:102380003EAB812C912C5401609151047091520408
:10239000072E000C880B990B0E945F69162F072FE0
:1023A000382E292E9601A7010E945869882321F111
:1023B00020914D0430914E0440914F0450915004AF
:1023C0008EAD612F702F811109C0832D922D0E9437
:1023D0005869881F8827881F8E8F14C0832D922DDF
:1023E0000E94586987FF0DC080910702882309F475
:1023F00044C11092070241C11C2D0D2D3E2C2F2CE3
:1024000001C01E8E0E94F94B6B017C01DC01CB01E7
:102410002AA93BA94CA95DA9821B930BA40BB50B60
:10242000B7FD69C0D701C60188519C4FAF4FBF4F60
:102430008AAB9BABACABBDAB8AAD0E949E5186EA2A
:1024400095E00E948B4F9091BA029A8F811491046B
:10245000A104B10489F124013501A0E14A0EA7E2EB
:102460005A1E611C711C992399F09F3789F0C30192
:10247000B2016C197D098E099F0928EE33E040E016
:1024800050E00E94496DCA01B9010E94922223C006
:10249000C301B2016C197D098E099F0928EE33E052
:1024A00040E050E00E94496DCA01B9010E94E8284D
:1024B000BA8DBB2381F0DBCFEA8DEE2331F0EF370D
:1024C00021F08FE30E941E2206C08FE30E9460234A
:1024D000FA8DF111F6CF7090BA02772039F02FE71C
:1024E000721621F08AE00E941E2205C08AE00E9436
:1024F00060237110F7CF0E9467230E94F94B60930D
:10250000D0027093D1028093D2029093D302309183
:102510004D043A8F40914E044EA350914F045AA758
:10252000809150048EA7232F342F452F582F612FD1
:10253000702F832D922D0E94D26D2B013C0120E043
:1025400030E0A9010E94337087FF04C077FA7094CD
:1025500077F8709481149104A104B104E1F420E0AF
:1025600030E040E85FE3C301B2010E94586987FF91
:102570001EC09EA9992329F085E09DE0A0E0B0E06F
:1025800003C080E090E0DC0146015701880E991EEF
:10259000AA1EBB1E0CC020E030E040E450E4C301A2
:1025A000B2010E943370181614F446015701AE8D23
:1025B000AA2309F445C02AA13BA14CA15DA1211584
:1025C00031054105510541F0D701C601821B930B2E
:1025D000A40BB50BB7FD34C02A8D3EA14AA55EA55C
:1025E00023966FAD239727967FAD27972B968FADB8
:1025F0002B9760969FAD60970E94D26D20E030E0EF
:1026000040EC5FE30E94586987FDEECED701C6011A
:10261000805A9541AF4FBF4F8AA39BA3ACA3BDA3E4
:102620009A8D23969FAF2397AEA12796AFAF27979A
:10263000BAA52B96BFAF2B97EEA56096EFAF60972C
:1026400080910702882309F4CFCE81149104A1045C
:10265000B10431F41EAAC12ED02EE32CF22C94CE5C
:10266000F0E1CF1AF7E2DF0AE108F108C818D9084B
:10267000EA08FB08F7FCEECFB7CE61962FAD619765
:102680002093B402F6C60E94AD50182F87FD16C0E5
:1026900085E692E00E948B4F812F0E949E511091FF
:1026A000BA02112331F01F3721F08AE00E941E2266
:1026B00005C08AE00E9460231111F7CF2F963FAD2D
:1026C0002F973093E9020C94102180E50E9451600D
:1026D0008111CFC681E40E94454E882321F060918C
:1026E0003704062F02C00FEF10E083E50E94934EDF
:1026F000882349F00E94DA4D8B016F3F710519F074
:1027000010F00FEF10E000933704B3C680E50E948D
:1027100051608111AEC610923704ABC68EE40E94A0
:10272000934E882309F4A5C6E091B302F0E0EE0FC2
:10273000FF1FE555FD4F008111810E94DA4D000F0A
:10274000111F000F111FF801ED55FD4F60837183BC
:10275000828393838EC683E50E94454E882329F0A9
:1027600083E50E9451608093D2080E94A9508FE9AE
:1027700095E00E948B4F8091D2088823D1F1B0EF71
:10278000EB2EB5E0FB2E00E010E020E08091D208B7
:1027900090E0A0E0B0E0002E04C0B695A795979514
:1027A00087950A94D2F780FF1BC0CC24C394C20E35
:1027B000222381F0D090BA02DD2039F04FE7D41601
:1027C00021F08CE20E941E2205C08CE20E94602350
:1027D000D110F7CFF701859194910E948B4F2C2D4A
:1027E0000F5F1F4F52E0E50EF11C0530110571F629
:1027F000A6C48BE995E00E948B4FA1C441E060E044
:1028000070E08DE895E00E9445210E946E2131C65E
:1028100083E50E94934E882359F00E94EA4D282FA9
:1028200030E02D3331050CF08CE38093060221C695
:102830000E94A950C0900602D12CE12CF12C86E810
:1028400095E00E948B4F1091BA02112371F01F374F
:1028500061F04AE0C701B6010E9425221F3709F442
:1028600072C48AE00E941E2204C64AE0C701B60173
:102870000E947B28112309F466C4EBCF83E50E94F4
:10288000934E882309F4F5C50E94EA4D182F90E075
:10289000CD970CF01CE31093A2020E94F94B6B0140
:1028A0007C01212F30E0A8EEB3E00E94766DC60EC9
:1028B000D71EE81EF91EC0929E02D0929F02E0929F
:1028C000A002F092A102D5C50E9459520E94724600
:1028D0000E9451581092370468EE73E080E090E057
:1028E0000E94674FC6C58091E5028F7E806280930B
:1028F000E502BFC583E50E94934E8823E9F00E945C
:10290000F94B6093D0027093D1028093D2029093DE
:10291000D3020E940E4E20E030E04AE754E40E94C9
:10292000BE690E94466F6093020270930302809317
:102930000402909305029DC58091BB0284FF02C0F2
:102940000C94A31F8091BD0287FF02C00C94A31FAB
:102950008091BE02837011F00C94A31F0C94D41FBD
:1029600083E50E94454E882309F483C50E94F94BF4
:102970006093D0027093D1028093D2029093D302DD
:102980000E940E4E20E030E04AE754E40E94BE6907
:102990000E94466F6093990270939A0280939B0203
:1029A00090939C0266C50E94AD5087FD62C59091D0
:1029B000BB0294FD04C09091BD0297FF0AC0F9E4E8
:1029C000CF2EF2E0DF2EA3EDEA2EA8E0FA2E10E0E3
:1029D00009C09091BE02937091F7682F81E00E9428
:1029E000075147C5D6018D916D010E94934E8823F2
:1029F00009F459C0133009F04FC00E940E4E4B012C
:102A00005C0120E030E040EA51E40E94586987FF11
:102A10003AC0A50194016091F3087091F408809187
:102A2000F5089091F6080E94CD6E2B013C019B01A8
:102A3000AC0160910309709104098091050990919E
:102A400006090E94BE69609303097093040980938C
:102A500005099093060960912F04709130048091CC
:102A60003104909132040E945D69A30192010E9499
:102A7000BE690E94466F60932F0470933004809368
:102A80003104909332048092F3089092F408A0925B
:102A9000F508B092F60807C00E940E4EF701648B4D
:102AA000758B868B978B1F5FF4E0EF0EF11C143053
:102AB00009F098CF0E94515CDCC40E94DE5F8FE277
:102AC0009DE00E943C57D5C4009197021091980256
:102AD00024E08FEFF12C30E0215039F1D8019C91A6
:102AE000492F4B7F413429F411964C914133E9F43D
:102AF00009C09035D1F4F801918190539A30A8F42F
:102B0000892F08C0913421F0953421F431E002C0BE
:102B1000FF24F394A8014E5F5F4F8A014F5F5F4F20
:102B2000D8019C919032C9F3D7CFE090BA0283309C
:102B300050F4882329F091E0813019F490E001C02D
:102B40009FE79093BA0231110E94A950FF2021F013
:102B50008AE593E00E948B4FF090BA02FF2039F093
:102B6000BFE7FB1621F0C8010E94292305C0C80158
:102B70000E947F29F110F7CFE092BA027AC4209325
:102B8000CC022093CB0204C01092CC021092CB0254
:102B90000E94F4456EC40E94AD50182F87FD69C491
:102BA0000091960284E40E94934E882311F40C94C1
:102BB000D71F0E940E4E6B017C0120E030E0A9017E
:102BC0000E945869882341F124E01202F001112487
:102BD000EE56FD4FC082D182E282F38220E030E0E7
:102BE000A901609192027091930280919402909158
:102BF00095020E94586981110CC080E090E0A0EE1F
:102C0000BFE38093920290939302A0939402B093B7
:102C1000950201E00C94D71F80E0809396020E94F9
:102C2000625827C40E94AD5087FD23C479E4E72E83
:102C300072E0F72E03ED18E0E3EECE2EE8E0DE2E94
:102C4000D7018D917D010E94454E882359F00E9445
:102C50000E4E0E94466FF8016083718382839383D6
:102C60000E94FA570C5F1F4FC016D10649F701C4E6
:102C70000E94AD5087FDFDC369E4E62E62E0F62EAA
:102C800003ED18E0D7018D917D010E94454E882308
:102C900039F00E940E4EF80164A375A386A397A392
:102CA0000C5F1F4FF8E0033E1F0761F7E2C38091FE
:102CB000BC0287FF02C00C94DD1F8091BD028E70A4
:102CC00011F00C94DD1F40910709509108096091A3
:102CD000090970910A098AE493E00E941750409113
:102CE0000B0950910C0960910D0970910E0987E450
:102CF00093E00E94175040910F0950911009609184
:102D000011097091120984E493E00E94175017C2D0
:102D10008091BB0281FF02C00C9423208091BC02F1
:102D200081FF02C00C9423208091BD028C7011F0B1
:102D30000C9423209EC356E8E52E52E0F52E10E0B9
:102D400088E5810F0E94454E882359F00E940E4E5F
:102D5000D7016D937D938D939C931397812F0E9440
:102D600076431F5FB4E0EB0EF11C133049F720C32C
:102D70004090010D5090020D6090030D7090040D75
:102D800020910A0230910B0240910C0250910D02E9
:102D9000C301B2010E94D36D6A8F7B8F8C8F9D8F90
:102DA0008090050D9090060DA090070DB090080D35
:102DB00020910E0230910F024091100250911102A9
:102DC000C501B4010E94D36D6E8F7F8F88A399A334
:102DD000C090090DD0900A0DE0900B0DF0900C0DF5
:102DE0002091120230911302409114025091150269
:102DF000C701B6010E94D36D6AA37BA38CA39DA3D8
:102E00002091160230911702409118025091190238
:102E1000C301B2010E94D36D2B013C0120911A0223
:102E200030911B0240911C0250911D02C501B4015A
:102E30000E94D36D4B015C0120911E0230911F0254
:102E40004091200250912102C701B6010E94D36D2A
:102E50006B017C010E94A95085E193E00E948B4F99
:102E600083E50E94454E882321F00E94FE4D809309
:102E7000080280910802882319F08AE492E002C0D7
:102E80008CEA94E00E948B4F8DE093E00E948B4F80
:102E90004A8D5B8D6C8D7D8D8DEA98E00E94175078
:102EA0004E8D5F8D68A179A182E093E00E9417505A
:102EB0004AA15BA16CA17DA18FEF92E00E94175007
:102EC0008CE593E00E948B4F85E093E00E948B4F4E
:102ED000B301A2018DEA98E00E941750B501A40148
:102EE00082E093E00E941750B701A6018FEF92E0B5
:102EF0000E9417500E941031BCC283E50E94934E7D
:102F0000882331F00E94DA4D7093230260932202ED
:102F10008091BB029091BC02A091BD02B091BE0213
:102F2000892B8A2B8B2B09F0A4C26091220270910D
:102F300023028BEF92E00E945F501091BA0211239E
:102F400031F01F3721F085E20E941E2287CC85E2F6
:102F50000E946023112309F4F6C0F5CF0E94AD5002
:102F6000E82E87FD86C283E50E94934E0E2D0E2C1F
:102F7000000C110B882369F10E94DA4DF801EE0F65
:102F8000FF1FE050FE4F71836083000F111F000F81
:102F9000111FF801E45DFD4F7F01072E000C880B27
:102FA000990B0E945F692AE037ED43E25CE30E94DF
:102FB000BE69F801EE57FD4F208131814281538176
:102FC0000E94BE69D7016D937D938D939C93139757
:102FD00050C20E94A950F090BA02B0E3EB0EFF205D
:102FE00051F0EFE7FE1639F085E40E941E22FFE75C
:102FF000FF120BC005C085E40E946023F110F4CFDE
:103000008E2D0E946023FF2019F08E2D0E941E221B
:10301000000F111FF801E050FE4F6081718183EFB6
:1030200092E00E945F50FF2051F02FE7F21639F036
:1030300085E20E941E223FE7F31213CC05C085E211
:103040000E946023F110F4CF8AE00E946023FF20E9
:1030500009F40FC206CC85E40E94516081117AC048
:1030600080E50E94454E882351F00E940E4E6093E9
:10307000540470935504809356049093570489E444
:103080000E94454E882381F00E940E4E2CEA35ECBA
:1030900047E25EE30E94BE6960935804709359044E
:1030A00080935A0490935B0484E40E94454E8823E5
:1030B00081F00E940E4E2CEA35EC47E25EE30E945E
:1030C000CD6E60935C0470935D0480935E04909376
:1030D0005F040E94A950409154045091550460919E
:1030E0005604709157048DED92E00E9417502CEA1F
:1030F00035EC47E25EE36091580470915904809189
:103100005A0490915B040E94CD6EAB01BC0189ED25
:1031100092E00E9417502CEA35EC47E25EE36091A2
:103120005C0470915D0480915E0490915F040E9444
:10313000BE69AB01BC0185ED92E00E941750109171
:10314000BA0211118BCB8AE00E946023112309F48B
:1031500090C187CB0E94A55081EE92E055C283E5D5
:103160000E94454E182F882371F00E940E4E0E9437
:103170003F6F709331026093300221E0672B09F0BA
:1031800020E02093480480E50E94454E882359F0B2
:103190002091300230913102232B11F00E94FE4D1C
:1031A0008093480466C1111164C10E94A95082EC49
:1031B00092E00E948B4F80914804882319F080E8A8
:1031C00093E102C089EA92E00E948B4F6091300245
:1031D0007091310281EB92E00E945F508DEA92E0A3
:1031E00013C20E94874645C19091CD0290FD02C056
:1031F00087E001C086E091FD8D7FAE014F5F5F4F9C
:103200001A0192FF85C78B7F09F0BCC704EE15E059
:10321000A1EFBCE0BB8FAA8F91EEC92E95E0D92E0D
:103220007A01F8016591759185919491EA8DFB8DF4
:1032300081909190A190B190FB8FEA8FA5019401AC
:103240000E94D26D2B013C01D7016D937D938D932C
:103250009C93139720E030E040EA51EC0E943370D9
:1032600087FD0AC020E030E040EA51E4C301B2012A
:103270000E94586918162CF4F601849118160CF463
:1032800084C7D7018D909D90AD90BD907D0120E0C9
:1032900030E040EA51ECC501B4010E94337087FD73
:1032A0007FC720E030E040EA51E4C501B4010E944C
:1032B000586918160CF079C773C70E9441581092CC
:1032C00009020E94F94B6093D0027093D10280935F
:1032D000D2029093D3028091240290912502A09172
:1032E0002602B09127028093EC029093ED02A09306
:1032F000EE02B093EF02809122029091230290930C
:10330000EB028093EA0284E690E09093230280939C
:10331000220281E08093CC020E94F4458AE50E945B
:10332000454E382E88E50E94454E882E89E50E943C
:10333000454E8812C8C5381409F416C5D82C82E544
:103340000E94934E882309F416C50E940E4E2B014D
:103350003C0120E030E0A9010E945869882309F46B
:10336000A6C581100FC5D1100DC5332019F082E01C
:103370000E94935E0E940F458091CB028093CC0205
:103380008091EC029091ED02A091EE02B091EF02DB
:103390008093240290932502A0932602B0932702E3
:1033A0008091EA029091EB02909323028093220293
:1033B0000E9451455EC00E94C75C80E009C00E9427
:1033C000C75C57C061E083E50E94524F91E08927B6
:1033D0000E9421314EC081E08093E40260E083E5E9
:1033E0000E94524F811145C00E94EF4A42C0E090B6
:1033F000E602F090E7020E94F94B6093D0027093CE
:10340000D1028093D2029093D302EE2091F10E94D8
:10341000A9501091BA02FF24112341F01F3731F057
:1034200084E50E941E221F3779F405C084E50E94BE
:1034300060231111F5CFB7010F2C000C880B990BED
:103440000E94E828112341F0B701FF0C880B990B6B
:103450000E9492221F3729F480E20E9460231123E8
:1034600019F080E20E941E2281EE92E0CDC00E94FF
:1034700043600E94AB4F2F96FFAD2F97F093E90268
:10348000CFC611E022E02216310409F010E020E05E
:1034900030E0A901C701B6010E945869881F88273A
:1034A000881F1813A4C020E030E040E85FE32AA39F
:1034B0003BA34CA35DA32A8D3B8D4C8D5D8DC50137
:1034C000B4010E94D26D20E030E040E05FE30E9452
:1034D000BE696A8F7B8F8C8F9D8F2E8D3F8D48A10B
:1034E00059A1C301B2010E94D26D20E030E040E05A
:1034F0005FE30E94BE696E8F7F8F88A399A32A8D98
:103500003B8D4C8D5D8DCA01B9010E94BE694B0196
:103510005C012E8D3F8D48A159A1CA01B9010E94BD
:10352000BE699B01AC01C501B4010E94D36D0E942C
:1035300081704B015C019B01AC01C701B6010E9487
:10354000D26D2B013C01A5019401C701B6010E9477
:10355000D36D9B01AC01C301B2010E94BE696B0136
:103560007C0120E030E0A9010E94337087FD07C094
:10357000C701B6010E9481702B013C0103C0412CA0
:10358000512C32016E8D7F8D88A199A19058A50193
:1035900094010E94CD6E2AA13BA14CA15DA10E9485
:1035A000BE69A30192010E94BE692A8D3B8D4C8D9C
:1035B0005D8D0E94D36D6B017C01A50194016A8D24
:1035C0007B8D8C8D9D8D0E94CD6E2AA13BA14CA13F
:1035D0005DA10E94BE69A30192010E94BE692E8D69
:1035E0003F8D48A159A10E94D36D0C94090E80E033
:1035F00090E0A0E8BFEB8AA39BA3ACA3BDA35BCFE5
:103600000E94A5508BEC95E00E948B4F32CF20E0BA
:1036100030E0A901C701B6010E945869882381F3EF
:103620001AA21BA21CA21DA2A701960150582A8F04
:103630003B8F4C8F5D8F8AA19BA1ACA1BDA1B058DF
:103640008E8F9F8FA8A3B9A3CA01B9010E94BE693A
:103650004B015C012E8D3F8D48A159A1CA01B901D2
:103660000E94BE699B01AC01C501B4010E94D36DEB
:103670000E9481706EAB7FAB88AF99AF2091F10C47
:103680003091F20C4091F30C5091F40C2EA33FA317
:1036900048A759A7A70196016EA17FA188A599A562
:1036A0000E94D36D6AAF7BAF8CAF9DAF8091F50C5C
:1036B0009091F60CA091F70CB091F80C8AA79BA7FB
:1036C000ACA7BDA72AA13BA14CA15DA1BC01CD0126
:1036D0000E94D36D22966CAF7DAF8EAF9FAF2297C5
:1036E0002091D4023091D5024091D6025091D70258
:1036F0002EA73FA748AB59AB2AAD3BAD4CAD5DAD56
:103700006EA57FA588A999A90E94D26D6B017C0145
:103710008091D8029091D902A091DA02B091DB0297
:103720008AAB9BABACABBDAB22962CAD3DAD4EADE9
:103730005FAD2297BC01CD010E94D26D4B015C01AF
:10374000A70196016A8D7B8D8C8D9D8D0E94BE692F
:103750002B013C01A50194016E8D7F8D88A199A15B
:103760000E94BE699B01AC01C301B2010E94D36DEE
:103770002B013C01A50194016A8D7B8D8C8D9D8D63
:103780000E94BE694B015C01A70196016E8D7F8D81
:1037900088A199A10E94BE699B01AC01C501B40139
:1037A0000E94D26DA30192010E94526E6B017C01B6
:1037B00020E030E0A9010E94586987FF0AC02BED84
:1037C0003FE049EC50E4C701B6010E94D36D6B01A4
:1037D0007C012BED3FE049EC50E4C701B6010E94AB
:1037E000CD6E20E030E040EC51E40E94BE690E94C2
:1037F000B16E0E94466F8B01672B11F401E010E05F
:1038000032E02316310451F42BED3FE049EC50E453
:10381000C701B6010E94D26D6B017C0120E030E04F
:10382000A901C701B6010E945869811122C02EA5C5
:103830003FA548A959A96EA17FA188A599A50E9475
:103840005869811116C02AA93BA94CA95DA96AA58E
:103850007BA58CA59DA50E94586981110AC008E12D
:1038600010E0ABEDCA2EAFE0DA2EA9ECEA2EA0E410
:10387000FA2E8091F90C9091FA0CA091FB0CB0916A
:10388000FC0C8AA79BA7ACA7BDA79C01AD016091CA
:10389000DC027091DD028091DE029091DF020E94D5
:1038A000D26D2B013C01A70196016EA97FA988ADBD
:1038B00099AD0E94BE694B015C0120E030E0A90196
:1038C000C301B2010E9458698823C9F0A50194017F
:1038D000C501B4010E94BE694B015C01A3019201C4
:1038E000C301B2010E94BE699B01AC01C501B401D4
:1038F0000E94D36D0E9481704B015C010DC020E0DD
:1039000030E0A901C501B4010E94337087FF04C0F3
:10391000B7FAB094B7F8B0942FE632E143E85AE32F
:10392000C501B4010E94586987FD13C22091E002CD
:103930003091E1024091E2025091E3022AAB3BABAD
:103940004CAB5DAB8091FD0C9091FE0CA091FF0CF7
:10395000B091000D8EA79FA7A8ABB9AB2AE037EDB9
:1039600043E25CE36091240270912502809126027B
:10397000909127020E94BE696EA37FA388A799A792
:103980006091220270912302072E000C880B990B84
:103990000E945F699B01AC016EA17FA188A599A5DA
:1039A0000E94BE696E8B7F8B888F998FC501B40191
:1039B0000E94756F0E94466F1B016017710708F423
:1039C0001801B10180E090E00E945D694B015C014B
:1039D0009B01AC01C701B6010E94CD6E6EA37FA30F
:1039E00088A799A7A5019401C301B2010E94CD6ED9
:1039F0002A966CAF7DAF8EAF9FAF2A972EA53FA5BD
:103A000048A959A96AA97BA98CA99DA90E94D26D30
:103A1000A50194010E94CD6E2E966CAF7DAF8EAF46
:103A20009FAF2E972EA13FA148A559A5CA01B90164
:103A30000E94BE696B017C019B01AC016EA17FA15C
:103A400088A599A50E94BE6920E030E040EC50E4D2
:103A50000E94CD6E9B01AC016EA17FA188A599A5A6
:103A60000E94D26D6AAB7BAB8CAB9DAB20E030E0AB
:103A700040E05FE3C701B6010E94BE699B01AC0153
:103A800060E070E080E89FE30E94D26D6EAB7FAB98
:103A900088AF99AF2AA53BA54CA55DA529873A8794
:103AA0004B875C878EA59FA5A8A9B9A98D879E87FE
:103AB000AF87B88B0E94F94B9B01AC0128533F4F55
:103AC0004F4F5F4F26962CAF3DAF4EAF5FAF26975F
:103AD0004A8C5B8C6C8C7D8C41E050E05BA74AA7E4
:103AE00059E15EA78AA59BA58215930508F00BC135
:103AF0000E9465540E94F94BDC01CB0126962CAD47
:103B00003DAD4EAD5FAD2697821B930BA40BB50B5D
:103B1000B7FD10C00E94F94B9B01AC0128533F4FE9
:103B20004F4F5F4F26962CAF3DAF4EAF5FAF2697FE
:103B30000E9467233EA531503EA73323E9F12E8D25
:103B40003F8D48A159A16EA97FA988AD99AD0E946A
:103B5000BE696B017C019201A3016AA97BA98CA9B2
:103B60009DA90E94BE69A70196010E94D36D7B01A9
:103B70008C019201A3016EA97FA988AD99AD0E9425
:103B8000BE694B015C012E8D3F8D48A159A16AA9E8
:103B90007BA98CA99DA90E94BE699B01AC01C501AE
:103BA000B4010E94D26D2B013C01C701D8018E8F58
:103BB0009F8FA8A3B9A34FC04AA55BA5BA0180E017
:103BC00090E00E945D692EA13FA148A559A50E94E1
:103BD000BE694B015C010E94C86E6B017C01C5018E
:103BE000B4010E9473704B015C01A70196016A8DBC
:103BF0007B8D8C8D9D8D0E94BE692B013C012AA17D
:103C00003BA14CA15DA1C501B4010E94BE69A30105
:103C100092010E94D36D2B013C01A50194016A8D94
:103C20007B8D8C8D9D8D0E94BE694B015C012AA10C
:103C30003BA14CA15DA1C701B6010E94BE699B01D9
:103C4000AC01C501B4010E94D26D6E8F7F8F88A335
:103C500099A359E15EA79201A3016AAD7BAD8CAD3A
:103C60009DAD0E94D36D69837A838B839C832E8D57
:103C70003F8D48A159A122966CAD7DAD8EAD9FAD13
:103C800022970E94D36D6D837E838F8398872A96B7
:103C90002CAD3DAD4EAD5FAD2A9769857A858B859C
:103CA0009C850E94D36D69877A878B879C872E9627
:103CB0002CAD3DAD4EAD5FAD2E976D857E858F856C
:103CC00098890E94D36D6D877E878F87988BCE01F0
:103CD00001960E945E448E010A5E1F4F9E01235F83
:103CE0003F4FAE01475F5F4FBE016B5F7F4FCE011D
:103CF00001960E945860882331F08AA59BA5019601
:103D00009BA78AA7EFCE80E1E4EDF2E0DE011196F9
:103D100001900D928A95E1F7CE0101960E945E44D2
:103D20008E010A5E1F4F9E01235F3F4FAE01475F2A
:103D30005F4FBE016B5F7F4FCE0101960E945860BE
:103D400080E1FE013196A1EFBCE001900D928A95D1
:103D5000E1F70E94F94B6093D0027093D1028093F7
:103D6000D2029093D30285CBDD24D394882483940C
:103D700033243394E4CA412C512CF0EA6F2EF0E442
:103D80007F2EEFCA20E030E0A901C301B2010E94FA
:103D9000D36D7B018C019090F90CC090FA0CB0901F
:103DA000FB0CA090FC0C292D3C2D4B2D5A2D0E9474
:103DB00058694090F10C5090F20C6090F30C7090A8
:103DC000F40C2091F50C3091F60C4091F70C5091C9
:103DD000F80C2A8F3B8F4C8F5D8F20E030E048E459
:103DE00053E487FD04C2B701C8010E94586987FDEA
:103DF00004C0E12CF12C08E413E480E090E0A0E89A
:103E0000B0E48E8B9F8BA88FB98F89839A83AB8305
:103E1000BC839701A801692D7C2D8B2D9A2D0E94C2
:103E2000586987FF0EC0C701D8018093F90C9093A1
:103E3000FA0CA093FB0CB093FC0CCE0146960E94AA
:103E4000FF444092F10C5092F20C6092F30C70928D
:103E5000F40C8A8D9B8DAC8DBD8D8093F50C909369
:103E6000F60CA093F70CB093F80CCE0101960E94CB
:103E7000FF449701A8016091F90C7091FA0C8091B0
:103E8000FB0C9091FC0C0E943370181674F4C7015F
:103E9000D8018093F90C9093FA0CA093FB0CB0938B
:103EA000FC0CCE0146960E94FF440E944158882097
:103EB00019F080E00E94935EDD2009F456CA81E08B
:103EC0000E94935E52CAD82E3ACA88E50E94454E97
:103ED00081115F9889E50E94454E81118A988AE593
:103EE0000E94454E882329F08091080181708093BB
:103EF000060185E40E94454E882309F4BACA07C02A
:103F00005F988A98809108018170809306011298C9
:103F1000B0CA0E9472460C9472110E940E4E0E940A
:103F20003F6FCB010E945D518091510490915204EA
:103F3000863591051CF00E944E4602C00E947246D2
:103F400011E00C9491110E94415888E50E94454E61
:103F5000882331F05F9A80919D028E7F80939D022D
:103F600089E50E94454E882331F08A9A80919D020E
:103F70008D7F80939D028AE50E94454E882359F0EB
:103F800080910801809581708093060180919D0247
:103F90008B7F80939D0285E40E94454E882309F41F
:103FA00068CA0E942A2165CA0E94515862CA602FBD
:103FB00083E50E94524F0C940D1683E50E94934EA8
:103FC000882391F00E940E4E6093070970930809B0
:103FD0008093090990930A0960930F09709310095F
:103FE000809311099093120980E50E94934E8823D3
:103FF00051F00E940E4E6093070970930809809358
:10400000090990930A0982E50E94934E882351F092
:104010000E940E4E60930B0970930C0980930D095A
:1040200090930E0984E50E94934E882309F421CAD7
:104030000E940E4E60930F0970931009809311092E
:104040009093120916CA82E40E94454E8823C1F05B
:104050008091CE029091CF02009739F04AE050E073
:1040600060E070E00E94CF6703C060E070E0CB01C9
:104070006093E3087093E4088093E5089093E60862
:1040800083E50E94454E882351F00E940E4E6093B6
:10409000130970931409809315099093160984E508
:1040A0000E94454E882351F00E940E4E60931709DE
:1040B000709318098093190990931A098AE40E9451
:1040C000454E882309F4D5C90E940E4E6B017C0130
:1040D0002AE037ED43E25CE30E94337087FD13C0B2
:1040E0002AE939E949E95EE3C701B6010E94586946
:1040F00018164CF0C0921F04D0922004E0922104C4
:10410000F0922204B6C90E94A55085E293E07CCAD1
:104110002DE432E081FF03C04FE452E002C042E5EB
:1041200052E080FF03C081E592E002C082E592E0A8
:104130003F932F935F934F939F938F9389E792E0E1
:104140009F938F933F922F920E9429690E94A950BA
:104150001091BA020FB6F894DEBF0FBECDBF112387
:1041600031F01F3721F0C1010E94292305C0C10190
:104170000E947F291111F7CF0FB6F894DEBF0FBE52
:10418000CDBF77C922E532E0C5CFB7FAB094B7F812
:10419000B094D7018D929D92AD92BC92139771C845
:1041A0000E94A5508BE892E02FCA0C5F1F4FBFEF13
:1041B000CB1ADB0AE5E0003F1E0709F032C886E8AB
:1041C000E82E82E0F82E10E0F10181919191A19109
:1041D000B1911F01F70181939193A193B1937F0155
:1041E000812F0E9476431F5F133071F7E1C8692D5C
:1041F0007C2D8B2D9A2D0E94586987FFFACD80E087
:1042000090E0A0E8B0E48E8B9F8BA88FB98F898354
:104210009A83AB83BC83E92CFC2C0B2D1A2D11CE79
:10422000C05BDF4F0FB6F894DEBF0FBECDBFDF918E
:10423000CF911F910F91FF90EF90DF90CF90BF90A3
:10424000AF909F908F907F906F905F904F903F9036
:104250002F900895129A08955F9A80919D028E7F03
:1042600080939D028A9A80919D028D7F80939D020A
:1042700080910801809581708093060180919D0254
:104280008B7F80939D020C942A21C42F0E94595247
:104290000E94A55085EA97E00E948B4F89EE93E03B
:1042A00030E6019729F0232F2A950000E9F7F9CF8E
:1042B000F89489EE93E038EE019729F0232F2A95A0
:1042C0000000E9F7F9CF0E945952CC2319F00E945F
:1042D0002C2102C00E942A21A895FECF4F925F9206
:1042E0006F927F928F929F92AF92BF92CF92DF9206
:1042F000EF92FF920E94D15A90911A0D9093190D4E
:104300009093180D9093170D94E69093160D20ED51
:1043100033E03093D1082093D00881110E94DE5AF7
:1043200081E08093B10C0E94415881E00E943F5E81
:104330004B015C0180E00E943F5E2B013C016093D9
:10434000F9027093FA028093FB029093FC02809230
:10435000FD029092FE02A092FF02B092000382E062
:104360000E943F5E6B017C01609301037093020326
:10437000809303039093040383E00E943F5E409286
:10438000F10C5092F20C6092F30C7092F40C80924B
:10439000F50C9092F60CA092F70CB092F80CC0922B
:1043A000F90CD092FA0CE092FB0CF092FC0C6093AA
:1043B000FD0C7093FE0C8093FF0C9093000DFF900A
:1043C000EF90DF90CF90BF90AF909F908F907F90B5
:1043D0006F905F904F900C940F459091D00095FF97
:1043E000FCCF8093D60008951F920F920FB60F92C4
:1043F00011240BB60F922F938F939F93EF93FF93FC
:104400009091D6002091420AE091410A81E08E0FFE
:104410008F77281729F0F0E0EF5BF54F9283E82FB4
:10442000E093410AFF91EF919F918F912F910F900F
:104430000BBE0F900FBE0F901F9018959091C80063
:1044400095FFFCCF8093CE0008958F929F92AF92FC
:10445000BF92EF92FF920F931F93CF93DF93CDB74D
:10446000DEB7A0970FB6F894DEBF0FBECDBF6115C3
:1044700071058105910591F100E0842E912CA12C0C
:10448000B12C102FEE24E394F12CEC0EFD1EE00E67
:10449000F11C07FDFA94A50194010E94496DF701F2
:1044A0006083B901CA010F5F61157105810591052E
:1044B00041F71F3F31F1E1E0F0E0EC0FFD1FE10FAC
:1044C000F11D17FDFA9580818A3010F097E301C045
:1044D00090E3890F0E941E221150EBCF80E3A0963B
:1044E0000FB6F894DEBF0FBECDBFDF91CF911F9105
:1044F0000F91FF90EF90BF90AF909F908F900C9492
:104500001E22A0960FB6F894DEBF0FBECDBFDF917E
:10451000CF911F910F91FF90EF90BF90AF909F9020
:104520008F900895CF92DF92EF92FF926B017C0102
:1045300097FF0BC08DE20E941E22F094E094D0946D
:10454000C094C11CD11CE11CF11C4AE0C701B6019A
:10455000FF90EF90DF90CF900C9425228F929F9246
:10456000AF92BF92CF92DF92EF92FF92CF936B0107
:104570007C01B42E20E030E0A9010E94586987FF39
:1045800007C08DE20E941E22F7FAF094F7F8F0942B
:10459000C0E060E070E080E09FE3CB1541F02DECDF
:1045A0003CEC4CEC5DE30E94BE69CF5FF6CF9B0113
:1045B000AC01C701B6010E94D36D6B017C010E9462
:1045C000466F4B015C014AE00E942522CC2389F111
:1045D000C501B4010E945D699B01AC01C701B60130
:1045E0000E94D26D6B017C018EE20E941E2220E0AF
:1045F00030E040E251E4C701B6010E94BE694B01C0
:104600005C010E943F6F6B01770FEE08FF08C70146
:10461000B6010E949222C701B6010E945F699B0108
:10462000AC01C501B4010E94D26D6B017C01C15087
:10463000F1F6CF91FF90EF90DF90CF90BF90AF90C9
:104640009F908F9008958DE00E941E228AE00C9426
:104650001E22CF93DF93EC018991882319F00E94E9
:104660001E22FACFDF91CF910C9423231F920F9239
:104670000FB60F9211240BB60F922F938F939F9327
:10468000EF93FF939091CE002091AF09E091AE0996
:1046900081E08E0F8F77281729F0F0E0E255F64F72
:1046A0009283E82FE093AE09FF91EF919F918F9154
:1046B0002F910F900BBE0F900FBE0F901F9018956B
:1046C0009091C00095FFFCCF8093C60008952F9273
:1046D0003F924F925F926F927F928F929F92AF9292
:1046E000BF92CF92DF92EF92FF920F931F93CF93DF
:1046F000DF93CDB7DEB728970FB6F894DEBF0FBEB5
:10470000CDBF8091430C843008F095C18091430C5B
:10471000843008F090C180912C0990912D09891B5B
:104720008F7741F48091AE099091AF09891B8F7703
:1047300009F481C17AE0C72E73E0D72EE0E3EE2EB4
:10474000EAE0FE2EFCE0AF2EF3E0BF2EA3EA8A2EB5
:10475000A2E09A2E00E010E0802F0E94C64AAC0131
:1047600097FD56C1282FF6018A3019F08D3009F0D7
:104770000BC11082F7018081918120E6209FF0011A
:10478000219FF00D1124E45FFC4FE80FF91F108208
:10479000892B31F0F70111821082BF82AE8203C0F3
:1047A0000E94655435C1EE81FF818191803219F4F8
:1047B000FF83EE83F8CF8E3409F06AC02E813F81EB
:1047C0002115310509F464C06FE577E0C9010E9445
:1047D0000F691C01892B49F06EE470E08E819F8186
:1047E00004960E94E070009711F48E819F814AE048
:1047F00050E060E070E001960E94A1662B013C0150
:10480000F40180819181A281B3810196A11DB11D26
:10481000481659066A067B0631F0232821F4602FDA
:104820008CE297E029C06AE270E08E819F810E944D
:10483000F270009721F1282FFE812F1B312C2223AB
:1048400041F02150EE81FF81E20FF11D30813326CE
:10485000F6CF4AE050E060E070E001960E94A16669
:10486000232D30E040E050E062177307840795077E
:1048700051F0602F8DE097E00E94504BDCC0602F1C
:1048800083EE96E0F9CFF401408251826282738216
:104890008091E4028130F1F067E470E08E819F81C5
:1048A0000E94E0700097B1F04AE050E060E070E0F4
:1048B00001960E94A166643071058105910550F44E
:1048C0007090BA020093BA028CE696E00E948B4F79
:1048D0007092BA0267E676E08E819F810E94EE6850
:1048E000892B11F41092070262E676E08E819F8197
:1048F0000E94EE68892B31F441E060E070E08DE8C1
:1049000095E0DCC06DE576E08E819F810E94EE68C7
:10491000892B11F40E946E21F50180818B3309F4FB
:1049200077C06090430CF3E0F61508F471C0709006
:104930000903272D30E03F832E8340E6429FC001CC
:10494000439F900D1124B5018D53954F0E94EB703C
:10495000EE81FF81E15CF24F51E050838E819F81B7
:10496000880F991F85559D4FFC011183008381E0BD
:10497000870D843018F48093090302C01092090354
:1049800063946092430C44C09081913009F440C01C
:10499000943018F0945090830AC04C3531F49C5FE9
:1049A000F60190839430D1F433C04B3371F1283049
:1049B000A9F4F70180819181009751F101979183CA
:1049C0008083F0E6F09F9001F19F300D1124245F69
:1049D0003C4FF901E80FF91F10821AC0F7018081DE
:1049E00091819C012F5F3F4F31832083F0E6F09F40
:1049F000B001F19F700D1124645F7C4FFB01E80F43
:104A0000F91F40832F3531051CF021E0F60120838A
:104A10000F5F1F4F3FEFC31AD30A42E0E40EF11CB1
:104A200050E6A50EB11C84E0880E911C02301105E1
:104A300009F46CCE91CE0E94F94B6B017C01409140
:104A4000990250919A0260919B0270919C024115CB
:104A5000510561057105A1F18091D0029091D102BB
:104A6000A091D202B091D302840F951FA61FB71F49
:104A700097018601081B190B2A0B3B0B37FD20C041
:104A80000E94A5506091EF0C7091F00C80E296E0CE
:104A90000E9480508091BA02882309F4D9C28F37CE
:104AA00009F4D6C28091BA02882319F08AE00E94E4
:104AB0001E2240E060E070E080E090E00E9445212E
:104AC0008091020290910302A0910402B09105022C
:104AD000892B8A2B8B2B09F44DC09091190D809155
:104AE0001A0D981749F0C092D002D092D102E092EC
:104AF000D202F092D3023EC00E94F94B8090D002C5
:104B00009090D102A090D202B090D3020091020204
:104B1000109103022091040230910502080D191D25
:104B20002A1D3B1DDC01CB01801B910BA20BB30B9B
:104B3000B7FD92C28091D00381111CC081E08093A7
:104B4000D0035F9A80919D028E7F80939D028A9A06
:104B500080919D028D7F80939D02809108018095B8
:104B600081708093060180919D028B7F80939D02CE
:104B70000E942A218091CC039091CD03A091CE0375
:104B8000B091CF03A7019601281B390B4A0B5B0B91
:104B900057FDF9C19091190D80911A0D981751F098
:104BA000E0911A0D37E4E39FF0011124EA55FB4F21
:104BB000208102C020913704222311F030E002C08E
:104BC00020E030E0EAEBF7E14491E4E7F7E184919B
:104BD000882399F090E0880F991FFC01EA5FF94F54
:104BE000A591B491FC01EF5AF84E859194918FB73D
:104BF000F894EC91E42BEC938FBF2115310511F45F
:104C000080E004C02F3F310521F481E00E94645F01
:104C1000ADC0E0E0F8E1E4918E2F90E0FC01319727
:104C2000E231F10508F09DC08827EE58FF4F8F4F05
:104C30000C94B86D84B5806884BD27BD97C084B5D9
:104C4000806284BD28BD92C080918000806880937E
:104C50008000309389002093880088C08091800074
:104C600080628093800030938B0020938A007EC006
:104C70008091800088608093800030938D00209325
:104C80008C0074C08091B00080688093B000209345
:104C9000B3006CC08091B00080628093B00020931C
:104CA000B40064C08091900080688093900030933D
:104CB0009900209398005AC0809190008062809360
:104CC000900030939B0020939A0050C080919000F8
:104CD00088608093900030939D0020939C0046C094
:104CE0008091A00080688093A0008091A0008F7BBD
:104CF0008093A0003093A9002093A80037C0809132
:104D0000A00080628093A0003093AB002093AA00A3
:104D10002DC08091A00088608093A0003093AD00EA
:104D20002093AC0023C080912001806880932001F3
:104D3000309329012093280119C0809120018062BD
:104D40008093200130932B0120932A010FC0809182
:104D5000200188608093200130932D0120932C0145
:104D600005C0203831050CF050CF4ACF8091B402F5
:104D7000882309F4FBC02090450230904602009140
:104D800047020887109148021E8360915104709178
:104D900052046E5F7F4F072E000C880B990B0E9408
:104DA0005F699101A8010E94586987FDDFC00091E9
:104DB0001A0D09831A821B821C821D828091190D93
:104DC0001981811709F460C0812F90E027E4289FA2
:104DD000F001299FF00D1124E05AFB4F45895689B7
:104DE0006789708D452B462B472B81F4418D528D61
:104DF000638D748D452B462B472B41F4458D568D85
:104E0000678D70A1452B462B472BC9F137E4389F9E
:104E10008001399F100D1124005A1B4FF801618148
:104E20007281838194810E9481704B015C01F80141
:104E300061A172A183A194A10E945D692B013C0133
:104E4000F80165A176A187A190A50E945D699B01EB
:104E5000AC01C301B2010E94CD6EA50194010E9474
:104E6000BE695B018C012A813B814C815D810E947E
:104E70003370181624F4AA82BB820C831D838981A7
:104E80008F5F8F7089839ACF20913D0230913E02CF
:104E900040913F02509140026A817B818C819D81CB
:104EA0000E94BE69910148855E810E94D36D5B01BD
:104EB0008C01609041027090420280904302909079
:104EC00044029B01AC01B10188859E810E94337030
:104ED00018167CF09301A401B501C8010E9433703B
:104EE000181624F0150108871E8303C01301888655
:104EF0009E828090050390900603A0900703B090D7
:104F00000803910148855E81C501B4010E94337098
:104F10001816D4F420E037ED43EA5CE3B10188854C
:104F20009E810E94BE692B013C0128E431EE4AE7D4
:104F30005FE3C501B4010E94BE69A30192010E9412
:104F4000D36D1B0188879E83C101A885BE81809394
:104F5000050390930603A0930703B0930803B101E0
:104F6000CD010E943F6FCB010E945D51F4E6CF0E50
:104F7000D11CE11CF11CC092CC03D092CD03E09275
:104F8000CE03F092CF030E9465548091E4028823FF
:104F900009F498C00E94F94B6B017C0180910602D4
:104FA000882359F18091E902882339F14091D10396
:104FB0005091D2036091D3037091D403970186017D
:104FC000041B150B260B370B37FD2AC0833079F0F5
:104FD0003CF4813094F00E94A95083E997E00BC023
:104FE000843059F40E94A95084E697E004C00E94DE
:104FF000A9508CE797E00E948B4F2091060230E089
:10500000A8EEB3E00E94766DC60ED71EE81EF91E0C
:10501000C092D103D092D203E092D303F092D40392
:105020008091A202882309F44DC00E94F94B00919F
:105030009E0210919F022091A0023091A102DC01FA
:10504000CB01801B910BA20BB30BB7FF08C03AC07A
:105050008AE00E94602326CD1092D0038BCD0E945F
:10506000F94B6B017C012091A20230E0A8EEB3E085
:105070000E94766DC60ED71EE81EF91EC0929E02D3
:10508000D0929F02E092A002F092A1020091BA0297
:1050900009838FE78093BA0280E00E949E5180913D
:1050A000BA02882311F08F3719F48AE00E94602336
:1050B0008091BA02882319F08AE00E941E22198189
:1050C0001093BA0228960FB6F894DEBF0FBECDBF7C
:1050D000DF91CF911F910F91FF90EF90DF90CF90D4
:1050E000BF90AF909F908F907F906F905F904F9008
:1050F0003F902F9008958F929F92AF92BF92EF9220
:10510000FF920F931F93CF93DF93CDB7DEB7A09796
:105110000FB6F894DEBF0FBECDBF611571058105D6
:10512000910591F100E0842E912CA12CB12C102F2F
:10513000EE24E394F12CEC0EFD1EE00EF11C07FDB5
:10514000FA94A50194010E94496DF7016083B901A9
:10515000CA010F5F611571058105910541F71F3F78
:1051600031F1E1E0F0E0EC0FFD1FE10FF11D17FD63
:10517000FA9580818A3010F097E301C090E3890F9F
:105180000E9460231150EBCF80E3A0960FB6F894F5
:10519000DEBF0FBECDBFDF91CF911F910F91FF906A
:1051A000EF90BF90AF909F908F900C946023A0964B
:1051B0000FB6F894DEBF0FBECDBFDF91CF911F9128
:1051C0000F91FF90EF90BF90AF909F908F900895B8
:1051D000CF92DF92EF92FF926B017C0197FF0BC0A1
:1051E0008DE20E946023F094E094D094C094C11C9E
:1051F000D11CE11CF11C4AE0C701B601FF90EF9001
:10520000DF90CF900C947B288F929F92AF92BF92A9
:10521000CF92DF92EF92FF92CF936B017C01B42E7D
:1052200020E030E0A9010E94586987FF07C08DE2A5
:105230000E946023F7FAF094F7F8F094C0E060E081
:1052400070E080E09FE3CB1541F02DEC3CEC4CECA2
:105250005DE30E94BE69CF5FF6CF9B01AC01C70141
:10526000B6010E94D36D6B017C010E94466F4B0119
:105270005C014AE00E947B28CC2389F1C501B4017E
:105280000E945D699B01AC01C701B6010E94D26D0D
:105290006B017C018EE20E94602320E030E040E25E
:1052A00051E4C701B6010E94BE694B015C010E9436
:1052B0003F6F6B01770FEE08FF08C701B6010E9430
:1052C000E828C701B6010E945F699B01AC01C501D6
:1052D000B4010E94D26D6B017C01C150F1F6CF91F7
:1052E000FF90EF90DF90CF90BF90AF909F908F9006
:1052F00008958DE00E9460238AE00C946023CF9390
:10530000DF93EC018991882319F00E946023FACF82
:10531000DF91CF910C9479291F920F920FB60F92C3
:1053200011240F900FBE0F901F9018951F920F928F
:105330000FB60F9211240F900FBE0F901F9018956B
:105340001F920F920FB60F9211240F900FBE0F9065
:105350001F9018951F920F920FB60F9211240BB643
:105360000F922F938F939F93EF93FF939091C6008B
:1053700020912D09E0912C0981E08E0F8F7728175D
:1053800029F0F0E0E45DF64F9283E82FE0932C09DA
:10539000FF91EF919F918F912F910F900BBE0F90E6
:1053A0000FBE0F901F9018950F930FB70F9300919A
:1053B0006E000F930B7F00936E0000916F000D7FC6
:1053C00000936F000F930BB70F930CB70F921F92C0
:1053D0002F933F934F935F936F937F938F939F93FD
:1053E000AF93BF93EF93FF9311240E94502AFF9134
:1053F000EF91BF91AF919F918F917F916F915F914D
:105400004F913F912F911F900F900CBF0F910BBFA9
:105410000F910260F89400936F000F9100936E005B
:105420000F910FBF0F91189580913F0A80FF03C025
:1054300089988FEF02C0899A81E08093D60380918A
:105440003F0A869580FF03C08F9A8FEF02C08F9826
:1054500081E08093D70380913F0A8695869580FFEF
:1054600007C080910B018270809309018FEF07C004
:1054700080910B01809582708093090181E0809377
:10548000D80380913F0A86958695869580FF03C054
:1054900016988FEF02C0169A81E08093D903089581
:1054A0002F923F924F925F926F927F928F929F9234
:1054B000AF92BF92CF92DF92EF92FF920F931F9322
:1054C000CF93DF9300D01F92CDB7DEB78FEF9FEF62
:1054D00090938900809388000AE00983212C312C65
:1054E000789480911B0490911C04A0911D04B091AC
:1054F0001E04892B8A2B8B2B71F080911B049091B9
:105500001C04A0911D04B0911E04892B8A2B8B2BA7
:1055100009F0F9C4DAC18091B10C8823D1F010925E
:10552000B10C8091AF0C9091B00C892B91F010923E
:10553000B00C1092AF0C1092D5039091190D809180
:105540001A0D981731F080911A0D8F5F8F7080932C
:105550001A0D8091AF0C9091B00C892B71F2C09014
:105560001704D0901804E0901904F0901A044091A8
:105570001304509114046091150470911604009165
:10558000060410E020E030E0DB01CA018C199D091F
:10559000AE09BF09081719072A073B0710F4D901FC
:1055A000C801E82F8C0D9D1DAE1DBF1D80931704F3
:1055B00090931804A0931904B0931A041B821A82C2
:1055C000F1E0C090DE03D090DF03E090E003F090C4
:1055D000E1038091EE039091EF03A091F003B0916D
:1055E000F103C80ED91EEA1EFB1EC092EE03D09234
:1055F000EF03E092F003F092F103F7FC31C08091E9
:10560000D603082E000C990BAA0BBB0B4091BE0CC5
:105610005091BF0C6091C00C7091C10C840F951F0C
:10562000A61FB71F8093BE0C9093BF0CA093C00C15
:10563000B093C10C8091DA039091DB03A091DC035D
:10564000B091DD03A7019601281B390B4A0B5B0BB8
:105650002093EE033093EF034093F0035093F10354
:105660000091E2031091E3032091E4033091E503FC
:105670008091F2039091F303A091F403B091F503AC
:10568000080F191F2A1F3B1F0093F2031093F30307
:105690002093F4033093F50337FD31C08091D70395
:1056A000082E000C990BAA0BBB0B4091C20C509119
:1056B000C30C6091C40C7091C50C840F951FA61F7C
:1056C000B71F8093C20C9093C30CA093C40CB093EB
:1056D000C50C8091DA039091DB03A091DC03B091BB
:1056E000DD03B901A801481B590B6A0B7B0B4093E2
:1056F000F2035093F3036093F4037093F503409126
:10570000E6035091E7036091E8037091E90380910B
:10571000F6039091F703A091F803B091F903480FB5
:10572000591F6A1F7B1F4093F6035093F703609342
:10573000F8037093F90377FD31C08091D803082EE8
:10574000000C990BAA0BBB0B8090C60C9090C70C59
:10575000A090C80CB090C90C880D991DAA1DBB1D46
:105760008093C60C9093C70CA093C80CB093C90C3F
:105770008091DA039091DB03A091DC03B091DD030B
:105780002A013B01481A590A6A0A7B0A4092F60329
:105790005092F7036092F8037092F9038090EA0345
:1057A0009090EB03A090EC03B090ED038091FA038E
:1057B0009091FB03A091FC03B091FD03880D991D0E
:1057C000AA1DBB1D8093FA039093FB03A093FC03D7
:1057D000B093FD03B7FD31C08090D903082C000CB5
:1057E0009908AA08BB084090CA0C5090CB0C609056
:1057F000CC0C7090CD0C840C951CA61CB71C809210
:10580000CA0C9092CB0CA092CC0CB092CD0C809094
:10581000DA039090DB03A090DC03B090DD032C0151
:105820003D01481859086A087B084092FA035092D3
:10583000FB036092FC037092FD03F1110CC0A09079
:105840008400B09085006A807B80A618B708F2E0DB
:10585000AF16B104A0F3F7FE889A37FF8E9A77FD52
:1058600006C0F0910B01F095F870F0930901B7FFB5
:10587000149A40908400509085005B824A82A090E8
:105880008400B09085006A807B80A618B708F2E09B
:10589000AF16B104A0F3F7FE889837FF8E9877FD16
:1058A00005C020910B01287020930901B7FF1498BF
:1058B000EE2331F040908400509085005B824A8254
:1058C000E150F0E009F07DCE18CEE091AF0CF09100
:1058D000B00C309709F49DC480911704909118047E
:1058E000A0911904B0911A0440911304509114042A
:1058F000609115047091160484179507A607B707E1
:10590000D0F01092B00C1092AF0C1092D503909181
:10591000190D80911A0D981709F47BC480911A0D06
:105920008F5F8F7080931A0D40EDC42E47E0D42E08
:10593000E12CF12C4EC140910F0450911004609164
:10594000110470911204481759076A077B0708F47D
:1059500067C040910B0450910C0460910D0470914C
:105960000E0481A992A9A3A9B4A95524499F612C29
:105970005A9F90016A9F300D699F200D311D4A9FEB
:10598000600C211D351D599F600C211D351D689F20
:10599000600C211D351D589F610C251D351D669419
:1059A000251D351DB49F200D311DB59F300D1124CF
:1059B00082AD93ADA4ADB5AD820F931FA11DB11DF6
:1059C0008093070490930804A0930904B0930A04F9
:1059D00006A917A920AD31AD081719072A073B07FB
:1059E00040F40093070410930804209309043093B3
:1059F0000A048090070490900804A0900904B090D5
:105A00000A0481E591E121E0FC01C590D590E59083
:105A1000F490C814D904EA04FB0408F4C4C2CEC24A
:105A200040910204509103046091040470910504B4
:105A3000481759076A077B0708F063C04091FE03C7
:105A40005091FF03609100047091010481A992A913
:105A5000A3A9B4A94424499F512C5A9F90016A9F3D
:105A6000300D699F200D311D4A9F500C211D341DA2
:105A7000599F500C211D341D689F500C211D341D51
:105A8000589F510C241D341D5694241D341DB49F61
:105A9000200D311DB59F300D1124C901A0E0B0E0EB
:105AA0008090070490900804A0900904B0900A0424
:105AB000FE9688159905AA05BB0580F40081118121
:105AC00022813381881A990AAA0ABB0A8016910694
:105AD000A206B30638F44801590104C080809180C1
