:100000000C946E080C949F080C949F080C949F0805
:100010000C949F080C949F080C949F080C949F08C4
:100020000C949F080C949F080C949F080C949F08B4
:100030000C949F080C949F080C949F080C949F08A4
:100040000C949F080C94F00F0C949F080C949F083C
:100050000C949F080C949F080C94FE170C9440215C
:100060000C949F080C94910F0C947D0F0C949F0896
:100070000C949F080C949F080C949F080C949F0864
:100080000C949F080C949F080C949F080C949F0854
:100090000C94C0090C94870F0C949F080C949F0833
:1000A0000C949F080C949F080C949F080C949F0834
:1000B0000C949F080C949F080C949F080C949F0824
:1000C0000C949F080C949F080C949F080C949F0814
:1000D0000C949F080C949F080C949F080C949F0804
:1000E0000C949F08A40DA90DAE0DB80DC20D3B0ECA
:1000F000CC0DD40DDC0DE60DF00DFA0D090E130E2E
:100100003B0E1D0E270E310E1E1F211F101F141F28
:10011000181F581F251F291F2F1F331F371F3D1F53
:10012000411F451F581F4B1F4F1F531F0C94E60DB7
:100130000C94CC0D0C943D1F0C94531F0C94FA0D91
:100140000C94181F0C944B1F0C94101F0C94331F0D
:100150000C94251F0C94F00D0C94A40D0C944F1FBF
:100160000C94DC0D0C941D0E0C94AE0D0C94B80D7B
:100170000C94D40D0C94090E0C94310E0C94371F72
:100180000C94A90D0C94211F0C94C20D0C94270EF5
:100190000C94581F0C9413290C94451F0C941E1F8B
:1001A0000C94291F0C94130E0C943B0E0C94141FEA
:1001B0000C94411F0C942F1F0000210024002700E5
:1001C0002A002D0030003300010100000401070166
:1001D0000A014D343130004D31313220536875748D
:1001E000646F776E004D313132005072696E746504
:1001F000722073746F707065642064756520746F0D
:10020000206572726F72732E20466978207468655B
:10021000206572726F7220616E6420757365204D67
:1002200039393920746F20726573746172742E20AD
:100230002854656D706572617475726520697320EC
:1002400072657365742E205365742069742061662D
:100250007465722072657374617274696E67290ABD
:10026000004E6F20436865636B73756D207769740A
:1002700068206C696E65206E756D6265722C204C0D
:10028000617374204C696E653A2000636865636B26
:1002900073756D206D69736D617463682C204C619A
:1002A0007374204C696E653A20004C696E65204E6F
:1002B000756D626572206973206E6F74204C617376
:1002C00074204C696E65204E756D6265722B312C01
:1002D000204C617374204C696E653A20004D3131B9
:1002E000300000004843000048430000484300003D
:1002F0000000000000000000000000009643000025
:1003000096430000A0400000C8410000A042000049
:10031000A04200007A450000FA43B80B0000B80B79
:100320000000640000001027000070012C01900103
:100330002701B0012201C0011D01F00118011002C6
:10034000130130020E016002090190020401C00293
:10035000FF000003FA004003F5008003F000D00323
:10036000EB002004E6007004E100E004DC0040053E
:10037000D700C005D2004006CD00D006C8008007D7
:10038000C3003008BE00F008B900C009B400B00ACC
:10039000AF00B00BAA00D00CA500000EA000500FBB
:1003A0009B00C01096005012910000148C00C015E4
:1003B0008700B0178200B0197D00D01B7800001EA6
:1003C000730040206E0090226900F02464004027F2
:1003D0005F0090295A00E02B5500102E500020306D
:1003E0004B0010324600E033410090353C0010379E
:1003F000370070383200A0392D00B03A2800A03BF9
:100400002300603C1E00103D1900903D1400103E7A
:100410000F00703E0A00C03E0500003F0000403F54
:10042000FBFF803FF6FFC03FF1FF20453A00205A16
:100430003A0020593A0020436F756E7420583A00F4
:1004400048617264636F6465642044656661756CBD
:10045000742053657474696E6773204C6F616465B2
:10046000640A00204D393220580020490020204DD8
:100470003330312050005049442073657474696EE4
:1004800067733A0020204D323036205800486F6D97
:1004900065206F66667365743A00204A0020204D1F
:1004A000323035204200416476616E6365643A20E3
:1004B000423C6D696E5F7365676D656E745F7469EC
:1004C0006D655F75733E20533C6D696E5F66656553
:1004D00064726174653E20543C6D696E5F74726134
:1004E00076656C5F66656564726174653E204A3C42
:1004F0006A756E635F6465763E002054002052008A
:1005000020204D323034205000416363656C6572A9
:100510006174696F6E2028756E6974732F73322948
:100520003A20503C7072696E745F616363656C3E23
:1005300020523C726574726163745F616363656CC1
:100540003E20543C74726176656C5F616363656CD8
:100550003E0020204D3230312058004D6178696DC9
:10056000756D20416363656C65726174696F6E209F
:1005700028756E6974732F7332293A002045002064
:100580005A0020590020204D3230332058004D6150
:1005900078696D756D206665656472617465732038
:1005A00028756E6974732F73293A005374657073DC
:1005B0002070657220756E69743A00204400202016
:1005C0004D3230302053002044697361626C6564A1
:1005D0000A0046696C616D656E7420736574746998
:1005E0006E67733A0020286D6D2900202047323154
:1005F000202020203B20556E69747320696E206D89
:100600006D002020506C616E6E6572427566666585
:100610007242797465733A20002046726565204DF8
:10062000656D6F72793A2000436F6D70696C656417
:100630003A204E6F7620313720323032300A002097
:100640004C61737420557064617465643A20323073
:1006500032302D31302D3135207C20417574686F5A
:10066000723A2033444350205465616D0A00322EA3
:10067000302E372E320A004D61726C696E002053A5
:100680006F6674776172652052657365740A002025
:100690005761746368646F672052657365740A00FC
:1006A0002042726F776E206F757420526573657487
:1006B0000A002045787465726E616C20526573651E
:1006C000740A00506F77657255700A007374617216
:1006D000740A0024F4D43050C38E20C2A240178282
:1006E0008B7011127A910D816CD90AA861E108C74B
:1006F000586607615143061E4B5D05C145A7041AA4
:10070000411104093D9803713931034036DB02651C
:10071000339102D4305402802E1D02632CEE0175F9
:100720002AC501B028A001102781018F2564012B63
:10073000244B01E0223401AC211F018D200D0180EA
:100740001FFC00841EED00971DDF00B81CD200E6E0
:100750001BC600201BBC00641AB200B219A8000A14
:1007600019A0006A189900D117910040178B00B5A5
:1007700016840031167E00B31579003A157300C750
:10078000146F0058146A00EE136600881363002586
:10079000135E00C7125B006C12570015125400C1A3
:1007A00011510070114F0021114B00D61049008DDE
:1007B0001047004610440002104200C00F40008065
:1007C0000F3E00420F3C00060F3B00CB0E3800935B
:1007D0000E37005C0E3500270E3400F30D3200C1D9
:1007E0000D3100900D3000600D2E00320D2D0005F2
:1007F0000D2C00D90C2B00AE0C2900850C29005CB7
:100800000C2700350C27000E0C2600E80B2400C432
:100810000B2400A00B23007D0B23005A0B21003971
:100820000B2100180B2000F80A1F00D90A1E00BB7C
:100830000A1E009D0A1D00800A1D00630A1C004755
:100840000A1B002C0A1B00110A1A00F7091A00DD06
:10085000091900C4091900AB091900920917007B96
:10086000091800630917004C091600360916002004
:100870000916000A091500F5081500E0081400CC57
:10088000081400B8081400A4081400900813007D90
:100890000812006B081300580812004608120034B2
:1008A000081100230811001208110001081100F0BE
:1008B000071000E0071000D0071000C0071000B0BC
:1008C000070F00A107100091070E0083070F0074A7
:1008D000070F0065070E0057070E0049070E003B83
:1008E000070D002E070E0020070D0013070D000650
:1008F000070D00F9060C00ED060D00E0060C00D413
:10090000060C00C8060C00BC060C00B0060C00A4C7
:10091000060B0099060C008D060B0082060B007773
:10092000060B006C060B0061060A0057060B004C14
:10093000060A0042060A0038060A002E060A0024AB
:10094000060A001A060A001006090007060A00FD3A
:10095000050900F4050900EB050900E2050900D9C5
:10096000050900D0050900C7050900BE050900B545
:10097000050800AD050800A50509009C05080094C0
:100980000508008C050800840508007C0508007433
:100990000508006C050700650508005D05070056A1
:1009A0000508004E05070047050700400508003808
:1009B000050700310507002A050700230507001C6D
:1009C000050600160507000F0507000805060002CA
:1009D000050700FB040600F5040700EE040600E826
:1009E000040600E2040700DB040600D5040600CF7D
:1009F000040600C9040600C3040600BD040600B7CF
:100A0000040600B1040500AC040600A6040600A01C
:100A10000405009B04060095040500900406008A66
:100A200004050085040500800406007A04050075AD
:100A3000040500700405006B0405006604050061F0
:100A40000405005C04050057040500520405004D30
:100A500004050048040500430405003E0404003A70
:100A600004050035040500300404002C04050027AB
:100A7000040400230405001E0404001A04040016E4
:100A8000040500110404000D040400090405000419
:100A900004040000040400FC030400F8030400F450
:100AA000030400F0030400EC030400E8030400E482
:100AB000030400E0030400DC030400D8030400D4B2
:100AC000030400D0030400CC030400C8030300C5E2
:100AD00003030024F404D9201BC40C5C0E9804C446
:100AE000095F0265077101F405F900FB04B30048D2
:100AF000048700C10369005803550003034500BE85
:100B0000023A008402310053022A0029022500041F
:100B1000022000E4011C00C8011900AF0117009871
:100B200001140084011300710110006101100051D3
:100B3000010E0043010D0036010B002B010B0020BC
:100B4000010B00150109000C01090003010800FB5D
:100B5000000800F3000800EB000700E4000600DED8
:100B6000000600D8000600D2000600CC000500C731
:100B7000000500C2000500BD000400B9000400B576
:100B8000000400B1000400AD000400A9000400A5A9
:100B9000000300A20003009F0004009B00030098D4
:100BA0000003009500020093000300900003008DF5
:100BB0000002008B0003008800020086000200840F
:100BC000000300810002007F0002007D0002007B24
:100BD0000002007900020077000100760002007434
:100BE00000020072000100710002006F0002006D3F
:100BF0000001006C0002006A000100690002006749
:100C0000000100660001006500010064000200624E
:100C100000010061000100600001005F0002005D52
:100C20000001005C0001005B0001005A0001005956
:100C30000001005800010057000100560001005556
:100C40000001005400010053000000530001005255
:100C500000010051000100500001004F0001004E52
:100C60000000004E0001004D0001004C0001004B4F
:100C70000000004B0001004A00010049000100484B
:100C80000000004800010047000100460000004647
:100C90000001004500000045000100440001004340
:100CA000000000430001004200000042000100413A
:100CB00000000041000100400001003F0000003F33
:100CC0000001003E0000003E0001003D0000003D2C
:100CD0000001003C0000003C0000003C0001003B23
:100CE0000000003B0001003A0000003A000100391A
:100CF0000000003900010038000000380000003812
:100D00000001003700000037000100360000003607
:100D100000000036000100350000003500000035FD
:100D200000010034000000340000003400010033F2
:100D300000000033000000330001003200000032E8
:100D400000000032000100310000003100000031DD
:100D50000001003000000030000000300001002FD2
:100D60000000002F0000002F0000002F0001002EC7
:100D70000000002E0000002E0001002D0000002DBC
:100D80000000002D0000002D0001002C0000002CB0
:100D90000000002C0000002C0001002B0000002BA4
:100DA0000000002B0000002B0001002A0000002A98
:100DB0000000002A0000002A00010029000000298C
:100DC000000000290000002900000029000100287F
:100DD0000000002800000028000000280000002873
:100DE0000001002700000027000000270000002766
:100DF0000000002700010026000000260000002659
:100E0000000000260000002600010025000000254B
:100E1000000000250000002500000025000000253E
:100E20000001002400000024000000240000002431
:100E30000000002400010023000000230000002324
:100E40000000002300000023000000230000002316
:100E50000001002200000022000000220000002209
:100E600000000022000000220001002100000021FB
:100E700000000021000000210000002100000021EE
:100E800000000021000100200000002000000020E0
:100E900000000020000000200000002000000020D2
:100EA000000000200001001F0000001F0000001FC4
:100EB0000000001F0000001F0000001F0000001FB6
:100EC0000001001E0000001E0000001E0000001EA9
:100ED000000000043700001E290000511B000058CC
:100EE00010000010090000CC04000078020000414E
:100EF000010000453100626564002C207379737431
:100F0000656D2073746F707065642120486561742D
:100F100065725F49443A2000544845524D414C2087
:100F200052554E4157415900546865726D616C20AD
:100F300052756E617761790048656174696E6720EA
:100F40004661696C65640048656174696E67206616
:100F500061696C6564004572726F723A00202D20E1
:100F6000496E76616C696420657874727564657227
:100F7000206E756D62657220210A004572723A20FA
:100F80004D415854454D50004D415854454D502009
:100F9000747269676765726564004572723A204DC4
:100FA000494E54454D50004D494E54454D502074C6
:100FB0007269676765726564005072696E74657204
:100FC0002068616C7465642E206B696C6C28292024
:100FD00063616C6C6564210A006563686F3A006F39
:100FE0006B00526573656E643A20003B2000000080
:100FF0002200250028002B002E00310034000201C1
:101000000000050108010B01050505050705080895
:101010000808020202020A0A080804040404010182
:101020000101010101010303030303030303040797
:1010300007070C0C0C0C0C0C0C0C0202020206062E
:101040000606060606060B0B0B0B0B0B0B0B010221
:1010500010202008081020401020408002010201CA
:101060000804020101020408102040808040201082
:1010700008040201800402018040201008040201DB
:101080000804020101020408102040800102040843
:101090001020408000000A0B02090C0D0E08070307
:1010A000040100000000000000000000000000003B
:1010B0000000000000000000000000000000000030
:1010C00012111000000000000000000000000000ED
:1010D00000000000000000000000132911241FBEC2
:1010E000CFEFD1E2DEBFCDBF00E00CBF12E0A0E049
:1010F000B2E0E4EBFBE500E00BBF02C007900D920D
:10110000AC33B107D9F72BE0ACE3B2E001C01D92DC
:10111000A938B207E1F718E0CEE6D8E000E006C053
:1011200021970109802FFE010E940B2CCD36D1079B
:1011300080E00807A9F70E948A210C94D82D0C940E
:1011400000009091C80095FFFCCF8093CE000895D9
:101150008F929F92AF92BF92EF92FF920F931F9345
:10116000CF93DF93CDB7DEB7A0970FB6F894DEBF6D
:101170000FBECDBF611571058105910591F100E0AC
:10118000842E912CA12CB12C102FEE24E394F12C61
:10119000EC0EFD1EE00EF11C07FDFA94A501940172
:1011A0000E94CF2BF7016083B901CA010F5F61155F
:1011B00071058105910541F71F3F31F1E1E0F0E054
:1011C000EC0FFD1FE10FF11D17FDFA9580818A30AC
:1011D00010F097E301C090E3890F0E94A10811501D
:1011E000EBCF80E3A0960FB6F894DEBF0FBECDBF65
:1011F000DF91CF911F910F91FF90EF90BF90AF9033
:101200009F908F900C94A108A0960FB6F894DEBF23
:101210000FBECDBFDF91CF911F910F91FF90EF9047
:10122000BF90AF909F908F900895CF92DF92EF92F2
:10123000FF926B017C0197FF0BC08DE20E94A10819
:10124000F094E094D094C094C11CD11CE11CF11C1A
:101250004AE0C701B601FF90EF90DF90CF900C9469
:10126000A8088F929F92AF92BF92CF92DF92EF9297
:10127000FF92CF936B017C01B42E20E030E0A901F6
:101280000E94982A87FF07C08DE20E94A108F7FA02
:10129000F094F7F8F094C0E060E070E080E09FE345
:1012A000CB1541F02DEC3CEC4CEC5DE30E94FE2AAA
:1012B000CF5FF6CF9B01AC01C701B6010E94142C91
:1012C0006B017C010E94F92C4B015C014AE00E94F9
:1012D000A808CC2389F1C501B4010E949D2A9B0175
:1012E000AC01C701B6010E94132C6B017C018EE298
:1012F0000E94A10820E030E040E251E4C701B601BD
:101300000E94FE2A4B015C010E94F22C6B01770FB8
:10131000EE08FF08C701B6010E941509C701B60112
:101320000E949F2A9B01AC01C501B4010E94132CAD
:101330006B017C01C150F1F6CF91FF90EF90DF90EF
:10134000CF90BF90AF909F908F9008958DE00E94B6
:10135000A1088AE00C94A1088091B9049091BA0484
:10136000981759F0E92FF0E0E754FB4F82819F5F17
:101370009F779093BA0490E008958FEF9FEF0895C0
:101380001F920F920FB60F9211240BB60F922F934C
:101390008F939F93EF93FF939091CE002091BA0487
:1013A000E091B90481E08E0F8F77281729F0F0E0E3
:1013B000E754FB4F9283E82FE093B904FF91EF913C
:1013C0009F918F912F910F900BBE0F900FBE0F909A
:1013D0001F9018959091C00095FFFCCF8093C60098
:1013E00008958F929F92AF92BF92EF92FF920F93C8
:1013F0001F93CF93DF93CDB7DEB7A0970FB6F894C6
:10140000DEBF0FBECDBF611571058105910591F15C
:1014100000E0842E912CA12CB12C102FEE24E3940B
:10142000F12CEC0EFD1EE00EF11C07FDFA94A50157
:1014300094010E94CF2BF7016083B901CA010F5FAD
:10144000611571058105910541F71F3F31F1E1E01B
:10145000F0E0EC0FFD1FE10FF11D17FDFA95808103
:101460008A3010F097E301C090E3890F0E94EA09E7
:101470001150EBCF80E3A0960FB6F894DEBF0FBEFD
:10148000CDBFDF91CF911F910F91FF90EF90BF9053
:10149000AF909F908F900C94EA09A0960FB6F894A5
:1014A000DEBF0FBECDBFDF91CF911F910F91FF9097
:1014B000EF90BF90AF909F908F900895CF92DF9262
:1014C000EF92FF926B017C0197FF0BC08DE20E94AF
:1014D000EA09F094E094D094C094C11CD11CE11CA2
:1014E000F11C4AE0C701B601FF90EF90DF90CF906A
:1014F0000C94F1098F929F92AF92BF92CF92DF929C
:10150000EF92FF92CF936B017C01B42E20E030E08C
:10151000A9010E94982A87FF07C08DE20E94EA096C
:10152000F7FAF094F7F8F094C0E060E070E080E043
:101530009FE3CB1541F02DEC3CEC4CEC5DE30E94BD
:10154000FE2ACF5FF6CF9B01AC01C701B6010E9416
:10155000142C6B017C010E94F92C4B015C014AE0C8
:101560000E94F109CC2389F1C501B4010E949D2A92
:101570009B01AC01C701B6010E94132C6B017C01D9
:101580008EE20E94EA0920E030E040E251E4C70127
:10159000B6010E94FE2A4B015C010E94F22C6B01F5
:1015A000770FEE08FF08C701B6010E945E0AC70167
:1015B000B6010E949F2A9B01AC01C501B4010E94A3
:1015C000132C6B017C01C150F1F6CF91FF90EF908D
:1015D000DF90CF90BF90AF909F908F9008952F9203
:1015E0003F924F925F926F927F928F929F92AF92B3
:1015F000BF92CF92DF92EF92FF920F931F93CF9300
:10160000DF9300D000D0CDB7DEB780919E04843048
:1016100008F0F5C180919E04843008F0F0C18091FB
:10162000CC059091CD05891B8F7741F48091B90449
:101630009091BA04891B8F7709F4E1C173ED272ECD
:1016400073E0372E06E516E025ED33E03A83298373
:101650004AE556E05C834B831E821D828D810E9489
:101660002D1D97FDAFC1382FF1018A3019F08D3053
:1016700009F060C11082F8018081918140E62D81DE
:101680003E81429FF001439FF00D1124EB52FC4F2D
:10169000E80FF91F1082892B31F0F80111821082B6
:1016A000E980FA8003C00E943F1A8CC1F701819142
:1016B000803211F47F01FACF8E3409F065C0E11455
:1016C000F10409F461C06DED72E0C7010E947E2A49
:1016D0006C01892B41F06EE470E0C70104960E9412
:1016E000BB2D009709F4C7014AE050E060E070E0CC
:1016F00001960E943E294B015C01EB81FC818081B7
:101700009181A281B3810196A11DB11D8816990610
:10171000AA06BB0631F0CD2821F46D818AEA92E059
:1017200026C06AE270E0C7010E94CD2D009711F13A
:10173000282F2E19D12C222339F02150F701E20F46
:10174000F11D3081D326F7CF4AE050E060E070E031
:1017500001960E943E294D2C512C612C712C641550
:1017600075058605970551F06D818BE892E00E9422
:10177000671D45C16D8181E692E0F9CFEB81FC8167
:1017800080829182A282B3828091B8048130F1F08C
:1017900067E470E0C7010E94BB2D0097B9F04AE0F2
:1017A00050E060E070E001960E943E2964307105CF
:1017B0008105910558F4D0906206FD81F093620690
:1017C0008AEE91E00E94471DD092620665EE71E0BC
:1017D000C7010E94752A892B39F441E060E070E06E
:1017E00087ED91E00E94901E62ED71E0C7010E94BA
:1017F000752A892B09F067C00E947D109091650BB6
:101800009093640B9093630B9093620B24E6209368
:10181000610B40ED53E05093B1054093B005811149
:101820000E948A1051E05093AE050E946D1081E035
:101830000E9490104B015C0180E00E9490102B01EF
:101840003C01609346027093470280934802909354
:10185000490280924A0290924B02A0924C02B092AE
:101860004D0282E00E9490106B017C0160934E0259
:1018700070934F02809350029093510283E00E9434
:10188000901040922B0B50922C0B60922D0B70926B
:101890002E0B80922F0B9092300BA092310BB092B6
:1018A000320BC092330BD092340BE092350BF09296
:1018B000360B6093370B7093380B8093390B9093F2
:1018C0003A0B0E946D1FE981FA8180818B3309F404
:1018D00079C0C0909E04F3E0FC1508F473C0D0906A
:1018E000D203ED2CF12C20E62E9DC0012F9D900DF2
:1018F000112469817A818E5A9D4F0E94C62DF7016D
:10190000EA59F44F31E03083F701EE0FFF1FE25B3D
:10191000F94F4D815E815183408381E08D0D84308C
:1019200018F48093D20302C01092D203C394C092E1
:101930009E0448C02081213009F444C0243018F0AE
:10194000245020830AC08C3531F42C5FF1012083B0
:101950002430E1F437C08B3391F13830B9F4F80119
:1019600080819181009771F101979183808360E676
:101970004D815E81649F9001659F300D11242B5233
:101980003C4FF901E80FF91F10821CC0F8012081BB
:101990003181B9016F5F7F4F71836083A0E6ED8174
:1019A000FE81AE9FA001AF9F500D11244B525C4FA2
:1019B000FA01E20FF31F80836F3571051CF021E0FF
:1019C000F10120834D815E814F5F5F4F5E834D83C8
:1019D0005FEF251A350A0E5F1F4F89819A81805A61
:1019E0009F4F9A838983EB81FC813496FC83EB8340
:1019F0002D813E812230310509F40CCE2FCE0E947C
:101A0000FC206B017C019091640B8091650B981711
:101A100049F0C0929A04D0929B04E0929C04F09208
:101A20009D0435C00E94FC2000919A0410919B04F3
:101A300020919C0430919D04DC01CB01801B910B13
:101A4000A20BB30B805C944DA140B109B7FD39C224
:101A50008091990481111BC081E0809399045F9A61
:101A60008091B6048E7F8093B6048A9A8091B604E2
:101A70008D7F8093B604809108018095817080935A
:101A800006018091B6048B7F8093B604129A8091F0
:101A9000950490919604A0919704B0919804A701A1
:101AA0009601281B390B4A0B5B0B57FDF3C1909134
:101AB000640B8091650B981769F0E091650B37E432
:101AC000E39FF0011124E755F94F208130E0211503
:101AD000310511F420E030E0E7E5F0E14491E1E187
:101AE000F0E18491882399F090E0880F991FFC0120
:101AF000E854FE4FA591B491FC01E251F04F85915D
:101B000094918FB7F894EC91E42BEC938FBF21154F
:101B1000310511F480E004C02F3F310521F481E04C
:101B20000E94F31EADC0EDE9F0E1E4918E2F90E04C
:101B3000FC013197E231F10508F09DC08827EE588D
:101B4000FF4F8F4F0C940B2C84B5806884BD27BD4C
:101B500097C084B5806284BD28BD92C0809180000A
:101B6000806880938000309389002093880088C02B
:101B70008091800080628093800030938B0020935E
:101B80008A007EC0809180008860809380003093BE
:101B90008D0020938C0074C08091B0008068809389
:101BA000B0002093B3006CC08091B000806280933D
:101BB000B0002093B40064C080919000806880934E
:101BC000900030939900209398005AC08091900023
:101BD00080628093900030939B0020939A0050C0C5
:101BE0008091900088608093900030939D002093B6
:101BF0009C0046C08091A00080688093A0008091E6
:101C0000A0008F7B8093A0003093A9002093A800B0
:101C100037C08091A00080628093A0003093AB0019
:101C20002093AA002DC08091A00088608093A0001E
:101C30003093AD002093AC0023C0809120018068D8
:101C400080932001309329012093280119C08091AD
:101C5000200180628093200130932B0120932A0180
:101C60000FC08091200188608093200130932D0166
:101C700020932C0105C0203831050CF050CF4ACFFD
:101C80008091AF05882309F4F8C06091490B7091E9
:101C90004A0B6E5F7F4F072E000C880B990B0E943A
:101CA0009F2A20E030E042E553E40E94982A87FD15
:101CB000E4C04091650B4B83212C312C1D8219828D
:101CC0008091640B5B81851709F45EC0852F90E0DD
:101CD00067E4689FF001699FF00D1124ED59F94FF9
:101CE000458956896789708D452B462B472B81F492
:101CF000418D528D638D748D452B462B472B41F4BE
:101D0000458D568D678D70A1452B462B472BB9F11C
:101D1000A7E4A89F8001A99F100D11240D59194F08
:101D2000F80161817281838194810E94662D4B014B
:101D30005C01F80161A172A183A194A10E949D2A76
:101D40002B013C01F80165A176A187A190A50E9415
:101D50009D2A9B01AC01C301B2010E94802CA50108
:101D600094010E94FE2A5B018C0191014D815981F1
:101D70000E94282D18161CF415010D831983FB8170
:101D8000FF5FFF70FB839CCF2DEC3CEC4CEC5DE3E4
:101D9000B1018D8199810E94FE2A20E030E042E568
:101DA00053E40E94142C4B015C0120E030E042E53A
:101DB00053E40E94982A87FD11C020E030E04AE7F2
:101DC00053E4C501B4010E94282D18166CF4812C2F
:101DD000912C8AE7A82E83E4B82E06C0812C912C82
:101DE00092E5A92E93E4B92E40904202509043020E
:101DF0006090440270904502A5019401C301B201B4
:101E00000E94282D1816C4F420E037ED43EA5CE365
:101E1000C501B4010E94FE2A4B015C0128E431EEA9
:101E20004AE75FE3C301B2010E94FE2AA5019401C3
:101E30000E94142C4B015C0180924202909243025A
:101E4000A0924402B092450280910602909107024E
:101E50009C012F5031093A832983C501B4010E94A6
:101E6000F22C29813A81621773070CF49B0130939D
:101E70004A0B2093490B0E94082134E6C30ED11C63
:101E8000E11CF11CC0929504D0929604E092970454
:101E9000F09298040E943F1A8091B8048823A1F020
:101EA0000E94FC20DC01CB018053984FAF4FBF4F05
:101EB00080939F049093A004A093A104B093A204E4
:101EC00003C010929904E3CD26960FB6F894DEBFB6
:101ED0000FBECDBFDF91CF911F910F91FF90EF907B
:101EE000DF90CF90BF90AF909F908F907F906F903A
:101EF0005F904F903F902F9008951F920F920FB6D2
:101F00000F9211240F900FBE0F901F9018951F92E3
:101F10000F920FB60F9211240F900FBE0F901F90CB
:101F200018951F920F920FB60F9211240BB60F92B5
:101F30002F938F939F93EF93FF939091C6002091DF
:101F4000CD05E091CC0581E08E0F8F77281729F021
:101F5000F0E0E453FA4F9283E82FE093CC05FF9131
:101F6000EF919F918F912F910F900BBE0F900FBE0D
:101F70000F901F9018958091640B9091650B891BB1
:101F80008F7019F480E090E008959091610B99238F
:101F900051F0833030F48FEF890F19F08093610B8B
:101FA000F1CF1092610BE091650B87E4E89FF0019F
:101FB0001124ED59F94F808180FDE4CF8091650BAC
:101FC0008F5F8F708093620B9091650B8091630B94
:101FD000981304C08091620B8093630BCF01089526
:101FE0000F930FB70F9300916E000F930B7F009329
:101FF0006E0000916F000D7F00936F000F930BB781
:102000000F930CB70F921F922F933F934F935F93B1
:102010006F937F938F939F93AF93BF93EF93FF93B0
:1020200011240E942F11FF91EF91BF91AF919F91C9
:102030008F917F916F915F914F913F912F911F9061
:102040000F900CBF0F910BBF0F910260F89400939B
:102050006F000F9100936E000F910FBF0F911895B5
:102060008091B50480FF03C089988FEF02C0899AE0
:1020700081E0809362058091B504869580FF03C05E
:102080008F9A8FEF02C08F9881E0809363058091D3
:10209000B5048695869580FF07C080910B018270FC
:1020A000809309018FEF07C080910B0180958270AA
:1020B0008093090181E0809364058091B504869541
:1020C0008695869580FF03C016988FEF02C0169AFA
:1020D00081E080936505089508959091640B809147
:1020E000650B981306C08091B0059091B105892BBE
:1020F00019F00E94EF0AF1CF089590916F0081E0EE
:1021000091FD02C080E0089590916F009D7F9093B3
:102110006F000895EFE6F0E080818260808308958B
:10212000CF92DF92EF92FF92CF93DF93C82F0E945E
:102130007D1094E0C99FE0011124FE01ED52F54F9E
:10214000C080D180E280F38081110E948A10CC553A
:10215000DB4FC701B6010E949F2A288139814A813D
:102160005B810E94FE2ADF91CF91FF90EF90DF907C
:10217000CF900895CF92DF92EF92FF928091610508
:10218000659B02C0816001C08E7F80936105909144
:1021900003018091610591FF02C0826001C08D7FC3
:1021A00080936105809161054B9B02C0846001C0F2
:1021B0008B7F80936105C0909F05C0FE10C0809109
:1021C000B50480FF0CC08091610580FF08C080913C
:1021D000600581608093600580E00E94241DD12C01
:1021E000E12CF12CD701C601B695A7959795879557
:1021F00080FF11C08091B504869580FF0CC080914E
:10220000610581FF08C08091600582608093600550
:1022100081E00E94241D82E0F694E794D794C7944D
:102220008A95D1F7C0FE16C08091B5048695869533
:1022300080FF10C08091610582FF0CC08091600515
:1022400084608093600582E0FF90EF90DF90CF90F4
:102250000C94241DFF90EF90DF90CF9008952F9263
:102260003F924F925F926F927F928F929F92AF9226
:10227000BF92CF92DF92EF92FF920F931F93CF9373
:10228000DF9300D01F92CDB7DEB78FEF9FEF909313
:102290008900809388000AE00983212C312C7894EE
:1022A0008091AA059091AB05A091AC05B091AD05C8
:1022B000892B8A2B8B2B71F08091AA059091AB050D
:1022C000A091AC05B091AD05892B8A2B8B2B09F021
:1022D00008C5DAC18091AE058823D1F01092AE0511
:1022E0008091A8059091A905892B91F01092A905DC
:1022F0001092A80510929F059091640B8091650B38
:10230000981731F08091650B8F5F8F708093650B0C
:102310008091A8059091A905892B71F2C090A40520
:10232000D090A505E090A605F090A7054091A005E6
:102330005091A1056091A2057091A30500919205AD
:1023400010E020E030E0DB01CA018C199D09AE09E4
:10235000BF09081719072A073B0710F4D901C8015C
:10236000E82F8C0D9D1DAE1DBF1D8093A40590937D
:10237000A505A093A605B093A7051B821A82F1E0DC
:10238000C0906A05D0906B05E0906C05F0906D05EB
:1023900080917A0590917B05A0917C05B0917D0597
:1023A000C80ED91EEA1EFB1EC0927A05D0927B058C
:1023B000E0927C05F0927D05F7FC31C080916205CA
:1023C000082E000C990BAA0BBB0B4091D30A50911D
:1023D000D40A6091D50A7091D60A840F951FA61F62
:1023E000B71F8093D30A9093D40AA093D50AB093D1
:1023F000D60A8091660590916705A0916805B09115
:102400006905A7019601281B390B4A0B5B0B20932A
:102410007A0530937B0540937C0550937D050091B0
:102420006E0510916F0520917005309171058091B6
:102430007E0590917F05A0918005B0918105080FE0
:10244000191F2A1F3B1F00937E0510937F052093C1
:1024500080053093810537FD31C080916305082EDA
:10246000000C990BAA0BBB0B4091D70A5091D80ACC
:102470006091D90A7091DA0A840F951FA61FB71FC1
:102480008093D70A9093D80AA093D90AB093DA0A16
:102490008091660590916705A0916805B0916905E6
:1024A000B901A801481B590B6A0B7B0B40937E05B1
:1024B00050937F056093800570938105409172056C
:1024C0005091730560917405709175058091820536
:1024D00090918305A0918405B0918505480F591FFF
:1024E0006A1F7B1F40938205509383056093840588
:1024F0007093850577FD31C080916405082E000C2E
:10250000990BAA0BBB0B8090DB0A9090DC0AA09081
:10251000DD0AB090DE0A880D991DAA1DBB1D8093AF
:10252000DB0A9093DC0AA093DD0AB093DE0A809167
:10253000660590916705A0916805B09169052A012B
:102540003B01481A590A6A0A7B0A40928205509256
:102550008305609284057092850580907605909041
:102560007705A0907805B0907905809186059091C7
:102570008705A0918805B0918905880D991DAA1D30
:10258000BB1D8093860590938705A0938805B09323
:102590008905B7FD31C080906505082C000C9908AD
:1025A000AA08BB084090DF0A5090E00A6090E10A58
:1025B0007090E20A840C951CA61CB71C8092DF0A5E
:1025C0009092E00AA092E10AB092E20A8090660539
:1025D00090906705A0906805B09069052C013D01B9
:1025E000481859086A087B0840928605509287056A
:1025F0006092880570928905F1110CC0A09084004A
:10260000B09085006A807B80A618B708F2E0AF160C
:10261000B104A0F3F7FE889A37FF8E9A77FD06C0C3
:10262000F0910B01F095F870F0930901B7FF149A3F
:1026300040908400509085005B824A82A090840084
:10264000B09085006A807B80A618B708F2E0AF16CC
:10265000B104A0F3F7FE889837FF8E9877FD05C088
:1026600020910B01287020930901B7FF1498EE23E5
:1026700031F040908400509085005B824A82E150A6
:10268000F0E009F07DCE18CEE091A805F091A90503
:10269000309709F4ACC48091A4059091A505A09150
:1026A000A605B091A7054091A0055091A1056091A4
:1026B000A2057091A30584179507A607B707D0F068
:1026C0001092A9051092A80510929F059091640B95
:1026D0008091650B981709F48AC48091650B8F5F10
:1026E0008F708093650B40EDC42E47E0D42EE12C13
:1026F000F12C4EC140919B0550919C0560919D0528
:1027000070919E05481759076A077B0708F467C050
:1027100040919705509198056091990570919A059F
:1027200081A992A9A3A9B4A95524499F612C5A9FB4
:1027300090016A9F300D699F200D311D4A9F600CEA
:10274000211D351D599F600C211D351D689F600C92
:10275000211D351D589F610C251D351D6694251DB5
:10276000351DB49F200D311DB59F300D112482AD54
:1027700093ADA4ADB5AD820F931FA11DB11D809384
:10278000930590939405A0939505B093960506A99B
:1027900017A920AD31AD081719072A073B0740F4E8
:1027A0000093930510939405209395053093960517
:1027B0008090930590909405A0909505B090960513
:1027C00083ED9EE021E0FC01C590D590E590F4906A
:1027D000C814D904EA04FB0408F4D3C2DDC2409152
:1027E0008E0550918F056091900570919105481765
:1027F00059076A077B0708F063C040918A0550912A
:102800008B0560918C0570918D0581A992A9A3A972
:10281000B4A94424499F512C5A9F90016A9F300DBE
:10282000699F200D311D4A9F500C211D341D599F59
:10283000500C211D341D689F500C211D341D589FC4
:10284000510C241D341D5694241D341DB49F200D9D
:10285000311DB59F300D1124C901A0E0B0E080907A
:10286000930590909405A0909505B0909605FE96DE
:1028700088159905AA05BB0580F400811181228184
:102880003381881A990AAA0ABB0A80169106A20601
:10289000B30638F44801590104C080809180A280B9
:1028A000B38083ED9EE021E0FC01C590D590E590DA
:1028B000F490C814D904EA04FB0408F4D5C2DFC2BA
:1028C0008091080290910902A0910A02B0910B0236
:1028D000B7FF56C086A997A9A0ADB1AD23ED3EE0E4
:1028E00041E0F901C590D590E590F490C816D9065D
:1028F000EA06FB0658F4B695A79597958795440F79
:102900002C5F3F4FEEE02F3E3E0759F74093920574
:1029100080329105A105B10508F43CC38097A10957
:10292000B109811508E09007A105B10508F40FC3AE
:1029300014E0919F900111242D52354FF9013296E8
:1029400045915491EE27859FB001849F610D7E1FB4
:1029500006946E1F7E1F1124CB01A0E0B0E0F901A8
:102960004591549160E070E0481B590B6A0B7B0B5A
:10297000409308025093090260930A0270930B027D
:10298000C0900802D0900902E0900A02F0900B0279
:102990008091A8059091A905892B09F09AC10E9400
:1029A000BB0F9093A9058093A805892B09F491C1C9
:1029B0004090A8055090A9055B824A82D2018C9173
:1029C00083FF45C0F201858D968DA78DB0A1418D05
:1029D000528D638D748D058916892789308D0093FA
:1029E000D30A1093D40A2093D50A3093D60A409381
:1029F000D70A5093D80A6093D90A7093DA0A809361
:102A0000DB0A9093DC0AA093DD0AB093DE0A81A171
:102A100092A1A3A1B4A18093DF0A9093E00AA093AE
:102A2000E10AB093E20A1092A9051092A80510924B
:102A30009F059091640B8091650B981709F4AFCFB7
:102A40008091650B8F5F8F708093650BA8CFAA81F3
:102A5000BB815596CD90DD90ED90FC90589781E02C
:102A6000C114D104E104F10409F480E0EA81FB819E
:102A7000018D128D238D348D011511052105310530
:102A800009F08260AA81BB815D964D915D916D9147
:102A90007C919097411551056105710509F084609D
:102AA00080939F0510928A0510928B0510928C05D9
:102AB00010928D0510929705109298051092990525
:102AC00010929A05EA81FB8185A196A1A7A1B0A5E4
:102AD0008093A0059093A105A093A205B093A305B0
:102AE000882499245401881A990AAA0ABB0A809258
:102AF0007A0590927B05A0927C05B0927D0580922C
:102B00007E0590927F05A0928005B092810580920B
:102B1000820590928305A0928405B09285058092EB
:102B2000860590928705A0928805B092890581A0BC
:102B300092A0A3A0B4A0880C991CAA1CBB1CCC0C0E
:102B4000DD1CEE1CFF1CC0926A05D0926B05E09262
:102B50006C05F0926D05000F111F221F331F0093AB
:102B60006E0510936F052093700530937105440F27
:102B7000551F661F771F409372055093730560932E
:102B80007405709375058092760590927705A092F2
:102B90007805B0927905880F991FAA1FBB1F8093F3
:102BA000660590936705A0936805B0936905109238
:102BB000A4051092A5051092A6051092A70581A55F
:102BC00092A5A3A5B4A580939B0590939C05A09383
:102BD0009D05B0939E0585A596A5A7A5B0A9809350
:102BE0008E0590938F05A0939005B093910585A9CC
:102BF0009091B504891721F08093B5040E9430109C
:102C00008091B40481110E94BA1044244A94542C37
:102C10003201409208025092090260920A027092B8
:102C20000B02EA81FB8182AD93ADA4ADB5AD80937B
:102C3000930590939405A0939505B093960523ED85
:102C40003EE041E0F901C590D590E590F490C816BA
:102C5000D906EA06FB0670F4B695A7959795879571
:102C6000440F2C5F3F4F6FEE462E6EE0562E4216FD
:102C7000530641F74093920580329105A105B105B5
:102C800008F4B0C18097A109B1098115F8E09F0748
:102C9000A105B10508F483C104E0909F90011124BF
:102CA0002D52354FF901329645915491EE27859F6B
:102CB000B001849F610D7E1F06946E1F7E1F11243C
:102CC000F901C590D490E12CF12CC61AD70AE1087D
:102CD000F108C092AA05D092AB05E092AC05F09243
:102CE000AD058091AA059091AB05A091AC05B0917E
:102CF000AD058F3F1FEF9107A105B10528F04FEFFC
:102D00005FEF60E070E002C0AC01BD01841B950B79
:102D1000A60BB70B8093AA059093AB05A093AC05C7
:102D2000B093AD05F8948091840090918500409611
:102D3000098101500983002339F0240E351E28161D
:102D4000390608F4ACCA01C01C01309289002092F7
:102D5000880078940F900F900F900F90DF91CF9193
:102D60001F910F91FF90EF90DF90CF90BF90AF90A9
:102D70009F908F907F906F905F904F903F902F909B
:102D80000895B694A79497948794220F04961EE012
:102D90008F3E910709F017CD2093920520E282160D
:102DA0009104A104B10408F459C000E2801A91080A
:102DB000A108B108811418E09106A104B104F8F04B
:102DC00024E0929EC00111248D52954FFC01329651
:102DD00025913491F82DEE27F39FD001F29FA10D9C
:102DE000BE1F0694AE1FBE1F1124FC01C590D490D7
:102DF000E12CF12CCA1ADB0AE108F10822C0D50146
:102E0000C401B695A79597958795FC01EC7FCF01F6
:102E10008D52994FFC01C590D490FC0132962591BA
:102E20003491E82DE770E29FC001E39F900D1124DB
:102E300033E0969587953A95E1F7C81AD90AE12CBF
:102E4000F12C4C0D5D1D6E1D7F1D40939705509319
:102E500098056093990570939A059ACDA0E28A2E01
:102E6000912CA12CB12CA1CFB694A79497948794C0
:102E7000220F04963EE08F3E930709F015CD209374
:102E8000920580E288169104A104B10408F459C0A7
:102E900000E2801A9108A108B108811418E0910697
:102EA000A104B104F8F024E0929EC00111248D52D7
:102EB000954FFC01329625913491F82DEE27F39F22
:102EC000D001F29FA10DBE1F0694AE1FBE1F11249C
:102ED000FC01C590D490E12CF12CCA1ADB0AE10860
:102EE000F10822C0D501C401B695A795979587959D
:102EF000FC01EC7FCF018D52994FFC01C590D4901D
:102F0000FC01329625913491E82DE770E29FC001D3
:102F1000E39F900D112403E0969587950A95E1F7BC
:102F2000C81AD90AE12CF12C4C0D5D1D6E1D7F1DB8
:102F300040938A0550938B0560938C0570938D05A3
:102F400027CDE0E28E2E912CA12CB12CA1CFAC018B
:102F5000BD017695679557954795FA01EC7F9F01DE
:102F60002D52394FF90145915491F90132966591ED
:102F700074918770869F9001879F300D1124C9013D
:102F8000F3E096958795FA95E1F7481B590B60E0B9
:102F900070E0EECC80E290E0A0E0B0E0BFCCAC010D
:102FA000BD017695679557954795FA01EC7F9F018E
:102FB0002D52394FF901C590D490F90132964591BF
:102FC00054918770849F9001859F300D1124C90111
:102FD00003E0969587950A95E1F7C81AD90AE12C7E
:102FE000F12C77CE80E290E0A0E0B0E04BCE80ED17
:102FF000C82E87E0D82EE12CF12CD1CC0F930FB73F
:103000000F9300916E000B7F00936E0078940F93E6
:103010000BB70F930CB70F921F922F933F934F93C1
:103020005F936F937F938F939F93AF93BF93EF9330
:10303000FF9311240E94AD18FF91EF91BF91AF91C2
:103040009F918F917F916F915F914F913F912F91C0
:103050001F900F900CBF0F910BBF0F910460F8945D
:1030600000936E000F910FBF0F9118951092AF054E
:1030700080910602909107020F971816190614F412
:1030800080E090E090934A0B8093490B0E940821C6
:1030900010924B0B2C980895EF92FF920F931F9371
:1030A000CF93C82F7B018A018091B804813059F5F4
:1030B00086E59FE00E94471DC7010E94471D8AEFD9
:1030C0009EE00E94471DC7FD39C08091620688239B
:1030D00061F18F3751F180916206882339F06C2FAE
:1030E000CC0F770B880B990B0E9415098091620613
:1030F000882349F18F3739F180916206882319F0CE
:103100008AE00E94A1080E9436188091B2058111C0
:103110001EC081E08093B20580E88093B80440E04F
:1031200063EF7EE0C8010E94901E6C2F0C2E000CF5
:10313000770B880B990B0E945E0ACDCF86EF9EE03D
:103140000E94471DD3CF8AE00E94EA09D5CFCF91D4
:103150001F910F91FF90EF9008950F931F93CF93BE
:10316000DF9380910E028F3748F08F5790914B0B71
:103170009093CB05992331F02C9A05C09091CB0503
:10318000891708F02C988F5F80930E029091CA05E2
:1031900081E089278093CA0580910D0283301CF459
:1031A000C1E0C80F01C0C0E0813009F471C01CF457
:1031B0008823C1F08DC0823009F476C0833009F0D5
:1031C00087C08091C905811103C087E08093C9053C
:1031D0008091C90581508093C905882309F478C07E
:1031E000C3E076C080910C028F5F80311CF4809325
:1031F0000C026EC010920C028091C80581110BC0A8
:103200008091410B9091420B9093440B8093430B20
:1032100081E08093C8051092420B1092410B0091FF
:10322000430B1091440B1195019511098091490BA5
:1032300090914A0BD1E0181619062CF080914B0B97
:10324000811101C0D0E0809102029091030291951A
:1032500081959109801791073CF44BE75FE068E89E
:103260007FE080E00E944C18DD2391F18091000204
:10327000909101029195819591090817190744F5DC
:103280004AE95FE067EA7FE080E00E944C1820C0D6
:1032900088E080937B0085E480937C0080917A00B5
:1032A000806480937A0014C080917A0086FD0FC0FC
:1032B00080917800909179002091410B3091420BE0
:1032C000820F931F9093420B8093410B01C0C2E089
:1032D000C0930D028091B40481110E94BA108091B4
:1032E000B0059091B105009729F001979093B10531
:1032F0008093B005DF91CF911F910F9108958F9228
:103300009F92AF92BF92CF92DF92EF92FF920F9374
:103310001F93CF93DF93C62E662321F186E59FE0AE
:103320000E94471D80916206D12CE12CF12C88234C
:1033300011F08F3721F4C701B6010E945E0A809117
:103340006206882321F0C701B6010E9415098DE5A8
:103350009FE00E94471D40E060E070E080E090E068
:103360000E94901EF0E4FF2EE12CAE2DB0E0BD01D6
:103370006F0D711D75956795611103C0ECE2F3E067
:1033800006C0E61611F0F6120BC0E8E2F4E0659113
:103390007491072E000C880B990B0E949F2A62C023
:1033A0009B0121503109220F331F220F331FF901D6
:1033B000E65DFC4F05911491AB01440F551F440F7E
:1033C000551FFA01E65DFC4FC591D4918017910716
:1033D00014F4F62ECCCFC817D90714F4E62EC5CFB7
:1033E000F901E45DFC4FE590F490FA01E45DFC4FD7
:1033F000C590D490BC01601B710B072E000C880B8C
:10340000990B0E949F2A4B015C01B6016E197F093E
:10341000072E000C880B990B0E949F2A9B01AC0180
:10342000C501B4010E94FE2A4B015C01C01BD10BF7
:10343000BE01DD0F880B990B0E949F2A9B01AC01F6
:10344000C501B4010E94802C4B015C01B701FF0C47
:10345000880B990B0E949F2A9B01AC01C501B40106
:103460000E94142CDF91CF911F910F91FF90EF904C
:10347000DF90CF90BF90AF909F908F9008952F9244
:103480003F924F925F926F927F928F929F92AF92F4
:10349000BF92CF92DF92EF92FF920F931F93CF9341
:1034A000DF93CDB7DEB72F970FB6F894DEBF0FBE10
:1034B000CDBF8091C805811119C02F960FB6F89421
:1034C000DEBF0FBECDBFDF91CF911F910F91FF9057
:1034D000EF90DF90CF90BF90AF909F908F907F90B4
:1034E0006F905F904F903F902F90089560E0809193
:1034F000430B9091440B0E947F196093450B70938E
:10350000460B8093470B9093480BA8951092C805E3
:103510000E94FC202B013C01609106027091070281
:10352000072E000C880B990B0E949F2A9B01AC016F
:103530006091450B7091460B8091470B9091480B21
:103540000E94282D18160CF4EEC16091490B709161
:103550004A0B072E000C880B990B0E949F2A6B01C7
:103560007C0120915D0B30915E0B40915F0B50917F
:10357000600B0E94982A81117CC020915C0B2983EA
:103580005981523009F493C1533009F4C4C1513008
:1035900009F4D1C1C090450BD090460BE090470B89
:1035A000F090480B6091040270910502072E000C08
:1035B000880B990B0E949F2AA70196010E94982AC6
:1035C00087FF11C06091060270910702072E000C60
:1035D000880B990B0E949F2AA70196010E94282D13
:1035E00018160CF45EC060E060934B0B80913D0BAD
:1035F00090913E0BA0913F0BB091400B0097A1051D
:10360000B10509F45ACFA3019201281B390B4A0BCB
:103610005B0B57FD52CF60913B0B70913C0B80E0F0
:1036200090E00E949D2AA70196010E94282D18165D
:103630000CF09DC148E35FE067E47FE080E02F96F7
:103640000FB6F894DEBF0FBECDBFDF91CF911F91B3
:103650000F91FF90EF90DF90CF90BF90AF909F9031
:103660008F907F906F905F904F903F902F900C9431
:103670004C18C0925D0BD0925E0BE0925F0BF09203
:10368000600B31E0398320E030E0A901C701B601C9
:103690000E94282D18160CF0C0C1498140935C0B84
:1036A0006FCF6091490B70914A0B6115710509F458
:1036B000A0C1072E000C880B990B0E949F2AA7011E
:1036C00096010E94132C4B015C0120E030E040E2A7
:1036D00051EC0E94982A87FD8CC120E030E040E246
:1036E00051E4C501B4010E94282D18160CF497C1AD
:1036F0008091C705811198C18091BF059091C00547
:10370000A091C105B091C20589839A83AB83BC8324
:103710002091C3053091C4054091C5055091C6055F
:103720002D833E834F835887A70196016091B3058F
:103730007091B4058091B5059091B6050E94132C47
:103740002091540B3091550B4091560B5091570BD3
:103750000E94FE2A29813A814B815C810E94132CB0
:1037600020ED3CEC4CE45DE30E94FE2A29813A8185
:103770004B815C810E94142C69837A838B839C83A8
:103780006093BF057093C0058093C1059093C205F7
:103790008091500B9091510BA091520BB091530B13
:1037A00089879A87AB87BC872D813E814F81588559
:1037B000C501B4010E94142C8B018F879E8720E0E5
:1037C00030E0A9010E94982A87FD39C129853A85F0
:1037D0004B855C8560E070E08FE793E40E94802C6D
:1037E0006D837D871C0198014F855E850E94982A14
:1037F00087FF04C00D811D852F863E86C801AF85D9
:10380000BE858093C3059093C405A093C505B0936E
:10381000C60520914C0B30914D0B40914E0B5091B1
:103820004F0BC501B4010E94FE2A4B015C0160935D
:10383000B7057093B8058093B9059093BA059801C0
:103840004F855E8569857A858B859C850E94FE2AD9
:103850009B01AC016093BB057093BC058093BD05D3
:103860009093BE05C501B4010E94142C29813A81B0
:103870004B815C810E94142C20E030E0A9010E9461
:10388000142C4B015C0120E030E0A9010E94982A31
:1038900087FDB2C020E030E04FE753E4C501B4013A
:1038A0000E94282D18160CF0B1C06FE7A6C0C0907A
:1038B000450BD090460BE090470BF090480B809062
:1038C0005D0B90905E0BA0905F0BB090600B20E0C2
:1038D00030E040E850E4C501B4010E94132CA70178
:1038E00096010E94982A18160CF072C00E94FC20C3
:1038F000C090580BD090590BE0905A0BF0905B0B96
:10390000DC01CB018C199D09AE09BF09B7FD42CE80
:1039100083E080935C0B48E15FE068E27FE080E059
:103920000E944C1837CE4BE75FE068E87FE080E00C
:103930000E944C180ACEC090450BD090460BE090E8
:10394000470BF090480B80905D0B90905E0BA09021
:103950005F0BB090600BA5019401C701B6010E94F6
:10396000982A87FD1FCE82E080935C0BB0CFA09099
:10397000490BB0904A0BA114B10409F1C701B6017B
:103980000E94F22C6E5F7F4F34E0A31AB1086A15D3
:103990007B05ACF470933C0B60933B0B0E94FC20C6
:1039A000DC01CB01805E914BAF4FBF4F80933D0B4D
:1039B00090933E0BA0933F0BB093400B7ECD1092A3
:1039C0003D0B10923E0B10923F0B1092400B75CDA9
:1039D0000E94FC20DC01CB01805C9346AF4FBF4FBF
:1039E0008093580B9093590BA0935A0BB0935B0B99
:1039F000D1CD81E08093C70560E0C092B305D0923D
:103A0000B405E092B505F092B605EECDC501B4015E
:103A10000E94F22C75956795F0CF19823ECE81E019
:103A20008093C7056FE7E9CF1092C7051D821E82FC
:103A30001F82188619821A821B821C8275CE00E0B2
:103A400010E01F861E86DACE0E947D1091E09093D2
:103A5000AE0581110C948A100895882321F08130DD
:103A600099F40C94AC098091CC059091CD058917FF
:103A700059F0E92FF0E0E453FA4F82819F5F9F777E
:103A80009093CD0590E008958FEF9FEF08950F93E9
:103A90001F93CF938C01F801C491CC23A1F08091A6
:103AA0006206882311F08F3719F48C2F0E94EA09DF
:103AB00080916206811103C00F5F1F4FECCF8C2FE6
:103AC0000E94A108F9CFCF911F910F9108950F93F4
:103AD0001F93CF93DF938C01C62FD0916206609322
:103AE000620686E59FE00E94471DC8010E94471DAF
:103AF00080916206882311F08F3791F424E0C2028E
:103B0000F0011124E65AF94F60817181828193811D
:103B10000E945E0A8DE00E94EA098AE00E94EA099A
:103B200080916206882371F084E0C802F0011124BC
:103B3000E65AF94F60817181828193810E94150953
:103B40000E94A6098C2F0E942D1D0196D9F7009185
:103B50004E0610914F0617FD68C0802F0093620635
:103B6000002339F00F3729F08091B9048093BA040B
:103B700006C09091CC059093CD058111F5CF82EED2
:103B80009FE00E94471D80916206882311F08F37C5
:103B9000C9F4F801EE0FFF1FEE0FFF1FE65AF94FB1
:103BA00080819181A281B381BC01CD016F5F7F4F84
:103BB0008F4F9F4F0E945E0A8DE00E94EA098AE0C3
:103BC0000E94EA09809162068823A9F0F801EE0FAD
:103BD000FF1FEE0FFF1FE65AF94F80819181A281EE
:103BE000B381BC01CD016F5F7F4F8F4F9F4F0E940C
:103BF00015090E94A609009362068091660B88232E
:103C0000A1F08FED9FE00E94471D809162068823FE
:103C100011F08F3719F48AE00E94EA098091620658
:103C2000882319F08AE00E94A108EC2FEE0FFF0B09
:103C3000EA5AF94F11821082D0936206DF91CF9138
:103C40001F910F910895CF92DF92EF92FF926A0138
:103C50007B010E94471D80916206882311F08F37F7
:103C600029F442E0C701B6010E947A0A80916206F7
:103C7000882349F042E0C701B601FF90EF90DF9042
:103C8000CF900C943109FF90EF90DF90CF90089582
:103C9000CF92DF92EF92FF926A017B010E94471D53
:103CA00080916206882311F08F3721F4C701B60195
:103CB0000E945E0A80916206882341F0C701B60126
:103CC000FF90EF90DF90CF900C941509FF90EF904C
:103CD000DF90CF900895CF93DF93EB010E94471DB3
:103CE00080916206882311F08F3739F4BE010D2EC2
:103CF000000C880B990B0E945E0A80916206882353
:103D000041F0BE01DD0F880B990BDF91CF910C9430
:103D10001509DF91CF91089589ED9FE00C94471D1F
:103D2000C42F0E94361886E59FE00E94471D89EB4C
:103D30009FE00E94471D89EE93E030E6019729F04D
:103D4000232F2A950000E9F7F9CFF89489EE93E044
:103D500038EE019729F0232F2A950000E9F7F9CFD3
:103D60000E943618CC23B9F05F9A8091B6048E7FFA
:103D70008093B6048A9A8091B6048D7F8093B604AE
:103D80008091080180958170809306018091B6042E
:103D90008B7F8093B604129AA895FECF3FB7F89414
:103DA00080916F0B9091700BA091710BB091720B81
:103DB00026B5A89B05C02F3F19F00196A11DB11D86
:103DC0003FBFBA2FA92F982F8827820F911DA11DC1
:103DD000B11DBC01CD0142E0660F771F881F991FFE
:103DE0004A95D1F70895382FEDE9F0E14491E7E5E0
:103DF000F0E12491E1E1F0E19491992309F46CC0A0
:103E0000442309F455C050E0FA013197E231F1053D
:103E100008F04EC08827EC57FF4F8F4F0C940B2CA7
:103E2000809180008F7707C0809180008F7D03C0D4
:103E300080918000877F809380003AC084B58F771F
:103E400002C084B58F7D84BD33C08091B0008F7770
:103E500003C08091B0008F7D8093B00029C0809115
:103E600090008F7707C0809190008F7D03C0809174
:103E70009000877F809390001BC08091A0008F7777
:103E800007C08091A0008F7D03C08091A000877F34
:103E90008093A0000DC0809120018F7707C0809192
:103EA00020018F7D03C080912001877F80932001B6
:103EB000E92FF0E0EE0FFF1FE251F04FA591B49112
:103EC0009FB7F894311104C08C912095282302C02B
:103ED000EC912E2B2C939FBF08954F925F926F927F
:103EE0007F928F929F92AF92BF92CF92DF92EF928A
:103EF000FF920F931F93CF93DF932091030B309189
:103F0000040B4091050B5091060B6091370B70919B
:103F1000380B8091390B90913A0B0E94FE2A0E9437
:103F20002D2D6B017C012091FF0A3091000B4091F7
:103F3000010B5091020B6091330B7091340B809107
:103F4000350B9091360B0E94FE2A0E942D2D4B01BD
:103F50005C012091FB0A3091FC0A4091FD0A5091CE
:103F6000FE0A60912F0B7091300B8091310B909174
:103F7000320B0E94FE2A0E942D2D2B013C01209124
:103F8000F70A3091F80A4091F90A5091FA0A6091C3
:103F90002B0B70912C0B80912D0B90912E0B0E946E
:103FA000FE2A0E942D2D6093730B7093740B8093E7
:103FB000750B9093760B4092770B5092780B609232
:103FC000790B70927A0B80927B0B90927C0BA09273
:103FD0007D0BB0927E0BC0927F0BD092800BE09253
:103FE000810BF092820B9091640B8091650B981776
:103FF00099F18091640B9091650B891B8F708F30C4
:1040000019F40E94EF0AF5CF8091640B8F5F8F70D7
:10401000A091640B97E49A9FD0011124FD01ED5902
:10402000F94FEF0119929A95E9F798E09083A85813
:10403000B94F90E1E3E7FBE001900D929A95E1F72B
:104040002091640B9091650B291303C094E6909323
:10405000610B8093640B46C00E946D100E947D101E
:1040600040917B0B50917C0B60917D0B70917E0B8E
:104070000091770B1091780B2091790B30917A0B8E
:10408000C090730BD090740BE090750BF090760B92
:10409000C092D30AD092D40AE092D50AF092D60AFE
:1040A0000093D70A1093D80A2093D90A3093DA0ADA
:1040B0004093DB0A5093DC0A6093DD0A7093DE0ABA
:1040C00040917F0B5091800B6091810B7091820B1E
:1040D0004093DF0A5093E00A6093E10A7093E20A8A
:1040E000882391F0DF91CF911F910F91FF90EF9076
:1040F000DF90CF90BF90AF909F908F907F906F9008
:104100005F904F900C948A10DF91CF911F910F9187
:10411000FF90EF90DF90CF90BF90AF909F908F90E7
:104120007F906F905F904F9008950F931F93CF9360
:104130008C01C62F0E948C1E8BEE9FE00E94471DB3
:10414000C8010E94471DCC2389F0C0916206CC2390
:1041500041F0CF3731F08AE0CF911F910F910C944D
:10416000A1088AE00E94EA09C111F5CFCF911F9101
:104170000F9108958F929F92AF92BF92CF92DF924C
:10418000EF92FF926B017C010E94CE1E4B015C01FD
:10419000C114D104E104F104F1F00E94CE1EDC014F
:1041A000CB0188199909AA09BB09883E9340A1054A
:1041B000B10570F321E0C21AD108E108F10888EED8
:1041C000880E83E0981EA11CB11CC114D104E10427
:1041D000F10419F7DDCFFF90EF90DF90CF90BF9003
:1041E000AF909F908F90089562E070E080E090E043
:1041F0000E94BA200C943F1A2FB7F89460916B0B71
:1042000070916C0B80916D0B90916E0B2FBF089588
:10421000CF93DF93C091490BD0914A0B209729F19E
:104220006091450B7091460B8091470B9091480B24
:104230000E94F22C6E5F7F4F24976C177D07ACF4C1
:1042400070933C0B60933B0B0E94FC20DC01CB0184
:10425000805E914BAF4FBF4F80933D0B90933E0BD1
:10426000A0933F0BB093400B08C010923D0B1092EF
:104270003E0B10923F0B1092400BDF91CF910895AF
:104280001F920F920FB60F9211242F933F938F938B
:104290009F93AF93BF9380916B0B90916C0BA09108
:1042A0006D0BB0916E0B30916A0B23E0230F2D370D
:1042B00020F40196A11DB11D05C026E8230F02962A
:1042C000A11DB11D20936A0B80936B0B90936C0B17
:1042D000A0936D0BB0936E0B80916F0B9091700B50
:1042E000A091710BB091720B0196A11DB11D80932D
:1042F0006F0B9093700BA093710BB093720BBF91E7
:10430000AF919F918F913F912F910F900FBE0F9082
:104310001F901895CF93DF93CDB7DEB72C970FB6CC
:10432000F894DEBF0FBECDBF789484B5826084BDA3
:1043300084B5816084BD85B5826085BD85B58160A9
:1043400085BD80916E00816080936E001092810027
:1043500080918100826080938100809181008160E2
:1043600080938100809180008160809380008091A3
:10437000B10084608093B1008091B000816080932F
:10438000B0008091910082608093910080919100B3
:104390008160809391008091900081608093900073
:1043A0008091A10082608093A1008091A100816032
:1043B0008093A1008091A00081608093A0008091F3
:1043C000210182608093210180912101816080938D
:1043D00021018091200181608093200180917A00E9
:1043E000846080937A0080917A00826080937A0062
:1043F00080917A00816080937A0080917A00806851
:1044000080937A001092C1001092C0008091C00089
:1044100082608093C0001092C50017E01093C40022
:104420008091C10080618093C1008091C10088604B
:104430008093C1008091C10080688093C1000E9478
:10444000FC201092C8008091C80082608093C80050
:104450001092CD001093CC008091C90080618093B0
:10446000C9008091C90088608093C9008091C9000B
:1044700080688093C9000E94FC200E948C1E8CECF6
:1044800096E00E94471D14B710FF04C083EC96E02D
:104490000E94471D11FF04C082EB96E00E94471D59
:1044A00012FF04C080EA96E00E94471D13FF04C07B
:1044B0008FE896E00E94471D15FF04C08EE796E046
:1044C0000E94471D14BE87E796E00E94471D809119
:1044D0006206882311F08F3719F480E20E94EA09FE
:1044E00080916206882319F080E20E94A1088EE67E
:1044F00096E00E94471D80916206882311F08F3755
:1045000019F48AE00E94EA0980916206882319F072
:104510008AE00E94A1080E948C1E8FE396E00E9410
:10452000471D0E948C1E88E296E00E94471D0E9453
:104530008C1E2091830B3091840BCE0101962115A6
:10454000310519F489589B4002C0821B930B9A8352
:10455000898369817A8189E196E00E946B1E60E718
:1045600074E082E096E00E946B1E809162068823D0
:1045700011F08F3719F48AE00E94EA0980916206EF
:10458000882319F08AE00E94A108A3EEBAE020E097
:1045900030E0C9012430310514F083E090E0880F49
:1045A000991F880F991FFC01E65EFC4F45915591BC
:1045B000659174914D935D936D937D93FC01E65FDE
:1045C000FC4F459155916591749150964D935D9333
:1045D0006D937C935397FC01E650FD4F45915591A7
:1045E0006591749190964D935D936D937C939397A1
:1045F0002F5F3F4F2430310509F0CBCF80E29EE49E
:10460000A0E0B0E08093F30A9093F40AA093F50A37
:10461000B093F60A80E090E8ABE3B5E48093170B23
:104620009093180BA093190BB0931A0B80931B0B4C
:1046300090931C0BA0931D0BB0931E0B80931F0B2C
:104640009093200BA093210BB093220B1092230B7D
:104650001092240B1092250B1092260B1092270B10
:104660001092280B1092290B10922A0B84EF9DEFC9
:10467000A4E5BCE38093470590934805A0934905C2
:10468000B0934A05109258051092590510925A0598
:1046900010925B0510925405109255051092560524
:1046A0001092570510925005109251051092520524
:1046B000109253058AE999E9A1EBB1E480934C0B80
:1046C00090934D0BA0934E0BB0934F0B86EA91E362
:1046D000A5E3BEE38093500B9093510BA093520B34
:1046E000B093530B80E493EFADE2B4E48093540BAA
:1046F0009093550BA093560BB093570B10924F0508
:1047000080E090E0A0EEBFE380934B0590934C05D2
:10471000A0934D05B0934E051092B40480902B0BDE
:1047200090902C0BA0902D0BB0902E0B40902F0B47
:104730005090300B6090310B7090320B8091330BA6
:104740009091340BA091350BB091360B89879A87E5
:10475000AB87BC870E946C1060E5262E65E0362E84
:10476000AFE0B2E0B887AF83EBE3F5E0FC83EB8327
:104770000EEE12E072EEC72E72E0D72EE3E0FE2EB0
:10478000D1016D917D918D919D911D01EF81F885F4
:104790002191319141915191F887EF830E94142C1E
:1047A000AB81BC816D937D938D939D93BC83AB83D3
:1047B000F80185919591A591B491F6018591959116
:1047C000A591B491FA940C5F1F4FB4E0CB0ED11CAD
:1047D000F110D6CF47EFE42E4AE0F42E04EA14E0BD
:1047E00054EBC52E54E0D52EF70121913191419122
:1047F00051917F0160E070E080E89FE30E94802C8F
:10480000D8016D937D938D939D938D01CA16DB0620
:1048100059F70E946D1F0E946C10C0902B0BD09016
:104820002C0BE0902D0BF0902E0BA7019601C501EB
:10483000B4010E94982A81111FC020912F0B309142
:10484000300B4091310B5091320BC301B2010E94E9
:10485000982A811111C02091330B3091340B409173
:10486000350B5091360B69857A858B859C850E9426
:10487000982A882309F498C08091370B9091380BBF
:10488000A091390BB0913A0B8B839C83AD83BE838F
:1048900020913F05309140054091410550914205DE
:1048A00060912F0B7091300B8091310B9091320BF6
:1048B0000E94142C2B013C012091430530914405AA
:1048C00040914505509146056091330B7091340B32
:1048D0008091350B9091360B0E94142C4B015C019A
:1048E00020913B0530913C0540913D0550913E059E
:1048F000C701B6010E94142CAB01BC018DE394E00A
:104900000E94231EB301A20182E394E00E94231EB1
:10491000B501A4018EE294E00E94231E4B815C81CC
:104920006D817E818AE294E00E94231E0E947D10A8
:104930008090D30A9090D40AA090D50AB090D60A5D
:104940004090D70A5090D80A6090D90A7090DA0A3D
:10495000C090DB0AD090DC0AE090DD0AF090DE0A1D
:1049600081110E948A10B501A40186E394E00E949F
:10497000481EB301A20182E394E00E94481EB701E1
:10498000A6018EE294E00E94481E80916206882370
:1049900009F445C48F3709F442C480916206882324
:1049A00019F08AE00E94A1080E948C1E80E494E025
:1049B0000E94471D0E948C1E8BEE95E00E94471DB1
:1049C00085EE95E00E94471D80916206882311F0D4
:1049D0008F3719F48AE00E94EA09809162068823E1
:1049E00019F08AE00E94A10880916206882311F0E4
:1049F0008F3719F48AE00E94EA09809162068823C1
:104A000019F08AE00E94A10860E082ED95E00E9422
:104A1000952010914F05112389F08091620688231B
:104A200011F08F3719F48AE00E94EA09809162063A
:104A3000882341F08AE00E94A10804C087EC95E039
:104A40000E94471D0E948C1E612F70E08EEB95E046
:104A50000E946B1E40914B0550914C0560914D0595
:104A600070914E058BEB95E00E94231E80916206AB
:104A7000882311F08F3719F48AE00E94EA098091A7
:104A80006206882319F08AE00E94A10861E08BEA9F
:104A900095E00E9495200E948C1E4091F70A50914B
:104AA000F80A6091F90A7091FA0A83E694E00E948C
:104AB000231E4091FB0A5091FC0A6091FD0A7091FF
:104AC000FE0A82E895E00E94231E4091FF0A509161
:104AD000000B6091010B7091020B8FE795E00E9433
:104AE000231E4091030B5091040B6091050B7091B4
:104AF000060B8CE795E00E94231E809162068823B6
:104B000011F08F3719F48AE00E94EA098091620659
:104B1000882319F08AE00E94A10861E08EE895E000
:104B20000E9495200E948C1E4091070B5091080B0B
:104B30006091090B70910A0B85E895E00E94231E95
:104B400040910B0B50910C0B60910D0B70910E0B63
:104B500082E895E00E94231E40910F0B5091100BAC
:104B60006091110B7091120B8FE795E00E94231E4C
:104B70004091130B5091140B6091150B7091160B13
:104B80008CE795E00E94231E80916206882311F035
:104B90008F3719F48AE00E94EA098091620688231F
:104BA00019F08AE00E94A10861E08BE595E00E947F
:104BB00095200E948C1E6091E30A7091E40A809116
:104BC000E50A9091E60A0E949D2AAB01BC0182E5AC
:104BD00095E00E94231E6091E70A7091E80A809197
:104BE000E90A9091EA0A0E949D2AAB01BC0182E881
:104BF00095E00E94231E6091EB0A7091EC0A80916F
:104C0000ED0A9091EE0A0E949D2AAB01BC018FE74C
:104C100095E00E94231E6091EF0A7091F00A809146
:104C2000F10A9091F20A0E949D2AAB01BC018CE727
:104C300095E00E94231E80916206882311F08F3731
:104C400019F48AE00E94EA0980916206882319F02B
:104C50008AE00E94A10861E089E095E00E94952029
:104C60000E948C1E4091170B5091180B6091190BEC
:104C700070911A0B80E095E00E94231E40911B0B5F
:104C800050911C0B60911D0B70911E0B8DEF94E0E9
:104C90000E94231E40911F0B5091200B6091210B0D
:104CA0007091220B8AEF94E00E94231E809162068D
:104CB000882311F08F3719F48AE00E94EA09809165
:104CC0006206882319F08AE00E94A10861E086EA62
:104CD00094E00E9495200E948C1E6091F30A7091CE
:104CE000F40A8091F50A9091F60A0E949D2AAB0180
:104CF000BC018DE994E00E94231E4091230B50914A
:104D0000240B6091250B7091260B84EC95E00E949A
:104D1000231E4091270B5091280B6091290B709115
:104D20002A0B8AEF94E00E94231E40914705509180
:104D300048056091490570914A058AE994E00E940E
:104D4000231E80916206882311F08F3719F48AE0C0
:104D50000E94EA0980916206882319F08AE00E9485
:104D6000A10861E08DE894E00E9495200E948C1ECD
:104D70004091500550915105609152057091530535
:104D800084E894E00E94231E4091540550915505FB
:104D9000609156057091570582E895E00E94231EA8
:104DA000409158055091590560915A0570915B05E5
:104DB0008FE795E00E94231E80916206882311F000
:104DC0008F3719F48AE00E94EA09809162068823ED
:104DD00019F08AE00E94A10861E086E794E00E9451
:104DE00095200E948C1E40914C0B50914D0B609170
:104DF0004E0B70914F0B8DE694E00E94231E2CEA1F
:104E000035EC47E25EE36091500B7091510B80915D
:104E1000520B9091530B0E94802CAB01BC018AE68F
:104E200094E00E94231E2CEA35EC47E25EE3609199
:104E3000540B7091550B8091560B9091570B0E941B
:104E4000FE2AAB01BC018BEB95E00E94231E8091F2
:104E50006206811104C08AE00E94EA0902C08F370D
:104E6000D1F380916206882319F08AE00E94A1089C
:104E700020915005309151054091520550915305B4
:104E800060912B0B70912C0B80912D0B90912E0B20
:104E90000E94142C60932B0B70932C0B80932D0B82
:104EA00090932E0B20915405309155054091560555
:104EB0005091570560912F0B7091300B8091310B01
:104EC0009091320B0E94142C60932F0B7093300B37
:104ED0008093310B9093320B2091580530915905F6
:104EE00040915A0550915B056091330B7091340BE2
:104EF0008091350B9091360B0E94142C6093330BEC
:104F00007093340B8093350B9093360B0E946D1F7A
:104F1000249A2C988091010180648093010187ED8F
:104F200080937A0010927E0010927D0080917D0027
:104F3000806280937D0080E888BD80916E008460EF
:104F400080936E006AEF70E080E090E00E94BA20EB
:104F5000E8E2F4E0659174916530710514F465E060
:104F600070E070930502609304026B01770FEE0806
:104F7000FF08009100021091010260E0C8010E9448
:104F80007F194B015C01C701B6010E949F2A9B015A
:104F9000AC01C501B4010E94982A87FF07C0C8016F
:104FA00040979093010280930002E3CFECE2F3E09C
:104FB00065917491615071096431B1E07B0714F01F
:104FC00063E171E070930702609306026B01770F53
:104FD000EE08FF08009102021091030260E0C80190
:104FE0000E947F194B015C01C701B6010E949F2AF4
:104FF0009B01AC01C501B4010E94282D18163CF498
:10500000C80140969093030280930202E3CF6D980B
:10501000759A809104018D7F809304018091050130
:10502000809582708093030153985B9A1092B40428
:10503000819A879A80910A01826080930A010E9A70
:105040003B9A579A5F9A829A8A9A80910701816067
:1050500080930701809108018095817080930601FB
:105060000A9A129A3F9A479A809A88985F9A8091F2
:10507000B6048E7F8093B604869A8E988A9A809121
:10508000B6048D7F8093B60480910A018860809376
:105090000A0180910B0188708093090180910801B9
:1050A00080958170809306018091B6048B7F8093F8
:1050B000B6040C9A1498129A809180008C7F809389
:1050C000800080918100877E88608093810080913C
:1050D00080008F738093800080918100887F826040
:1050E0008093810080E090E4909389008093880011
:1050F00010928500109284000E948A10789482E0B9
:105100008093B5040E94301098E288E10FB6F894BD
:10511000A895809360000FBE9093600081E080931B
:10512000B8041092C8001092CD0080E18093CC00AA
:105130008091C90080618093C9008091C900886016
:105140008093C9008091C90080688093C90000E005
:1051500010E022E0E22EF12CCC24C394D12C0E944A
:10516000EF0A8091B9049091BA04891B8F7709F4F2
:105170004FC00E94AC0920915E0530915F0521155A
:105180003105B9F48634D9F5D0925F05C0925E0539
:105190000E94A1089BE1A92E92E0B92EF501819110
:1051A0005F01882319F00E94A108F8CF0E94A60988
:1051B000D8CF21303105A1F4863409F5F0925F058E
:1051C000E0925E050E94A1088BE2A82E82E0B82E34
:1051D000D5018D915D01882349F30E94A108F8CF84
:1051E0002230310561F480915C0590915D05019656
:1051F00090935D0580935C0504970CF4B2CF1092F8
:105200005D0510925C0510925F0510925E05A9CFB6
:105210000115110509F4A3CF0E940000A0CF8AE078
:105220000E94EA09BACBE8E5FBE010821182128203
:1052300013821482E3E7FBE0148615861686178630
:1052400010861186128613861482158216821782A2
:1052500010821182128213821092650B1092640BDD
:105260001092630B1092620B1092610BE6E6FBE06A
:1052700081E0808381838283838308953F924F926C
:105280005F926F927F928F929F92AF92BF92CF92D6
:10529000DF92EF92FF920F931F93CF93DF935C0106
:1052A0006B017A016115710519F0FB01918380830F
:1052B000E114F10429F0C7010297839708F0E5C0D3
:1052C000E5012196F5011081812F90E00E946C2A62
:1052D000892B11F05E01F4CF1D3229F42196F501DE
:1052E000118101E007C01B3221F4E5012296F5018E
:1052F000118100E0E114F10409F1F0E1EF16F1048D
:1053000029F43FC010E3E114F10421F128E0E21692
:10531000F10401F154F4E2E0EE16F10421F5812CE0
:10532000912CA12CB0E4BB2E3EC0FAE0EF16F104A4
:1053300039F020E1E216F104B1F430C0103319F174
:10534000FAE0EF2EF12CACEC8A2E982CA82CACE0D5
:10535000BA2E29C078E0E72EF12C812C912CA12CBB
:10536000E0E1BE2E20C060E070E080E090E89701B0
:105370000F2C000C440B550B0E94CF2B49015A01F6
:1053800012C0103359F488818F7D883509F0BACF67
:1053900019812296026080E1E82EF12C812C912C5B
:1053A000A12C68E0B62E40E060E070E0CB01270160
:1053B0000F2C000C66087708FE0150ED352E310EDB
:1053C00029E0231570F42FEB210F2A3118F439EC62
:1053D000332E06C02FE9210F2A3118F529EA322E83
:1053E000310E232D30E02E153F05DCF447FD16C0AD
:1053F00086169706A806B90670F0A30192010E94CE
:10540000BF2B630D711D811D911D613071058105DB
:1054100020E8920710F04FEF01C041E02196108183
:10542000CBCF202F2170C114D10471F0442329F077
:105430002197F601D183C08307C001FF19C02297CD
:10544000F601D183C08314C047FF12C0222329F084
:1054500060E070E080E090E804C06FEF7FEF8FEFD6
:105460009FE722E230E03093880B2093870B09C03E
:10547000222381F090958095709561957F4F8F4F95
:105480009F4F462F372F282F12C040E030E020E0FA
:1054900090E00DC097FFF5CF82E290E09093880BEB
:1054A0008093870B6FEF7FEF8FEF9FE7EACF642F3B
:1054B000732F822FDF91CF911F910F91FF90EF906B
:1054C000DF90CF90BF90AF909F908F907F906F9024
:1054D0005F904F903F90089591110C946B2B803208
:1054E00019F089508550C8F70895FB01DC018D91B2
:1054F000059080190110D9F3990B0895FB0155917E
:105500005523A9F0BF01DC014D9145174111E1F789
:1055100059F4CD010590002049F04D9140154111FD
:10552000C9F3FB014111EFCF81E090E001970895AD
:105530000E94DA2A08F481E00895E89409C097FBF4
:105540003EF490958095709561957F4F8F4F9F4F5A
:105550009923A9F0F92F96E9BB279395F69587959E
:1055600077956795B795F111F8CFFAF4BB0F11F461
:1055700060FF1BC06F5F7F4F8F4F9F4F16C0882308
:1055800011F096E911C0772321F09EE8872F762F3E
:1055900005C0662371F096E8862F70E060E02AF07F
:1055A0009A95660F771F881FDAF7880F969587956B
:1055B00097F90895990F0008550FAA0BE0E8FEEF40
:1055C00016161706E807F907C0F012161306E407C7
:1055D000F50798F0621B730B840B950B39F40A26C0
:1055E00061F0232B242B252B21F408950A2609F49E
:1055F000A140A6958FEF811D811D08950E94112B5A
:105600000C94852B0E94772B38F00E947E2B20F083
:10561000952311F00C946E2B0C94742B11240C9484
:10562000B92B0E94962B70F3959FC1F3950F50E014
:10563000551F629FF001729FBB27F00DB11D639F44
:10564000AA27F00DB11DAA1F649F6627B00DA11DEA
:10565000661F829F2227B00DA11D621F739FB00D90
:10566000A11D621F839FA00D611D221F749F332700
:10567000A00D611D231F849F600D211D822F762F99
:105680006A2F11249F5750409AF0F1F088234AF076
:10569000EE0FFF1FBB1F661F771F881F91505040E2
:1056A000A9F79E3F510580F00C946E2B0C94B92BFA
:1056B0005F3FE4F3983ED4F3869577956795B79569
:1056C000F795E7959F5FC1F7FE2B880F911D969583
:1056D000879597F9089599278827089597F99F67DF
:1056E00080E870E060E008959FEF80EC089500246A
:1056F0000A941616170618060906089500240A9437
:1057000012161306140605060895092E0394000CBC
:1057100011F4882352F0BB0F40F4BF2B11F460FF4B
:1057200004C06F5F7F4F8F4F9F4F089557FD905874
:10573000440F551F59F05F3F71F04795880F97FB55
:10574000991F61F09F3F79F087950895121613060F
:105750001406551FF2CF4695F1DF08C0161617063E
:105760001806991FF1CF8695710561050894089573
:10577000E894BB2766277727CB0197F90895DB01CB
:105780008F939F930E94F12BBF91AF91A29F800DA9
:10579000911DA39F900DB29F900D11240895A1E239
:1057A0001A2EAA1BBB1BFD010DC0AA1FBB1FEE1F9B
:1057B000FF1FA217B307E407F50720F0A21BB30BE6
:1057C000E40BF50B661F771F881F991F1A9469F762
:1057D00060957095809590959B01AC01BD01CF01BE
:1057E00008950E94FC2BA59F900DB49F900DA49F3F
:1057F000800D911D11240895A29FB001B39FC00197
:10580000A39F700D811D1124911DB29F700D811DEC
:105810001124911D0895EE0FFF1F881F8BBF079065
:10582000F691E02D19945058BB27AA270E942B2CE3
:105830000C94852B0E94772B38F00E947E2B20F051
:1058400039F49F3F19F426F40C94742B0EF4E09570
:10585000E7FB0C946E2BE92F0E94962B58F3BA1796
:10586000620773078407950720F079F4A6F50C9476
:10587000B82B0EF4E0950B2EBA2FA02D0B01B90119
:1058800090010C01CA01A0011124FF27591B99F0B6
:10589000593F50F4503E68F11A16F040A22F232FC2
:1058A000342F4427585FF3CF469537952795A79512
:1058B000F0405395C9F77EF41F16BA0B620B730BB9
:1058C000840BBAF09150A1F0FF0FBB1F661F771F2A
:1058D000881FC2F70EC0BA0F621F731F841F48F4DF
:1058E000879577956795B795F7959E3F08F0B0CF68
:1058F0009395880F08F09927EE0F9795879508954F
:105900000E94942C0C94852B0E947E2B58F00E94B0
:10591000772B40F029F45F3F29F00C946E2B511146
:105920000C94B92B0C94742B0E94962B68F399233A
:10593000B1F3552391F3951B550BBB27AA2762178B
:105940007307840738F09F5F5F4F220F331F441F98
:10595000AA1FA9F335D00E2E3AF0E0E832D09150CC
:105960005040E695001CCAF72BD0FE2F29D0660FB9
:10597000771F881FBB1F261737074807AB07B0E8FC
:1059800009F0BB0B802DBF01FF2793585F4F3AF002
:105990009E3F510578F00C946E2B0C94B92B5F3F11
:1059A000E4F3983ED4F3869577956795B795F79588
:1059B0009F5FC9F7880F911D9695879597F9089570
:1059C000E1E0660F771F881FBB1F6217730784070C
:1059D000BA0720F0621B730B840BBA0BEE1F88F71B
:1059E000E09508950E94F92C6894B1110C94B92B9C
:1059F00008950E949E2B88F09F5798F0B92F992701
:105A0000B751B0F0E1F0660F771F881F991F1AF0A9
:105A1000BA95C9F714C0B13091F00E94B82BB1E02B
:105A200008950C94B82B672F782F8827B85F39F02A
:105A3000B93FCCF3869577956795B395D9F73EF442
:105A400090958095709561957F4F8F4F9F4F0895EA
:105A50000E94DA2A08F48FEF08950E949E2B58F1D5
:105A60009E5760F19851A0F0E9F0983020F5092E8A
:105A70009927660F771F881F991F0A94D1F712C0C4
:105A8000062E672F782F8827985F11F4000C07C027
:105A9000993FB4F38695779567959395D9F7611DEE
:105AA000711D811D3EF490958095709561957F4F95
:105AB0008F4F9F4F089568940C94B92B0C94B82B7A
:105AC00019F416F40C94742B0C94A62D0E949E2BA2
:105AD000B8F39923C9F3B6F39F57550B87FF0E947C
