:100000000C94250C0C94560C0C94560C0C94560C19
:100010000C94560C0C94560C0C94560C0C94560CD8
:100020000C94560C0C94560C0C94560C0C94560CC8
:100030000C94560C0C94560C0C94560C0C94560CB8
:100040000C94560C0C942F330C94560C0C94560CA8
:100050000C94560C0C94560C0C941C4E0C94DA53C5
:100060000C94560C0C94E9320C94DF320C94560C20
:100070000C94560C0C94560C0C94560C0C94560C78
:100080000C94560C0C94560C0C94560C0C94560C68
:100090000C94560C0C94560C0C94560C0C94560C58
:1000A0000C94560C0C94560C0C94560C0C94560C48
:1000B0000C94560C0C94560C0C94560C0C94560C38
:1000C0000C94560C0C94560C0C94560C0C94560C28
:1000D0000C94560C0C94560C0C94560C0C94560C18
:1000E0000C94560C813086308B3095309F3018310F
:1000F000A930B130B930C330CD30D730E630F03030
:100100001831FA3004310E31A05AA35A925A965A35
:100110009A5ADA5AA75AAB5AB15AB55AB95ABF5A6B
:10012000C35AC75ADA5ACD5AD15AD55A084AD73B78
:100130003BCE016E84BCBFFDC12F3D6C74319ABDB6
:1001400056833DDA3D00C77F11BED9E4BB4C3E91DA
:100150006BAAAABE000000803F05A84CCDB2D44EC9
:10016000B93836A9020C50B9918688083CA6AAAACB
:100170002ABE000000803F000C94A9300C94183176
:100180000C9481300C94B1300C94925A0C94B95A5E
:100190000C94D7300C94A35A0C9495300C949F3047
:1001A0000C94B55A0C94235F0C94CD300C94A75A40
:1001B0000C94F0300C94E6300C948B300C94C35AB1
:1001C0000C94C3300C94965A0C9404310C94B15A8C
:1001D0000C94D15A0C94CD5A0C9486300C949A5AA3
:1001E0000C94A05A0C94DA5A0C94FA300C94BF5A1E
:1001F0000C94D55A0C940E310C94B9300C94AB5A23
:100200000C94C75A4E414E494E495459494E46CD19
:10021000CCCC3D0AD7233C17B7D13877CC2B3295BD
:1002200095E6241FB14F0A000020410000C842009B
:10023000401C4620BCBE4CCA1B0E5AAEC59D744322
:100240004F4D4D554E49434154494F4E004452592C
:1002500052554E004552524F525300494E464F00A0
:100260004543484F006F6B00454550524F4D206449
:10027000697361626C65640A00486F6D652025735F
:100280002573257320466972737400546F6F20665E
:1002900061722066726F6D207265666572656E634D
:1002A0006520706F696E740A0023646566696E6507
:1002B0002044454641554C545F004B6420004B6937
:1002C00020004B702000504944204175746F7475B4
:1002D0006E652066696E6973686564212050757467
:1002E00020746865206C617374204B702C204B69FE
:1002F00020616E64204B6420636F6E7374616E7452
:10030000732066726F6D2062656C6F7720696E7402
:100310006F20436F6E66696775726174696F6E2EC8
:10032000680A00504944204175746F74756E6520E9
:100330006661696C6564212074696D656F75740A06
:1003400000544845524D414C2052554E4157415959
:1003500000546865726D616C2052756E61776179C9
:100360000048656174696E67204661696C65640068
:1003700048656174696E67206661696C6564000A2E
:1003800020436C617373696320504944200A002044
:100390004B643A2000204B693A2000204B703A20F1
:1003A000002054753A2000204B753A2000206D61E2
:1003B000783A2000206D696E3A200020643A2000CF
:1003C00020626961733A2000504944204175746F7E
:1003D00074756E652073746172740A00504944200C
:1003E0004175746F74756E65206661696C65642112
:1003F0002054656D706572617475726520746F6FDD
:1004000020686967680A00504944204175746F7418
:10041000756E65206661696C6564212042616420A7
:100420006578747275646572206E756D6265720AA6
:10043000006469730043290A0061626C65642028C6
:100440006D696E2074656D702000436F6C6420656B
:100450007874727564657320617265200020643A57
:100460000020693A0020703A00496E76616C696438
:100470002065787472756465720A0020466C6F7727
:100480003A200046523A00205A0020590020204DC0
:1004900061783A200020204D696E3A2000536F6643
:1004A0007420656E6473746F70733A20003F4A2045
:1004B0006F7574206F662072616E67652028302E1C
:1004C000303120746F20302E33290A002054002050
:1004D0005200416363656C65726174696F6E3A20A6
:1004E00050002F2F20004348414D4245525F544554
:1004F0004D50455241545552450042414259535482
:10050000455050494E470041524353004D4F5449C6
:100510004F4E5F4D4F44455300544845524D414C5A
:100520005F50524F54454354494F4E004C4F4E4735
:100530005F46494C454E414D45004155544F52454B
:10054000504F52545F53445F5354415455530053DA
:1005500044434152440050524F4D50545F53555004
:10056000504F525400454D455247454E43595F50F8
:10057000415253455200434153455F4C494748540B
:100580005F4252494748544E45535300544F4747E2
:100590004C455F4C494748545300534F46545741CC
:1005A00052455F504F574552004255494C445F50A9
:1005B000455243454E54004C4556454C494E475FC5
:1005C00044415441005A5F50524F42450052554EEB
:1005D0004F5554004155544F4C4556454C005052D0
:1005E000494E545F4A4F420050524F475245535371
:1005F000004155544F5245504F52545F54454D5051
:1006000000564F4C554D45545249430045455052B4
:100610004F4D0042494E4152595F46494C455F5447
:1006200052414E534645520053455249414C5F5842
:100630004F4E5F584F4646004649524D574152452E
:100640005F4E414D453A4D61726C696E20322E30DD
:100650002E372E3220284E6F762031332032303222
:10066000302032303A31353A34342920534F555204
:1006700043455F434F44455F55524C3A687474702C
:10068000733A2F2F6769746875622E636F6D2F4DF3
:1006900061726C696E4669726D776172652F4D612A
:1006A000726C696E2050524F544F434F4C5F564509
:1006B0005253494F4E3A312E30204D414348494E16
:1006C000455F545950453A3344205072696E746501
:1006D000722045585452554445525F434F554E542D
:1006E0003A3120555549443A636564653261326652
:1006F0002D343161322D343734382D396231322D79
:100700006335356336326633363766660A004D31F7
:1007100031332053004D3131322053687574646F8A
:10072000776E006F66660044454255473A00205791
:100730003A002569792025696420256968202569A2
:100740006D20256973005072696E742074696D653F
:100750003A200047322F4733206261642070617273
:10076000616D65746572730A00FFFFFF0000000091
:10077000000000000000000060025B0254024D0215
:100780003F0200004842000048420000804045729D
:10079000726F723A00204D393220580020496E762F
:1007A000616C6964206578747275646572200043B9
:1007B00061703A00526573656E643A20006F70652F
:1007C0006E00545249474745524544007A5F6D696F
:1007D0006E00795F6D696E00785F6D696E005265BD
:1007E000706F7274696E6720656E6473746F7020C9
:1007F0007374617475730A00486F6D696E67204683
:1008000061696C65640000002100240027002A0053
:100810002D003000330001010000040107010A012E
:100820002121204B494C4C20636175736564206223
:100830007920746F6F206D75636820696E616374D1
:100840006976652074696D65202D20637572726507
:100850006E7420636F6D6D616E643A20004D3431AB
:1008600030004D313132004D313038005072696EF8
:100870007465722073746F70706564206475652090
:10088000746F206572726F72732E204669782074BF
:100890006865206572726F7220616E642075736581
:1008A000204D39393920746F207265737461727408
:1008B0002E202854656D70657261747572652069AB
:1008C000732072657365742E2053657420697420DB
:1008D00061667465722072657374617274696E67A3
:1008E000290A004E6F20436865636B73756D20772E
:1008F000697468206C696E65206E756D6265722C16
:10090000204C617374204C696E653A200063686501
:10091000636B73756D206D69736D617463682C20F2
:100920004C617374204C696E653A20004C696E65A9
:10093000204E756D626572206973206E6F74204C55
:10094000617374204C696E65204E756D6265722B03
:10095000312C204C617374204C696E653A20004D37
:1009600031313000627573793A2070617573656456
:1009700020666F7220696E7075740A0062757379F3
:100980003A2070617573656420666F7220757365B7
:10099000720A00627573793A2070726F63657373BF
:1009A000696E670A005072696E7465722068616CC6
:1009B0007465642E206B696C6C28292063616C6CF3
:1009C0006564210A006563686F3A000000484300CF
:1009D000004843000048430000964300009643004F
:1009E00000A0400000C8410000A0420000A042005A
:1009F000007A450000FA43B80B0000B80B00006411
:100A00000000001027000024F4D43050C38E20C210
:100A1000A24017828B7011127A910D816CD90AA8AD
:100A200061E108C7586607615143061E4B5D05C169
:100A300045A7041A411104093D9803713931034057
:100A400036DB0265339102D4305402802E1D0263DE
:100A50002CEE01752AC501B028A001102781018F55
:100A60002564012B244B01E0223401AC211F018DB0
:100A7000200D01801FFC00841EED00971DDF00B8D3
:100A80001CD200E61BC600201BBC00641AB200B2D8
:100A900019A8000A19A0006A189900D117910040FE
:100AA000178B00B516840031167E00B31579003A15
:100AB000157300C7146F0058146A00EE136600889F
:100AC00013630025135E00C7125B006C12570015FC
:100AD000125400C111510070114F0021114B00D66A
:100AE0001049008D1047004610440002104200C01B
:100AF0000F4000800F3E00420F3C00060F3B00CB32
:100B00000E3800930E37005C0E3500270E3400F3CC
:100B10000D3200C10D3100900D3000600D2E0032FD
:100B20000D2D00050D2C00D90C2B00AE0C290085D5
:100B30000C29005C0C2700350C27000E0C2600E861
:100B40000B2400C40B2400A00B23007D0B23005AB0
:100B50000B2100390B2100180B2000F80A1F00D9C7
:100B60000A1E00BB0A1E009D0A1D00800A1D0063AC
:100B70000A1C00470A1B002C0A1B00110A1A00F766
:100B8000091A00DD091900C4091900AB09190092FE
:100B90000917007B091800630917004C0916003675
:100BA000091600200916000A091500F5081500E0CD
:100BB000081400CC081400B8081400A4081400900D
:100BC0000813007D0812006B081300580812004635
:100BD0000812003408110023081100120811000146
:100BE000081100F0071000E0071000D0071000C047
:100BF000071000B0070F00A107100091070E008337
:100C0000070F0074070F0065070E0057070E004915
:100C1000070E003B070D002E070E0020070D0013E6
:100C2000070D0006070D00F9060C00ED060D00E0AB
:100C3000060C00D4060C00C8060C00BC060C00B064
:100C4000060C00A4060B0099060C008D060B008212
:100C5000060B0077060B006C060B0061060A0057B6
:100C6000060B004C060A0042060A0038060A002E4F
:100C7000060A0024060A001A060A001006090007E0
:100C8000060A00FD050900F4050900EB050900E26C
:100C9000050900D9050900D0050900C7050900BEEE
:100CA000050900B5050800AD050800A50509009C6B
:100CB000050800940508008C050800840508007CE0
:100CC000050800740508006C050700650508005D4F
:100CD000050700560508004E0507004705070040B8
:100CE00005080038050700310507002A050700231D
:100CF0000507001C050600160507000F050700087C
:100D000005060002050700FB040600F5040700EED7
:100D1000040600E8040600E2040700DB040600D530
:100D2000040600CF040600C9040600C3040600BD83
:100D3000040600B7040600B1040500AC040600A6D2
:100D4000040600A00405009B04060095040500901D
:100D50000406008A04050085040500800406007A64
:100D600004050075040500700405006B04050066A9
:100D7000040500610405005C0405005704050052E9
:100D80000405004D04050048040500430405003E29
:100D90000404003A04050035040500300404002C66
:100DA00004050027040400230405001E0404001A9F
:100DB00004040016040500110404000D04040009D5
:100DC0000405000404040000040400FC030400F80B
:100DD000030400F4030400F0030400EC030400E83F
:100DE000030400E4030400E0030400DC030400D86F
:100DF000030400D4030400D0030400CC030400C89F
:100E0000030300C503030024F404D9201BC40C5CB5
:100E10000E9804C4095F0265077101F405F900FB2F
:100E200004B30048048700C1036900580355000358
:100E3000034500BE023A008402310053022A002911
:100E400002250004022000E4011C00C8011900AFC3
:100E50000117009801140084011300710110006152
:100E600001100051010E0043010D0036010B002B53
:100E7000010B0020010B00150109000C0109000302
:100E8000010800FB000800F3000800EB000700E485
:100E9000000600DE000600D8000600D2000600CCE6
:100EA000000500C7000500C2000500BD000400B930
:100EB000000400B5000400B1000400AD000400A966
:100EC000000400A5000300A20003009F0004009B93
:100ED00000030098000300950002009300030090B7
:100EE0000003008D0002008B0003008800020086D2
:100EF00000020084000300810002007F0002007DE8
:100F00000002007B000200790002007700010076F9
:100F10000002007400020072000100710002006F04
:100F20000002006D0001006C0002006A000100690F
:100F30000002006700010066000100650001006416
:100F40000002006200010061000100600001005F1A
:100F50000002005D0001005C0001005B0001005A1E
:100F6000000100590001005800010057000100561F
:100F7000000100550001005400010053000000531F
:100F80000001005200010051000100500001004F1B
:100F90000001004E0000004E0001004D0001004C19
:100FA0000001004B0000004B0001004A0001004915
:100FB0000001004800000048000100470001004611
:100FC000000000460001004500000045000100440B
:100FD0000001004300000043000100420000004205
:100FE0000001004100000041000100400001003FFD
:100FF0000000003F0001003E0000003E0001003DF7
:101000000000003D0001003C0000003C0000003CEE
:101010000001003B0000003B0001003A0000003AE4
:1010200000010039000000390001003800000038DC
:1010300000000038000100370000003700010036D2
:1010400000000036000000360001003500000035C9
:1010500000000035000100340000003400000034BE
:1010600000010033000000330000003300010032B3
:1010700000000032000000320001003100000031A9
:10108000000000310001003000000030000000309E
:101090000001002F0000002F0000002F0000002F93
:1010A0000001002E0000002E0000002E0001002D87
:1010B0000000002D0000002D0000002D0001002C7C
:1010C0000000002C0000002C0000002C0001002B70
:1010D0000000002B0000002B0000002B0001002A64
:1010E0000000002A0000002A0000002A0001002958
:1010F000000000290000002900000029000000294C
:10110000000100280000002800000028000000283E
:101110000000002800010027000000270000002731
:101120000000002700000027000100260000002624
:101130000000002600000026000000260001002517
:10114000000000250000002500000025000000250B
:1011500000000025000100240000002400000024FD
:1011600000000024000000240001002300000023F0
:1011700000000023000000230000002300000023E3
:1011800000000023000100220000002200000022D5
:1011900000000022000000220000002200010021C7
:1011A00000000021000000210000002100000021BB
:1011B00000000021000000210001002000000020AC
:1011C000000000200000002000000020000000209F
:1011D00000000020000000200001001F0000001F90
:1011E0000000001F0000001F0000001F0000001F83
:1011F0000000001F0001001E0000001E0000001E75
:101200000000001E000000043700001E29000051ED
:101210001B00005810000010090000CC04000078EA
:101220000200004101000048617264636F646564FC
:101230002044656661756C742053657474696E67CB
:1012400073204C6F616465640A003B2000204900F4
:1012500020204D33303120500050494420736574B4
:1012600074696E67733A0020204D32303620580082
:10127000486F6D65206F66667365743A00204A009A
:1012800020204D323035204200416476616E636526
:10129000643A20423C6D696E5F7365676D656E747C
:1012A0005F74696D655F75733E20533C6D696E5F59
:1012B00066656564726174653E20543C6D696E5F5D
:1012C00074726176656C5F66656564726174653EB3
:1012D000204A3C6A756E635F6465763E0020204D4F
:1012E000323034205000416363656C65726174690B
:1012F0006F6E2028756E6974732F7332293A2050EF
:101300003C7072696E745F616363656C3E20523C31
:10131000726574726163745F616363656C3E2054CF
:101320003C74726176656C5F616363656C3E00203E
:10133000204D3230312058004D6178696D756D2037
:10134000416363656C65726174696F6E2028756EA8
:101350006974732F7332293A0020450020204D32E2
:1013600030332058004D6178696D756D2066656574
:101370006472617465732028756E6974732F7329A4
:101380003A0053746570732070657220756E6974CD
:101390003A0020440020204D3230302053002044B9
:1013A000697361626C65640A0046696C616D656EA3
:1013B000742073657474696E67733A0020286D6DCC
:1013C00029002020473231202020203B20556E6903
:1013D000747320696E206D6D0020746F6F206C6FC8
:1013E0006E6720657874727573696F6E20707265B0
:1013F00076656E7465640A0020636F6C642065789E
:1014000074727573696F6E2070726576656E74653F
:10141000640A00DB0FC93F45BCDA3F8FB30240FCD2
:10142000F0274056946140FE4B9B4084A5D840E095
:10143000231841346A5641E859974164DBD5416E1F
:10144000271742B4B75542CE1A9742C8AED542B517
:10145000885A43D40684BFA65FA7BF7443E0BF1079
:10146000B11AC01C2C58C0E8F697C0B849D6C04E77
:101470004E17C124D355C1802497C1A0B5D5C11240
:101480001A17C244AE55C2781797C26CACD5C26762
:10149000885AC320436F756E7420583A0045310056
:1014A000626564002C2073797374656D2073746FAA
:1014B0007070656421204865617465725F49443AC3
:1014C0002000202D20496E76616C69642065787457
:1014D0007275646572206E756D62657220210A00F6
:1014E0004572723A204D415854454D50004D415877
:1014F00054454D5020747269676765726564004594
:1015000072723A204D494E54454D50004D494E544B
:10151000454D502074726967676572656400202FBD
:101520000020403A0070012C0190012701B00122F7
:1015300001C0011D01F00118011002130130020E5B
:10154000016002090190020401C002FF000003FAD9
:10155000004003F5008003F000D003EB002004E618
:10156000007004E100E004DC004005D700C005D2B3
:10157000004006CD00D006C8008007C3003008BE7A
:1015800000F008B900C009B400B00AAF00B00BAA5F
:1015900000D00CA500000EA000500F9B00C01096BC
:1015A000005012910000148C00C0158700B0178203
:1015B00000B0197D00D01B7800001E730040206E23
:1015C0000090226900F024640040275F0090295AAF
:1015D00000E02B5500102E500020304B00103246FA
:1015E00000E033410090353C00103737007038324E
:1015F00000A0392D00B03A2800A03B2300603C1E1B
:1016000000103D1900903D1400103E0F00703E0A7E
:1016100000C03E0500003F0000403FFBFF803FF65A
:10162000FFC03FF1FF2020506C616E6E6572427505
:101630006666657242797465733A20002046726569
:1016400065204D656D6F72793A2000436F6D70694A
:101650006C65643A204E6F76203133203230323060
:101660000A00204C61737420557064617465643A9B
:1016700020323032302D31302D3135207C204175F3
:1016800074686F723A2033444350205465616D0A88
:1016900000322E302E372E320A004D61726C696E88
:1016A0000020536F667477617265205265736574AC
:1016B0000A00205761746368646F67205265736520
:1016C000740A002042726F776E206F757420526525
:1016D0007365740A002045787465726E616C2052DF
:1016E000657365740A00506F77657255700A0065FE
:1016F0006E6473746F7073206869743A2000426975
:10170000736D696C6C61680A005761726E696E670F
:101710003A20486F6D696E672042756D702044698C
:101720007669736F72203C20310A000202040000C7
:10173000A0400000A04000000040220A00556E6B4F
:101740006E6F776E20636F6D6D616E643A2022005C
:1017500020453A00205A3A0020593A000000220061
:10176000250028002B002E0031003400020100006B
:10177000050108010B01050505050705080808080E
:10178000020202020A0A0808040404040101010119
:101790000101010103030303030303030407070714
:1017A0000C0C0C0C0C0C0C0C0202020206060606B9
:1017B000060606060B0B0B0B0B0B0B0B0102102086
:1017C0002008081020401020408002010201080477
:1017D000020101020408102040808040201008040B
:1017E0000201800402018040201008040201080464
:1017F00002010102040810204080010204081020A8
:10180000408000000A0B02090C0D0E0807030401BA
:1018100000000000000000000000000000000000C8
:101820000000000000000000000000000000121195
:101830001000000000000000000000000000000098
:101840000000000000000000235F11241FBECFEF46
:10185000D1E2DEBFCDBF00E00CBF12E0A0E0B2E0FD
:10186000E0E2F6ED00E00BBF02C007900D92A43558
:10187000B107D9F72BE0A4E5B2E001C01D92AB3966
:10188000B207E1F71CE0C5E2DCE000E006C021970A
:101890000109802FFE010E94C967C432D10780E090
:1018A0000807A9F70E94C35B0C940E6B0C94000010
:1018B0002F923F924F925F926F927F928F929F9260
:1018C000AF92BF92CF92DF92EF92FF920F931F934E
:1018D000CF93DF93CDB7DEB7C557D1090FB6F894D4
:1018E000DEBF0FBECDBF2091AF02A4962FAFA4974D
:1018F00021E02093AF028091AE028D3409F46EC2D4
:10190000843511F40C94D61B873411F00C94FB1B16
:101910002090AC023090AD0234E02316310409F47B
:1019200095C154F437FC56C28091AA0252E02516A4
:1019300031040CF0FFC02FC08AE52816310409F4E9
:10194000D4C164F4A5E12A16310411F40C94FD1BF2
:10195000BCE12B16310409F4B8C13CC2EBE52E16EC
:10196000310409F4C6C1FCE52F16310409F032C276
:10197000F9E42F2EF2E03F2EA5E8EA2EA2E0FA2E9F
:10198000A3E4BBE0BB8FAA8FB3E5CB2EBBE0DB2E7D
:1019900000E010E0EFC1813011F00C94FD1B0E94BB
:1019A000572A8AE992E00E94BD258091D80883FDDC
:1019B00085C020914F0B3091500B4091510B5091AD
:1019C000520B6091A6027091A7028091A80290919B
:1019D000A9020E946963882309F470C080914E04B3
:1019E00081111BC06091530470915404809155047F
:1019F000909156040E94506920913802309139022A
:101A0000215031096217730744F40E94C52C88EFF6
:101A100093E10E94B62C11E001C010E020914F0B21
:101A20003091500B4091510B5091520B6091A60296
:101A30007091A7028091A8029091A9020E94E36789
:101A40006B017C0120E030E0A9010E94446A87FF1D
:101A500004C0F7FAF094F7F8F09420913402309132
:101A600035024091360250913702C701B6010E94FB
:101A7000CF6320E030E048E453E40E94446A181643
:101A80003CF40E94C52C89ED93E10E94B62C02C063
:101A90001123A1F08091A6029091A702A091A80223
:101AA000B091A90280934F0B9093500BA093510BD0
:101AB000B093520B86EA92E00E9485572AE037EDF8
:101AC00043E25CE360912C0270912D0280912E0222
:101AD00090912F020E94CF636B017C0160912A02DA
:101AE00070912B02072E000C880B990B0E947063DB
:101AF0009B01AC01C701B6010E94CF6369837A8361
:101B00008B839C838E010F5F1F4F26EA32E042EAEF
:101B100052E06EE972E08AE992E00E94695B80E13E
:101B2000EAE9F2E0A3E4BBE001900D928A95E1F7C7
:101B30000C94FD1B813011F00C94FD1B0E94572A60
:101B400082E50E944A2A882309F44EC00E94C529D2
:101B50006B017C0120E030E0A9010E9469638823C9
:101B600011F40C94D21C2091430B3091440B409102
:101B7000450B5091460B2A8F3B8F4C8F5D8F809188
:101B8000470B9091480BA091490BB0914A0B8E8F57
:101B90009F8FA8A3B9A380909A0290909B02A090D7
:101BA0009C02B0909D0240909E0250909F026090D7
:101BB000A0027090A102A50194016A8D7B8D8C8D8D
:101BC0009D8D0E94696381110C94131CA3019201E5
:101BD0006E8D7F8D88A199A10E946963882311F47D
:101BE0000C94D21C0C94131C89E40E944A2A88236A
:101BF00029F00E94C5296B017C0103C0C12CD12CA6
:101C000076018AE40E944A2A882311F40C94D91C94
:101C10000E94C5296AA37BA38CA39DA320E030E08A
:101C2000A901C701B6010E94696381110C94E61CE9
:101C300020E030E0A9016AA17BA18CA19DA10E94B6
:101C4000696381110C94E61C0C94D21C80E50E94FF
:101C50004A2A882379F08091940290919502009706
:101C600049F04AE050E060E070E00E94E0616B0102
:101C70007C0103C0C12CD12C760183E50E944A2A45
:101C8000882361F00E94C52920E030E04AE754E44F
:101C90000E94CF630E9457696B017C010E94AA5485
:101CA0000E94CE53C60ED71EE81EF91E0E94CE53C8
:101CB000DC01CB018C199D09AE09BF09B7FD02C03B
:101CC0000C94FD1B0E94172EF1CF80919302877018
:101CD000873011F00C94862060E08FE40E94092B7D
:101CE00081110C94FD1B0C9486201092AB020C9475
:101CF000FD1B8FE08093AB020C94FD1B0E94C52955
:101D00002B013C01133049F0D6012D913D914D91AD
:101D10005C910E94E3672B013C01EA8DFB8D2081E1
:101D2000318142815381C301B2010E94E3674B01BB
:101D30005C012DEB37E346E855EB0E94446A87FDD2
:101D400021C02DEB37E346E855E3C501B4010E94FD
:101D500069631816BCF01F5FF4E0EF0EF11C2A8DCA
:101D60003B8D2C5F3F4F3B8F2A8F34E0C30ED11C3D
:101D7000143031F1F10181911F010E944A2A882318
:101D800051F3BCCF133051F440924F0B5092500B93
:101D90006092510B7092520B01E0DDCFA5019401CE
:101DA000D7016D917D918D919C910E94E467F7011F
:101DB0006083718382839383812F0E948459CBCF68
:101DC000002321F08FE49BE00E9485570E94B026FB
:101DD0000C94FD1B0E94545B0C94FD1B8091AC0283
:101DE0009091AD028537910511F40C94FD1B0CF018
:101DF00000C18C35910509F48FC5ECF58D34910542
:101E000009F45BC2C4F48F31910509F496C14CF416
:101E10008131910509F47DC1429709F424C50C94E0
:101E2000D31B8B34910509F42FC28C34910509F42E
:101E30002FC20C94D31B8335910509F40DC58CF486
:101E40008135910509F4F9C48235910511F00C949E
:101E5000D31B8091AB028F7D80618093AB020C9489
:101E6000FD1B8435910509F4FEC48535910509F4FF
:101E700030C50C94D31B8D36910509F447C2E4F4A8
:101E80008A36910509F4F3C354F48836910509F4B0
:101E900018C28936910509F4D4C30C94D31B8B3630
:101EA000910509F407C48C36910511F00C94D31BED
:101EB00010920F020C94FD1B8037910509F461C448
:101EC00054F48E36910509F4FFC38F36910509F459
:101ED0000EC40C94D31B8237910509F4A7C50CF4EA
:101EE0005BC48337910511F00C94D31B88E396E013
:101EF0000E94B62C60E088E296E00E94772960E0BC
:101F000083E196E00E94772960E08CE096E00E94F1
:101F1000772961E081E096E00E94772961E081EF16
:101F200095E00E94772960E088EE95E00E9477298D
:101F300061E08EED95E00E94772960E084ED95E008
:101F40000E94772960E08DEC95E00E94772960E09F
:101F500085EC95E00E94772960E087EB95E00E9490
:101F6000772960E089EA95E00E94772960E08AE9B4
:101F700095E00E94772960E08CE895E00E9477293F
:101F800060E086E795E00E94772960E085E695E0CD
:101F90000E94772960E086E595E00E94772960E05D
:101FA0008FE495E00E94772960E08AE395E00E9443
:101FB000772960E08CE295E00E94772961E089E171
:101FC00095E00E94772960E08CE095E00E947729F7
:101FD00061E087E095E00E94772960E08AEF94E075
:101FE0000E94772960E086EE94E00E9477290C94A5
:101FF000FD1B8C3D910509F422C7E4F5883C910551
:1020000009F465C5E4F48837910509F452C56CF408
:102010008637910509F411C58737910511F00C94A5
:10202000D31B0E9437270C94FD1B8937910509F4B7
:1020300047C58B39910509F4D9C30C94D31B8C3C4B
:10204000910509F4D3C554F4893C910509F486C57A
:102050008B3C910509F4A9C50C94D31B8E3C9105CA
:1020600009F40BC60CF4F6C5833D910509F421C6AD
:102070000C94D31B8A3941E0940709F489C3FCF41A
:102080008E32A1E09A0709F4D6C754F48D3D91052C
:1020900009F4FCC68D32914009F44EC70C94D31B51
:1020A0008F32F1E09F0711F40C945F188039914052
:1020B00011F00C94D31B0E94AA540C94FD1B853F75
:1020C00031E0930711F40C94B51B9CF48C3A51E069
:1020D000950711F40C94461B843F914011F00C9429
:1020E000D31B0E94E22B88E692E00E94B62C0C944F
:1020F000FD1B873FB1E09B0711F40C94BE1B14F449
:102100000C94BB1B873E934011F40C94C71B0C949A
:10211000D31B8091810284FF02C00C94B221809174
:10212000830287FF02C00C94B221809184028370E5
:1021300011F00C94B2210C94CE210E9453277B0104
:102140008C0120E831E541E050E00E945A67C90166
:102150006DE671E00E9496674B015C01C801B70112
:1021600020E13EE040E050E00E945A67CA01B90118
:1021700028E130E040E050E00E945A67762E672E5A
:10218000C62ED72EECE32E2E312C412C512CC8011B
:10219000B701A20191010E945A67F62EE72ECA01EB
:1021A000B901A20191010E945A67CB018E010F5F14
:1021B0001F4F8114910499F0EF92FF927F936F93D8
:1021C0006F927F92BF92AF929F928F9282E397E03D
:1021D0009F938F931F930F930E943A6313C0A11490
:1021E000B104B1F0EF92FF927F936F936F927F9261
:1021F000BF92AF9286E397E09F938F931F930F93C5
:102200000E943A630FB6F894DEBF0FBECDBF30C058
:10221000CD2879F0EF92FF927F936F936F927F9228
:102220008AE397E09F938F931F930F930E943A63E3
:10223000E9CF892B69F0EF92FF927F936F938EE342
:1022400097E09F938F931F930F930E943A63DACF87
:10225000EF92FF9282E497E09F938F931F930F93E7
:102260000E943A630F900F900F900F900F900F9075
:102270000E94C52CB80186E497E00E94CF2B8AE02B
:102280000E94AF2C0C94FD1B0E94A2270C94FD1BF6
:1022900080918002813011F00C94FD1B82E08093CC
:1022A00080020E94CE5360937C0270937D028093E3
:1022B0007E0290937F020C94FD1B0E94C6270C9413
:1022C000FD1B8091D80883FF02C00C94FD1B0E9467
:1022D000A62B87FF02C00C94FD1B83E50E944A2AAF
:1022E000882381F00E94C5290E945069CB010E9479
:1022F0008C4D80915704909158048635910514F4C3
:102300000C94D7210E9424540C94FD1B8091D80872
:1023100083FF02C00C94FD1B0E94A62B8AAF87FF8F
:1023200002C00C94FD1B83E50E944A2A8EAF8111E6
:102330000C94DB2182E50E944A2A81110C94DB2156
:1023400010E00E942454112311F40C94FD1BB09151
:102350007B026096BFAF609710927B0281E0809312
:102360000F021E8E1F8E18A219A21AAA1BAA1CAA3F
:102370001DAA23961FAE2397ECE32796EFAF27976E
:10238000FCE12B96FFAF2B9726E42F962FAF2F97CC
:10239000C12CD12C60E8E62E7FEBF72E1A8E31E0AF
:1023A0003EAB812C912C54016091570470915804DC
:1023B000072E000C880B990B0E947063162F072FB5
:1023C000782E692E9601A7010E946963882321F166
:1023D0002091530430915404409155045091560477
:1023E0008EAD612F702F811109C0872D962D0E940F
:1023F0006963881F8827881F8A8F14C0872D962DB0
:102400000E94696387FF0DC080910F02882309F441
:1024100011C110920F020EC11C2D0D2D7E2C6F2CA0
:1024200001C01A8E0E94CE536B017C01DC01CB01EE
:102430002AA93BA94CA95DA9821B930BA40BB50B40
:10244000B7FD33C0D701C60188519C4FAF4FBF4F76
:102450008AAB9BABACABBDAB8AAD0E94CD4D8EE2DF
:1024600097E00E94B62C81149104A104B104B9F044
:10247000D501C401805F984DAF4FBF4FBC01CD0166
:102480006C197D098E099F0928EE33E040E050E089
:102490000E945A67CA01B9010E945F2D03C08FE3F1
:1024A0000E94AF2C8AE00E94AF2C0E94172E0E943F
:1024B000CE53609396027093970280939802909304
:1024C0009902909153049AA3A0915404AEA3B091A1
:1024D0005504BAA7E0915604EEA7292F3A2F4B2FA7
:1024E0005E2F612F702F872D962D0E94E3671B01B1
:1024F0002C0120E030E0A9010E94446A87FF04C05B
:1025000057FA509457F8509481149104A104B104DF
:10251000E1F420E030E040E85FE3C201B1010E9455
:10252000696387FF1EC0FEA9FF2339F055E0852EA1
:102530005DE0952EA12CB12C03C0812C912C54016F
:102540008C0C9D1CAE1CBF1C0CC020E030E040E495
:1025500050E4C201B1010E94446A181614F4460105
:1025600057012A8D222309F448C08E8D9F8DA8A182
:10257000B9A1892B8A2B8B2B61F0D701C6012E8D37
:102580003F8D48A159A1821B930BA40BB50BB7FD3E
:1025900034C02AA13EA14AA55EA523966FAD23971C
:1025A00027967FAD27972B968FAD2B972F969FADB4
:1025B0002F970E94E36720E030E040EC5FE30E9449
:1025C000696387FD21CFD701C601805A9541AF4F7E
:1025D000BF4F8E8F9F8FA8A3B9A39AA123969FAFB9
:1025E0002397AEA12796AFAF2797BAA52B96BFAF7B
:1025F0002B97EEA52F96EFAF2F9780910F02882390
:1026000009F402CF81149104A104B10431F41EAA8B
:10261000C12ED02EE72CF62CC7CEF0E1CF1AF7E270
:10262000DF0AE108F108C818D908EA08FB08F7FC36
:10263000EECFEACE60962FAD609720937B020C948C
:10264000FD1B0E94A62B182F87FD0AC085E692E08D
:102650000E94B62C812F0E94CD4D8AE00E94AF2CA3
:10266000A4963FADA4973093AF020C94AA2480E5C2
:102670000E94625B81110C94FD1B81E40E94FC2985
:10268000882321F060913D04062F02C00FEF10E077
:1026900083E50E944A2A882349F00E9491298B01F0
:1026A0006F3F710519F010F00FEF10E000933D043B
:1026B0000C94FD1B80E50E94625B81110C94FD1B54
:1026C00010923D040C94FD1B8EE40E944A2A88233C
:1026D00011F40C94FD1B0E94912960937702709372
:1026E00078028093790290937A020C94FD1B83E523
:1026F0000E94FC29882329F083E50E94625B809375
:10270000D8080E94C52C87E297E00E94B62C8091E1
:10271000D808882369F148E7E42E47E0F42E00E06A
:1027200010E020E08091D80890E0A0E0B0E0002E1A
:1027300004C0B695A795979587950A94D2F780FF20
:102740000EC0DD24D394D20E222319F08CE20E9415
:10275000AF2CF701859194910E94B62C2D2D0F5F1F
:102760001F4F42E0E40EF11C05301105D9F604C0FC
:1027700083E297E00E94B62C8AE00E94AF2C0C9472
:10278000FD1B41E060E070E085E197E00E94C92C0C
:102790000E94302C0C94FD1B83E50E944A2A88235A
:1027A00081F00E94A129282F30E02D33310524F437
:1027B00080930E020C94FD1B8CE380930E020C940C
:1027C000FD1B0E94C52CC0900E02D12CE12CF12CD7
:1027D0008EE097E00E94B62C4AE0C701B6010E9445
:1027E000F22C8AE00E94AF2C0C94FD1B83E50E9422
:1027F0004A2A882311F40C94FD1B0E94A129182F4A
:1028000090E0CD970CF01CE3109376020E94CE531B
:102810006B017C01212F30E0A8EEB3E00E948767B6
:10282000C60ED71EE81EF91EC0927202D092730225
:10283000E0927402F0927502E0C70E94544E0E942A
:10284000C6270E94BA5410923D0468EE73E080E0FF
:1028500090E00E941E2BD1C78091AB028F7E8062D8
:102860008093AB02CAC783E50E944A2A8823E9F015
:102870000E94CE53609396027093970280939802C1
:10288000909399020E94C52920E030E04AE754E481
:102890000E94CF630E94576960930A0270930B02F3
:1028A00080930C0290930D02A8C78091810284FF4F
:1028B00002C00C94F1218091830287FF02C00C9426
:1028C000F12180918402837011F00C94F1210C9419
:1028D000222283E50E94FC29882309F48EC70E94E6
:1028E000CE536093960270939702809398029093D0
:1028F00099020E94C52920E030E04AE754E40E9492
:10290000CF630E94576960936D0270936E0280934B
:102910006F029093700271C70E94A62B87FD6DC74E
:102920009091810294FD04C09091830297FF0AC0A8
:1029300029E4C22E22E0D22E39EDE32E38E0F32E28
:1029400010E009C090918402937091F7682F81E0A4
:102950000E945E2B52C7D6018D916D010E944A2ABA
:10296000882309F459C0133009F04FC00E94C529CB
:102970004B015C0120E030E040EA51E40E946963D1
:1029800087FF3AC0A50194016091F9087091FA0897
:102990008091FB089091FC080E94DE682B013C01AD
:1029A0009B01AC016091090970910A0980910B09A2
:1029B00090910C090E94CF636093090970930A09F2
:1029C00080930B0990930C09609135047091360443
:1029D00080913704909138040E946E63A3019201A4
:1029E0000E94CF630E945769609335047093360448
:1029F00080933704909338048092F9089092FA08F3
:102A0000A092FB08B092FC0807C00E94C529F701FC
:102A1000648B758B868B978B1F5FF4E0EF0EF11C38
:102A2000143009F098CF0E94BA58E7C60E94EF5AB6
:102A300081E89BE00E940753E0C600916B02109171
:102A40006C0294E0F12C40E0915031F1D8018C916E
:102A5000282F2B7F213429F411962C912133E1F476
:102A600008C08035C9F4F801818180538A3048F06C
:102A700013C0813421F0853421F441E002C0FF24E9
:102A8000F39498012E5F3F4F89012F5F3F4FD8018C
:102A90008C918032C9F3D8CF41110E94C52CFF2000
:102AA00021F082EE94E00E94B62CC8010E94F62D1F
:102AB000A4C620939202209391020E94422B9DC6AD
:102AC00010929202109291020E94422B96C60E948E
:102AD000A62B182F87FD91C600916A0284E40E94FC
:102AE0004A2A882311F40C9425220E94C5296B01DF
:102AF0007C0120E030E0A9010E946963882341F154
:102B0000B4E01B02F0011124EA59FD4FC082D182CA
:102B1000E282F38220E030E0A901609166027091C8
:102B2000670280916802909169020E946963811135
:102B30000CC080E090E0A0EEBFE38093660290932B
:102B40006702A0936802B093690201E00C94252209
:102B500080E080936A020E94CB544FC60E94A62B4D
:102B600087FD4BC689E4E82E82E0F82E09ED18E0D7
:102B700099EEC92E98E0D92EF70181917F010E942C
:102B8000FC29882361F00E94C5290E945769D80159
:102B90006D937D938D939C9313970E9463540C5F68
:102BA0001F4FC016D10641F728C60E94A62B87FDED
:102BB00024C609E4E02E02E0F02E09ED18E0F7014A
:102BC00081917F010E94FC29882349F00E94C52938
:102BD000D80194966D937D938D939C9397970C5FFA
:102BE0001F4FB8E0093E1B0751F707C680918202CC
:102BF00087FF02C00C942B22809183028E7011F00B
:102C00000C942B2240910D0950910E0960910F09EF
:102C10007091100982ED94E00E944D2B40911109B2
:102C20005091120960911309709114098FEC94E08E
:102C30000E944D2B4091150950911609609117097A
:102C4000709118098CEC94E00E944D2B8AE00E9450
:102C5000AF2CD3C58091810281FF02C00C947122F8
:102C60008091820281FF02C00C94712280918302C4
:102C70008C7011F00C947122C0C51AE5E12E12E09F
:102C8000F12E10E088E5810F0E94FC29882351F085
:102C90000E94C529F7016083718382839383812F0A
:102CA0000E9484591F5FF4E0EF0EF11C133051F7BE
:102CB0008DC84090530B5090540B6090550B709002
:102CC000560B209112023091130240911402509140
:102CD0001502C301B2010E94E4676A8F7B8F8C8F5B
:102CE0009D8F8090570B9090580BA090590BB090EF
:102CF0005A0B209116023091170240911802509100
:102D00001902C501B4010E94E4676E8F7F8F88A30A
:102D100099A3C0905B0BD0905C0BE0905D0BF090A2
:102D20005E0B20911A0230911B0240911C025091BF
:102D30001D02C701B6010E94E4676AA37BA38CA3AE
:102D40009DA320911E0230911F02409120025091BC
:102D50002102C301B2010E94E4672B013C012091D2
:102D60002202309123024091240250912502C50194
:102D7000B4010E94E4674B015C012091260230916E
:102D800027024091280250912902C701B6010E94F2
:102D9000E4676B017C010E94C52C8DE994E00E94E0
:102DA000B62C83E50E94FC29882321F00E94B529D6
:102DB0008093100280911002882319F08AE492E037
:102DC00002C084E396E00E94B62C85E994E00E945C
:102DD000B62C4A8D5B8D6C8D7D8D85E393E10E94D1
:102DE0004D2B4E8D5F8D68A179A18AE894E00E94F9
:102DF0004D2B4AA15BA16CA17DA187E894E00E94C4
:102E00004D2B84EE94E00E94B62C8DE894E00E9455
:102E1000B62CB301A20185E393E10E944D2BB501CD
:102E2000A4018AE894E00E944D2BB701A60187E82F
:102E300094E00E944D2B8AE00E94AF2CDEC483E513
:102E40000E944A2A882331F00E94912970932B0214
:102E500060932A028091810290918202A091830264
:102E6000B0918402892B8A2B8B2B09F0C6C4609108
:102E70002A0270912B0283E894E00E94992B85E24C
:102E80000E94AF2C8AE00E94AF2CB7C40E94A62BF0
:102E9000F82E87FDB2C483E50E944A2A0F2D0F2C1D
:102EA000000C110B882369F10E949129F801EE0FA3
:102EB000FF1FE85FFD4F71836083000F111F000F3C
:102EC000111F98012C5C3D4F7901072E000C880BD7
:102ED000990B0E9470632AE037ED43E25CE30E94A5
:102EE000CF63F801EA5AFD4F20813181428153813D
:102EF0000E94CF63D7016D937D938D939C9313971D
:102F00007CC40E94C52C85E40E94AF2C80E38F0D09
:102F10000E94AF2C000F111FF801E85FFD4F608188
:102F200071818BE794E00E94992B85E20E94AF2C7F
:102F30008AE00E94AF2C61C485E40E94625B81112B
:102F400073C080E50E94FC29882351F00E94C529A6
:102F500060935A0470935B0480935C0490935D04C7
:102F600089E40E94FC29882381F00E94C5292CEA6B
:102F700035EC47E25EE30E94CF6360935E0470939A
:102F80005F04809360049093610484E40E94FC29B0
:102F9000882381F00E94C5292CEA35EC47E25EE3E4
:102FA0000E94DE68609362047093630480936404FB
:102FB000909365040E94C52C40915A0450915B0483
:102FC00060915C0470915D0485E694E00E944D2B55
:102FD0002CEA35EC47E25EE360915E0470915F0499
:102FE00080916004909161040E94DE68AB01BC0195
:102FF00081E694E00E944D2B2CEA35EC47E25EE33B
:1030000060916204709163048091640490916504FE
:103010000E94CF63AB01BC018DE594E00E944D2B73
:103020008AE00E94AF2CE9C30E94E22B89E694E07B
:103030000E94B62CE2C383E50E94FC29182F882346
:1030400071F00E94C5290E94506970933902609303
:10305000380221E0672B09F020E020934E0480E540
:103060000E94FC29882359F02091380230913902BE
:10307000232B11F00E94B52980934E04BEC3111179
:10308000BCC30E94C52C8AE494E00E94B62C8091B7
:103090004E04882319F08FEB97E002C081E394E09F
:1030A0000E94B62C609138027091390289E394E055
:1030B0000E94992B85E394E00E94B62C9EC385E480
:1030C0000E944A2A882349F00E949129662329F008
:1030D00087E094E00E94B62C90C383E40E944A2AC1
:1030E000882331F00E9491296D966FAF6D9704C0CF
:1030F000B5E06D96BFAF6D9760E085E50E94092B46
:10310000E2968FAFE29783E50E944A2A882319F05E
:103110000E94C52904C060E070E084E393E40E944B
:103120005069072E000C880B990B0E9470636AA3EC
:103130007EA38AA79EA70E94CE532B013C016091DB
:103140000602709107026F507109072E000C880B60
:10315000990B0E9470639B01AC016AA17EA18AA5B4
:103160009EA50E94446A18162CF48CED93E00E94F0
:10317000B62C43C3A3019201205E314B4F4F5F4FEA
:10318000E1962CAF3DAF4EAF5FAFE19788EC93E097
:103190000E94B62C0E94544E8FE78093590481E020
:1031A00080930F0264964CAE5DAE6EAE7FAE6497B8
:1031B000A8964CAE5DAE6EAE7FAEA8976FE7C62EFA
:1031C000D12CE12CF12C6C961CAE1DAE1EAE1FAEA8
:1031D0006C9768961CAE1DAE1EAE1FAE6897812C14
:1031E000912C54011EAE30E43AAB4CE14EAB56E4A8
:1031F00023965FAF239727961FAE27972B961FAE78
:103200002B972F961FAE2F9760961FAE6097A996AB
:103210001FAEA997AD968CAE9DAEAEAEBFAEAD97CC
:103220008FE790E0A0E0B0E08E8F9F8FA8A3B9A3B6
:10323000A3961CAE1DAE1EAE1FAEA39791E06F9677
:103240009FAF6F971BAE1AAE10E0212C312C00E01F
:103250006D96AFAD6D970A2E000CBB0B6E96BFAF8F
:10326000AEAF6E970E94CE536A8F7B8F8C8F9D8FEF
:1032700080915502882309F4BCC00E940D4F109123
:10328000530420905404309055040091560427961E
:103290002FAD27972B963FAD2B972F964FAD2F979E
:1032A00060965FAD6097612F722D832D902F0E94E5
:1032B000446A181664F427961FAF27972B962FAEF3
:1032C0002B972F963FAE2F9760960FAF60972EAD3E
:1032D0003AA94EA923965FAD2397612F722D832DB6
:1032E000902F0E94696387FF06C01EAF2AAA3EAADC
:1032F00023960FAF23976F96BFAD6F97212F322D77
:10330000432D502F6AA17EA18AA59EA5BB2309F457
:1033100054C00E94696387FF6CC02A8D3B8D4C8D21
:103320005D8D2419350946095709E6962CAF3DAF46
:103330004EAF5FAFE697DA01C90188589341A10902
:10334000B109B7FD56C0D701C6012E8D3F8D48A1EA
:1033500059A1821B930BA40BB50BB595A795979517
:10336000879580935904E6968CAD9DADAEADBFAD0B
:10337000E697A3968CAF9DAFAEAFBFAFA3979AA1D0
:1033800027969FAF2797AEA12B96AFAF2B97BAA5E5
:103390002F96BFAF2F97EEA56096EFAF60972A8D5F
:1033A0003B8D4C8D5D8D64962CAF3DAF4EAF5FAFC6
:1033B00064976F961FAE6F971CC00E94446A1816E0
:1033C000C4F48A8D9B8DAC8DBD8D64962CAD3DADC6
:1033D0004EAD5FAD6497821B930BA40BB50BAC0194
:1033E000BD01485853416109710977FD02C00C9431
:1033F000D82220E030E040EF51E46AA17EA18AA506
:103400009EA50E94E467212F322D432D502F0E944C
:10341000696387FF03C08CED93E0BAC08A8D9B8DF2
:10342000AC8DBD8DA8962CAD3DAD4EAD5FADA897D2
:10343000821B930BA40BB50BB7FD8CC080E00E94E0
:10344000CD4D8AE00E94AF2C8A8D9B8DAC8DBD8DB9
:103450008053984FAF4FBF4FA8968CAF9DAFAEAF84
:10346000BFAFA897A9969FADA997911158C0AD96E7
:103470002CAD3DAD4EAD5FADAD97612F722D832D5F
:10348000902F0E94446A1816ACF520E030E040E02E
:1034900050E4612F722D832D902F0E94E467AD962A
:1034A0006CAF7DAF8EAF9FAFAD972A8D3B8D4C8DAE
:1034B0005D8D205E314B4F4F5F4FE1962CAF3DAF9E
:1034C0004EAF5FAFE19720E030E040EC50E46AA1FE
:1034D0007EA18AA59EA50E94E367212F322D432D50
:1034E000502F0E946963881F8827881FA9968FAF75
:1034F000A99730C08A8D9B8DAC8DBD8DE1962CAD8A
:103500003DAD4EAD5FADE197821B930BA40BB50BA8
:10351000B7FD20C041E653E060E773E018C020E04B
:1035200030E040EF51E46AA17EA18AA59EA50E94E9
:10353000E3679B01AC01612F722D832D902F0E94B8
:10354000696387FF07C041E453E061E573E080E011
:103550000E94204F64968CAD9DADAEADBFAD64971B
:10356000481659066A067B0610F4D301C2012A8D5B
:103570003B8D4C8D5D8D281B390B4A0B5B0BDA01A3
:10358000C90181389F44A241B10548F083E293E02C
:103590000E94B62C10920F020E94544E2EC16E96BD
:1035A0004EAD5FAD6E978AAD9BAD481759070CF0D5
:1035B00059CE03970CF456CE86EC92E00E94B62CBE
:1035C00089EA92E00E94B62CB501A40182EC92E057
:1035D0000E944D2B8AE00E94AF2C89EA92E00E9463
:1035E000B62C68964CAD5DAD6EAD7FAD68978EEB39
:1035F00092E00E944D2B8AE00E94AF2C89EA92E073
:103600000E94B62C6C964CAD5DAD6EAD7FAD6C97E7
:103610008AEB92E00E944D2B8AE00E94AF2CE2964A
:103620009FADE297992309F4E8C080925A049092E2
:103630005B04A0925C04B0925D042CEA35EC47E296
:103640005EE368966CAD7DAD8EAD9FAD68970E94D0
:10365000CF6360935E0470935F04809360049093E3
:1036600061042CEA35EC47E25EE36C966CAD7DAD0F
:103670008EAD9FAD6C970E94DE686093620470937C
:1036800063048093640490936504B7C0909193029F
:1036900090FD02C087E001C086E091FD8D7FDE01D4
:1036A00011961D0192FD02C00C9429248B7F11F00C
:1036B0000C9453240CE617E0E3E4FBE0FB8FEA8F65
:1036C00099E6C92E97E0D92E7D01F8016591759193
:1036D00085919491AA8DBB8D8D909D90AD90BD905C
:1036E000BB8FAA8FA50194010E94E3672B013C01C7
:1036F000F701608371838283938320E030E040EAA6
:1037000051EC0E94446A87FD0AC020E030E040EAA4
:1037100051E4C301B2010E946963181634F4F60142
:103720008491181614F40C945624D7018D909D9012
:10373000AD90BD907D0120E030E040EA51ECC50144
:10374000B4010E94446A87FF02C00C94622420E006
:1037500030E040EA51E4C501B4010E9469631816E3
:1037600014F00C946A240C9462240E946B3A80E05A
:103770000E94E33B42C00E946B3A3FC061E083E598
:103780000E94092B91E089270E94E33B36C081E02B
:103790008093AA0260E083E50E94092B81112DC06D
:1037A0000E94DB272AC00E94545B27C00091AC0214
:1037B0001091AD020E94CE536093960270939702CF
:1037C00080939802909399020023B9F00E94C52C2F
:1037D00084E50E94AF2CB8017727072E000C880BD8
:1037E000990B0E945F2D80E20E94AF2C89E694E045
:1037F0000E94B62C02C00E94545BE0915402F0E09B
:10380000EF56F44F8081882339F085E692E00E94DC
:10381000B62C8AE00E94AF2CA496FFADA497F0933B
:10382000AF020C94AA2411E022E02216310409F020
:1038300010E020E030E0A901C701B6010E946963F1
:10384000881F8827881F1813A4C020E030E040E8B4
:103850005FE32AA33BA34CA35DA32A8D3B8D4C8D34
:103860005D8DC501B4010E94E36720E030E040E0D7
:103870005FE30E94CF636A8F7B8F8C8F9D8F2E8D2D
:103880003F8D48A159A1C301B2010E94E36720E026
:1038900030E040E05FE30E94CF636E8F7F8F88A3AC
:1038A00099A32A8D3B8D4C8D5D8DCA01B9010E9473
:1038B000CF634B015C012E8D3F8D48A159A1CA01F8
:1038C000B9010E94CF639B01AC01C501B4010E9404
:1038D000E4670E94926A4B015C019B01AC01C70145
:1038E000B6010E94E3672B013C01A5019401C701C9
:1038F000B6010E94E4679B01AC01C301B2010E94C2
:10390000CF636B017C0120E030E0A9010E94446A92
:1039100087FD07C0C701B6010E94926A2B013C01D6
:1039200003C0412C512C32016E8D7F8D88A199A14D
:103930009058A50194010E94DE682AA13BA14CA1E8
:103940005DA10E94CF63A30192010E94CF632A8DE3
:103950003B8D4C8D5D8D0E94E4676B017C01A50160
:1039600094016A8D7B8D8C8D9D8D0E94DE682AA1CD
:103970003BA14CA15DA10E94CF63A30192010E94D3
:10398000CF632E8D3F8D48A159A10E94E4670C940E
:103990000A0E80E090E0A0E8BFEB8AA39BA3ACA353
:1039A000BDA35BCF0E94E22B83E597E00E94B62C7B
:1039B00024CF20E030E0A901C701B6010E9469636D
:1039C000882381F31AA21BA21CA21DA2A7019601A3
:1039D00050582A8F3B8F4C8F5D8F8AA19BA1ACA141
:1039E000BDA1B0588E8F9F8FA8A3B9A3CA01B901FA
:1039F0000E94CF634B015C012E8D3F8D48A159A1E0
:103A0000CA01B9010E94CF639B01AC01C501B40199
:103A10000E94E4670E94926A6EAB7FAB88AF99AF59
:103A20002091430B3091440B4091450B5091460B34
:103A30002EA33FA348A759A7A70196016EA17FA176
:103A400088A599A50E94E4676AAF7BAF8CAF9DAF54
:103A50008091470B9091480BA091490BB0914A0B74
:103A60008AA79BA7ACA7BDA72AA13BA14CA15DA19A
:103A7000BC01CD010E94E46722966CAF7DAF8EAF92
:103A80009FAF229720919A0230919B0240919C0215
:103A900050919D022EA73FA748AB59AB2AAD3BAD35
:103AA0004CAD5DAD6EA57FA588A999A90E94E3677D
:103AB0006B017C0180919E0290919F02A091A002D7
:103AC000B091A1028AAB9BABACABBDAB22962CAD47
:103AD0003DAD4EAD5FAD2297BC01CD010E94E367C5
:103AE0004B015C01A70196016A8D7B8D8C8D9D8DAC
:103AF0000E94CF632B013C01A50194016E8D7F8D47
:103B000088A199A10E94CF639B01AC01C301B201BE
:103B10000E94E4672B013C01A50194016A8D7B8D15
:103B20008C8D9D8D0E94CF634B015C01A701960196
:103B30006E8D7F8D88A199A10E94CF639B01AC01FE
:103B4000C501B4010E94E367A30192010E9463686A
:103B50006B017C0120E030E0A9010E94696387FFCE
:103B60000AC02BED3FE049EC50E4C701B6010E94CA
:103B7000E4676B017C012BED3FE049EC50E4C701A9
:103B8000B6010E94DE6820E030E040EC51E40E9483
:103B9000CF630E94C2680E9457698B01672B11F4A2
:103BA00001E010E032E02316310451F42BED3FE048
:103BB00049EC50E4C701B6010E94E3676B017C0148
:103BC00020E030E0A901C701B6010E9469638111BC
:103BD00022C02EA53FA548A959A96EA17FA188A5FD
:103BE00099A50E946963811116C02AA93BA94CA915
:103BF0005DA96AA57BA58CA59DA50E94696381111D
:103C00000AC008E110E08BEDC82E8FE0D82E89ECB9
:103C1000E82E80E4F82E80914B0B90914C0BA091F4
:103C20004D0BB0914E0B8AA79BA7ACA7BDA79C01DB
:103C3000AD016091A2027091A3028091A4029091C3
:103C4000A5020E94E3672B013C01A70196016EA922
:103C50007FA988AD99AD0E94CF634B015C0120E044
:103C600030E0A901C301B2010E9469638823C9F051
:103C7000A5019401C501B4010E94CF634B015C0111
:103C8000A3019201C301B2010E94CF639B01AC0169
:103C9000C501B4010E94E4670E94926A4B015C0175
:103CA0000DC020E030E0A901C501B4010E94446AC2
:103CB00087FF04C0B7FAB094B7F8B0942FE632E1AA
:103CC00043E85AE3C501B4010E94696387FD13C24A
:103CD0002091A6023091A7024091A8025091A9021A
:103CE0002AAB3BAB4CAB5DAB80914F0B9091500B33
:103CF000A091510BB091520B8EA79FA7A8ABB9AB67
:103D00002AE037ED43E25CE360912C0270912D02D2
:103D100080912E0290912F020E94CF636EA37FA309
:103D200088A799A760912A0270912B02072E000C98
:103D3000880B990B0E9470639B01AC016EA17FA15F
:103D400088A599A50E94CF636E8B7F8B888F998FF2
:103D5000C501B4010E9486690E9457691B01601762
:103D6000710708F41801B10180E090E00E946E63D1
:103D70004B015C019B01AC01C701B6010E94DE68EA
:103D80006EA37FA388A799A7A5019401C301B201DF
:103D90000E94DE682A966CAF7DAF8EAF9FAF2A97E8
:103DA0002EA53FA548A959A96AA97BA98CA99DA9B7
:103DB0000E94E367A50194010E94DE682E966CAF15
:103DC0007DAF8EAF9FAF2E972EA13FA148A559A5DD
:103DD000CA01B9010E94CF636B017C019B01AC0158
:103DE0006EA17FA188A599A50E94CF6320E030E055
:103DF00040EC50E40E94DE689B01AC016EA17FA103
:103E000088A599A50E94E3676AAB7BAB8CAB9DABA1
:103E100020E030E040E05FE3C701B6010E94CF63DD
:103E20009B01AC0160E070E080E89FE30E94E367E3
:103E30006EAB7FAB88AF99AF2AA53BA54CA55DA51E
:103E400029873A874B875C878EA59FA5A8A9B9A922
:103E50008D879E87AF87B88B0E94CE539B01AC01A4
:103E600028533F4F4F4F5F4F26962CAF3DAF4EAF7D
:103E70005FAF26974A8C5B8C6C8C7D8C41E050E068
:103E80005BA74AA759E15EA78AA59BA58215930562
:103E900008F00BC10E9430500E94CE53DC01CB01D0
:103EA00026962CAD3DAD4EAD5FAD2697821B930B94
:103EB000A40BB50BB7FD10C00E94CE539B01AC0103
:103EC00028533F4F4F4F5F4F26962CAF3DAF4EAF1D
:103ED0005FAF26970E94172E3EA531503EA7332391
:103EE000E9F12E8D3F8D48A159A16EA97FA988AD1A
:103EF00099AD0E94CF636B017C019201A3016AA975
:103F00007BA98CA99DA90E94CF63A70196010E945D
:103F1000E4677B018C019201A3016EA97FA988ADA2
:103F200099AD0E94CF634B015C012E8D3F8D48A15E
:103F300059A16AA97BA98CA99DA90E94CF639B0165
:103F4000AC01C501B4010E94E3672B013C01C7012C
:103F5000D8018E8F9F8FA8A3B9A34FC04AA55BA598
:103F6000BA0180E090E00E946E632EA13FA148A5B7
:103F700059A50E94CF634B015C010E94D9686B0177
:103F80007C01C501B4010E94846A4B015C01A70158
:103F900096016A8D7B8D8C8D9D8D0E94CF632B0148
:103FA0003C012AA13BA14CA15DA1C501B4010E9425
:103FB000CF63A30192010E94E4672B013C01A5019C
:103FC00094016A8D7B8D8C8D9D8D0E94CF634B01FA
:103FD0005C012AA13BA14CA15DA1C701B6010E94D1
:103FE000CF639B01AC01C501B4010E94E3676E8FF2
:103FF0007F8F88A399A359E15EA79201A3016AADBF
:104000007BAD8CAD9DAD0E94E46769837A838B8321
:104010009C832E8D3F8D48A159A122966CAD7DAD1C
:104020008EAD9FAD22970E94E4676D837E838F8360
:1040300098872A962CAD3DAD4EAD5FAD2A97698528
:104040007A858B859C850E94E46769877A878B8750
:104050009C872E962CAD3DAD4EAD5FAD2E976D85F8
:104060007E858F8598890E94E4676D877E878F871C
:10407000988BCE0101960E94BD258E010A5E1F4FCE
:104080009E01235F3F4FAE01475F5F4FBE016B5FF5
:104090007F4FCE0101960E94695B882331F08AA58B
:1040A0009BA501969BA78AA7EFCE80E1EAE9F2E003
:1040B000DE01119601900D928A95E1F7CE010196ED
:1040C0000E94BD258E010A5E1F4F9E01235F3F4F58
:1040D000AE01475F5F4FBE016B5F7F4FCE01019620
:1040E0000E94695B80E1FE013196A3E4BBE0019090
:1040F0000D928A95E1F70E94CE53609396027093D9
:104100009702809398029093990277CB0E94AA54C9
:10411000109211020E94CE53609396027093970200
:10412000809398029093990280912C0290912D0295
:10413000A0912E02B0912F028093B2029093B3020D
:10414000A093B402B093B50280912A0290912B0201
:104150009093B1028093B00284E690E090932B029A
:1041600080932A0281E0809392020E94422B8AE58A
:104170000E94FC29382E88E50E94FC29882E89E5BA
:104180000E94FC298812ECC0381411F0D82C06C00B
:10419000DD24D394882483943324339482E50E94CD
:1041A0004A2A882369F00E94C5292B013C0120E09E
:1041B00030E0A9010E946963882309F4A1C006C008
:1041C000412C512C10EA612E10E4712E811003C095
:1041D000DD2009F49FC020E030E0A901C301B20155
:1041E0000E94E4677B018C0190904B0BC0904C0BBC
:1041F000B0904D0BA0904E0B292D3C2D4B2D5A2DE0
:104200000E9469634090430B5090440B6090450BB3
:104210007090460B2091470B3091480B4091490B11
:1042200050914A0B2A8F3B8F4C8F5D8F20E030E0FE
:1042300048E453E487FD75C3B701C8010E94696370
:1042400087FD04C0E12CF12C08E413E480E090E049
:10425000A0E8B0E48E8B9F8BA88FB98F89839A8357
:10426000AB83BC839701A801692D7C2D8B2D9A2DE2
:104270000E94696387FF0EC0C701D80180934B0B72
:1042800090934C0BA0934D0BB0934E0BCE014696E2
:104290000E945E264092430B5092440B6092450B65
:1042A0007092460B8A8D9B8DAC8DBD8D8093470B94
:1042B0009093480BA093490BB0934A0BCE01019603
:1042C0000E945E269701A80160914B0B70914C0BE8
:1042D00080914D0B90914E0B0E94446A181674F415
:1042E000C701D80180934B0B90934C0BA0934D0BBF
:1042F000B0934E0BCE0146960E945E260E94AA54B1
:10430000882019F080E00E94A459DD2019F081E096
:104310000E94A459332019F082E00E94A4590E94FF
:104320006E2680919102809392028091B2029091C8
:10433000B302A091B402B091B50280932C02909385
:104340002D02A0932E02B0932F028091B002909183
:10435000B10290932B0280932A020E94B0264DCA8C
:10436000D82E1CCF88E50E94FC2981115F9889E531
:104370000E94FC2981118A988AE50E94FC298823E1
:1043800029F08091080181708093060185E40E94E4
:10439000FC29882309F431CA12982FCA5F988A9899
:1043A00080910801817080930601129826CA0E94AC
:1043B000C6270C9482110E94C5290E945069CB0126
:1043C0000E948C4D80915704909158048635910538
:1043D0001CF00E94A22702C00E94C62711E00C9484
:1043E000A1110E94AA5488E50E94FC29882331F07B
:1043F0005F9A809171028E7F8093710289E50E949D
:10440000FC29882331F08A9A809171028D7F8093F4
:1044100071028AE50E94FC29882359F080910801E5
:104420008095817080930601809171028B7F8093CB
:10443000710285E40E94FC29882309F4DEC90E94E8
:10444000152CDBC90E94BA54D8C9602F83E50E949D
:10445000092B0C94A91583E50E944A2A882391F020
:104460000E94C52960930D0970930E0980930F096E
:10447000909310096093150970931609809317099A
:104480009093180980E50E944A2A882351F00E94DF
:10449000C52960930D0970930E0980930F099093BD
:1044A000100982E50E944A2A882351F00E94C529FA
:1044B0006093110970931209809313099093140962
:1044C00084E50E944A2A882309F497C90E94C529D5
:1044D0006093150970931609809317099093180932
:1044E0008CC982E40E94FC298823C1F08091940247
:1044F00090919502009739F04AE050E060E070E05A
:104500000E94E06103C060E070E0CB016093E908C5
:104510007093EA088093EB089093EC0883E50E947F
:10452000FC29882351F00E94C529609319097093D2
:104530001A0980931B0990931C0984E50E94FC29A9
:10454000882351F00E94C52960931D0970931E09AC
:1045500080931F09909320098AE40E94FC298823F4
:1045600009F44BC90E94C5296B017C012AE037ED93
:1045700043E25CE30E94446A87FD13C02AE939E9FB
:1045800049E95EE3C701B6010E94696318164CF061
:10459000C0922504D0922604E0922704F0922804C9
:1045A0002CC90E94E22B8DEA94E00E94B62C25C90A
:1045B0004AAD5BAD452B09F425C1A3964CAC5DAC6F
:1045C0006EAC7FACA397480E591E6A1E7B1EA39645
:1045D0002CAD3DAD4EAD5FADA397281B390B4A0BFB
:1045E0005B0B6E8D7F8D88A199A10E944A67A30104
:1045F00092010E94AA67C20ED31EE41EF51E54E16A
:10460000C516D104E104F104FCF08CEEC816D10407
:10461000E104F1043CF490E8C916D104E104F1048A
:1046200034F420C04BEEC42ED12CE12CF12C2EEF13
:1046300030E040E050E02C193D094E095F092E8F13
:104640003F8F48A359A312C034E1C32ED12CE12CD3
:10465000F12C84E190E0A0E0B0E08E8F9F8FA8A3C2
:10466000B9A304C0CE8EDF8EE8A2F9A280EC93E05D
:104670000E94B62CC701B6010E945F2D8BEB93E020
:104680000E94B62C6E8D7F8D88A199A10E945F2D0E
:104690004EAD5AA96EA923967FAD239784EB93E084
:1046A0000E944D2B27964FAD27972B965FAD2B97EA
:1046B0002F966FAD2F9760967FAD60978DEA93E050
:1046C0000E944D2BAAADBBAD13970CF49BC06E8D11
:1046D0007F8D88A199A10E94706320E030E040E8BE
:1046E00050E40E94CF634B015C012EAD3AA94EA964
:1046F00023965FAD239727966FAD27972B967FADB7
:104700002B972F968FAD2F9760969FAD60970E9445
:10471000E3672BED3FE049E450E40E94CF6320E0E3
:1047200030E040E05FE30E94CF639B01AC01C50134
:10473000B4010E94DE684B015C01C301B2010E941A
:1047400070632FE632E143E85AE30E94CF632B0106
:104750003C01B501A40187EA93E00E944D2BB3010F
:10476000A20181EA93E00E944D2B2AE939E949E14F
:104770005FE3C501B4010E94CF634B015C019B0163
:10478000AC01C301B2010E94CF6320E030E040E001
:104790005EE30E94CF636C966CAF7DAF8EAF9FAF30
:1047A0006C97A5019401C501B4010E94E467A301BF
:1047B00092010E94DE6868966CAF7DAF8EAF9FAFAE
:1047C00068978FE793E00E94B62CB501A4018BE9AE
:1047D00093E00E944D2B68964CAD5DAD6EAD7FAD04
:1047E000689785E993E00E944D2B6C964CAD5DADCA
:1047F0006EAD7FAD6C978FE893E00E944D2B8AE001
:104800000E94AF2C8E8D9F8DA8A1B9A18C0D9D1DEE
:10481000AE1DBF1DB595A7959795879580935904B3
:10482000EAADFBAD3196FBAFEAAFFAA1FEAF2EA128
:104830002AAB3AA53EAB4EA523964FAF23974A8CA1
:104840005B8C6C8C7D8C51E06F965FAF6F970C9496
:10485000F9192DE432E081FF03C04FE452E002C0B9
:1048600042E552E080FF03C081E592E002C082E5AC
:1048700092E03F932F935F934F939F938F9389E79A
:1048800092E09F938F933F922F920E943A630E94EF
:10489000C52CC1010E94F62D0FB6F894DEBF0FBEE5
:1048A000CDBF0C94FD1B22E532E0D5CFB7FAB09412
:1048B000B7F8B094D7018D929D92AD92BC921397A8
:1048C0000C94951B0E94E22B8BE892E00E94B62C80
:1048D0000C94FD1B0C5F1F4FBFEFCB1ADB0AE8E700
:1048E000F7E0E017F10711F00C94651B8AE5E82E5C
:1048F00082E0F82E10E0F10181919191A191B191A6
:104900001F01F70181939193A193B1937F01812FAF
:104910000E9484591F5F133071F70E94B0260C94D7
:10492000FD1B692D7C2D8B2D9A2D0E94696387FFBD
:1049300089CC80E090E0A0E8B0E48E8B9F8BA88FBC
:10494000B98F89839A83AB83BC83E92CFC2C0B2D14
:104950001A2DA0CCCB58DF4F0FB6F894DEBF0FBE98
:10496000CDBFDF91CF911F910F91FF90EF90DF901E
:10497000CF90BF90AF909F908F907F906F905F90FF
:104980004F903F902F900895282F8091AB022330B5
:1049900021F485FD0EC084FD0EC090E0A0E0B0E0E3
:1049A00004C0B695A795979587952A95D2F78170FB
:1049B000089581E0089580E00895CF93C82FCB013A
:1049C000009711F00E94B62C8FEB94E10E94B62C58
:1049D000C11103C08DEB97E002C082EC97E00E940A
:1049E000B62C8AE0CF910C94AF2C8F929F92AF920D
:1049F000BF92CF92DF92EF92FF920F931F93CF93CC
:104A0000DF93CDB7DEB768970FB6F894DEBF0FBE61
:104A1000CDBFE82E4A015B01690120E030E0A90129
:104A2000B801C6010E946963F12C81110DC0F70124
:104A3000EE0FFF1FEE0FFF1FEE57F84F8591959178
:104A4000A591B4918C016D01C801D6018D8B9E8B0F
:104A5000AF8BB88FF701E759F84FE491DD24D39479
:104A60001E160CF4D12CCC24C39420E030E0A90114
:104A7000C501B4010E94446A18160CF0C12C80E0F4
:104A80000E94305969837A838B839C8381E00E94E2
:104A900030596D837E838F83988782E00E943059DE
:104AA00069877A878B879C8783E00E9430596D875E
:104AB0007E878F87988BEE0CFF1CEE0CFF1C81E02D
:104AC00090E08C0F9D1FE80EF91EF70110821182F5
:104AD000128213829E01235F3F4FAE01475F5F4FFB
:104AE000BE016B5F7F4FCE0101960E94BD57F7015B
:104AF00080829182A282B382198A1A8A1B8A1C8AB6
:104B00008091D6089091D708892B91F4CE014196D7
:104B10007C018E010B5E1F4F9E01235F3F4FAE0154
:104B2000475F5F4FBE016B5F7F4F40970E949D3D87
:104B30000E94AA54DC1471F08091F30A882319F0C2
:104B40001092F30A07C040E060E070E088EF97E061
:104B50000E94C92C68960FB6F894DEBF0FBECDBF79
:104B6000DF91CF911F910F91FF90EF90DF90CF9049
:104B7000BF90AF909F908F900895CF92DF92EF9269
:104B8000FF921F93CF93DF9320911002222309F409
:104B90008DC0EC011091930210FF2CC0C090120246
:104BA000D0901302E0901402F09015022881398110
:104BB0004A815B81C701B6010E94446A181624F439
:104BC000C882D982EA82FB82C0901E02D0901F0266
:104BD000E0902002F0902102288139814A815B8196
:104BE000C701B6010E94696387FF04C0C882D982E9
:104BF000EA82FB8211FF2CC0C0901602D0901702EF
:104C0000E0901802F09019022C813D814E815F8165
:104C1000C701B6010E94446A181624F4CC82DD82D2
:104C2000EE82FF82C0902202D0902302E090240204
:104C3000F09025022C813D814E815F81C701B60134
:104C40000E94696387FF04C0CC82DD82EE82FF820E
:104C500012FF2CC0C0901A02D0901B02E0901C02E0
:104C6000F0901D02288539854A855B85C701B6010C
:104C70000E94446A181624F4C886D986EA86FB8600
:104C8000C0902602D0902702E0902802F0902902DE
:104C9000288539854A855B85C701B6010E9469630D
:104CA00087FF04C0C886D986EA86FB86DF91CF914C
:104CB0001F91FF90EF90DF90CF9008950F931F9377
:104CC0008C012FE43BE04BE45BE067E47BE083E4B2
:104CD0009BE00E94695B1F910F910895CF93DF9332
:104CE000CDB7DEB760970FB6F894DEBF0FBECDBF6D
:104CF000E3E4FBE080819181A281B38189839A837F
:104D0000AB83BC8384819581A681B7818D839E838B
:104D1000AF83B88780859185A285B38589879A8777
:104D2000AB87BC8784859585A685B7858D879E874B
:104D3000AF87B88B9E01235F3F4FAE01475F5F4F48
:104D4000BE016B5F7F4FCE0101960E94BD576096FA
:104D50000FB6F894DEBF0FBECDBFDF91CF9108959F
:104D6000CF93DF93CDB7DEB72C970FB6F894DEBFA5
:104D70000FBECDBF0E94EF5A0E943A579CE0E1E47B
:104D8000F9E0DE01119601900D929A95E1F78111FB
:104D90000E944757CE0101960E9407532C960FB6EA
:104DA000F894DEBF0FBECDBFDF91CF910895809103
:104DB0005C03659B02C0816001C08E7F80935C03B1
:104DC0009091030180915C0391FF02C0826001C059
:104DD0008D7F80935C0380915C034B9B02C0846059
:104DE00001C08B7F80935C038091DB0380FF10C048
:104DF0008091710980FF0CC080915C0380FF08C026
:104E00008091F30A81608093F30A80E00E943B5313
:104E10008091DB03869580FF11C080917109869592
:104E200080FF0CC080915C0381FF08C08091F30A71
:104E300082608093F30A81E00E943B538091DB0300
:104E40008695869580FF12C080917109869586951A
:104E500080FF0CC080915C0382FF08C08091F30A40
:104E600084608093F30A82E00C943B5308958EEDA6
:104E700097E00E94B62C8CB168ED77E085FB88271F
:104E800080F90E94DD248091030162ED77E0869530
:104E900081700E94DD2489B16CEC77E083FB882768
:104EA00080F90C94DD240F931F9380918002813050
:104EB00019F40E94CE5308C060917C0270917D026B
:104EC00080917E0290917F020091580310915903C6
:104ED00020915A0330915B03601B710B820B930B83
:104EE00028EE33E040E050E00E945A67809154037E
:104EF00090915503A0915603B0915703BC01CD0189
:104F0000620F731F841F951F1F910F9108951092B8
:104F10008002109258031092590310925A03109273
:104F20005B0310927C0210927D0210927E0210921E
:104F30007F02109254031092550310925603109260
:104F400057030895809180028130F1F0823059F446
:104F50000E94532760935403709355038093560324
:104F60009093570302C00E94872781E080938002BC
:104F70000E94CE53609358037093590380935A0351
:104F800090935B0381E0089580E008958091800212
:104F90008150823010F080E00895109280020E94CB
:104FA000CE5360937C0270937D0280937E02909337
:104FB0007F0281E008958091B6028093B70284EB6E
:104FC00097E00E94B62C8091770290917802A09190
:104FD0007902B0917A02BC01CD016F5F7F4F8F4F94
:104FE0009F4F0E945F2D0E94F02DE0915402F0E04F
:104FF000EF56F44F8081882339F085E692E00E94D5
:10500000B62C8AE00C94AF2C08957F928F929F92D9
:10501000AF92BF92CF92DF92EF92FF920F931F93C6
:10502000CF93DF9310926C0210926B022FE32093C8
:10503000AE021092AD021092AC0210928102109258
:10504000820210928302109284029C01F9019081E5
:105050002F5F3F4F9032D1F39E3489F4818190EDE0
:10506000980F9A3008F419C18D3209F416C18B32A9
:1050700031F413C1FD01119680818032D9F3F09390
:10508000420BE093410B8F010F5F1F4F70806AE26C
:1050900070E0C8010E94F16A009731F0FC0131977D
:1050A00080818032E1F311824DE4842E781441F046
:1050B00034E5932E791421F027E4A22E7A1009C149
:1050C000F80180810F5F1F4F8032D1F380538A3007
:1050D00008F0FFC07092AE021092AD021092AC02C6
:1050E0002AE031968091AC029091AD02289FA001F8
:1050F000299F500D1124DF0111978C91480F511DEC
:1051000087FD5A95405351095093AD024093AC022C
:10511000808180538A3028F3DF0131968C91803270
:10512000D9F39DE4B92E7B101AC04E31510591F090
:105130003CF44731510571F04C31510581F40AC0FE
:105140004537510564F04737510524F0403A83E074
:10515000580729F4B0936C02A0936B02BAC0109266
:105160006C0210926B026091410BC12CD12C760124
:10517000C394FD0131962C91222309F4AAC0213257
:10518000A9F4CDE47C1212C04032510579F4F093B9
:105190006C02E0936B0263E270E0CF010E94F16A5F
:1051A000009709F496C0FC01108293C021542A3163
:1051B00008F04BC0DF01FD01808111968032D9F3E8
:1051C00090ED980F9A30B0F08E3211F481810EC0BC
:1051D0008D3219F08B3209F06CC0818190ED980FFF
:1051E0009A3040F08E3209F064C0828180538A3058
:1051F00008F05FC0CF01A22FB0E04601570104C004
:10520000880C991CAA1CBB1C2A95D2F79501840115
:105210008090810290908202A0908302B0908402DC
:10522000082919292A293B29009381021093820217
:105230002093830230938402009711F0861B01C0F3
:1052400080E0A65CBC4F8C930AC080916B02909169
:105250006C02892B21F4B0936C02A0936B028081C5
:1052600081548A3138F4DF0184CF90ED980F9A3061
:1052700040F4F901DF01EF0189919E018111F5CF21
:1052800078CF93ED980F9230A0F38B3291F3DF013A
:1052900031968C918032D9F36CCFDF0112969D014B
:1052A0002F5F3F4F8C9180538A3008F0E3CED901B5
:1052B000F6CF80916B0290916C02009739F4DF0178
:1052C0001197B0936C02A0936B0295CF80E090E0B1
:1052D00092CFDF91CF911F910F91FF90EF90DF90D0
:1052E000CF90BF90AF909F908F907F9008950F9335
:1052F0001F93CF938C01C62F8FEA97E00E94B62CA4
:10530000C8010E94B62C8AE30E94AF2C6C2F70E07B
:1053100080E090E00E945F2DCF911F910F910C943F
:10532000F02D8091940290919502009731F04AE01F
:1053300050E060E070E00C94B26060E070E0CB019F
:1053400008950E94912997FD0CC00E9491296F3FFA
:1053500071058105910509F034F40E949129862F89
:10536000089580E008958FEF0895809194029091C0
:105370009502892B39F00E94A12991E0811103C087
:1053800090E001C091E0892F08950F931F93CF9370
:105390008091940290919502009711F1FC018F0188
:1053A000C1912C2F2F7DA9F0C53411F0C536B9F766
:1053B000F801108260E070E0809194029091950273
:1053C0000E94565FF801C083562F472F382F292F90
:1053D0000BC060E070E0CF911F910F910C94565F6D
:1053E00050E040E030E020E0652F742F832F922FB3
:1053F000CF911F910F91089581548A3108F047C0D1
:10540000E82FF0E040918102509182026091830286
:105410007091840204C076956795579547958A9553
:10542000D2F7842F817040FF34C0E65CFC4F90813E
:10543000992341F1E091410BF091420BE90FF11DED
:10544000908120ED290F2A3098F09E3211F491813D
:105450000CC09D3211F09B3271F4918120ED290F27
:105460002A3030F09E3239F4928190539A3018F4F9
:105470002E2F9F2F02C020E090E020939402909363
:10548000950208951092950210929402089580E07A
:10549000089508950E94FC29882341F081E020911D
:1054A000940230919502232B09F480E008958F92A5
:1054B0009F92AF92BF92CF92DF92EF92FF920F93A3
:1054C0001F93CF938AE9E82E82E0F82E03E41BE0D5
:1054D00093E5C92E9BE0D92EC0E088E58C0F0E9491
:1054E0004A2A882311F10E94C5294B015C018C2FA7
:1054F0000E94C424882351F0F80120813181428127
:105500005381C501B4010E94E46709C0F6012081FE
:10551000318142815381C501B4010E94E367F701E3
:1055200060837183828393830AC0F80180819181B3
:10553000A281B381F70180839183A283B383CF5F7C
:10554000F4E0EF0EF11C0C5F1F4F84E0C80ED11C7D
:10555000C33019F685E40E944A2A882301F10E948B
:10556000C5296B017C0183E00E94C424882371F06B
:1055700020914F0B3091500B4091510B5091520B99
:10558000C701B6010E94E4676B017C01C092A602CC
:10559000D092A702E092A802F092A90210C08091D6
:1055A0004F0B9091500BA091510BB091520B8093E7
:1055B000A6029093A702A093A802B093A90286E442
:1055C0000E944A2A8823C9F00E94C52920E030E0C1
:1055D000A9010E94446A181684F40E94C52920E09B
:1055E00030E040E752E40E94DE6860932C02709342
:1055F0002D0280932E0290932F02CF911F910F9135
:10560000FF90EF90DF90CF90BF90AF909F908F90E2
:105610000895CF93DF93C82FD62F0E944A2A88235C
:1056200021F0DF91CF910C94B5298C2F0E94FC2999
:10563000811101C08D2FDF91CF910895CF92DF921C
:10564000EF92FF926B017C0183E3C816D104E10461
:10565000F10470F082E3C81AD108E108F10862E3AE
:1056600070E080E090E00E9494530E943050ECCFB4
:10567000C701B6010E949453FF90EF90DF90CF9046
:105680000C94305080919202882331F062E070E0F7
:1056900080E090E00C941E2B0895CF92DF92EF9261
:1056A000FF926A017B010E94B62C42E0C701B6015D
:1056B000FF90EF90DF90CF900C947B2D882319F012
:1056C0000E94C52C03C080E20E94AF2C4091ED08DF
:1056D0005091EE086091EF087091F00885E997E02D
:1056E0000E944D2B4091F1085091F2086091F3080F
:1056F0007091F4088AE894E00E944D2B4091F508DF
:105700005091F6086091F7087091F80887E894E0E6
:105710000E944D2B4091F9085091FA086091FB08C6
:105720007091FC0889E593E10E944D2B8AE00C946E
:10573000AF2CCF93DF93EB010E94B62CBE01DD0F9F
:10574000880B990BDF91CF910C945F2DCF9384E55B
:105750000E944A2A882301F10E94A129C82F181605
:10576000E4F40E94C52C8DE40E94AF2C6091AC0241
:105770007091AD02072E000C880B990B0E945F2DD3
:105780006C2FCC0F770B8CE997E00E94992B8AE065
:105790000E94AF2C8FEF01C080E0CF9108950F934E
:1057A0001F93CF93DF938B010E94B62CE801899160
:1057B000882319F00E94AF2CFACFDF91CF911F916F
:1057C0000F9108958EE897E00C94B62C1F93CF9319
:1057D000DF93EC01162F0E94E22BCE010E94B62C23
:1057E000C12F012E000CDD0BFE01EE0FFF1FEE0F8F
:1057F000FF1FE958FD4F60817181828193810E9472
:105800005F2D0E94F02D111104C00E94032E0196FD
:10581000E1F70E94DB27CC0FDD1FC85CDC4F19824B
:105820001882DF91CF911F910895129A08955F9A7F
:10583000809171028E7F809371028A9A80917102A9
:105840008D7F809371028091080180958170809393
:105850000601809171028B7F809371020C94152C4C
:105860004F925F926F927F928F929F92AF92BF9270
:10587000CF92DF92EF92FF920E943A5790916C0B79
:1058800090936B0B90936A0B9093690B94E69093B3
:10589000680B20ED33E03093D7082093D6088111B0
:1058A0000E94475781E0809334090E94AA5481E006
:1058B0000E9430594B015C0180E00E9430592B015D
:1058C0003C01609360037093610380936203909343
:1058D00063038092640390926503A0926603B09282
:1058E000670382E00E9430596B017C01609368037A
:1058F0007093690380936A0390936B0383E00E9423
:1059000030594092430B5092440B6092450B709279
:10591000460B8092470B9092480BA092490BB09295
:105920004A0BC0924B0BD0924C0BE0924D0BF09275
:105930004E0B60934F0B7093500B8093510B9093D1
:10594000520BFF90EF90DF90CF90BF90AF909F9061
:105950008F907F906F905F904F900C946E269091F7
:10596000C00095FFFCCF8093C6000895CF93DF93CE
:10597000FC018491EF012196882321F00E94AF2C35
:10598000FE01F7CFDF91CF91089585EC99E00C945B
:10599000B62CC42F0E94544E0E94E22B85EA99E057
:1059A0000E94B62C89EE93E030E6019729F0232F70
:1059B0002A950000E9F7F9CFF89489EE93E038EEE4
:1059C000019729F0232F2A950000E9F7F9CF0E94CB
:1059D000544ECC2319F00E94172C02C00E94152CA3
:1059E000A895FECF8F929F92AF92BF92EF92FF92B7
:1059F0000F931F93CF93DF93CDB7DEB7A0970FB66A
:105A0000F894DEBF0FBECDBF61157105810591050C
:105A100091F100E0842E912CA12CB12C102FEE24BA
:105A2000E394F12CEC0EFD1EE00EF11C07FDFA9440
:105A3000A50194010E945A67F7016083B901CA0168
:105A40000F5F611571058105910541F71F3F31F128
:105A5000E1E0F0E0EC0FFD1FE10FF11D17FDFA95FD
:105A600080818A3010F097E301C090E3890F0E9493
:105A7000AF2C1150EBCF80E3A0960FB6F894DEBFA9
:105A80000FBECDBFDF91CF911F910F91FF90EF908F
:105A9000BF90AF909F908F900C94AF2CA0960FB6B4
:105AA000F894DEBF0FBECDBFDF91CF911F910F9154
:105AB000FF90EF90BF90AF909F908F900895CF92FE
:105AC000DF92EF92FF926B017C0197FF0BC08DE29A
:105AD0000E94AF2CF094E094D094C094C11CD11CCF
